{"contracts/SmartEstate.sol":{"SmartEstate":{"abi":[{"inputs":[],"stateMutability":"nonpayable","type":"constructor"},{"anonymous":false,"inputs":[{"indexed":true,"internalType":"address","name":"owner","type":"address"},{"indexed":true,"internalType":"address","name":"approved","type":"address"},{"indexed":true,"internalType":"uint256","name":"tokenId","type":"uint256"}],"name":"Approval","type":"event"},{"anonymous":false,"inputs":[{"indexed":true,"internalType":"address","name":"owner","type":"address"},{"indexed":true,"internalType":"address","name":"operator","type":"address"},{"indexed":false,"internalType":"bool","name":"approved","type":"bool"}],"name":"ApprovalForAll","type":"event"},{"anonymous":false,"inputs":[{"indexed":true,"internalType":"address","name":"from","type":"address"},{"indexed":true,"internalType":"address","name":"to","type":"address"},{"indexed":true,"internalType":"uint256","name":"tokenId","type":"uint256"}],"name":"Transfer","type":"event"},{"inputs":[{"internalType":"uint256","name":"plotId","type":"uint256"}],"name":"acceptPlot","outputs":[],"stateMutability":"nonpayable","type":"function"},{"inputs":[{"internalType":"string","name":"name","type":"string"},{"internalType":"string","name":"realAdd","type":"string"},{"internalType":"string","name":"xCor","type":"string"},{"internalType":"string","name":"yCor","type":"string"},{"internalType":"uint256","name":"totalQuantity","type":"uint256"},{"internalType":"uint256","name":"availableStocks","type":"uint256"},{"internalType":"uint256","name":"price","type":"uint256"},{"internalType":"uint256","name":"rentAmount","type":"uint256"}],"name":"addPlot","outputs":[],"stateMutability":"nonpayable","type":"function"},{"inputs":[{"internalType":"address","name":"to","type":"address"},{"internalType":"uint256","name":"tokenId","type":"uint256"}],"name":"approve","outputs":[],"stateMutability":"nonpayable","type":"function"},{"inputs":[{"internalType":"address","name":"owner","type":"address"}],"name":"balanceOf","outputs":[{"internalType":"uint256","name":"","type":"uint256"}],"stateMutability":"view","type":"function"},{"inputs":[{"internalType":"uint256","name":"stockId","type":"uint256"},{"internalType":"address","name":"target","type":"address"},{"internalType":"uint256","name":"quantityToBuy","type":"uint256"},{"internalType":"uint256","name":"price","type":"uint256"},{"internalType":"uint256","name":"plotId","type":"uint256"},{"internalType":"uint256","name":"sellQuantity","type":"uint256"}],"name":"buyStocks","outputs":[],"stateMutability":"nonpayable","type":"function"},{"inputs":[{"internalType":"uint256","name":"stockId","type":"uint256"},{"internalType":"uint256","name":"buyable","type":"uint256"}],"name":"checkAvailableStocksForBuyer","outputs":[{"internalType":"bool","name":"","type":"bool"}],"stateMutability":"view","type":"function"},{"inputs":[{"internalType":"uint256","name":"stockId","type":"uint256"},{"internalType":"uint256","name":"sellable","type":"uint256"}],"name":"checkAvailableStocksForSeller","outputs":[{"internalType":"bool","name":"","type":"bool"}],"stateMutability":"view","type":"function"},{"inputs":[{"internalType":"string","name":"_string1","type":"string"},{"internalType":"string","name":"_string2","type":"string"}],"name":"compareStrings","outputs":[{"internalType":"bool","name":"","type":"bool"}],"stateMutability":"pure","type":"function"},{"inputs":[{"internalType":"uint256","name":"source","type":"uint256"},{"internalType":"uint256","name":"target","type":"uint256"},{"internalType":"uint256","name":"quantity","type":"uint256"},{"internalType":"uint256","name":"price","type":"uint256"},{"internalType":"uint256","name":"timestamp","type":"uint256"},{"internalType":"uint256","name":"plotId","type":"uint256"}],"name":"createTransaction","outputs":[{"internalType":"uint256","name":"","type":"uint256"}],"stateMutability":"nonpayable","type":"function"},{"inputs":[{"internalType":"uint256","name":"rentId","type":"uint256"}],"name":"fetchAllPaymentByRentID","outputs":[{"components":[{"internalType":"uint256","name":"rentId","type":"uint256"},{"internalType":"uint256","name":"amount","type":"uint256"},{"internalType":"uint256","name":"date","type":"uint256"}],"internalType":"struct SmartEstate.Payment[]","name":"","type":"tuple[]"}],"stateMutability":"view","type":"function"},{"inputs":[],"name":"fetchAllPlotRequests","outputs":[{"components":[{"internalType":"uint256","name":"id","type":"uint256"},{"internalType":"uint256","name":"creatorId","type":"uint256"},{"internalType":"string","name":"name","type":"string"},{"internalType":"string","name":"realAdd","type":"string"},{"internalType":"string","name":"xCor","type":"string"},{"internalType":"string","name":"yCor","type":"string"},{"internalType":"uint256","name":"totalQuantity","type":"uint256"},{"internalType":"uint256","name":"availableStocks","type":"uint256"},{"internalType":"uint256","name":"price","type":"uint256"},{"internalType":"bool","name":"rented","type":"bool"},{"internalType":"uint256","name":"rentAmount","type":"uint256"}],"internalType":"struct SmartEstate.Plot[]","name":"","type":"tuple[]"}],"stateMutability":"view","type":"function"},{"inputs":[],"name":"fetchAllPlots","outputs":[{"components":[{"internalType":"uint256","name":"id","type":"uint256"},{"internalType":"uint256","name":"creatorId","type":"uint256"},{"internalType":"string","name":"name","type":"string"},{"internalType":"string","name":"realAdd","type":"string"},{"internalType":"string","name":"xCor","type":"string"},{"internalType":"string","name":"yCor","type":"string"},{"internalType":"uint256","name":"totalQuantity","type":"uint256"},{"internalType":"uint256","name":"availableStocks","type":"uint256"},{"internalType":"uint256","name":"price","type":"uint256"},{"internalType":"bool","name":"rented","type":"bool"},{"internalType":"uint256","name":"rentAmount","type":"uint256"}],"internalType":"struct SmartEstate.Plot[]","name":"","type":"tuple[]"}],"stateMutability":"view","type":"function"},{"inputs":[{"internalType":"uint256","name":"userId","type":"uint256"}],"name":"fetchAllRentAggrements","outputs":[{"components":[{"internalType":"uint256","name":"plotId","type":"uint256"},{"internalType":"uint256","name":"renterId","type":"uint256"},{"internalType":"uint256","name":"startDate","type":"uint256"},{"internalType":"uint256","name":"endDate","type":"uint256"},{"internalType":"uint256","name":"rentAmount","type":"uint256"},{"internalType":"string","name":"description","type":"string"},{"internalType":"string","name":"cid","type":"string"}],"internalType":"struct SmartEstate.RentAggrement[]","name":"","type":"tuple[]"}],"stateMutability":"view","type":"function"},{"inputs":[{"internalType":"uint256","name":"plotId","type":"uint256"}],"name":"fetchAllStocksForPlot","outputs":[{"components":[{"internalType":"address","name":"holderAddress","type":"address"},{"internalType":"uint256","name":"stockId","type":"uint256"},{"internalType":"uint256","name":"userId","type":"uint256"},{"internalType":"uint256","name":"plotId","type":"uint256"},{"internalType":"uint256","name":"quantity","type":"uint256"},{"internalType":"uint256","name":"sellable","type":"uint256"},{"internalType":"uint256","name":"price","type":"uint256"}],"internalType":"struct SmartEstate.Stocks[]","name":"","type":"tuple[]"}],"stateMutability":"view","type":"function"},{"inputs":[{"internalType":"address","name":"userAdd","type":"address"}],"name":"fetchAllStocksForUser","outputs":[{"components":[{"internalType":"address","name":"holderAddress","type":"address"},{"internalType":"uint256","name":"stockId","type":"uint256"},{"internalType":"uint256","name":"userId","type":"uint256"},{"internalType":"uint256","name":"plotId","type":"uint256"},{"internalType":"uint256","name":"quantity","type":"uint256"},{"internalType":"uint256","name":"sellable","type":"uint256"},{"internalType":"uint256","name":"price","type":"uint256"}],"internalType":"struct SmartEstate.Stocks[]","name":"","type":"tuple[]"}],"stateMutability":"view","type":"function"},{"inputs":[],"name":"fetchAllTransactions","outputs":[{"components":[{"internalType":"uint256","name":"source","type":"uint256"},{"internalType":"uint256","name":"target","type":"uint256"},{"internalType":"uint256","name":"quantity","type":"uint256"},{"internalType":"uint256","name":"price","type":"uint256"},{"internalType":"uint256","name":"timestamp","type":"uint256"},{"internalType":"uint256","name":"plotId","type":"uint256"},{"internalType":"int8","name":"state","type":"int8"}],"internalType":"struct SmartEstate.Transaction[]","name":"","type":"tuple[]"}],"stateMutability":"view","type":"function"},{"inputs":[{"internalType":"uint256","name":"userId","type":"uint256"}],"name":"fetchAllUserPayments","outputs":[{"components":[{"internalType":"uint256","name":"rentId","type":"uint256"},{"internalType":"uint256","name":"amount","type":"uint256"},{"internalType":"uint256","name":"date","type":"uint256"}],"internalType":"struct SmartEstate.Payment[]","name":"","type":"tuple[]"}],"stateMutability":"view","type":"function"},{"inputs":[],"name":"fetchAllUserRequests","outputs":[{"components":[{"internalType":"uint256","name":"userId","type":"uint256"},{"internalType":"address","name":"userAdd","type":"address"},{"internalType":"string","name":"name","type":"string"},{"internalType":"string","name":"mobileNo","type":"string"},{"internalType":"string","name":"aadhaar","type":"string"},{"internalType":"string","name":"aadhaarCID","type":"string"}],"internalType":"struct SmartEstate.User[]","name":"","type":"tuple[]"}],"stateMutability":"view","type":"function"},{"inputs":[],"name":"fetchAllUsers","outputs":[{"components":[{"internalType":"uint256","name":"userId","type":"uint256"},{"internalType":"address","name":"userAdd","type":"address"},{"internalType":"string","name":"name","type":"string"},{"internalType":"string","name":"mobileNo","type":"string"},{"internalType":"string","name":"aadhaar","type":"string"},{"internalType":"string","name":"aadhaarCID","type":"string"}],"internalType":"struct SmartEstate.User[]","name":"","type":"tuple[]"}],"stateMutability":"view","type":"function"},{"inputs":[{"internalType":"uint256","name":"plotId","type":"uint256"}],"name":"fetchPlotById","outputs":[{"components":[{"internalType":"uint256","name":"id","type":"uint256"},{"internalType":"uint256","name":"creatorId","type":"uint256"},{"internalType":"string","name":"name","type":"string"},{"internalType":"string","name":"realAdd","type":"string"},{"internalType":"string","name":"xCor","type":"string"},{"internalType":"string","name":"yCor","type":"string"},{"internalType":"uint256","name":"totalQuantity","type":"uint256"},{"internalType":"uint256","name":"availableStocks","type":"uint256"},{"internalType":"uint256","name":"price","type":"uint256"},{"internalType":"bool","name":"rented","type":"bool"},{"internalType":"uint256","name":"rentAmount","type":"uint256"}],"internalType":"struct SmartEstate.Plot","name":"","type":"tuple"}],"stateMutability":"view","type":"function"},{"inputs":[{"internalType":"uint256","name":"rentId","type":"uint256"}],"name":"fetchRentAggrementById","outputs":[{"components":[{"internalType":"uint256","name":"plotId","type":"uint256"},{"internalType":"uint256","name":"renterId","type":"uint256"},{"internalType":"uint256","name":"startDate","type":"uint256"},{"internalType":"uint256","name":"endDate","type":"uint256"},{"internalType":"uint256","name":"rentAmount","type":"uint256"},{"internalType":"string","name":"description","type":"string"},{"internalType":"string","name":"cid","type":"string"}],"internalType":"struct SmartEstate.RentAggrement","name":"","type":"tuple"}],"stateMutability":"view","type":"function"},{"inputs":[{"internalType":"address","name":"addr","type":"address"}],"name":"fetchUserByAddress","outputs":[{"components":[{"internalType":"uint256","name":"userId","type":"uint256"},{"internalType":"address","name":"userAdd","type":"address"},{"internalType":"string","name":"name","type":"string"},{"internalType":"string","name":"mobileNo","type":"string"},{"internalType":"string","name":"aadhaar","type":"string"},{"internalType":"string","name":"aadhaarCID","type":"string"}],"internalType":"struct SmartEstate.User","name":"","type":"tuple"}],"stateMutability":"view","type":"function"},{"inputs":[{"internalType":"uint256","name":"id","type":"uint256"}],"name":"fetchUserById","outputs":[{"components":[{"internalType":"uint256","name":"userId","type":"uint256"},{"internalType":"address","name":"userAdd","type":"address"},{"internalType":"string","name":"name","type":"string"},{"internalType":"string","name":"mobileNo","type":"string"},{"internalType":"string","name":"aadhaar","type":"string"},{"internalType":"string","name":"aadhaarCID","type":"string"}],"internalType":"struct SmartEstate.User","name":"","type":"tuple"}],"stateMutability":"view","type":"function"},{"inputs":[{"internalType":"address","name":"userAdd","type":"address"}],"name":"fetchUserPlots","outputs":[{"components":[{"internalType":"uint256","name":"id","type":"uint256"},{"internalType":"uint256","name":"creatorId","type":"uint256"},{"internalType":"string","name":"name","type":"string"},{"internalType":"string","name":"realAdd","type":"string"},{"internalType":"string","name":"xCor","type":"string"},{"internalType":"string","name":"yCor","type":"string"},{"internalType":"uint256","name":"totalQuantity","type":"uint256"},{"internalType":"uint256","name":"availableStocks","type":"uint256"},{"internalType":"uint256","name":"price","type":"uint256"},{"internalType":"bool","name":"rented","type":"bool"},{"internalType":"uint256","name":"rentAmount","type":"uint256"}],"internalType":"struct SmartEstate.Plot[]","name":"","type":"tuple[]"}],"stateMutability":"view","type":"function"},{"inputs":[{"internalType":"uint256","name":"tokenId","type":"uint256"}],"name":"getApproved","outputs":[{"internalType":"address","name":"","type":"address"}],"stateMutability":"view","type":"function"},{"inputs":[{"internalType":"address","name":"owner","type":"address"},{"internalType":"address","name":"operator","type":"address"}],"name":"isApprovedForAll","outputs":[{"internalType":"bool","name":"","type":"bool"}],"stateMutability":"view","type":"function"},{"inputs":[],"name":"isOwner","outputs":[{"internalType":"bool","name":"","type":"bool"}],"stateMutability":"view","type":"function"},{"inputs":[{"internalType":"uint256","name":"plotId","type":"uint256"},{"internalType":"uint256","name":"months","type":"uint256"},{"internalType":"uint256","name":"rentAmount","type":"uint256"},{"internalType":"string","name":"description","type":"string"},{"internalType":"string","name":"cid","type":"string"}],"name":"mint","outputs":[],"stateMutability":"nonpayable","type":"function"},{"inputs":[],"name":"name","outputs":[{"internalType":"string","name":"","type":"string"}],"stateMutability":"view","type":"function"},{"inputs":[{"internalType":"uint256","name":"tokenId","type":"uint256"}],"name":"ownerOf","outputs":[{"internalType":"address","name":"","type":"address"}],"stateMutability":"view","type":"function"},{"inputs":[{"internalType":"uint256","name":"rentId","type":"uint256"}],"name":"payRent","outputs":[],"stateMutability":"payable","type":"function"},{"inputs":[{"internalType":"address","name":"userAdd","type":"address"},{"internalType":"string","name":"name","type":"string"},{"internalType":"string","name":"mobileNo","type":"string"},{"internalType":"string","name":"aadhaar","type":"string"},{"internalType":"string","name":"aadhaarCID","type":"string"}],"name":"registerUser","outputs":[],"stateMutability":"nonpayable","type":"function"},{"inputs":[{"internalType":"uint256","name":"plotId","type":"uint256"}],"name":"rejectPlot","outputs":[],"stateMutability":"nonpayable","type":"function"},{"inputs":[{"internalType":"uint256","name":"transacId","type":"uint256"}],"name":"rejectTransaction","outputs":[],"stateMutability":"nonpayable","type":"function"},{"inputs":[{"internalType":"address","name":"userAdd","type":"address"}],"name":"rejectUser","outputs":[],"stateMutability":"nonpayable","type":"function"},{"inputs":[{"internalType":"address","name":"target","type":"address"},{"internalType":"uint256","name":"quantityToBuy","type":"uint256"},{"internalType":"uint256","name":"price","type":"uint256"},{"internalType":"uint256","name":"plotId","type":"uint256"},{"internalType":"uint256","name":"sellQuantity","type":"uint256"}],"name":"requestToBuyStocks","outputs":[],"stateMutability":"nonpayable","type":"function"},{"inputs":[{"internalType":"address","name":"from","type":"address"},{"internalType":"address","name":"to","type":"address"},{"internalType":"uint256","name":"tokenId","type":"uint256"}],"name":"safeTransferFrom","outputs":[],"stateMutability":"nonpayable","type":"function"},{"inputs":[{"internalType":"address","name":"from","type":"address"},{"internalType":"address","name":"to","type":"address"},{"internalType":"uint256","name":"tokenId","type":"uint256"},{"internalType":"bytes","name":"data","type":"bytes"}],"name":"safeTransferFrom","outputs":[],"stateMutability":"nonpayable","type":"function"},{"inputs":[{"internalType":"address","name":"operator","type":"address"},{"internalType":"bool","name":"approved","type":"bool"}],"name":"setApprovalForAll","outputs":[],"stateMutability":"nonpayable","type":"function"},{"inputs":[{"internalType":"bytes4","name":"interfaceId","type":"bytes4"}],"name":"supportsInterface","outputs":[{"internalType":"bool","name":"","type":"bool"}],"stateMutability":"view","type":"function"},{"inputs":[],"name":"symbol","outputs":[{"internalType":"string","name":"","type":"string"}],"stateMutability":"view","type":"function"},{"inputs":[{"internalType":"uint256","name":"tokenId","type":"uint256"}],"name":"tokenURI","outputs":[{"internalType":"string","name":"","type":"string"}],"stateMutability":"view","type":"function"},{"inputs":[{"internalType":"address","name":"from","type":"address"},{"internalType":"address","name":"to","type":"address"},{"internalType":"uint256","name":"tokenId","type":"uint256"}],"name":"transferFrom","outputs":[],"stateMutability":"nonpayable","type":"function"},{"inputs":[{"internalType":"uint256","name":"stockId","type":"uint256"},{"internalType":"uint256","name":"buyable","type":"uint256"}],"name":"updateBuyableStocks","outputs":[],"stateMutability":"nonpayable","type":"function"},{"inputs":[{"internalType":"uint256","name":"plotId","type":"uint256"},{"internalType":"uint256","name":"rentAmount","type":"uint256"}],"name":"updateRentPrice","outputs":[],"stateMutability":"nonpayable","type":"function"},{"inputs":[{"internalType":"uint256","name":"stockId","type":"uint256"},{"internalType":"uint256","name":"sellable","type":"uint256"}],"name":"updateSellableStocks","outputs":[],"stateMutability":"nonpayable","type":"function"},{"inputs":[{"internalType":"uint256","name":"stockId","type":"uint256"},{"internalType":"uint256","name":"price","type":"uint256"}],"name":"updateStockPrice","outputs":[],"stateMutability":"nonpayable","type":"function"},{"inputs":[{"internalType":"uint256","name":"transacId","type":"uint256"}],"name":"validateTransaction","outputs":[],"stateMutability":"nonpayable","type":"function"},{"inputs":[{"internalType":"address","name":"userAdd","type":"address"}],"name":"verifyUser","outputs":[],"stateMutability":"nonpayable","type":"function"}],"evm":{"bytecode":{"linkReferences":{},"object":"60806040523480156200001157600080fd5b506040518060400160405280600681526020016566646a6b6c7360d01b815250604051806040016040528060048152602001636a6c6b7360e01b81525081600090816200005f91906200012e565b5060016200006e82826200012e565b5050600780546001600160a01b0319163317905550620001fa565b634e487b7160e01b600052604160045260246000fd5b600181811c90821680620000b457607f821691505b602082108103620000d557634e487b7160e01b600052602260045260246000fd5b50919050565b601f8211156200012957600081815260208120601f850160051c81016020861015620001045750805b601f850160051c820191505b81811015620001255782815560010162000110565b5050505b505050565b81516001600160401b038111156200014a576200014a62000089565b62000162816200015b84546200009f565b84620000db565b602080601f8311600181146200019a5760008415620001815750858301515b600019600386901b1c1916600185901b17855562000125565b600085815260208120601f198616915b82811015620001cb57888601518255948401946001909101908401620001aa565b5085821015620001ea5787850151600019600388901b60f8161c191681555b5050505050600190811b01905550565b615e6a806200020a6000396000f3fe6080604052600436106102ae5760003560e01c80635097bef8116101755780639f900a18116100dc578063c63af15f11610095578063e44176d81161006f578063e44176d8146108e6578063e959bf39146108fb578063e980509c1461091b578063e985e9c51461093b57600080fd5b8063c63af15f14610893578063c87b56dd146108b3578063d9e8843f146108d357600080fd5b80639f900a18146107dc578063a22cb465146107fc578063ad509e8d1461081c578063b88d4fde1461083e578063bed34bba1461085e578063c33743151461087e57600080fd5b8063801c67671161012e578063801c67671461070c5780638cffd853146107395780638f32d59b1461075957806395d89b411461077a578063999eab2b1461078f5780639c432e34146107af57600080fd5b80635097bef8146106305780635dd38e2d146106505780636352211e1461067d578063661b4cc21461069d57806370a08231146106bf5780637190314a146106df57600080fd5b8063310cd34f1161021957806342842e0e116101d257806342842e0e1461055e5780634d770ca01461057e5780634d813120146105a05780634dc92885146105c05780634f92e87d146105e05780634feb29821461060057600080fd5b8063310cd34f1461047457806331793fee146104a15780633b682632146104c15780633c2cff22146104e15780633fd7f8b8146105015780633ffc0d101461053157600080fd5b806311a80f7e1161026b57806311a80f7e146103a45780631396f769146103d257806318c5c090146103f25780631c468f0b146104125780631cd8f3c51461043257806323b872dd1461045457600080fd5b806301c2b352146102b357806301ffc9a7146102e857806305bf37aa1461030857806306fdde031461032a578063081812fc1461034c578063095ea7b314610384575b600080fd5b3480156102bf57600080fd5b506102d36102ce366004614f83565b610984565b60405190151581526020015b60405180910390f35b3480156102f457600080fd5b506102d3610303366004614fbb565b6109bf565b34801561031457600080fd5b50610328610323366004614fd8565b610a0f565b005b34801561033657600080fd5b5061033f610a49565b6040516102df9190615041565b34801561035857600080fd5b5061036c610367366004614fd8565b610adb565b6040516001600160a01b0390911681526020016102df565b34801561039057600080fd5b5061032861039f366004615070565b610b02565b3480156103b057600080fd5b506103c46103bf36600461509a565b610c1c565b6040519081526020016102df565b3480156103de57600080fd5b506103286103ed366004614fd8565b610cd6565b3480156103fe57600080fd5b5061032861040d366004614fd8565b610ffd565b34801561041e57600080fd5b5061032861042d3660046150dd565b611036565b34801561043e57600080fd5b5061032861044d36600461512b565b5050505050565b34801561046057600080fd5b5061032861046f36600461516d565b6112c4565b34801561048057600080fd5b5061049461048f366004614fd8565b6112f5565b6040516102df919061526e565b3480156104ad57600080fd5b506103286104bc366004614f83565b6115f8565b3480156104cd57600080fd5b506103286104dc366004614fd8565b611622565b3480156104ed57600080fd5b506102d36104fc366004614f83565b611635565b34801561050d57600080fd5b5061032861051c366004614f83565b60009182526017602052604090912060060155565b34801561053d57600080fd5b5061055161054c366004614fd8565b611661565b6040516102df91906152ea565b34801561056a57600080fd5b5061032861057936600461516d565b61181c565b34801561058a57600080fd5b50610593611837565b6040516102df91906152fd565b3480156105ac57600080fd5b506103286105bb36600461535f565b611b8f565b3480156105cc57600080fd5b506103286105db36600461535f565b611e17565b3480156105ec57600080fd5b506103286105fb366004614f83565b611f5c565b34801561060c57600080fd5b5061032861061b366004614f83565b600091825260156020526040909120600a0155565b34801561063c57600080fd5b5061032861064b366004615425565b611fa3565b34801561065c57600080fd5b5061067061066b36600461535f565b6120e8565b6040516102df91906154f5565b34801561068957600080fd5b5061036c610698366004614fd8565b61228f565b3480156106a957600080fd5b506106b26122ef565b6040516102df9190615580565b3480156106cb57600080fd5b506103c46106da36600461535f565b612423565b3480156106eb57600080fd5b506106ff6106fa366004614fd8565b6124a9565b6040516102df9190615606565b34801561071857600080fd5b5061072c610727366004614fd8565b61261e565b6040516102df9190615652565b34801561074557600080fd5b506103286107543660046156a7565b6128e7565b34801561076557600080fd5b506102d36007546001600160a01b0316331490565b34801561078657600080fd5b5061033f6129fa565b34801561079b57600080fd5b506103286107aa366004615727565b612a09565b3480156107bb57600080fd5b506107cf6107ca366004614fd8565b612b84565b6040516102df9190615826565b3480156107e857600080fd5b506107cf6107f736600461535f565b612e4b565b34801561080857600080fd5b50610328610817366004615839565b613055565b34801561082857600080fd5b50610831613064565b6040516102df9190615875565b34801561084a57600080fd5b506103286108593660046158ca565b61337f565b34801561086a57600080fd5b506102d3610879366004615945565b6133b7565b34801561088a57600080fd5b50610831613410565b34801561089f57600080fd5b506106706108ae366004614fd8565b61372b565b3480156108bf57600080fd5b5061033f6108ce366004614fd8565b61389c565b6103286108e1366004614fd8565b6139ac565b3480156108f257600080fd5b50610593613c68565b34801561090757600080fd5b5061059361091636600461535f565b613fba565b34801561092757600080fd5b506106ff610936366004614fd8565b6143aa565b34801561094757600080fd5b506102d36109563660046159a8565b6001600160a01b03918216600090815260056020908152604080832093909416825291909152205460ff1690565b600082815260176020526040812060048101546005909101546109a89084906159f1565b116109b5575060016109b9565b5060005b92915050565b60006001600160e01b031982166380ac58cd60e01b14806109f057506001600160e01b03198216635b5e139f60e01b145b806109b957506301ffc9a760e01b6001600160e01b03198316146109b9565b600081815260146020526040812060060154810b9003610a46576000818152601460205260409020600601805460ff191660021790555b50565b606060008054610a5890615a04565b80601f0160208091040260200160405190810160405280929190818152602001828054610a8490615a04565b8015610ad15780601f10610aa657610100808354040283529160200191610ad1565b820191906000526020600020905b815481529060010190602001808311610ab457829003601f168201915b5050505050905090565b6000610ae6826144ff565b506000908152600460205260409020546001600160a01b031690565b6000610b0d8261228f565b9050806001600160a01b0316836001600160a01b031603610b7f5760405162461bcd60e51b815260206004820152602160248201527f4552433732313a20617070726f76616c20746f2063757272656e74206f776e656044820152603960f91b60648201526084015b60405180910390fd5b336001600160a01b0382161480610b9b5750610b9b8133610956565b610c0d5760405162461bcd60e51b815260206004820152603d60248201527f4552433732313a20617070726f76652063616c6c6572206973206e6f7420746f60448201527f6b656e206f776e6572206f7220617070726f76656420666f7220616c6c0000006064820152608401610b76565b610c17838361455e565b505050565b6040805160e0810182528781526020808201888152828401888152606084018881526080850188815260a08601888152600060c088018181526009805483526014909852988120975188559451600180890191909155935160028801559151600387015551600486015551600585015593516006909301805460ff191660ff9094169390931790925580549192918390610cb79084906159f1565b9091555050600954610ccb90600190615a38565b979650505050505050565b6000818152601660209081526040808320600a54845260159092529091208154815560018083015490820155600280820190610d1490840182615a99565b50600381810190610d2790840182615a99565b50600481810190610d3a90840182615a99565b50600581810190610d4d90840182615a99565b50600682810154828201556007808401548184015560088085015481850155600980860154908501805460ff191660ff9092161515919091179055600a948501549385019390935592546000818152601560209081526040808320848155815160e08101835233808252600e8054838701818152928852601987528588205484870190815260608501998a52858b0154608086019081529c86015460a0860190815295909b015460c085019081529088526017909652938620915182546001600160a01b0319166001600160a01b0390911617825551600182810191909155975160028201559451600386015596516004850155955160058401555191909201558254919291610e5e9084906159f1565b925050819055506001600a6000828254610e7891906159f1565b92505081905550601660006001600b54610e929190615a38565b8152602080820192909252604090810160009081208482526016909352208154815560018083015490820155600280820190610ed090840182615a99565b50600381810190610ee390840182615a99565b50600481810190610ef690840182615a99565b50600581810190610f0990840182615a99565b50600682810154908201556007808301549082015560088083015490820155600980830154908201805460ff191660ff9092161515919091179055600a91820154910155600b54601690600090610f6290600190615a38565b8152602081019190915260400160009081208181556001810182905590610f8c6002830182614e4f565b610f9a600383016000614e4f565b610fa8600483016000614e4f565b610fb6600583016000614e4f565b50600060068201819055600782018190556008820181905560098201805460ff19169055600a909101819055600b805460019290610ff5908490615a38565b909155505050565b600081815260146020526040812060060154810b9003610a46576000818152601460205260409020600601805460ff1916600117905550565b33600090815260196020526040808220546001600160a01b038816835290822054611065919087874288610c1c565b90506110718786611635565b6110835761107e81610a0f565b6112bb565b60005b600e548110156111a057336000908152601960209081526040808320548484526017909252909120600201541480156110cf575060008181526017602052604090206003015484145b1561118e5760008181526017602052604090206004015483906110f39088906159f1565b1115611185576000818152601760205260408120600401805488929061111a9084906159f1565b9091555050600081815260176020526040812060050180548892906111409084906159f1565b9091555061115090508887611f5c565b60008481526015602052604081206007018054889290611171908490615a38565b90915550611180905082610ffd565b61118e565b61118e82610a0f565b8061119881615b75565b915050611086565b600e5481036112b957828611156112b0576111bb8887611f5c565b600084815260156020526040812060070180548892906111dc908490615a38565b90915550506040805160e08101825233808252600e8054602080850182815260009485526019825286852054868801908152606087018c8152608088018f815260a089018d81528e8952601586528a89206008015460c08b019081529689526017909552988720975188546001600160a01b0319166001600160a01b03909116178855915160018089019190915590516002880155905160038701559551600486015551600585015551600690930192909255815461129c9084906159f1565b909155506112ab905082610ffd565b6112b9565b6112b982610a0f565b505b50505050505050565b6112ce33826145cc565b6112ea5760405162461bcd60e51b8152600401610b7690615b8e565b610c1783838361464a565b6112fd614e89565b600a54821061133f5760405162461bcd60e51b815260206004820152600e60248201526d4e6f20706c6f742065786973747360901b6044820152606401610b76565b6015600083815260200190815260200160002060405180610160016040529081600082015481526020016001820154815260200160028201805461138290615a04565b80601f01602080910402602001604051908101604052809291908181526020018280546113ae90615a04565b80156113fb5780601f106113d0576101008083540402835291602001916113fb565b820191906000526020600020905b8154815290600101906020018083116113de57829003601f168201915b5050505050815260200160038201805461141490615a04565b80601f016020809104026020016040519081016040528092919081815260200182805461144090615a04565b801561148d5780601f106114625761010080835404028352916020019161148d565b820191906000526020600020905b81548152906001019060200180831161147057829003601f168201915b505050505081526020016004820180546114a690615a04565b80601f01602080910402602001604051908101604052809291908181526020018280546114d290615a04565b801561151f5780601f106114f45761010080835404028352916020019161151f565b820191906000526020600020905b81548152906001019060200180831161150257829003601f168201915b5050505050815260200160058201805461153890615a04565b80601f016020809104026020016040519081016040528092919081815260200182805461156490615a04565b80156115b15780601f10611586576101008083540402835291602001916115b1565b820191906000526020600020905b81548152906001019060200180831161159457829003601f168201915b5050509183525050600682015460208201526007820154604082015260088201546060820152600982015460ff1615156080820152600a9091015460a09091015292915050565b600082815260176020526040812060050180548392906116199084906159f1565b90915550505050565b601660006001600b54610e929190615a38565b6000828152601760205260408120600501548190611654908490615a38565b106109b5575060016109b9565b6116a16040518060e00160405280600081526020016000815260200160008152602001600081526020016000815260200160608152602001606081525090565b601060008381526020019081526020016000206040518060e0016040529081600082015481526020016001820154815260200160028201548152602001600382015481526020016004820154815260200160058201805461170190615a04565b80601f016020809104026020016040519081016040528092919081815260200182805461172d90615a04565b801561177a5780601f1061174f5761010080835404028352916020019161177a565b820191906000526020600020905b81548152906001019060200180831161175d57829003601f168201915b5050505050815260200160068201805461179390615a04565b80601f01602080910402602001604051908101604052809291908181526020018280546117bf90615a04565b801561180c5780601f106117e15761010080835404028352916020019161180c565b820191906000526020600020905b8154815290600101906020018083116117ef57829003601f168201915b5050505050815250509050919050565b610c178383836040518060200160405280600081525061337f565b60606000600b546001600160401b038111156118555761185561537a565b60405190808252806020026020018201604052801561188e57816020015b61187b614e89565b8152602001906001900390816118735790505b50905060005b600b54811015611b89576000601660008381526020019081526020016000209050806040518061016001604052908160008201548152602001600182015481526020016002820180546118e690615a04565b80601f016020809104026020016040519081016040528092919081815260200182805461191290615a04565b801561195f5780601f106119345761010080835404028352916020019161195f565b820191906000526020600020905b81548152906001019060200180831161194257829003601f168201915b5050505050815260200160038201805461197890615a04565b80601f01602080910402602001604051908101604052809291908181526020018280546119a490615a04565b80156119f15780601f106119c6576101008083540402835291602001916119f1565b820191906000526020600020905b8154815290600101906020018083116119d457829003601f168201915b50505050508152602001600482018054611a0a90615a04565b80601f0160208091040260200160405190810160405280929190818152602001828054611a3690615a04565b8015611a835780601f10611a5857610100808354040283529160200191611a83565b820191906000526020600020905b815481529060010190602001808311611a6657829003601f168201915b50505050508152602001600582018054611a9c90615a04565b80601f0160208091040260200160405190810160405280929190818152602001828054611ac890615a04565b8015611b155780601f10611aea57610100808354040283529160200191611b15565b820191906000526020600020905b815481529060010190602001808311611af857829003601f168201915b5050509183525050600682015460208201526007820154604082015260088201546060820152600982015460ff1615156080820152600a9091015460a0909101528351849084908110611b6a57611b6a615bdb565b6020026020010181905250508080611b8190615b75565b915050611894565b50919050565b6001600160a01b03808216600090815260196020908152604080832054835260138252808320600c54845260129092529091208154815560018083015490820180546001600160a01b031916919094161790925590600280820190611bf690840182615a99565b50600381810190611c0990840182615a99565b50600481810190611c1c90840182615a99565b50600581810190611c2f90840182615a99565b5050600c54600081815260126020526040812091909155600d5460139250611c5990600190615a38565b8152602080820192909252604090810160009081206001600160a01b0380861683526019855283832054835260139094529190208154815560018083015490820180546001600160a01b031916919094161790925590600280820190611cc190840182615a99565b50600381810190611cd490840182615a99565b50600481810190611ce790840182615a99565b50600581810190611cfa90840182615a99565b5050506001600160a01b0381166000908152601960208190526040822054600d549092906013908290611d2f90600190615a38565b8152602080820192909252604090810160009081206001908101546001600160a01b03908116865285850196909652938201812095909555600c805494871686526019909252842083905590929091611d899084906159f1565b92505081905550601360006001600d54611da39190615a38565b8152602081019190915260400160009081208181556001810180546001600160a01b031916905590611dd86002830182614e4f565b611de6600383016000614e4f565b611df4600483016000614e4f565b611e02600583016000614e4f565b50506001600d6000828254610ff59190615a38565b601360006001600d54611e2a9190615a38565b8152602080820192909252604090810160009081206001600160a01b0380861683526019855283832054835260139094529190208154815560018083015490820180546001600160a01b031916919094161790925590600280820190611e9290840182615a99565b50600381810190611ea590840182615a99565b50600481810190611eb890840182615a99565b50600581810190611ecb90840182615a99565b5050506001600160a01b0381166000908152601960208190526040822054600d549092906013908290611f0090600190615a38565b815260200190815260200160002060010160009054906101000a90046001600160a01b03166001600160a01b03166001600160a01b0316815260200190815260200160002081905550601360006001600d54611da39190615a38565b60008281526017602052604081206005018054839290611f7d908490615a38565b909155505060008281526017602052604081206004018054839290611619908490615a38565b6040805161016081018252600b5480825233600090815260196020908152848220548185019081528486018e8152606086018e9052608086018d905260a086018c905260c086018b905260e086018a9052610100860189905261012086018490526101408601889052938352601690915293902082518155925160018401555190919060028201906120359082615bf1565b506060820151600382019061204a9082615bf1565b506080820151600482019061205f9082615bf1565b5060a082015160058201906120749082615bf1565b5060c0820151600682015560e08201516007820155610100820151600882015561012082015160098201805460ff191691151591909117905561014090910151600a90910155600b8054600191906000906120d09084906159f1565b9091555050600b546112b9906103ed90600190615a38565b60606000805b600e54811015612148576001600160a01b03841660009081526019602090815260408083205484845260179092529091206002015403612136576121336001836159f1565b91505b8061214081615b75565b9150506120ee565b506000816001600160401b038111156121635761216361537a565b60405190808252806020026020018201604052801561219c57816020015b612189614ee5565b8152602001906001900390816121815790505b5090506000915060005b600e54811015612287576001600160a01b0385166000908152601960209081526040808320548484526017909252909120600201540361227557600081815260176020908152604091829020825160e08101845281546001600160a01b031681526001820154928101929092526002810154928201929092526003820154606082015260048201546080820152600582015460a0820152600682015460c0820152835184908690811061225b5761225b615bdb565b60209081029190910101526122716001856159f1565b9350505b8061227f81615b75565b9150506121a6565b509392505050565b6000818152600260205260408120546001600160a01b0316806109b95760405162461bcd60e51b8152602060048201526018602482015277115490cdcc8c4e881a5b9d985b1a59081d1bdad95b88125160421b6044820152606401610b76565b606060006009546001600160401b0381111561230d5761230d61537a565b60405190808252806020026020018201604052801561238057816020015b61236d6040518060e001604052806000815260200160008152602001600081526020016000815260200160008152602001600081526020016000800b81525090565b81526020019060019003908161232b5790505b50905060005b600a54811015611b89576000818152601460209081526040808320815160e081018352815481526001820154938101939093526002810154918301919091526003810154606083015260048101546080830152600581015460a0830152600681015490920b60c0820152835184908490811061240457612404615bdb565b602002602001018190525050808061241b90615b75565b915050612386565b60006001600160a01b03821661248d5760405162461bcd60e51b815260206004820152602960248201527f4552433732313a2061646472657373207a65726f206973206e6f7420612076616044820152683634b21037bbb732b960b91b6064820152608401610b76565b506001600160a01b031660009081526003602052604090205490565b6060600060015b600f5481116124ff57600081815260116020908152604080832054835260109091529020600101548490036124ed576124ea6001836159f1565b91505b806124f781615b75565b9150506124b0565b506000816001600160401b0381111561251a5761251a61537a565b60405190808252806020026020018201604052801561256f57816020015b61255c60405180606001604052806000815260200160008152602001600081525090565b8152602001906001900390816125385790505b5060009250905060015b600f548111612287576000818152601160209081526040808320548352601090915290206001015485900361260c5760008181526011602090815260409182902082516060810184528154815260018201549281019290925260028101549282019290925283518490869081106125f2576125f2615bdb565b60209081029190910101526126086001856159f1565b9350505b8061261681615b75565b915050612579565b606060008061262c60085490565b905060015b8181116126715760008181526010602052604090206001015485900361265f5761265c6001846159f1565b92505b8061266981615b75565b915050612631565b506000826001600160401b0381111561268c5761268c61537a565b6040519080825280602002602001820160405280156126fd57816020015b6126ea6040518060e00160405280600081526020016000815260200160008152602001600081526020016000815260200160608152602001606081525090565b8152602001906001900390816126aa5790505b5060009350905060015b8281116128de576000818152601060205260409020600101548690036128cc576000601060008381526020019081526020016000209050806040518060e0016040529081600082015481526020016001820154815260200160028201548152602001600382015481526020016004820154815260200160058201805461278c90615a04565b80601f01602080910402602001604051908101604052809291908181526020018280546127b890615a04565b80156128055780601f106127da57610100808354040283529160200191612805565b820191906000526020600020905b8154815290600101906020018083116127e857829003601f168201915b5050505050815260200160068201805461281e90615a04565b80601f016020809104026020016040519081016040528092919081815260200182805461284a90615a04565b80156128975780601f1061286c57610100808354040283529160200191612897565b820191906000526020600020905b81548152906001019060200180831161287a57829003601f168201915b5050505050815250508386815181106128b2576128b2615bdb565b60209081029190910101526128c86001866159f1565b9450505b806128d681615b75565b915050612707565b50949350505050565b6128f5600880546001019055565b600061290060085490565b905061290c33826147bb565b6129168183614954565b6040805160e081018252878152336000908152601960209081529083902054908201524291810191909152606081016129528762278d00615ca8565b61295c90426159f1565b81526020808201879052604080830187905260609283018690526000858152601083528190208451815591840151600183015583015160028201559082015160038201556080820151600482015560a082015160058201906129be9082615bf1565b5060c082015160068201906129d39082615bf1565b50505060009586525050601560205250506040909120600901805460ff1916600117905550565b606060018054610a5890615a04565b6040805160c081018252600d548082526001600160a01b0388811660208085019182528486018a8152606086018a90526080860189905260a0860188905260009485526013909152949092208351815591516001830180546001600160a01b0319169190921617905591519091906002820190612a869082615bf1565b5060608201516003820190612a9b9082615bf1565b5060808201516004820190612ab09082615bf1565b5060a08201516005820190612ac59082615bf1565b5050600d5460009081526013602090815260408083206001600160a01b03808b168552601890935292208254815560018084015490820180546001600160a01b0319169190931617909155909150600280820190612b2590840182615a99565b50600381810190612b3890840182615a99565b50600481810190612b4b90840182615a99565b50600581810190612b5e90840182615a99565b509050506001600d6000828254612b7591906159f1565b9091555061044d905085611b8f565b612b8c614f2b565b60005b600c548110156102ae57600081815260126020526040902054839003612e3957600081815260126020908152604091829020825160c0810184528154815260018201546001600160a01b0316928101929092526002810180549293919291840191612bf990615a04565b80601f0160208091040260200160405190810160405280929190818152602001828054612c2590615a04565b8015612c725780601f10612c4757610100808354040283529160200191612c72565b820191906000526020600020905b815481529060010190602001808311612c5557829003601f168201915b50505050508152602001600382018054612c8b90615a04565b80601f0160208091040260200160405190810160405280929190818152602001828054612cb790615a04565b8015612d045780601f10612cd957610100808354040283529160200191612d04565b820191906000526020600020905b815481529060010190602001808311612ce757829003601f168201915b50505050508152602001600482018054612d1d90615a04565b80601f0160208091040260200160405190810160405280929190818152602001828054612d4990615a04565b8015612d965780601f10612d6b57610100808354040283529160200191612d96565b820191906000526020600020905b815481529060010190602001808311612d7957829003601f168201915b50505050508152602001600582018054612daf90615a04565b80601f0160208091040260200160405190810160405280929190818152602001828054612ddb90615a04565b8015612e285780601f10612dfd57610100808354040283529160200191612e28565b820191906000526020600020905b815481529060010190602001808311612e0b57829003601f168201915b505050505081525050915050919050565b80612e4381615b75565b915050612b8f565b612e53614f2b565b6001600160a01b03808316600090815260186020908152604091829020825160c081018452815481526001820154909416918401919091526002810180549192840191612e9f90615a04565b80601f0160208091040260200160405190810160405280929190818152602001828054612ecb90615a04565b8015612f185780601f10612eed57610100808354040283529160200191612f18565b820191906000526020600020905b815481529060010190602001808311612efb57829003601f168201915b50505050508152602001600382018054612f3190615a04565b80601f0160208091040260200160405190810160405280929190818152602001828054612f5d90615a04565b8015612faa5780601f10612f7f57610100808354040283529160200191612faa565b820191906000526020600020905b815481529060010190602001808311612f8d57829003601f168201915b50505050508152602001600482018054612fc390615a04565b80601f0160208091040260200160405190810160405280929190818152602001828054612fef90615a04565b801561303c5780601f106130115761010080835404028352916020019161303c565b820191906000526020600020905b81548152906001019060200180831161301f57829003601f168201915b5050505050815260200160058201805461179390615a04565b6130603383836149e7565b5050565b60606000600d546001600160401b038111156130825761308261537a565b6040519080825280602002602001820160405280156130bb57816020015b6130a8614f2b565b8152602001906001900390816130a05790505b50905060005b600d54811015611b8957600081815260136020908152604091829020825160c0810184528154815260018201546001600160a01b03169281019290925260028101805491938492908401919061311690615a04565b80601f016020809104026020016040519081016040528092919081815260200182805461314290615a04565b801561318f5780601f106131645761010080835404028352916020019161318f565b820191906000526020600020905b81548152906001019060200180831161317257829003601f168201915b505050505081526020016003820180546131a890615a04565b80601f01602080910402602001604051908101604052809291908181526020018280546131d490615a04565b80156132215780601f106131f657610100808354040283529160200191613221565b820191906000526020600020905b81548152906001019060200180831161320457829003601f168201915b5050505050815260200160048201805461323a90615a04565b80601f016020809104026020016040519081016040528092919081815260200182805461326690615a04565b80156132b35780601f10613288576101008083540402835291602001916132b3565b820191906000526020600020905b81548152906001019060200180831161329657829003601f168201915b505050505081526020016005820180546132cc90615a04565b80601f01602080910402602001604051908101604052809291908181526020018280546132f890615a04565b80156133455780601f1061331a57610100808354040283529160200191613345565b820191906000526020600020905b81548152906001019060200180831161332857829003601f168201915b50505050508152505083838151811061336057613360615bdb565b602002602001018190525050808061337790615b75565b9150506130c1565b61338933836145cc565b6133a55760405162461bcd60e51b8152600401610b7690615b8e565b6133b184848484614ab5565b50505050565b6000816040516020016133ca9190615cbf565b60405160208183030381529060405280519060200120836040516020016133f19190615cbf565b6040516020818303038152906040528051906020012014905092915050565b60606000600c546001600160401b0381111561342e5761342e61537a565b60405190808252806020026020018201604052801561346757816020015b613454614f2b565b81526020019060019003908161344c5790505b50905060005b600c54811015611b8957600081815260126020908152604091829020825160c0810184528154815260018201546001600160a01b0316928101929092526002810180549193849290840191906134c290615a04565b80601f01602080910402602001604051908101604052809291908181526020018280546134ee90615a04565b801561353b5780601f106135105761010080835404028352916020019161353b565b820191906000526020600020905b81548152906001019060200180831161351e57829003601f168201915b5050505050815260200160038201805461355490615a04565b80601f016020809104026020016040519081016040528092919081815260200182805461358090615a04565b80156135cd5780601f106135a2576101008083540402835291602001916135cd565b820191906000526020600020905b8154815290600101906020018083116135b057829003601f168201915b505050505081526020016004820180546135e690615a04565b80601f016020809104026020016040519081016040528092919081815260200182805461361290615a04565b801561365f5780601f106136345761010080835404028352916020019161365f565b820191906000526020600020905b81548152906001019060200180831161364257829003601f168201915b5050505050815260200160058201805461367890615a04565b80601f01602080910402602001604051908101604052809291908181526020018280546136a490615a04565b80156136f15780601f106136c6576101008083540402835291602001916136f1565b820191906000526020600020905b8154815290600101906020018083116136d457829003601f168201915b50505050508152505083838151811061370c5761370c615bdb565b602002602001018190525050808061372390615b75565b91505061346d565b60606000805b600e54811015613774576000818152601760205260409020600301548490036137625761375f6001836159f1565b91505b8061376c81615b75565b915050613731565b506000816001600160401b0381111561378f5761378f61537a565b6040519080825280602002602001820160405280156137c857816020015b6137b5614ee5565b8152602001906001900390816137ad5790505b5090506000915060005b600e548110156122875760008181526017602052604090206003015485900361388a57600081815260176020908152604091829020825160e08101845281546001600160a01b031681526001820154928101929092526002810154928201929092526003820154606082015260048201546080820152600582015460a0820152600682015460c0820152835184908690811061387057613870615bdb565b60209081029190910101526138866001856159f1565b9350505b8061389481615b75565b9150506137d2565b60606138a7826144ff565b600082815260066020526040812080546138c090615a04565b80601f01602080910402602001604051908101604052809291908181526020018280546138ec90615a04565b80156139395780601f1061390e57610100808354040283529160200191613939565b820191906000526020600020905b81548152906001019060200180831161391c57829003601f168201915b50505050509050600061395760408051602081019091526000815290565b90508051600003613969575092915050565b81511561399b578082604051602001613983929190615cdb565b60405160208183030381529060405292505050919050565b6139a484614ae8565b949350505050565b600081815260106020526040902060040154341015613a1c5760405162461bcd60e51b815260206004820152602660248201527f506c65617365206769766520746865206d696e696d756d20616d6f756e74206e60448201526565656465642160d01b6064820152608401610b76565b60006001600f54613a2d9190615a38565b90505b60008181526011602052604090205482148015613a75575060008181526011602090815260408083205483526010825280832060010154338452601990925290912054145b613a8b5780613a8381615d0a565b915050613a30565b600081815260116020526040902060020154601e90613aaa9042615a38565b1015613ab557600080fd5b5060005b600e54811015613bff5760008281526010602090815260408083205484845260179092529091206003015403613bed576000818152601760208181526040808420600381015485526015835290842060060154938590529190526004015430916108fc913491613b2891615d21565b613b329190615ca8565b6040518115909202916000818181858888f19350505050158015613b5a573d6000803e3d6000fd5b50600081815260176020818152604080842060028101548552601283528185206001015460038201548652601584529185206006015494869052929091526004909101546001600160a01b03909116916108fc913491613bb991615d21565b613bc39190615ca8565b6040518115909202916000818181858888f19350505050158015613beb573d6000803e3d6000fd5b505b80613bf781615b75565b915050613ab9565b60405180606001604052808381526020013481526020014281525060116000600f6000815480929190613c3190615b75565b9190505581526020019081526020016000206000820151816000015560208201518160010155604082015181600201559050505050565b60606000600a546001600160401b03811115613c8657613c8661537a565b604051908082528060200260200182016040528015613cbf57816020015b613cac614e89565b815260200190600190039081613ca45790505b50905060005b600a54811015611b8957600060156000838152602001908152602001600020905080604051806101600160405290816000820154815260200160018201548152602001600282018054613d1790615a04565b80601f0160208091040260200160405190810160405280929190818152602001828054613d4390615a04565b8015613d905780601f10613d6557610100808354040283529160200191613d90565b820191906000526020600020905b815481529060010190602001808311613d7357829003601f168201915b50505050508152602001600382018054613da990615a04565b80601f0160208091040260200160405190810160405280929190818152602001828054613dd590615a04565b8015613e225780601f10613df757610100808354040283529160200191613e22565b820191906000526020600020905b815481529060010190602001808311613e0557829003601f168201915b50505050508152602001600482018054613e3b90615a04565b80601f0160208091040260200160405190810160405280929190818152602001828054613e6790615a04565b8015613eb45780601f10613e8957610100808354040283529160200191613eb4565b820191906000526020600020905b815481529060010190602001808311613e9757829003601f168201915b50505050508152602001600582018054613ecd90615a04565b80601f0160208091040260200160405190810160405280929190818152602001828054613ef990615a04565b8015613f465780601f10613f1b57610100808354040283529160200191613f46565b820191906000526020600020905b815481529060010190602001808311613f2957829003601f168201915b5050509183525050600682015460208201526007820154604082015260088201546060820152600982015460ff1615156080820152600a9091015460a0909101528351849084908110613f9b57613f9b615bdb565b6020026020010181905250508080613fb290615b75565b915050613cc5565b60606000805b600a5481101561401a576001600160a01b03841660009081526019602090815260408083205484845260159092529091206001015403614008576140056001836159f1565b91505b8061401281615b75565b915050613fc0565b506000816001600160401b038111156140355761403561537a565b60405190808252806020026020018201604052801561406e57816020015b61405b614e89565b8152602001906001900390816140535790505b5090506000915060005b600a54811015612287576001600160a01b03851660009081526019602090815260408083205484845260159092529091206001015403614398576000601560008381526020019081526020016000209050806040518061016001604052908160008201548152602001600182015481526020016002820180546140fa90615a04565b80601f016020809104026020016040519081016040528092919081815260200182805461412690615a04565b80156141735780601f1061414857610100808354040283529160200191614173565b820191906000526020600020905b81548152906001019060200180831161415657829003601f168201915b5050505050815260200160038201805461418c90615a04565b80601f01602080910402602001604051908101604052809291908181526020018280546141b890615a04565b80156142055780601f106141da57610100808354040283529160200191614205565b820191906000526020600020905b8154815290600101906020018083116141e857829003601f168201915b5050505050815260200160048201805461421e90615a04565b80601f016020809104026020016040519081016040528092919081815260200182805461424a90615a04565b80156142975780601f1061426c57610100808354040283529160200191614297565b820191906000526020600020905b81548152906001019060200180831161427a57829003601f168201915b505050505081526020016005820180546142b090615a04565b80601f01602080910402602001604051908101604052809291908181526020018280546142dc90615a04565b80156143295780601f106142fe57610100808354040283529160200191614329565b820191906000526020600020905b81548152906001019060200180831161430c57829003601f168201915b5050509183525050600682015460208201526007820154604082015260088201546060820152600982015460ff1615156080820152600a9091015460a090910152835184908690811061437e5761437e615bdb565b60209081029190910101526143946001856159f1565b9350505b806143a281615b75565b915050614078565b6060600060015b600f5481116143f0576000818152601160205260409020548490036143de576143db6001836159f1565b91505b806143e881615b75565b9150506143b1565b506000816001600160401b0381111561440b5761440b61537a565b60405190808252806020026020018201604052801561446057816020015b61444d60405180606001604052806000815260200160008152602001600081525090565b8152602001906001900390816144295790505b5060009250905060015b600f548111612287576000818152601160205260409020548590036144ed5760008181526011602090815260409182902082516060810184528154815260018201549281019290925260028101549282019290925283518490869081106144d3576144d3615bdb565b60209081029190910101526144e96001856159f1565b9350505b806144f781615b75565b91505061446a565b6000818152600260205260409020546001600160a01b0316610a465760405162461bcd60e51b8152602060048201526018602482015277115490cdcc8c4e881a5b9d985b1a59081d1bdad95b88125160421b6044820152606401610b76565b600081815260046020526040902080546001600160a01b0319166001600160a01b03841690811790915581906145938261228f565b6001600160a01b03167f8c5be1e5ebec7d5bd14f71427d1e84f3dd0314c0f7b2291e5b200ac8c7c3b92560405160405180910390a45050565b6000806145d88361228f565b9050806001600160a01b0316846001600160a01b0316148061461f57506001600160a01b0380821660009081526005602090815260408083209388168352929052205460ff165b806139a45750836001600160a01b031661463884610adb565b6001600160a01b031614949350505050565b826001600160a01b031661465d8261228f565b6001600160a01b0316146146835760405162461bcd60e51b8152600401610b7690615d43565b6001600160a01b0382166146e55760405162461bcd60e51b8152602060048201526024808201527f4552433732313a207472616e7366657220746f20746865207a65726f206164646044820152637265737360e01b6064820152608401610b76565b6146f28383836001614b5c565b826001600160a01b03166147058261228f565b6001600160a01b03161461472b5760405162461bcd60e51b8152600401610b7690615d43565b600081815260046020908152604080832080546001600160a01b03199081169091556001600160a01b0387811680865260038552838620805460001901905590871680865283862080546001019055868652600290945282852080549092168417909155905184937fddf252ad1be2c89b69c2b068fc378daa952ba7f163c4a11628f55a4df523b3ef91a4505050565b6001600160a01b0382166148115760405162461bcd60e51b815260206004820181905260248201527f4552433732313a206d696e7420746f20746865207a65726f20616464726573736044820152606401610b76565b6000818152600260205260409020546001600160a01b0316156148765760405162461bcd60e51b815260206004820152601c60248201527f4552433732313a20746f6b656e20616c7265616479206d696e746564000000006044820152606401610b76565b614884600083836001614b5c565b6000818152600260205260409020546001600160a01b0316156148e95760405162461bcd60e51b815260206004820152601c60248201527f4552433732313a20746f6b656e20616c7265616479206d696e746564000000006044820152606401610b76565b6001600160a01b038216600081815260036020908152604080832080546001019055848352600290915280822080546001600160a01b0319168417905551839291907fddf252ad1be2c89b69c2b068fc378daa952ba7f163c4a11628f55a4df523b3ef908290a45050565b6000828152600260205260409020546001600160a01b03166149cf5760405162461bcd60e51b815260206004820152602e60248201527f45524337323155524953746f726167653a2055524920736574206f66206e6f6e60448201526d32bc34b9ba32b73a103a37b5b2b760911b6064820152608401610b76565b6000828152600660205260409020610c178282615bf1565b816001600160a01b0316836001600160a01b031603614a485760405162461bcd60e51b815260206004820152601960248201527f4552433732313a20617070726f766520746f2063616c6c6572000000000000006044820152606401610b76565b6001600160a01b03838116600081815260056020908152604080832094871680845294825291829020805460ff191686151590811790915591519182527f17307eab39ab6107e8899845ad3d59bd9653f200f220920489ca2b5937696c31910160405180910390a3505050565b614ac084848461464a565b614acc84848484614be4565b6133b15760405162461bcd60e51b8152600401610b7690615d88565b6060614af3826144ff565b6000614b0a60408051602081019091526000815290565b90506000815111614b2a5760405180602001604052806000815250614b55565b80614b3484614ce5565b604051602001614b45929190615cdb565b6040516020818303038152906040525b9392505050565b60018111156133b1576001600160a01b03841615614ba2576001600160a01b03841660009081526003602052604081208054839290614b9c908490615a38565b90915550505b6001600160a01b038316156133b1576001600160a01b03831660009081526003602052604081208054839290614bd99084906159f1565b909155505050505050565b60006001600160a01b0384163b15614cda57604051630a85bd0160e11b81526001600160a01b0385169063150b7a0290614c28903390899088908890600401615dda565b6020604051808303816000875af1925050508015614c63575060408051601f3d908101601f19168201909252614c6091810190615e17565b60015b614cc0573d808015614c91576040519150601f19603f3d011682016040523d82523d6000602084013e614c96565b606091505b508051600003614cb85760405162461bcd60e51b8152600401610b7690615d88565b805181602001fd5b6001600160e01b031916630a85bd0160e11b1490506139a4565b506001949350505050565b60606000614cf283614d77565b60010190506000816001600160401b03811115614d1157614d1161537a565b6040519080825280601f01601f191660200182016040528015614d3b576020820181803683370190505b5090508181016020015b600019016f181899199a1a9b1b9c1cb0b131b232b360811b600a86061a8153600a8504945084614d4557509392505050565b60008072184f03e93ff9f4daa797ed6e38ed64bf6a1f0160401b8310614db65772184f03e93ff9f4daa797ed6e38ed64bf6a1f0160401b830492506040015b6d04ee2d6d415b85acef81000000008310614de2576d04ee2d6d415b85acef8100000000830492506020015b662386f26fc100008310614e0057662386f26fc10000830492506010015b6305f5e1008310614e18576305f5e100830492506008015b6127108310614e2c57612710830492506004015b60648310614e3e576064830492506002015b600a83106109b95760010192915050565b508054614e5b90615a04565b6000825580601f10614e6b575050565b601f016020900490600052602060002090810190610a469190614f6a565b604051806101600160405280600081526020016000815260200160608152602001606081526020016060815260200160608152602001600081526020016000815260200160008152602001600015158152602001600081525090565b6040518060e0016040528060006001600160a01b031681526020016000815260200160008152602001600081526020016000815260200160008152602001600081525090565b6040518060c001604052806000815260200160006001600160a01b03168152602001606081526020016060815260200160608152602001606081525090565b5b80821115614f7f5760008155600101614f6b565b5090565b60008060408385031215614f9657600080fd5b50508035926020909101359150565b6001600160e01b031981168114610a4657600080fd5b600060208284031215614fcd57600080fd5b8135614b5581614fa5565b600060208284031215614fea57600080fd5b5035919050565b60005b8381101561500c578181015183820152602001614ff4565b50506000910152565b6000815180845261502d816020860160208601614ff1565b601f01601f19169290920160200192915050565b602081526000614b556020830184615015565b80356001600160a01b038116811461506b57600080fd5b919050565b6000806040838503121561508357600080fd5b61508c83615054565b946020939093013593505050565b60008060008060008060c087890312156150b357600080fd5b505084359660208601359650604086013595606081013595506080810135945060a0013592509050565b60008060008060008060c087890312156150f657600080fd5b8635955061510660208801615054565b95989597505050506040840135936060810135936080820135935060a0909101359150565b600080600080600060a0868803121561514357600080fd5b61514c86615054565b97602087013597506040870135966060810135965060800135945092505050565b60008060006060848603121561518257600080fd5b61518b84615054565b925061519960208501615054565b9150604084013590509250925092565b6000610160825184526020830151602085015260408301518160408601526151d382860182615015565b915050606083015184820360608601526151ed8282615015565b915050608083015184820360808601526152078282615015565b91505060a083015184820360a08601526152218282615015565b91505060c083015160c085015260e083015160e0850152610100808401518186015250610120808401516152588287018215159052565b5050610140928301519390920192909252919050565b602081526000614b5560208301846151a9565b8051825260208101516020830152604081015160408301526060810151606083015260808101516080830152600060a082015160e060a08501526152c860e0850182615015565b905060c083015184820360c08601526152e18282615015565b95945050505050565b602081526000614b556020830184615281565b6000602080830181845280855180835260408601915060408160051b870101925083870160005b8281101561535257603f198886030184526153408583516151a9565b94509285019290850190600101615324565b5092979650505050505050565b60006020828403121561537157600080fd5b614b5582615054565b634e487b7160e01b600052604160045260246000fd5b60006001600160401b03808411156153aa576153aa61537a565b604051601f8501601f19908116603f011681019082821181831017156153d2576153d261537a565b816040528093508581528686860111156153eb57600080fd5b858560208301376000602087830101525050509392505050565b600082601f83011261541657600080fd5b614b5583833560208501615390565b600080600080600080600080610100898b03121561544257600080fd5b88356001600160401b038082111561545957600080fd5b6154658c838d01615405565b995060208b013591508082111561547b57600080fd5b6154878c838d01615405565b985060408b013591508082111561549d57600080fd5b6154a98c838d01615405565b975060608b01359150808211156154bf57600080fd5b506154cc8b828c01615405565b989b979a50959860808101359760a0820135975060c0820135965060e090910135945092505050565b602080825282518282018190526000919060409081850190868401855b8281101561557357815180516001600160a01b0316855286810151878601528581015186860152606080820151908601526080808201519086015260a0808201519086015260c0908101519085015260e09093019290850190600101615512565b5091979650505050505050565b60208082528251828201819052600091906040908185019086840185805b838110156155f85782518051865287810151888701528681015187870152606080820151908701526080808201519087015260a0808201519087015260c090810151830b9086015260e0909401939186019160010161559e565b509298975050505050505050565b602080825282518282018190526000919060409081850190868401855b828110156155735781518051855286810151878601528501518585015260609093019290850190600101615623565b6000602080830181845280855180835260408601915060408160051b870101925083870160005b8281101561535257603f19888603018452615695858351615281565b94509285019290850190600101615679565b600080600080600060a086880312156156bf57600080fd5b85359450602086013593506040860135925060608601356001600160401b03808211156156eb57600080fd5b6156f789838a01615405565b9350608088013591508082111561570d57600080fd5b5061571a88828901615405565b9150509295509295909350565b600080600080600060a0868803121561573f57600080fd5b61574886615054565b945060208601356001600160401b038082111561576457600080fd5b61577089838a01615405565b9550604088013591508082111561578657600080fd5b61579289838a01615405565b945060608801359150808211156156eb57600080fd5b8051825260018060a01b0360208201511660208301526000604082015160c060408501526157d960c0850182615015565b9050606083015184820360608601526157f28282615015565b9150506080830151848203608086015261580c8282615015565b91505060a083015184820360a08601526152e18282615015565b602081526000614b5560208301846157a8565b6000806040838503121561584c57600080fd5b61585583615054565b91506020830135801515811461586a57600080fd5b809150509250929050565b6000602080830181845280855180835260408601915060408160051b870101925083870160005b8281101561535257603f198886030184526158b88583516157a8565b9450928501929085019060010161589c565b600080600080608085870312156158e057600080fd5b6158e985615054565b93506158f760208601615054565b92506040850135915060608501356001600160401b0381111561591957600080fd5b8501601f8101871361592a57600080fd5b61593987823560208401615390565b91505092959194509250565b6000806040838503121561595857600080fd5b82356001600160401b038082111561596f57600080fd5b61597b86838701615405565b9350602085013591508082111561599157600080fd5b5061599e85828601615405565b9150509250929050565b600080604083850312156159bb57600080fd5b6159c483615054565b91506159d260208401615054565b90509250929050565b634e487b7160e01b600052601160045260246000fd5b808201808211156109b9576109b96159db565b600181811c90821680615a1857607f821691505b602082108103611b8957634e487b7160e01b600052602260045260246000fd5b818103818111156109b9576109b96159db565b601f821115610c1757600081815260208120601f850160051c81016020861015615a725750805b601f850160051c820191505b81811015615a9157828155600101615a7e565b505050505050565b818103615aa4575050565b615aae8254615a04565b6001600160401b03811115615ac557615ac561537a565b615ad981615ad38454615a04565b84615a4b565b6000601f821160018114615b0d5760008315615af55750848201545b600019600385901b1c1916600184901b17845561044d565b600085815260209020601f19841690600086815260209020845b83811015615b475782860154825560019586019590910190602001615b27565b5085831015615b655781850154600019600388901b60f8161c191681555b5050505050600190811b01905550565b600060018201615b8757615b876159db565b5060010190565b6020808252602d908201527f4552433732313a2063616c6c6572206973206e6f7420746f6b656e206f776e6560408201526c1c881bdc88185c1c1c9bdd9959609a1b606082015260800190565b634e487b7160e01b600052603260045260246000fd5b81516001600160401b03811115615c0a57615c0a61537a565b615c1881615ad38454615a04565b602080601f831160018114615c4d5760008415615c355750858301515b600019600386901b1c1916600185901b178555615a91565b600085815260208120601f198616915b82811015615c7c57888601518255948401946001909101908401615c5d565b5085821015615b6557939096015160001960f8600387901b161c19169092555050600190811b01905550565b80820281158282048414176109b9576109b96159db565b60008251615cd1818460208701614ff1565b9190910192915050565b60008351615ced818460208801614ff1565b835190830190615d01818360208801614ff1565b01949350505050565b600081615d1957615d196159db565b506000190190565b600082615d3e57634e487b7160e01b600052601260045260246000fd5b500490565b60208082526025908201527f4552433732313a207472616e736665722066726f6d20696e636f72726563742060408201526437bbb732b960d91b606082015260800190565b60208082526032908201527f4552433732313a207472616e7366657220746f206e6f6e20455243373231526560408201527131b2b4bb32b91034b6b83632b6b2b73a32b960711b606082015260800190565b6001600160a01b0385811682528416602082015260408101839052608060608201819052600090615e0d90830184615015565b9695505050505050565b600060208284031215615e2957600080fd5b8151614b5581614fa556fea264697066735822122089d6a61f19cacbf9dcdd411721fd6db5405a969e2369143dfe1de86a6d53c87b64736f6c63430008110033","opcodes":"PUSH1 0x80 PUSH1 0x40 MSTORE CALLVALUE DUP1 ISZERO PUSH3 0x11 JUMPI PUSH1 0x0 DUP1 REVERT JUMPDEST POP PUSH1 0x40 MLOAD DUP1 PUSH1 0x40 ADD PUSH1 0x40 MSTORE DUP1 PUSH1 0x6 DUP2 MSTORE PUSH1 0x20 ADD PUSH6 0x66646A6B6C73 PUSH1 0xD0 SHL DUP2 MSTORE POP PUSH1 0x40 MLOAD DUP1 PUSH1 0x40 ADD PUSH1 0x40 MSTORE DUP1 PUSH1 0x4 DUP2 MSTORE PUSH1 0x20 ADD PUSH4 0x6A6C6B73 PUSH1 0xE0 SHL DUP2 MSTORE POP DUP2 PUSH1 0x0 SWAP1 DUP2 PUSH3 0x5F SWAP2 SWAP1 PUSH3 0x12E JUMP JUMPDEST POP PUSH1 0x1 PUSH3 0x6E DUP3 DUP3 PUSH3 0x12E JUMP JUMPDEST POP POP PUSH1 0x7 DUP1 SLOAD PUSH1 0x1 PUSH1 0x1 PUSH1 0xA0 SHL SUB NOT AND CALLER OR SWAP1 SSTORE POP PUSH3 0x1FA JUMP JUMPDEST PUSH4 0x4E487B71 PUSH1 0xE0 SHL PUSH1 0x0 MSTORE PUSH1 0x41 PUSH1 0x4 MSTORE PUSH1 0x24 PUSH1 0x0 REVERT JUMPDEST PUSH1 0x1 DUP2 DUP2 SHR SWAP1 DUP3 AND DUP1 PUSH3 0xB4 JUMPI PUSH1 0x7F DUP3 AND SWAP2 POP JUMPDEST PUSH1 0x20 DUP3 LT DUP2 SUB PUSH3 0xD5 JUMPI PUSH4 0x4E487B71 PUSH1 0xE0 SHL PUSH1 0x0 MSTORE PUSH1 0x22 PUSH1 0x4 MSTORE PUSH1 0x24 PUSH1 0x0 REVERT JUMPDEST POP SWAP2 SWAP1 POP JUMP JUMPDEST PUSH1 0x1F DUP3 GT ISZERO PUSH3 0x129 JUMPI PUSH1 0x0 DUP2 DUP2 MSTORE PUSH1 0x20 DUP2 KECCAK256 PUSH1 0x1F DUP6 ADD PUSH1 0x5 SHR DUP2 ADD PUSH1 0x20 DUP7 LT ISZERO PUSH3 0x104 JUMPI POP DUP1 JUMPDEST PUSH1 0x1F DUP6 ADD PUSH1 0x5 SHR DUP3 ADD SWAP2 POP JUMPDEST DUP2 DUP2 LT ISZERO PUSH3 0x125 JUMPI DUP3 DUP2 SSTORE PUSH1 0x1 ADD PUSH3 0x110 JUMP JUMPDEST POP POP POP JUMPDEST POP POP POP JUMP JUMPDEST DUP2 MLOAD PUSH1 0x1 PUSH1 0x1 PUSH1 0x40 SHL SUB DUP2 GT ISZERO PUSH3 0x14A JUMPI PUSH3 0x14A PUSH3 0x89 JUMP JUMPDEST PUSH3 0x162 DUP2 PUSH3 0x15B DUP5 SLOAD PUSH3 0x9F JUMP JUMPDEST DUP5 PUSH3 0xDB JUMP JUMPDEST PUSH1 0x20 DUP1 PUSH1 0x1F DUP4 GT PUSH1 0x1 DUP2 EQ PUSH3 0x19A JUMPI PUSH1 0x0 DUP5 ISZERO PUSH3 0x181 JUMPI POP DUP6 DUP4 ADD MLOAD JUMPDEST PUSH1 0x0 NOT PUSH1 0x3 DUP7 SWAP1 SHL SHR NOT AND PUSH1 0x1 DUP6 SWAP1 SHL OR DUP6 SSTORE PUSH3 0x125 JUMP JUMPDEST PUSH1 0x0 DUP6 DUP2 MSTORE PUSH1 0x20 DUP2 KECCAK256 PUSH1 0x1F NOT DUP7 AND SWAP2 JUMPDEST DUP3 DUP2 LT ISZERO PUSH3 0x1CB JUMPI DUP9 DUP7 ADD MLOAD DUP3 SSTORE SWAP5 DUP5 ADD SWAP5 PUSH1 0x1 SWAP1 SWAP2 ADD SWAP1 DUP5 ADD PUSH3 0x1AA JUMP JUMPDEST POP DUP6 DUP3 LT ISZERO PUSH3 0x1EA JUMPI DUP8 DUP6 ADD MLOAD PUSH1 0x0 NOT PUSH1 0x3 DUP9 SWAP1 SHL PUSH1 0xF8 AND SHR NOT AND DUP2 SSTORE JUMPDEST POP POP POP POP POP PUSH1 0x1 SWAP1 DUP2 SHL ADD SWAP1 SSTORE POP JUMP JUMPDEST PUSH2 0x5E6A DUP1 PUSH3 0x20A PUSH1 0x0 CODECOPY PUSH1 0x0 RETURN INVALID PUSH1 0x80 PUSH1 0x40 MSTORE PUSH1 0x4 CALLDATASIZE LT PUSH2 0x2AE JUMPI PUSH1 0x0 CALLDATALOAD PUSH1 0xE0 SHR DUP1 PUSH4 0x5097BEF8 GT PUSH2 0x175 JUMPI DUP1 PUSH4 0x9F900A18 GT PUSH2 0xDC JUMPI DUP1 PUSH4 0xC63AF15F GT PUSH2 0x95 JUMPI DUP1 PUSH4 0xE44176D8 GT PUSH2 0x6F JUMPI DUP1 PUSH4 0xE44176D8 EQ PUSH2 0x8E6 JUMPI DUP1 PUSH4 0xE959BF39 EQ PUSH2 0x8FB JUMPI DUP1 PUSH4 0xE980509C EQ PUSH2 0x91B JUMPI DUP1 PUSH4 0xE985E9C5 EQ PUSH2 0x93B JUMPI PUSH1 0x0 DUP1 REVERT JUMPDEST DUP1 PUSH4 0xC63AF15F EQ PUSH2 0x893 JUMPI DUP1 PUSH4 0xC87B56DD EQ PUSH2 0x8B3 JUMPI DUP1 PUSH4 0xD9E8843F EQ PUSH2 0x8D3 JUMPI PUSH1 0x0 DUP1 REVERT JUMPDEST DUP1 PUSH4 0x9F900A18 EQ PUSH2 0x7DC JUMPI DUP1 PUSH4 0xA22CB465 EQ PUSH2 0x7FC JUMPI DUP1 PUSH4 0xAD509E8D EQ PUSH2 0x81C JUMPI DUP1 PUSH4 0xB88D4FDE EQ PUSH2 0x83E JUMPI DUP1 PUSH4 0xBED34BBA EQ PUSH2 0x85E JUMPI DUP1 PUSH4 0xC3374315 EQ PUSH2 0x87E JUMPI PUSH1 0x0 DUP1 REVERT JUMPDEST DUP1 PUSH4 0x801C6767 GT PUSH2 0x12E JUMPI DUP1 PUSH4 0x801C6767 EQ PUSH2 0x70C JUMPI DUP1 PUSH4 0x8CFFD853 EQ PUSH2 0x739 JUMPI DUP1 PUSH4 0x8F32D59B EQ PUSH2 0x759 JUMPI DUP1 PUSH4 0x95D89B41 EQ PUSH2 0x77A JUMPI DUP1 PUSH4 0x999EAB2B EQ PUSH2 0x78F JUMPI DUP1 PUSH4 0x9C432E34 EQ PUSH2 0x7AF JUMPI PUSH1 0x0 DUP1 REVERT JUMPDEST DUP1 PUSH4 0x5097BEF8 EQ PUSH2 0x630 JUMPI DUP1 PUSH4 0x5DD38E2D EQ PUSH2 0x650 JUMPI DUP1 PUSH4 0x6352211E EQ PUSH2 0x67D JUMPI DUP1 PUSH4 0x661B4CC2 EQ PUSH2 0x69D JUMPI DUP1 PUSH4 0x70A08231 EQ PUSH2 0x6BF JUMPI DUP1 PUSH4 0x7190314A EQ PUSH2 0x6DF JUMPI PUSH1 0x0 DUP1 REVERT JUMPDEST DUP1 PUSH4 0x310CD34F GT PUSH2 0x219 JUMPI DUP1 PUSH4 0x42842E0E GT PUSH2 0x1D2 JUMPI DUP1 PUSH4 0x42842E0E EQ PUSH2 0x55E JUMPI DUP1 PUSH4 0x4D770CA0 EQ PUSH2 0x57E JUMPI DUP1 PUSH4 0x4D813120 EQ PUSH2 0x5A0 JUMPI DUP1 PUSH4 0x4DC92885 EQ PUSH2 0x5C0 JUMPI DUP1 PUSH4 0x4F92E87D EQ PUSH2 0x5E0 JUMPI DUP1 PUSH4 0x4FEB2982 EQ PUSH2 0x600 JUMPI PUSH1 0x0 DUP1 REVERT JUMPDEST DUP1 PUSH4 0x310CD34F EQ PUSH2 0x474 JUMPI DUP1 PUSH4 0x31793FEE EQ PUSH2 0x4A1 JUMPI DUP1 PUSH4 0x3B682632 EQ PUSH2 0x4C1 JUMPI DUP1 PUSH4 0x3C2CFF22 EQ PUSH2 0x4E1 JUMPI DUP1 PUSH4 0x3FD7F8B8 EQ PUSH2 0x501 JUMPI DUP1 PUSH4 0x3FFC0D10 EQ PUSH2 0x531 JUMPI PUSH1 0x0 DUP1 REVERT JUMPDEST DUP1 PUSH4 0x11A80F7E GT PUSH2 0x26B JUMPI DUP1 PUSH4 0x11A80F7E EQ PUSH2 0x3A4 JUMPI DUP1 PUSH4 0x1396F769 EQ PUSH2 0x3D2 JUMPI DUP1 PUSH4 0x18C5C090 EQ PUSH2 0x3F2 JUMPI DUP1 PUSH4 0x1C468F0B EQ PUSH2 0x412 JUMPI DUP1 PUSH4 0x1CD8F3C5 EQ PUSH2 0x432 JUMPI DUP1 PUSH4 0x23B872DD EQ PUSH2 0x454 JUMPI PUSH1 0x0 DUP1 REVERT JUMPDEST DUP1 PUSH4 0x1C2B352 EQ PUSH2 0x2B3 JUMPI DUP1 PUSH4 0x1FFC9A7 EQ PUSH2 0x2E8 JUMPI DUP1 PUSH4 0x5BF37AA EQ PUSH2 0x308 JUMPI DUP1 PUSH4 0x6FDDE03 EQ PUSH2 0x32A JUMPI DUP1 PUSH4 0x81812FC EQ PUSH2 0x34C JUMPI DUP1 PUSH4 0x95EA7B3 EQ PUSH2 0x384 JUMPI JUMPDEST PUSH1 0x0 DUP1 REVERT JUMPDEST CALLVALUE DUP1 ISZERO PUSH2 0x2BF JUMPI PUSH1 0x0 DUP1 REVERT JUMPDEST POP PUSH2 0x2D3 PUSH2 0x2CE CALLDATASIZE PUSH1 0x4 PUSH2 0x4F83 JUMP JUMPDEST PUSH2 0x984 JUMP JUMPDEST PUSH1 0x40 MLOAD SWAP1 ISZERO ISZERO DUP2 MSTORE PUSH1 0x20 ADD JUMPDEST PUSH1 0x40 MLOAD DUP1 SWAP2 SUB SWAP1 RETURN JUMPDEST CALLVALUE DUP1 ISZERO PUSH2 0x2F4 JUMPI PUSH1 0x0 DUP1 REVERT JUMPDEST POP PUSH2 0x2D3 PUSH2 0x303 CALLDATASIZE PUSH1 0x4 PUSH2 0x4FBB JUMP JUMPDEST PUSH2 0x9BF JUMP JUMPDEST CALLVALUE DUP1 ISZERO PUSH2 0x314 JUMPI PUSH1 0x0 DUP1 REVERT JUMPDEST POP PUSH2 0x328 PUSH2 0x323 CALLDATASIZE PUSH1 0x4 PUSH2 0x4FD8 JUMP JUMPDEST PUSH2 0xA0F JUMP JUMPDEST STOP JUMPDEST CALLVALUE DUP1 ISZERO PUSH2 0x336 JUMPI PUSH1 0x0 DUP1 REVERT JUMPDEST POP PUSH2 0x33F PUSH2 0xA49 JUMP JUMPDEST PUSH1 0x40 MLOAD PUSH2 0x2DF SWAP2 SWAP1 PUSH2 0x5041 JUMP JUMPDEST CALLVALUE DUP1 ISZERO PUSH2 0x358 JUMPI PUSH1 0x0 DUP1 REVERT JUMPDEST POP PUSH2 0x36C PUSH2 0x367 CALLDATASIZE PUSH1 0x4 PUSH2 0x4FD8 JUMP JUMPDEST PUSH2 0xADB JUMP JUMPDEST PUSH1 0x40 MLOAD PUSH1 0x1 PUSH1 0x1 PUSH1 0xA0 SHL SUB SWAP1 SWAP2 AND DUP2 MSTORE PUSH1 0x20 ADD PUSH2 0x2DF JUMP JUMPDEST CALLVALUE DUP1 ISZERO PUSH2 0x390 JUMPI PUSH1 0x0 DUP1 REVERT JUMPDEST POP PUSH2 0x328 PUSH2 0x39F CALLDATASIZE PUSH1 0x4 PUSH2 0x5070 JUMP JUMPDEST PUSH2 0xB02 JUMP JUMPDEST CALLVALUE DUP1 ISZERO PUSH2 0x3B0 JUMPI PUSH1 0x0 DUP1 REVERT JUMPDEST POP PUSH2 0x3C4 PUSH2 0x3BF CALLDATASIZE PUSH1 0x4 PUSH2 0x509A JUMP JUMPDEST PUSH2 0xC1C JUMP JUMPDEST PUSH1 0x40 MLOAD SWAP1 DUP2 MSTORE PUSH1 0x20 ADD PUSH2 0x2DF JUMP JUMPDEST CALLVALUE DUP1 ISZERO PUSH2 0x3DE JUMPI PUSH1 0x0 DUP1 REVERT JUMPDEST POP PUSH2 0x328 PUSH2 0x3ED CALLDATASIZE PUSH1 0x4 PUSH2 0x4FD8 JUMP JUMPDEST PUSH2 0xCD6 JUMP JUMPDEST CALLVALUE DUP1 ISZERO PUSH2 0x3FE JUMPI PUSH1 0x0 DUP1 REVERT JUMPDEST POP PUSH2 0x328 PUSH2 0x40D CALLDATASIZE PUSH1 0x4 PUSH2 0x4FD8 JUMP JUMPDEST PUSH2 0xFFD JUMP JUMPDEST CALLVALUE DUP1 ISZERO PUSH2 0x41E JUMPI PUSH1 0x0 DUP1 REVERT JUMPDEST POP PUSH2 0x328 PUSH2 0x42D CALLDATASIZE PUSH1 0x4 PUSH2 0x50DD JUMP JUMPDEST PUSH2 0x1036 JUMP JUMPDEST CALLVALUE DUP1 ISZERO PUSH2 0x43E JUMPI PUSH1 0x0 DUP1 REVERT JUMPDEST POP PUSH2 0x328 PUSH2 0x44D CALLDATASIZE PUSH1 0x4 PUSH2 0x512B JUMP JUMPDEST POP POP POP POP POP JUMP JUMPDEST CALLVALUE DUP1 ISZERO PUSH2 0x460 JUMPI PUSH1 0x0 DUP1 REVERT JUMPDEST POP PUSH2 0x328 PUSH2 0x46F CALLDATASIZE PUSH1 0x4 PUSH2 0x516D JUMP JUMPDEST PUSH2 0x12C4 JUMP JUMPDEST CALLVALUE DUP1 ISZERO PUSH2 0x480 JUMPI PUSH1 0x0 DUP1 REVERT JUMPDEST POP PUSH2 0x494 PUSH2 0x48F CALLDATASIZE PUSH1 0x4 PUSH2 0x4FD8 JUMP JUMPDEST PUSH2 0x12F5 JUMP JUMPDEST PUSH1 0x40 MLOAD PUSH2 0x2DF SWAP2 SWAP1 PUSH2 0x526E JUMP JUMPDEST CALLVALUE DUP1 ISZERO PUSH2 0x4AD JUMPI PUSH1 0x0 DUP1 REVERT JUMPDEST POP PUSH2 0x328 PUSH2 0x4BC CALLDATASIZE PUSH1 0x4 PUSH2 0x4F83 JUMP JUMPDEST PUSH2 0x15F8 JUMP JUMPDEST CALLVALUE DUP1 ISZERO PUSH2 0x4CD JUMPI PUSH1 0x0 DUP1 REVERT JUMPDEST POP PUSH2 0x328 PUSH2 0x4DC CALLDATASIZE PUSH1 0x4 PUSH2 0x4FD8 JUMP JUMPDEST PUSH2 0x1622 JUMP JUMPDEST CALLVALUE DUP1 ISZERO PUSH2 0x4ED JUMPI PUSH1 0x0 DUP1 REVERT JUMPDEST POP PUSH2 0x2D3 PUSH2 0x4FC CALLDATASIZE PUSH1 0x4 PUSH2 0x4F83 JUMP JUMPDEST PUSH2 0x1635 JUMP JUMPDEST CALLVALUE DUP1 ISZERO PUSH2 0x50D JUMPI PUSH1 0x0 DUP1 REVERT JUMPDEST POP PUSH2 0x328 PUSH2 0x51C CALLDATASIZE PUSH1 0x4 PUSH2 0x4F83 JUMP JUMPDEST PUSH1 0x0 SWAP2 DUP3 MSTORE PUSH1 0x17 PUSH1 0x20 MSTORE PUSH1 0x40 SWAP1 SWAP2 KECCAK256 PUSH1 0x6 ADD SSTORE JUMP JUMPDEST CALLVALUE DUP1 ISZERO PUSH2 0x53D JUMPI PUSH1 0x0 DUP1 REVERT JUMPDEST POP PUSH2 0x551 PUSH2 0x54C CALLDATASIZE PUSH1 0x4 PUSH2 0x4FD8 JUMP JUMPDEST PUSH2 0x1661 JUMP JUMPDEST PUSH1 0x40 MLOAD PUSH2 0x2DF SWAP2 SWAP1 PUSH2 0x52EA JUMP JUMPDEST CALLVALUE DUP1 ISZERO PUSH2 0x56A JUMPI PUSH1 0x0 DUP1 REVERT JUMPDEST POP PUSH2 0x328 PUSH2 0x579 CALLDATASIZE PUSH1 0x4 PUSH2 0x516D JUMP JUMPDEST PUSH2 0x181C JUMP JUMPDEST CALLVALUE DUP1 ISZERO PUSH2 0x58A JUMPI PUSH1 0x0 DUP1 REVERT JUMPDEST POP PUSH2 0x593 PUSH2 0x1837 JUMP JUMPDEST PUSH1 0x40 MLOAD PUSH2 0x2DF SWAP2 SWAP1 PUSH2 0x52FD JUMP JUMPDEST CALLVALUE DUP1 ISZERO PUSH2 0x5AC JUMPI PUSH1 0x0 DUP1 REVERT JUMPDEST POP PUSH2 0x328 PUSH2 0x5BB CALLDATASIZE PUSH1 0x4 PUSH2 0x535F JUMP JUMPDEST PUSH2 0x1B8F JUMP JUMPDEST CALLVALUE DUP1 ISZERO PUSH2 0x5CC JUMPI PUSH1 0x0 DUP1 REVERT JUMPDEST POP PUSH2 0x328 PUSH2 0x5DB CALLDATASIZE PUSH1 0x4 PUSH2 0x535F JUMP JUMPDEST PUSH2 0x1E17 JUMP JUMPDEST CALLVALUE DUP1 ISZERO PUSH2 0x5EC JUMPI PUSH1 0x0 DUP1 REVERT JUMPDEST POP PUSH2 0x328 PUSH2 0x5FB CALLDATASIZE PUSH1 0x4 PUSH2 0x4F83 JUMP JUMPDEST PUSH2 0x1F5C JUMP JUMPDEST CALLVALUE DUP1 ISZERO PUSH2 0x60C JUMPI PUSH1 0x0 DUP1 REVERT JUMPDEST POP PUSH2 0x328 PUSH2 0x61B CALLDATASIZE PUSH1 0x4 PUSH2 0x4F83 JUMP JUMPDEST PUSH1 0x0 SWAP2 DUP3 MSTORE PUSH1 0x15 PUSH1 0x20 MSTORE PUSH1 0x40 SWAP1 SWAP2 KECCAK256 PUSH1 0xA ADD SSTORE JUMP JUMPDEST CALLVALUE DUP1 ISZERO PUSH2 0x63C JUMPI PUSH1 0x0 DUP1 REVERT JUMPDEST POP PUSH2 0x328 PUSH2 0x64B CALLDATASIZE PUSH1 0x4 PUSH2 0x5425 JUMP JUMPDEST PUSH2 0x1FA3 JUMP JUMPDEST CALLVALUE DUP1 ISZERO PUSH2 0x65C JUMPI PUSH1 0x0 DUP1 REVERT JUMPDEST POP PUSH2 0x670 PUSH2 0x66B CALLDATASIZE PUSH1 0x4 PUSH2 0x535F JUMP JUMPDEST PUSH2 0x20E8 JUMP JUMPDEST PUSH1 0x40 MLOAD PUSH2 0x2DF SWAP2 SWAP1 PUSH2 0x54F5 JUMP JUMPDEST CALLVALUE DUP1 ISZERO PUSH2 0x689 JUMPI PUSH1 0x0 DUP1 REVERT JUMPDEST POP PUSH2 0x36C PUSH2 0x698 CALLDATASIZE PUSH1 0x4 PUSH2 0x4FD8 JUMP JUMPDEST PUSH2 0x228F JUMP JUMPDEST CALLVALUE DUP1 ISZERO PUSH2 0x6A9 JUMPI PUSH1 0x0 DUP1 REVERT JUMPDEST POP PUSH2 0x6B2 PUSH2 0x22EF JUMP JUMPDEST PUSH1 0x40 MLOAD PUSH2 0x2DF SWAP2 SWAP1 PUSH2 0x5580 JUMP JUMPDEST CALLVALUE DUP1 ISZERO PUSH2 0x6CB JUMPI PUSH1 0x0 DUP1 REVERT JUMPDEST POP PUSH2 0x3C4 PUSH2 0x6DA CALLDATASIZE PUSH1 0x4 PUSH2 0x535F JUMP JUMPDEST PUSH2 0x2423 JUMP JUMPDEST CALLVALUE DUP1 ISZERO PUSH2 0x6EB JUMPI PUSH1 0x0 DUP1 REVERT JUMPDEST POP PUSH2 0x6FF PUSH2 0x6FA CALLDATASIZE PUSH1 0x4 PUSH2 0x4FD8 JUMP JUMPDEST PUSH2 0x24A9 JUMP JUMPDEST PUSH1 0x40 MLOAD PUSH2 0x2DF SWAP2 SWAP1 PUSH2 0x5606 JUMP JUMPDEST CALLVALUE DUP1 ISZERO PUSH2 0x718 JUMPI PUSH1 0x0 DUP1 REVERT JUMPDEST POP PUSH2 0x72C PUSH2 0x727 CALLDATASIZE PUSH1 0x4 PUSH2 0x4FD8 JUMP JUMPDEST PUSH2 0x261E JUMP JUMPDEST PUSH1 0x40 MLOAD PUSH2 0x2DF SWAP2 SWAP1 PUSH2 0x5652 JUMP JUMPDEST CALLVALUE DUP1 ISZERO PUSH2 0x745 JUMPI PUSH1 0x0 DUP1 REVERT JUMPDEST POP PUSH2 0x328 PUSH2 0x754 CALLDATASIZE PUSH1 0x4 PUSH2 0x56A7 JUMP JUMPDEST PUSH2 0x28E7 JUMP JUMPDEST CALLVALUE DUP1 ISZERO PUSH2 0x765 JUMPI PUSH1 0x0 DUP1 REVERT JUMPDEST POP PUSH2 0x2D3 PUSH1 0x7 SLOAD PUSH1 0x1 PUSH1 0x1 PUSH1 0xA0 SHL SUB AND CALLER EQ SWAP1 JUMP JUMPDEST CALLVALUE DUP1 ISZERO PUSH2 0x786 JUMPI PUSH1 0x0 DUP1 REVERT JUMPDEST POP PUSH2 0x33F PUSH2 0x29FA JUMP JUMPDEST CALLVALUE DUP1 ISZERO PUSH2 0x79B JUMPI PUSH1 0x0 DUP1 REVERT JUMPDEST POP PUSH2 0x328 PUSH2 0x7AA CALLDATASIZE PUSH1 0x4 PUSH2 0x5727 JUMP JUMPDEST PUSH2 0x2A09 JUMP JUMPDEST CALLVALUE DUP1 ISZERO PUSH2 0x7BB JUMPI PUSH1 0x0 DUP1 REVERT JUMPDEST POP PUSH2 0x7CF PUSH2 0x7CA CALLDATASIZE PUSH1 0x4 PUSH2 0x4FD8 JUMP JUMPDEST PUSH2 0x2B84 JUMP JUMPDEST PUSH1 0x40 MLOAD PUSH2 0x2DF SWAP2 SWAP1 PUSH2 0x5826 JUMP JUMPDEST CALLVALUE DUP1 ISZERO PUSH2 0x7E8 JUMPI PUSH1 0x0 DUP1 REVERT JUMPDEST POP PUSH2 0x7CF PUSH2 0x7F7 CALLDATASIZE PUSH1 0x4 PUSH2 0x535F JUMP JUMPDEST PUSH2 0x2E4B JUMP JUMPDEST CALLVALUE DUP1 ISZERO PUSH2 0x808 JUMPI PUSH1 0x0 DUP1 REVERT JUMPDEST POP PUSH2 0x328 PUSH2 0x817 CALLDATASIZE PUSH1 0x4 PUSH2 0x5839 JUMP JUMPDEST PUSH2 0x3055 JUMP JUMPDEST CALLVALUE DUP1 ISZERO PUSH2 0x828 JUMPI PUSH1 0x0 DUP1 REVERT JUMPDEST POP PUSH2 0x831 PUSH2 0x3064 JUMP JUMPDEST PUSH1 0x40 MLOAD PUSH2 0x2DF SWAP2 SWAP1 PUSH2 0x5875 JUMP JUMPDEST CALLVALUE DUP1 ISZERO PUSH2 0x84A JUMPI PUSH1 0x0 DUP1 REVERT JUMPDEST POP PUSH2 0x328 PUSH2 0x859 CALLDATASIZE PUSH1 0x4 PUSH2 0x58CA JUMP JUMPDEST PUSH2 0x337F JUMP JUMPDEST CALLVALUE DUP1 ISZERO PUSH2 0x86A JUMPI PUSH1 0x0 DUP1 REVERT JUMPDEST POP PUSH2 0x2D3 PUSH2 0x879 CALLDATASIZE PUSH1 0x4 PUSH2 0x5945 JUMP JUMPDEST PUSH2 0x33B7 JUMP JUMPDEST CALLVALUE DUP1 ISZERO PUSH2 0x88A JUMPI PUSH1 0x0 DUP1 REVERT JUMPDEST POP PUSH2 0x831 PUSH2 0x3410 JUMP JUMPDEST CALLVALUE DUP1 ISZERO PUSH2 0x89F JUMPI PUSH1 0x0 DUP1 REVERT JUMPDEST POP PUSH2 0x670 PUSH2 0x8AE CALLDATASIZE PUSH1 0x4 PUSH2 0x4FD8 JUMP JUMPDEST PUSH2 0x372B JUMP JUMPDEST CALLVALUE DUP1 ISZERO PUSH2 0x8BF JUMPI PUSH1 0x0 DUP1 REVERT JUMPDEST POP PUSH2 0x33F PUSH2 0x8CE CALLDATASIZE PUSH1 0x4 PUSH2 0x4FD8 JUMP JUMPDEST PUSH2 0x389C JUMP JUMPDEST PUSH2 0x328 PUSH2 0x8E1 CALLDATASIZE PUSH1 0x4 PUSH2 0x4FD8 JUMP JUMPDEST PUSH2 0x39AC JUMP JUMPDEST CALLVALUE DUP1 ISZERO PUSH2 0x8F2 JUMPI PUSH1 0x0 DUP1 REVERT JUMPDEST POP PUSH2 0x593 PUSH2 0x3C68 JUMP JUMPDEST CALLVALUE DUP1 ISZERO PUSH2 0x907 JUMPI PUSH1 0x0 DUP1 REVERT JUMPDEST POP PUSH2 0x593 PUSH2 0x916 CALLDATASIZE PUSH1 0x4 PUSH2 0x535F JUMP JUMPDEST PUSH2 0x3FBA JUMP JUMPDEST CALLVALUE DUP1 ISZERO PUSH2 0x927 JUMPI PUSH1 0x0 DUP1 REVERT JUMPDEST POP PUSH2 0x6FF PUSH2 0x936 CALLDATASIZE PUSH1 0x4 PUSH2 0x4FD8 JUMP JUMPDEST PUSH2 0x43AA JUMP JUMPDEST CALLVALUE DUP1 ISZERO PUSH2 0x947 JUMPI PUSH1 0x0 DUP1 REVERT JUMPDEST POP PUSH2 0x2D3 PUSH2 0x956 CALLDATASIZE PUSH1 0x4 PUSH2 0x59A8 JUMP JUMPDEST PUSH1 0x1 PUSH1 0x1 PUSH1 0xA0 SHL SUB SWAP2 DUP3 AND PUSH1 0x0 SWAP1 DUP2 MSTORE PUSH1 0x5 PUSH1 0x20 SWAP1 DUP2 MSTORE PUSH1 0x40 DUP1 DUP4 KECCAK256 SWAP4 SWAP1 SWAP5 AND DUP3 MSTORE SWAP2 SWAP1 SWAP2 MSTORE KECCAK256 SLOAD PUSH1 0xFF AND SWAP1 JUMP JUMPDEST PUSH1 0x0 DUP3 DUP2 MSTORE PUSH1 0x17 PUSH1 0x20 MSTORE PUSH1 0x40 DUP2 KECCAK256 PUSH1 0x4 DUP2 ADD SLOAD PUSH1 0x5 SWAP1 SWAP2 ADD SLOAD PUSH2 0x9A8 SWAP1 DUP5 SWAP1 PUSH2 0x59F1 JUMP JUMPDEST GT PUSH2 0x9B5 JUMPI POP PUSH1 0x1 PUSH2 0x9B9 JUMP JUMPDEST POP PUSH1 0x0 JUMPDEST SWAP3 SWAP2 POP POP JUMP JUMPDEST PUSH1 0x0 PUSH1 0x1 PUSH1 0x1 PUSH1 0xE0 SHL SUB NOT DUP3 AND PUSH4 0x80AC58CD PUSH1 0xE0 SHL EQ DUP1 PUSH2 0x9F0 JUMPI POP PUSH1 0x1 PUSH1 0x1 PUSH1 0xE0 SHL SUB NOT DUP3 AND PUSH4 0x5B5E139F PUSH1 0xE0 SHL EQ JUMPDEST DUP1 PUSH2 0x9B9 JUMPI POP PUSH4 0x1FFC9A7 PUSH1 0xE0 SHL PUSH1 0x1 PUSH1 0x1 PUSH1 0xE0 SHL SUB NOT DUP4 AND EQ PUSH2 0x9B9 JUMP JUMPDEST PUSH1 0x0 DUP2 DUP2 MSTORE PUSH1 0x14 PUSH1 0x20 MSTORE PUSH1 0x40 DUP2 KECCAK256 PUSH1 0x6 ADD SLOAD DUP2 SIGNEXTEND SWAP1 SUB PUSH2 0xA46 JUMPI PUSH1 0x0 DUP2 DUP2 MSTORE PUSH1 0x14 PUSH1 0x20 MSTORE PUSH1 0x40 SWAP1 KECCAK256 PUSH1 0x6 ADD DUP1 SLOAD PUSH1 0xFF NOT AND PUSH1 0x2 OR SWAP1 SSTORE JUMPDEST POP JUMP JUMPDEST PUSH1 0x60 PUSH1 0x0 DUP1 SLOAD PUSH2 0xA58 SWAP1 PUSH2 0x5A04 JUMP JUMPDEST DUP1 PUSH1 0x1F ADD PUSH1 0x20 DUP1 SWAP2 DIV MUL PUSH1 0x20 ADD PUSH1 0x40 MLOAD SWAP1 DUP2 ADD PUSH1 0x40 MSTORE DUP1 SWAP3 SWAP2 SWAP1 DUP2 DUP2 MSTORE PUSH1 0x20 ADD DUP3 DUP1 SLOAD PUSH2 0xA84 SWAP1 PUSH2 0x5A04 JUMP JUMPDEST DUP1 ISZERO PUSH2 0xAD1 JUMPI DUP1 PUSH1 0x1F LT PUSH2 0xAA6 JUMPI PUSH2 0x100 DUP1 DUP4 SLOAD DIV MUL DUP4 MSTORE SWAP2 PUSH1 0x20 ADD SWAP2 PUSH2 0xAD1 JUMP JUMPDEST DUP3 ADD SWAP2 SWAP1 PUSH1 0x0 MSTORE PUSH1 0x20 PUSH1 0x0 KECCAK256 SWAP1 JUMPDEST DUP2 SLOAD DUP2 MSTORE SWAP1 PUSH1 0x1 ADD SWAP1 PUSH1 0x20 ADD DUP1 DUP4 GT PUSH2 0xAB4 JUMPI DUP3 SWAP1 SUB PUSH1 0x1F AND DUP3 ADD SWAP2 JUMPDEST POP POP POP POP POP SWAP1 POP SWAP1 JUMP JUMPDEST PUSH1 0x0 PUSH2 0xAE6 DUP3 PUSH2 0x44FF JUMP JUMPDEST POP PUSH1 0x0 SWAP1 DUP2 MSTORE PUSH1 0x4 PUSH1 0x20 MSTORE PUSH1 0x40 SWAP1 KECCAK256 SLOAD PUSH1 0x1 PUSH1 0x1 PUSH1 0xA0 SHL SUB AND SWAP1 JUMP JUMPDEST PUSH1 0x0 PUSH2 0xB0D DUP3 PUSH2 0x228F JUMP JUMPDEST SWAP1 POP DUP1 PUSH1 0x1 PUSH1 0x1 PUSH1 0xA0 SHL SUB AND DUP4 PUSH1 0x1 PUSH1 0x1 PUSH1 0xA0 SHL SUB AND SUB PUSH2 0xB7F JUMPI PUSH1 0x40 MLOAD PUSH3 0x461BCD PUSH1 0xE5 SHL DUP2 MSTORE PUSH1 0x20 PUSH1 0x4 DUP3 ADD MSTORE PUSH1 0x21 PUSH1 0x24 DUP3 ADD MSTORE PUSH32 0x4552433732313A20617070726F76616C20746F2063757272656E74206F776E65 PUSH1 0x44 DUP3 ADD MSTORE PUSH1 0x39 PUSH1 0xF9 SHL PUSH1 0x64 DUP3 ADD MSTORE PUSH1 0x84 ADD JUMPDEST PUSH1 0x40 MLOAD DUP1 SWAP2 SUB SWAP1 REVERT JUMPDEST CALLER PUSH1 0x1 PUSH1 0x1 PUSH1 0xA0 SHL SUB DUP3 AND EQ DUP1 PUSH2 0xB9B JUMPI POP PUSH2 0xB9B DUP2 CALLER PUSH2 0x956 JUMP JUMPDEST PUSH2 0xC0D JUMPI PUSH1 0x40 MLOAD PUSH3 0x461BCD PUSH1 0xE5 SHL DUP2 MSTORE PUSH1 0x20 PUSH1 0x4 DUP3 ADD MSTORE PUSH1 0x3D PUSH1 0x24 DUP3 ADD MSTORE PUSH32 0x4552433732313A20617070726F76652063616C6C6572206973206E6F7420746F PUSH1 0x44 DUP3 ADD MSTORE PUSH32 0x6B656E206F776E6572206F7220617070726F76656420666F7220616C6C000000 PUSH1 0x64 DUP3 ADD MSTORE PUSH1 0x84 ADD PUSH2 0xB76 JUMP JUMPDEST PUSH2 0xC17 DUP4 DUP4 PUSH2 0x455E JUMP JUMPDEST POP POP POP JUMP JUMPDEST PUSH1 0x40 DUP1 MLOAD PUSH1 0xE0 DUP2 ADD DUP3 MSTORE DUP8 DUP2 MSTORE PUSH1 0x20 DUP1 DUP3 ADD DUP9 DUP2 MSTORE DUP3 DUP5 ADD DUP9 DUP2 MSTORE PUSH1 0x60 DUP5 ADD DUP9 DUP2 MSTORE PUSH1 0x80 DUP6 ADD DUP9 DUP2 MSTORE PUSH1 0xA0 DUP7 ADD DUP9 DUP2 MSTORE PUSH1 0x0 PUSH1 0xC0 DUP9 ADD DUP2 DUP2 MSTORE PUSH1 0x9 DUP1 SLOAD DUP4 MSTORE PUSH1 0x14 SWAP1 SWAP9 MSTORE SWAP9 DUP2 KECCAK256 SWAP8 MLOAD DUP9 SSTORE SWAP5 MLOAD PUSH1 0x1 DUP1 DUP10 ADD SWAP2 SWAP1 SWAP2 SSTORE SWAP4 MLOAD PUSH1 0x2 DUP9 ADD SSTORE SWAP2 MLOAD PUSH1 0x3 DUP8 ADD SSTORE MLOAD PUSH1 0x4 DUP7 ADD SSTORE MLOAD PUSH1 0x5 DUP6 ADD SSTORE SWAP4 MLOAD PUSH1 0x6 SWAP1 SWAP4 ADD DUP1 SLOAD PUSH1 0xFF NOT AND PUSH1 0xFF SWAP1 SWAP5 AND SWAP4 SWAP1 SWAP4 OR SWAP1 SWAP3 SSTORE DUP1 SLOAD SWAP2 SWAP3 SWAP2 DUP4 SWAP1 PUSH2 0xCB7 SWAP1 DUP5 SWAP1 PUSH2 0x59F1 JUMP JUMPDEST SWAP1 SWAP2 SSTORE POP POP PUSH1 0x9 SLOAD PUSH2 0xCCB SWAP1 PUSH1 0x1 SWAP1 PUSH2 0x5A38 JUMP JUMPDEST SWAP8 SWAP7 POP POP POP POP POP POP POP JUMP JUMPDEST PUSH1 0x0 DUP2 DUP2 MSTORE PUSH1 0x16 PUSH1 0x20 SWAP1 DUP2 MSTORE PUSH1 0x40 DUP1 DUP4 KECCAK256 PUSH1 0xA SLOAD DUP5 MSTORE PUSH1 0x15 SWAP1 SWAP3 MSTORE SWAP1 SWAP2 KECCAK256 DUP2 SLOAD DUP2 SSTORE PUSH1 0x1 DUP1 DUP4 ADD SLOAD SWAP1 DUP3 ADD SSTORE PUSH1 0x2 DUP1 DUP3 ADD SWAP1 PUSH2 0xD14 SWAP1 DUP5 ADD DUP3 PUSH2 0x5A99 JUMP JUMPDEST POP PUSH1 0x3 DUP2 DUP2 ADD SWAP1 PUSH2 0xD27 SWAP1 DUP5 ADD DUP3 PUSH2 0x5A99 JUMP JUMPDEST POP PUSH1 0x4 DUP2 DUP2 ADD SWAP1 PUSH2 0xD3A SWAP1 DUP5 ADD DUP3 PUSH2 0x5A99 JUMP JUMPDEST POP PUSH1 0x5 DUP2 DUP2 ADD SWAP1 PUSH2 0xD4D SWAP1 DUP5 ADD DUP3 PUSH2 0x5A99 JUMP JUMPDEST POP PUSH1 0x6 DUP3 DUP2 ADD SLOAD DUP3 DUP3 ADD SSTORE PUSH1 0x7 DUP1 DUP5 ADD SLOAD DUP2 DUP5 ADD SSTORE PUSH1 0x8 DUP1 DUP6 ADD SLOAD DUP2 DUP6 ADD SSTORE PUSH1 0x9 DUP1 DUP7 ADD SLOAD SWAP1 DUP6 ADD DUP1 SLOAD PUSH1 0xFF NOT AND PUSH1 0xFF SWAP1 SWAP3 AND ISZERO ISZERO SWAP2 SWAP1 SWAP2 OR SWAP1 SSTORE PUSH1 0xA SWAP5 DUP6 ADD SLOAD SWAP4 DUP6 ADD SWAP4 SWAP1 SWAP4 SSTORE SWAP3 SLOAD PUSH1 0x0 DUP2 DUP2 MSTORE PUSH1 0x15 PUSH1 0x20 SWAP1 DUP2 MSTORE PUSH1 0x40 DUP1 DUP4 KECCAK256 DUP5 DUP2 SSTORE DUP2 MLOAD PUSH1 0xE0 DUP2 ADD DUP4 MSTORE CALLER DUP1 DUP3 MSTORE PUSH1 0xE DUP1 SLOAD DUP4 DUP8 ADD DUP2 DUP2 MSTORE SWAP3 DUP9 MSTORE PUSH1 0x19 DUP8 MSTORE DUP6 DUP9 KECCAK256 SLOAD DUP5 DUP8 ADD SWAP1 DUP2 MSTORE PUSH1 0x60 DUP6 ADD SWAP10 DUP11 MSTORE DUP6 DUP12 ADD SLOAD PUSH1 0x80 DUP7 ADD SWAP1 DUP2 MSTORE SWAP13 DUP7 ADD SLOAD PUSH1 0xA0 DUP7 ADD SWAP1 DUP2 MSTORE SWAP6 SWAP1 SWAP12 ADD SLOAD PUSH1 0xC0 DUP6 ADD SWAP1 DUP2 MSTORE SWAP1 DUP9 MSTORE PUSH1 0x17 SWAP1 SWAP7 MSTORE SWAP4 DUP7 KECCAK256 SWAP2 MLOAD DUP3 SLOAD PUSH1 0x1 PUSH1 0x1 PUSH1 0xA0 SHL SUB NOT AND PUSH1 0x1 PUSH1 0x1 PUSH1 0xA0 SHL SUB SWAP1 SWAP2 AND OR DUP3 SSTORE MLOAD PUSH1 0x1 DUP3 DUP2 ADD SWAP2 SWAP1 SWAP2 SSTORE SWAP8 MLOAD PUSH1 0x2 DUP3 ADD SSTORE SWAP5 MLOAD PUSH1 0x3 DUP7 ADD SSTORE SWAP7 MLOAD PUSH1 0x4 DUP6 ADD SSTORE SWAP6 MLOAD PUSH1 0x5 DUP5 ADD SSTORE MLOAD SWAP2 SWAP1 SWAP3 ADD SSTORE DUP3 SLOAD SWAP2 SWAP3 SWAP2 PUSH2 0xE5E SWAP1 DUP5 SWAP1 PUSH2 0x59F1 JUMP JUMPDEST SWAP3 POP POP DUP2 SWAP1 SSTORE POP PUSH1 0x1 PUSH1 0xA PUSH1 0x0 DUP3 DUP3 SLOAD PUSH2 0xE78 SWAP2 SWAP1 PUSH2 0x59F1 JUMP JUMPDEST SWAP3 POP POP DUP2 SWAP1 SSTORE POP PUSH1 0x16 PUSH1 0x0 PUSH1 0x1 PUSH1 0xB SLOAD PUSH2 0xE92 SWAP2 SWAP1 PUSH2 0x5A38 JUMP JUMPDEST DUP2 MSTORE PUSH1 0x20 DUP1 DUP3 ADD SWAP3 SWAP1 SWAP3 MSTORE PUSH1 0x40 SWAP1 DUP2 ADD PUSH1 0x0 SWAP1 DUP2 KECCAK256 DUP5 DUP3 MSTORE PUSH1 0x16 SWAP1 SWAP4 MSTORE KECCAK256 DUP2 SLOAD DUP2 SSTORE PUSH1 0x1 DUP1 DUP4 ADD SLOAD SWAP1 DUP3 ADD SSTORE PUSH1 0x2 DUP1 DUP3 ADD SWAP1 PUSH2 0xED0 SWAP1 DUP5 ADD DUP3 PUSH2 0x5A99 JUMP JUMPDEST POP PUSH1 0x3 DUP2 DUP2 ADD SWAP1 PUSH2 0xEE3 SWAP1 DUP5 ADD DUP3 PUSH2 0x5A99 JUMP JUMPDEST POP PUSH1 0x4 DUP2 DUP2 ADD SWAP1 PUSH2 0xEF6 SWAP1 DUP5 ADD DUP3 PUSH2 0x5A99 JUMP JUMPDEST POP PUSH1 0x5 DUP2 DUP2 ADD SWAP1 PUSH2 0xF09 SWAP1 DUP5 ADD DUP3 PUSH2 0x5A99 JUMP JUMPDEST POP PUSH1 0x6 DUP3 DUP2 ADD SLOAD SWAP1 DUP3 ADD SSTORE PUSH1 0x7 DUP1 DUP4 ADD SLOAD SWAP1 DUP3 ADD SSTORE PUSH1 0x8 DUP1 DUP4 ADD SLOAD SWAP1 DUP3 ADD SSTORE PUSH1 0x9 DUP1 DUP4 ADD SLOAD SWAP1 DUP3 ADD DUP1 SLOAD PUSH1 0xFF NOT AND PUSH1 0xFF SWAP1 SWAP3 AND ISZERO ISZERO SWAP2 SWAP1 SWAP2 OR SWAP1 SSTORE PUSH1 0xA SWAP2 DUP3 ADD SLOAD SWAP2 ADD SSTORE PUSH1 0xB SLOAD PUSH1 0x16 SWAP1 PUSH1 0x0 SWAP1 PUSH2 0xF62 SWAP1 PUSH1 0x1 SWAP1 PUSH2 0x5A38 JUMP JUMPDEST DUP2 MSTORE PUSH1 0x20 DUP2 ADD SWAP2 SWAP1 SWAP2 MSTORE PUSH1 0x40 ADD PUSH1 0x0 SWAP1 DUP2 KECCAK256 DUP2 DUP2 SSTORE PUSH1 0x1 DUP2 ADD DUP3 SWAP1 SSTORE SWAP1 PUSH2 0xF8C PUSH1 0x2 DUP4 ADD DUP3 PUSH2 0x4E4F JUMP JUMPDEST PUSH2 0xF9A PUSH1 0x3 DUP4 ADD PUSH1 0x0 PUSH2 0x4E4F JUMP JUMPDEST PUSH2 0xFA8 PUSH1 0x4 DUP4 ADD PUSH1 0x0 PUSH2 0x4E4F JUMP JUMPDEST PUSH2 0xFB6 PUSH1 0x5 DUP4 ADD PUSH1 0x0 PUSH2 0x4E4F JUMP JUMPDEST POP PUSH1 0x0 PUSH1 0x6 DUP3 ADD DUP2 SWAP1 SSTORE PUSH1 0x7 DUP3 ADD DUP2 SWAP1 SSTORE PUSH1 0x8 DUP3 ADD DUP2 SWAP1 SSTORE PUSH1 0x9 DUP3 ADD DUP1 SLOAD PUSH1 0xFF NOT AND SWAP1 SSTORE PUSH1 0xA SWAP1 SWAP2 ADD DUP2 SWAP1 SSTORE PUSH1 0xB DUP1 SLOAD PUSH1 0x1 SWAP3 SWAP1 PUSH2 0xFF5 SWAP1 DUP5 SWAP1 PUSH2 0x5A38 JUMP JUMPDEST SWAP1 SWAP2 SSTORE POP POP POP JUMP JUMPDEST PUSH1 0x0 DUP2 DUP2 MSTORE PUSH1 0x14 PUSH1 0x20 MSTORE PUSH1 0x40 DUP2 KECCAK256 PUSH1 0x6 ADD SLOAD DUP2 SIGNEXTEND SWAP1 SUB PUSH2 0xA46 JUMPI PUSH1 0x0 DUP2 DUP2 MSTORE PUSH1 0x14 PUSH1 0x20 MSTORE PUSH1 0x40 SWAP1 KECCAK256 PUSH1 0x6 ADD DUP1 SLOAD PUSH1 0xFF NOT AND PUSH1 0x1 OR SWAP1 SSTORE POP JUMP JUMPDEST CALLER PUSH1 0x0 SWAP1 DUP2 MSTORE PUSH1 0x19 PUSH1 0x20 MSTORE PUSH1 0x40 DUP1 DUP3 KECCAK256 SLOAD PUSH1 0x1 PUSH1 0x1 PUSH1 0xA0 SHL SUB DUP9 AND DUP4 MSTORE SWAP1 DUP3 KECCAK256 SLOAD PUSH2 0x1065 SWAP2 SWAP1 DUP8 DUP8 TIMESTAMP DUP9 PUSH2 0xC1C JUMP JUMPDEST SWAP1 POP PUSH2 0x1071 DUP8 DUP7 PUSH2 0x1635 JUMP JUMPDEST PUSH2 0x1083 JUMPI PUSH2 0x107E DUP2 PUSH2 0xA0F JUMP JUMPDEST PUSH2 0x12BB JUMP JUMPDEST PUSH1 0x0 JUMPDEST PUSH1 0xE SLOAD DUP2 LT ISZERO PUSH2 0x11A0 JUMPI CALLER PUSH1 0x0 SWAP1 DUP2 MSTORE PUSH1 0x19 PUSH1 0x20 SWAP1 DUP2 MSTORE PUSH1 0x40 DUP1 DUP4 KECCAK256 SLOAD DUP5 DUP5 MSTORE PUSH1 0x17 SWAP1 SWAP3 MSTORE SWAP1 SWAP2 KECCAK256 PUSH1 0x2 ADD SLOAD EQ DUP1 ISZERO PUSH2 0x10CF JUMPI POP PUSH1 0x0 DUP2 DUP2 MSTORE PUSH1 0x17 PUSH1 0x20 MSTORE PUSH1 0x40 SWAP1 KECCAK256 PUSH1 0x3 ADD SLOAD DUP5 EQ JUMPDEST ISZERO PUSH2 0x118E JUMPI PUSH1 0x0 DUP2 DUP2 MSTORE PUSH1 0x17 PUSH1 0x20 MSTORE PUSH1 0x40 SWAP1 KECCAK256 PUSH1 0x4 ADD SLOAD DUP4 SWAP1 PUSH2 0x10F3 SWAP1 DUP9 SWAP1 PUSH2 0x59F1 JUMP JUMPDEST GT ISZERO PUSH2 0x1185 JUMPI PUSH1 0x0 DUP2 DUP2 MSTORE PUSH1 0x17 PUSH1 0x20 MSTORE PUSH1 0x40 DUP2 KECCAK256 PUSH1 0x4 ADD DUP1 SLOAD DUP9 SWAP3 SWAP1 PUSH2 0x111A SWAP1 DUP5 SWAP1 PUSH2 0x59F1 JUMP JUMPDEST SWAP1 SWAP2 SSTORE POP POP PUSH1 0x0 DUP2 DUP2 MSTORE PUSH1 0x17 PUSH1 0x20 MSTORE PUSH1 0x40 DUP2 KECCAK256 PUSH1 0x5 ADD DUP1 SLOAD DUP9 SWAP3 SWAP1 PUSH2 0x1140 SWAP1 DUP5 SWAP1 PUSH2 0x59F1 JUMP JUMPDEST SWAP1 SWAP2 SSTORE POP PUSH2 0x1150 SWAP1 POP DUP9 DUP8 PUSH2 0x1F5C JUMP JUMPDEST PUSH1 0x0 DUP5 DUP2 MSTORE PUSH1 0x15 PUSH1 0x20 MSTORE PUSH1 0x40 DUP2 KECCAK256 PUSH1 0x7 ADD DUP1 SLOAD DUP9 SWAP3 SWAP1 PUSH2 0x1171 SWAP1 DUP5 SWAP1 PUSH2 0x5A38 JUMP JUMPDEST SWAP1 SWAP2 SSTORE POP PUSH2 0x1180 SWAP1 POP DUP3 PUSH2 0xFFD JUMP JUMPDEST PUSH2 0x118E JUMP JUMPDEST PUSH2 0x118E DUP3 PUSH2 0xA0F JUMP JUMPDEST DUP1 PUSH2 0x1198 DUP2 PUSH2 0x5B75 JUMP JUMPDEST SWAP2 POP POP PUSH2 0x1086 JUMP JUMPDEST PUSH1 0xE SLOAD DUP2 SUB PUSH2 0x12B9 JUMPI DUP3 DUP7 GT ISZERO PUSH2 0x12B0 JUMPI PUSH2 0x11BB DUP9 DUP8 PUSH2 0x1F5C JUMP JUMPDEST PUSH1 0x0 DUP5 DUP2 MSTORE PUSH1 0x15 PUSH1 0x20 MSTORE PUSH1 0x40 DUP2 KECCAK256 PUSH1 0x7 ADD DUP1 SLOAD DUP9 SWAP3 SWAP1 PUSH2 0x11DC SWAP1 DUP5 SWAP1 PUSH2 0x5A38 JUMP JUMPDEST SWAP1 SWAP2 SSTORE POP POP PUSH1 0x40 DUP1 MLOAD PUSH1 0xE0 DUP2 ADD DUP3 MSTORE CALLER DUP1 DUP3 MSTORE PUSH1 0xE DUP1 SLOAD PUSH1 0x20 DUP1 DUP6 ADD DUP3 DUP2 MSTORE PUSH1 0x0 SWAP5 DUP6 MSTORE PUSH1 0x19 DUP3 MSTORE DUP7 DUP6 KECCAK256 SLOAD DUP7 DUP9 ADD SWAP1 DUP2 MSTORE PUSH1 0x60 DUP8 ADD DUP13 DUP2 MSTORE PUSH1 0x80 DUP9 ADD DUP16 DUP2 MSTORE PUSH1 0xA0 DUP10 ADD DUP14 DUP2 MSTORE DUP15 DUP10 MSTORE PUSH1 0x15 DUP7 MSTORE DUP11 DUP10 KECCAK256 PUSH1 0x8 ADD SLOAD PUSH1 0xC0 DUP12 ADD SWAP1 DUP2 MSTORE SWAP7 DUP10 MSTORE PUSH1 0x17 SWAP1 SWAP6 MSTORE SWAP9 DUP8 KECCAK256 SWAP8 MLOAD DUP9 SLOAD PUSH1 0x1 PUSH1 0x1 PUSH1 0xA0 SHL SUB NOT AND PUSH1 0x1 PUSH1 0x1 PUSH1 0xA0 SHL SUB SWAP1 SWAP2 AND OR DUP9 SSTORE SWAP2 MLOAD PUSH1 0x1 DUP1 DUP10 ADD SWAP2 SWAP1 SWAP2 SSTORE SWAP1 MLOAD PUSH1 0x2 DUP9 ADD SSTORE SWAP1 MLOAD PUSH1 0x3 DUP8 ADD SSTORE SWAP6 MLOAD PUSH1 0x4 DUP7 ADD SSTORE MLOAD PUSH1 0x5 DUP6 ADD SSTORE MLOAD PUSH1 0x6 SWAP1 SWAP4 ADD SWAP3 SWAP1 SWAP3 SSTORE DUP2 SLOAD PUSH2 0x129C SWAP1 DUP5 SWAP1 PUSH2 0x59F1 JUMP JUMPDEST SWAP1 SWAP2 SSTORE POP PUSH2 0x12AB SWAP1 POP DUP3 PUSH2 0xFFD JUMP JUMPDEST PUSH2 0x12B9 JUMP JUMPDEST PUSH2 0x12B9 DUP3 PUSH2 0xA0F JUMP JUMPDEST POP JUMPDEST POP POP POP POP POP POP POP JUMP JUMPDEST PUSH2 0x12CE CALLER DUP3 PUSH2 0x45CC JUMP JUMPDEST PUSH2 0x12EA JUMPI PUSH1 0x40 MLOAD PUSH3 0x461BCD PUSH1 0xE5 SHL DUP2 MSTORE PUSH1 0x4 ADD PUSH2 0xB76 SWAP1 PUSH2 0x5B8E JUMP JUMPDEST PUSH2 0xC17 DUP4 DUP4 DUP4 PUSH2 0x464A JUMP JUMPDEST PUSH2 0x12FD PUSH2 0x4E89 JUMP JUMPDEST PUSH1 0xA SLOAD DUP3 LT PUSH2 0x133F JUMPI PUSH1 0x40 MLOAD PUSH3 0x461BCD PUSH1 0xE5 SHL DUP2 MSTORE PUSH1 0x20 PUSH1 0x4 DUP3 ADD MSTORE PUSH1 0xE PUSH1 0x24 DUP3 ADD MSTORE PUSH14 0x4E6F20706C6F7420657869737473 PUSH1 0x90 SHL PUSH1 0x44 DUP3 ADD MSTORE PUSH1 0x64 ADD PUSH2 0xB76 JUMP JUMPDEST PUSH1 0x15 PUSH1 0x0 DUP4 DUP2 MSTORE PUSH1 0x20 ADD SWAP1 DUP2 MSTORE PUSH1 0x20 ADD PUSH1 0x0 KECCAK256 PUSH1 0x40 MLOAD DUP1 PUSH2 0x160 ADD PUSH1 0x40 MSTORE SWAP1 DUP2 PUSH1 0x0 DUP3 ADD SLOAD DUP2 MSTORE PUSH1 0x20 ADD PUSH1 0x1 DUP3 ADD SLOAD DUP2 MSTORE PUSH1 0x20 ADD PUSH1 0x2 DUP3 ADD DUP1 SLOAD PUSH2 0x1382 SWAP1 PUSH2 0x5A04 JUMP JUMPDEST DUP1 PUSH1 0x1F ADD PUSH1 0x20 DUP1 SWAP2 DIV MUL PUSH1 0x20 ADD PUSH1 0x40 MLOAD SWAP1 DUP2 ADD PUSH1 0x40 MSTORE DUP1 SWAP3 SWAP2 SWAP1 DUP2 DUP2 MSTORE PUSH1 0x20 ADD DUP3 DUP1 SLOAD PUSH2 0x13AE SWAP1 PUSH2 0x5A04 JUMP JUMPDEST DUP1 ISZERO PUSH2 0x13FB JUMPI DUP1 PUSH1 0x1F LT PUSH2 0x13D0 JUMPI PUSH2 0x100 DUP1 DUP4 SLOAD DIV MUL DUP4 MSTORE SWAP2 PUSH1 0x20 ADD SWAP2 PUSH2 0x13FB JUMP JUMPDEST DUP3 ADD SWAP2 SWAP1 PUSH1 0x0 MSTORE PUSH1 0x20 PUSH1 0x0 KECCAK256 SWAP1 JUMPDEST DUP2 SLOAD DUP2 MSTORE SWAP1 PUSH1 0x1 ADD SWAP1 PUSH1 0x20 ADD DUP1 DUP4 GT PUSH2 0x13DE JUMPI DUP3 SWAP1 SUB PUSH1 0x1F AND DUP3 ADD SWAP2 JUMPDEST POP POP POP POP POP DUP2 MSTORE PUSH1 0x20 ADD PUSH1 0x3 DUP3 ADD DUP1 SLOAD PUSH2 0x1414 SWAP1 PUSH2 0x5A04 JUMP JUMPDEST DUP1 PUSH1 0x1F ADD PUSH1 0x20 DUP1 SWAP2 DIV MUL PUSH1 0x20 ADD PUSH1 0x40 MLOAD SWAP1 DUP2 ADD PUSH1 0x40 MSTORE DUP1 SWAP3 SWAP2 SWAP1 DUP2 DUP2 MSTORE PUSH1 0x20 ADD DUP3 DUP1 SLOAD PUSH2 0x1440 SWAP1 PUSH2 0x5A04 JUMP JUMPDEST DUP1 ISZERO PUSH2 0x148D JUMPI DUP1 PUSH1 0x1F LT PUSH2 0x1462 JUMPI PUSH2 0x100 DUP1 DUP4 SLOAD DIV MUL DUP4 MSTORE SWAP2 PUSH1 0x20 ADD SWAP2 PUSH2 0x148D JUMP JUMPDEST DUP3 ADD SWAP2 SWAP1 PUSH1 0x0 MSTORE PUSH1 0x20 PUSH1 0x0 KECCAK256 SWAP1 JUMPDEST DUP2 SLOAD DUP2 MSTORE SWAP1 PUSH1 0x1 ADD SWAP1 PUSH1 0x20 ADD DUP1 DUP4 GT PUSH2 0x1470 JUMPI DUP3 SWAP1 SUB PUSH1 0x1F AND DUP3 ADD SWAP2 JUMPDEST POP POP POP POP POP DUP2 MSTORE PUSH1 0x20 ADD PUSH1 0x4 DUP3 ADD DUP1 SLOAD PUSH2 0x14A6 SWAP1 PUSH2 0x5A04 JUMP JUMPDEST DUP1 PUSH1 0x1F ADD PUSH1 0x20 DUP1 SWAP2 DIV MUL PUSH1 0x20 ADD PUSH1 0x40 MLOAD SWAP1 DUP2 ADD PUSH1 0x40 MSTORE DUP1 SWAP3 SWAP2 SWAP1 DUP2 DUP2 MSTORE PUSH1 0x20 ADD DUP3 DUP1 SLOAD PUSH2 0x14D2 SWAP1 PUSH2 0x5A04 JUMP JUMPDEST DUP1 ISZERO PUSH2 0x151F JUMPI DUP1 PUSH1 0x1F LT PUSH2 0x14F4 JUMPI PUSH2 0x100 DUP1 DUP4 SLOAD DIV MUL DUP4 MSTORE SWAP2 PUSH1 0x20 ADD SWAP2 PUSH2 0x151F JUMP JUMPDEST DUP3 ADD SWAP2 SWAP1 PUSH1 0x0 MSTORE PUSH1 0x20 PUSH1 0x0 KECCAK256 SWAP1 JUMPDEST DUP2 SLOAD DUP2 MSTORE SWAP1 PUSH1 0x1 ADD SWAP1 PUSH1 0x20 ADD DUP1 DUP4 GT PUSH2 0x1502 JUMPI DUP3 SWAP1 SUB PUSH1 0x1F AND DUP3 ADD SWAP2 JUMPDEST POP POP POP POP POP DUP2 MSTORE PUSH1 0x20 ADD PUSH1 0x5 DUP3 ADD DUP1 SLOAD PUSH2 0x1538 SWAP1 PUSH2 0x5A04 JUMP JUMPDEST DUP1 PUSH1 0x1F ADD PUSH1 0x20 DUP1 SWAP2 DIV MUL PUSH1 0x20 ADD PUSH1 0x40 MLOAD SWAP1 DUP2 ADD PUSH1 0x40 MSTORE DUP1 SWAP3 SWAP2 SWAP1 DUP2 DUP2 MSTORE PUSH1 0x20 ADD DUP3 DUP1 SLOAD PUSH2 0x1564 SWAP1 PUSH2 0x5A04 JUMP JUMPDEST DUP1 ISZERO PUSH2 0x15B1 JUMPI DUP1 PUSH1 0x1F LT PUSH2 0x1586 JUMPI PUSH2 0x100 DUP1 DUP4 SLOAD DIV MUL DUP4 MSTORE SWAP2 PUSH1 0x20 ADD SWAP2 PUSH2 0x15B1 JUMP JUMPDEST DUP3 ADD SWAP2 SWAP1 PUSH1 0x0 MSTORE PUSH1 0x20 PUSH1 0x0 KECCAK256 SWAP1 JUMPDEST DUP2 SLOAD DUP2 MSTORE SWAP1 PUSH1 0x1 ADD SWAP1 PUSH1 0x20 ADD DUP1 DUP4 GT PUSH2 0x1594 JUMPI DUP3 SWAP1 SUB PUSH1 0x1F AND DUP3 ADD SWAP2 JUMPDEST POP POP POP SWAP2 DUP4 MSTORE POP POP PUSH1 0x6 DUP3 ADD SLOAD PUSH1 0x20 DUP3 ADD MSTORE PUSH1 0x7 DUP3 ADD SLOAD PUSH1 0x40 DUP3 ADD MSTORE PUSH1 0x8 DUP3 ADD SLOAD PUSH1 0x60 DUP3 ADD MSTORE PUSH1 0x9 DUP3 ADD SLOAD PUSH1 0xFF AND ISZERO ISZERO PUSH1 0x80 DUP3 ADD MSTORE PUSH1 0xA SWAP1 SWAP2 ADD SLOAD PUSH1 0xA0 SWAP1 SWAP2 ADD MSTORE SWAP3 SWAP2 POP POP JUMP JUMPDEST PUSH1 0x0 DUP3 DUP2 MSTORE PUSH1 0x17 PUSH1 0x20 MSTORE PUSH1 0x40 DUP2 KECCAK256 PUSH1 0x5 ADD DUP1 SLOAD DUP4 SWAP3 SWAP1 PUSH2 0x1619 SWAP1 DUP5 SWAP1 PUSH2 0x59F1 JUMP JUMPDEST SWAP1 SWAP2 SSTORE POP POP POP POP JUMP JUMPDEST PUSH1 0x16 PUSH1 0x0 PUSH1 0x1 PUSH1 0xB SLOAD PUSH2 0xE92 SWAP2 SWAP1 PUSH2 0x5A38 JUMP JUMPDEST PUSH1 0x0 DUP3 DUP2 MSTORE PUSH1 0x17 PUSH1 0x20 MSTORE PUSH1 0x40 DUP2 KECCAK256 PUSH1 0x5 ADD SLOAD DUP2 SWAP1 PUSH2 0x1654 SWAP1 DUP5 SWAP1 PUSH2 0x5A38 JUMP JUMPDEST LT PUSH2 0x9B5 JUMPI POP PUSH1 0x1 PUSH2 0x9B9 JUMP JUMPDEST PUSH2 0x16A1 PUSH1 0x40 MLOAD DUP1 PUSH1 0xE0 ADD PUSH1 0x40 MSTORE DUP1 PUSH1 0x0 DUP2 MSTORE PUSH1 0x20 ADD PUSH1 0x0 DUP2 MSTORE PUSH1 0x20 ADD PUSH1 0x0 DUP2 MSTORE PUSH1 0x20 ADD PUSH1 0x0 DUP2 MSTORE PUSH1 0x20 ADD PUSH1 0x0 DUP2 MSTORE PUSH1 0x20 ADD PUSH1 0x60 DUP2 MSTORE PUSH1 0x20 ADD PUSH1 0x60 DUP2 MSTORE POP SWAP1 JUMP JUMPDEST PUSH1 0x10 PUSH1 0x0 DUP4 DUP2 MSTORE PUSH1 0x20 ADD SWAP1 DUP2 MSTORE PUSH1 0x20 ADD PUSH1 0x0 KECCAK256 PUSH1 0x40 MLOAD DUP1 PUSH1 0xE0 ADD PUSH1 0x40 MSTORE SWAP1 DUP2 PUSH1 0x0 DUP3 ADD SLOAD DUP2 MSTORE PUSH1 0x20 ADD PUSH1 0x1 DUP3 ADD SLOAD DUP2 MSTORE PUSH1 0x20 ADD PUSH1 0x2 DUP3 ADD SLOAD DUP2 MSTORE PUSH1 0x20 ADD PUSH1 0x3 DUP3 ADD SLOAD DUP2 MSTORE PUSH1 0x20 ADD PUSH1 0x4 DUP3 ADD SLOAD DUP2 MSTORE PUSH1 0x20 ADD PUSH1 0x5 DUP3 ADD DUP1 SLOAD PUSH2 0x1701 SWAP1 PUSH2 0x5A04 JUMP JUMPDEST DUP1 PUSH1 0x1F ADD PUSH1 0x20 DUP1 SWAP2 DIV MUL PUSH1 0x20 ADD PUSH1 0x40 MLOAD SWAP1 DUP2 ADD PUSH1 0x40 MSTORE DUP1 SWAP3 SWAP2 SWAP1 DUP2 DUP2 MSTORE PUSH1 0x20 ADD DUP3 DUP1 SLOAD PUSH2 0x172D SWAP1 PUSH2 0x5A04 JUMP JUMPDEST DUP1 ISZERO PUSH2 0x177A JUMPI DUP1 PUSH1 0x1F LT PUSH2 0x174F JUMPI PUSH2 0x100 DUP1 DUP4 SLOAD DIV MUL DUP4 MSTORE SWAP2 PUSH1 0x20 ADD SWAP2 PUSH2 0x177A JUMP JUMPDEST DUP3 ADD SWAP2 SWAP1 PUSH1 0x0 MSTORE PUSH1 0x20 PUSH1 0x0 KECCAK256 SWAP1 JUMPDEST DUP2 SLOAD DUP2 MSTORE SWAP1 PUSH1 0x1 ADD SWAP1 PUSH1 0x20 ADD DUP1 DUP4 GT PUSH2 0x175D JUMPI DUP3 SWAP1 SUB PUSH1 0x1F AND DUP3 ADD SWAP2 JUMPDEST POP POP POP POP POP DUP2 MSTORE PUSH1 0x20 ADD PUSH1 0x6 DUP3 ADD DUP1 SLOAD PUSH2 0x1793 SWAP1 PUSH2 0x5A04 JUMP JUMPDEST DUP1 PUSH1 0x1F ADD PUSH1 0x20 DUP1 SWAP2 DIV MUL PUSH1 0x20 ADD PUSH1 0x40 MLOAD SWAP1 DUP2 ADD PUSH1 0x40 MSTORE DUP1 SWAP3 SWAP2 SWAP1 DUP2 DUP2 MSTORE PUSH1 0x20 ADD DUP3 DUP1 SLOAD PUSH2 0x17BF SWAP1 PUSH2 0x5A04 JUMP JUMPDEST DUP1 ISZERO PUSH2 0x180C JUMPI DUP1 PUSH1 0x1F LT PUSH2 0x17E1 JUMPI PUSH2 0x100 DUP1 DUP4 SLOAD DIV MUL DUP4 MSTORE SWAP2 PUSH1 0x20 ADD SWAP2 PUSH2 0x180C JUMP JUMPDEST DUP3 ADD SWAP2 SWAP1 PUSH1 0x0 MSTORE PUSH1 0x20 PUSH1 0x0 KECCAK256 SWAP1 JUMPDEST DUP2 SLOAD DUP2 MSTORE SWAP1 PUSH1 0x1 ADD SWAP1 PUSH1 0x20 ADD DUP1 DUP4 GT PUSH2 0x17EF JUMPI DUP3 SWAP1 SUB PUSH1 0x1F AND DUP3 ADD SWAP2 JUMPDEST POP POP POP POP POP DUP2 MSTORE POP POP SWAP1 POP SWAP2 SWAP1 POP JUMP JUMPDEST PUSH2 0xC17 DUP4 DUP4 DUP4 PUSH1 0x40 MLOAD DUP1 PUSH1 0x20 ADD PUSH1 0x40 MSTORE DUP1 PUSH1 0x0 DUP2 MSTORE POP PUSH2 0x337F JUMP JUMPDEST PUSH1 0x60 PUSH1 0x0 PUSH1 0xB SLOAD PUSH1 0x1 PUSH1 0x1 PUSH1 0x40 SHL SUB DUP2 GT ISZERO PUSH2 0x1855 JUMPI PUSH2 0x1855 PUSH2 0x537A JUMP JUMPDEST PUSH1 0x40 MLOAD SWAP1 DUP1 DUP3 MSTORE DUP1 PUSH1 0x20 MUL PUSH1 0x20 ADD DUP3 ADD PUSH1 0x40 MSTORE DUP1 ISZERO PUSH2 0x188E JUMPI DUP2 PUSH1 0x20 ADD JUMPDEST PUSH2 0x187B PUSH2 0x4E89 JUMP JUMPDEST DUP2 MSTORE PUSH1 0x20 ADD SWAP1 PUSH1 0x1 SWAP1 SUB SWAP1 DUP2 PUSH2 0x1873 JUMPI SWAP1 POP JUMPDEST POP SWAP1 POP PUSH1 0x0 JUMPDEST PUSH1 0xB SLOAD DUP2 LT ISZERO PUSH2 0x1B89 JUMPI PUSH1 0x0 PUSH1 0x16 PUSH1 0x0 DUP4 DUP2 MSTORE PUSH1 0x20 ADD SWAP1 DUP2 MSTORE PUSH1 0x20 ADD PUSH1 0x0 KECCAK256 SWAP1 POP DUP1 PUSH1 0x40 MLOAD DUP1 PUSH2 0x160 ADD PUSH1 0x40 MSTORE SWAP1 DUP2 PUSH1 0x0 DUP3 ADD SLOAD DUP2 MSTORE PUSH1 0x20 ADD PUSH1 0x1 DUP3 ADD SLOAD DUP2 MSTORE PUSH1 0x20 ADD PUSH1 0x2 DUP3 ADD DUP1 SLOAD PUSH2 0x18E6 SWAP1 PUSH2 0x5A04 JUMP JUMPDEST DUP1 PUSH1 0x1F ADD PUSH1 0x20 DUP1 SWAP2 DIV MUL PUSH1 0x20 ADD PUSH1 0x40 MLOAD SWAP1 DUP2 ADD PUSH1 0x40 MSTORE DUP1 SWAP3 SWAP2 SWAP1 DUP2 DUP2 MSTORE PUSH1 0x20 ADD DUP3 DUP1 SLOAD PUSH2 0x1912 SWAP1 PUSH2 0x5A04 JUMP JUMPDEST DUP1 ISZERO PUSH2 0x195F JUMPI DUP1 PUSH1 0x1F LT PUSH2 0x1934 JUMPI PUSH2 0x100 DUP1 DUP4 SLOAD DIV MUL DUP4 MSTORE SWAP2 PUSH1 0x20 ADD SWAP2 PUSH2 0x195F JUMP JUMPDEST DUP3 ADD SWAP2 SWAP1 PUSH1 0x0 MSTORE PUSH1 0x20 PUSH1 0x0 KECCAK256 SWAP1 JUMPDEST DUP2 SLOAD DUP2 MSTORE SWAP1 PUSH1 0x1 ADD SWAP1 PUSH1 0x20 ADD DUP1 DUP4 GT PUSH2 0x1942 JUMPI DUP3 SWAP1 SUB PUSH1 0x1F AND DUP3 ADD SWAP2 JUMPDEST POP POP POP POP POP DUP2 MSTORE PUSH1 0x20 ADD PUSH1 0x3 DUP3 ADD DUP1 SLOAD PUSH2 0x1978 SWAP1 PUSH2 0x5A04 JUMP JUMPDEST DUP1 PUSH1 0x1F ADD PUSH1 0x20 DUP1 SWAP2 DIV MUL PUSH1 0x20 ADD PUSH1 0x40 MLOAD SWAP1 DUP2 ADD PUSH1 0x40 MSTORE DUP1 SWAP3 SWAP2 SWAP1 DUP2 DUP2 MSTORE PUSH1 0x20 ADD DUP3 DUP1 SLOAD PUSH2 0x19A4 SWAP1 PUSH2 0x5A04 JUMP JUMPDEST DUP1 ISZERO PUSH2 0x19F1 JUMPI DUP1 PUSH1 0x1F LT PUSH2 0x19C6 JUMPI PUSH2 0x100 DUP1 DUP4 SLOAD DIV MUL DUP4 MSTORE SWAP2 PUSH1 0x20 ADD SWAP2 PUSH2 0x19F1 JUMP JUMPDEST DUP3 ADD SWAP2 SWAP1 PUSH1 0x0 MSTORE PUSH1 0x20 PUSH1 0x0 KECCAK256 SWAP1 JUMPDEST DUP2 SLOAD DUP2 MSTORE SWAP1 PUSH1 0x1 ADD SWAP1 PUSH1 0x20 ADD DUP1 DUP4 GT PUSH2 0x19D4 JUMPI DUP3 SWAP1 SUB PUSH1 0x1F AND DUP3 ADD SWAP2 JUMPDEST POP POP POP POP POP DUP2 MSTORE PUSH1 0x20 ADD PUSH1 0x4 DUP3 ADD DUP1 SLOAD PUSH2 0x1A0A SWAP1 PUSH2 0x5A04 JUMP JUMPDEST DUP1 PUSH1 0x1F ADD PUSH1 0x20 DUP1 SWAP2 DIV MUL PUSH1 0x20 ADD PUSH1 0x40 MLOAD SWAP1 DUP2 ADD PUSH1 0x40 MSTORE DUP1 SWAP3 SWAP2 SWAP1 DUP2 DUP2 MSTORE PUSH1 0x20 ADD DUP3 DUP1 SLOAD PUSH2 0x1A36 SWAP1 PUSH2 0x5A04 JUMP JUMPDEST DUP1 ISZERO PUSH2 0x1A83 JUMPI DUP1 PUSH1 0x1F LT PUSH2 0x1A58 JUMPI PUSH2 0x100 DUP1 DUP4 SLOAD DIV MUL DUP4 MSTORE SWAP2 PUSH1 0x20 ADD SWAP2 PUSH2 0x1A83 JUMP JUMPDEST DUP3 ADD SWAP2 SWAP1 PUSH1 0x0 MSTORE PUSH1 0x20 PUSH1 0x0 KECCAK256 SWAP1 JUMPDEST DUP2 SLOAD DUP2 MSTORE SWAP1 PUSH1 0x1 ADD SWAP1 PUSH1 0x20 ADD DUP1 DUP4 GT PUSH2 0x1A66 JUMPI DUP3 SWAP1 SUB PUSH1 0x1F AND DUP3 ADD SWAP2 JUMPDEST POP POP POP POP POP DUP2 MSTORE PUSH1 0x20 ADD PUSH1 0x5 DUP3 ADD DUP1 SLOAD PUSH2 0x1A9C SWAP1 PUSH2 0x5A04 JUMP JUMPDEST DUP1 PUSH1 0x1F ADD PUSH1 0x20 DUP1 SWAP2 DIV MUL PUSH1 0x20 ADD PUSH1 0x40 MLOAD SWAP1 DUP2 ADD PUSH1 0x40 MSTORE DUP1 SWAP3 SWAP2 SWAP1 DUP2 DUP2 MSTORE PUSH1 0x20 ADD DUP3 DUP1 SLOAD PUSH2 0x1AC8 SWAP1 PUSH2 0x5A04 JUMP JUMPDEST DUP1 ISZERO PUSH2 0x1B15 JUMPI DUP1 PUSH1 0x1F LT PUSH2 0x1AEA JUMPI PUSH2 0x100 DUP1 DUP4 SLOAD DIV MUL DUP4 MSTORE SWAP2 PUSH1 0x20 ADD SWAP2 PUSH2 0x1B15 JUMP JUMPDEST DUP3 ADD SWAP2 SWAP1 PUSH1 0x0 MSTORE PUSH1 0x20 PUSH1 0x0 KECCAK256 SWAP1 JUMPDEST DUP2 SLOAD DUP2 MSTORE SWAP1 PUSH1 0x1 ADD SWAP1 PUSH1 0x20 ADD DUP1 DUP4 GT PUSH2 0x1AF8 JUMPI DUP3 SWAP1 SUB PUSH1 0x1F AND DUP3 ADD SWAP2 JUMPDEST POP POP POP SWAP2 DUP4 MSTORE POP POP PUSH1 0x6 DUP3 ADD SLOAD PUSH1 0x20 DUP3 ADD MSTORE PUSH1 0x7 DUP3 ADD SLOAD PUSH1 0x40 DUP3 ADD MSTORE PUSH1 0x8 DUP3 ADD SLOAD PUSH1 0x60 DUP3 ADD MSTORE PUSH1 0x9 DUP3 ADD SLOAD PUSH1 0xFF AND ISZERO ISZERO PUSH1 0x80 DUP3 ADD MSTORE PUSH1 0xA SWAP1 SWAP2 ADD SLOAD PUSH1 0xA0 SWAP1 SWAP2 ADD MSTORE DUP4 MLOAD DUP5 SWAP1 DUP5 SWAP1 DUP2 LT PUSH2 0x1B6A JUMPI PUSH2 0x1B6A PUSH2 0x5BDB JUMP JUMPDEST PUSH1 0x20 MUL PUSH1 0x20 ADD ADD DUP2 SWAP1 MSTORE POP POP DUP1 DUP1 PUSH2 0x1B81 SWAP1 PUSH2 0x5B75 JUMP JUMPDEST SWAP2 POP POP PUSH2 0x1894 JUMP JUMPDEST POP SWAP2 SWAP1 POP JUMP JUMPDEST PUSH1 0x1 PUSH1 0x1 PUSH1 0xA0 SHL SUB DUP1 DUP3 AND PUSH1 0x0 SWAP1 DUP2 MSTORE PUSH1 0x19 PUSH1 0x20 SWAP1 DUP2 MSTORE PUSH1 0x40 DUP1 DUP4 KECCAK256 SLOAD DUP4 MSTORE PUSH1 0x13 DUP3 MSTORE DUP1 DUP4 KECCAK256 PUSH1 0xC SLOAD DUP5 MSTORE PUSH1 0x12 SWAP1 SWAP3 MSTORE SWAP1 SWAP2 KECCAK256 DUP2 SLOAD DUP2 SSTORE PUSH1 0x1 DUP1 DUP4 ADD SLOAD SWAP1 DUP3 ADD DUP1 SLOAD PUSH1 0x1 PUSH1 0x1 PUSH1 0xA0 SHL SUB NOT AND SWAP2 SWAP1 SWAP5 AND OR SWAP1 SWAP3 SSTORE SWAP1 PUSH1 0x2 DUP1 DUP3 ADD SWAP1 PUSH2 0x1BF6 SWAP1 DUP5 ADD DUP3 PUSH2 0x5A99 JUMP JUMPDEST POP PUSH1 0x3 DUP2 DUP2 ADD SWAP1 PUSH2 0x1C09 SWAP1 DUP5 ADD DUP3 PUSH2 0x5A99 JUMP JUMPDEST POP PUSH1 0x4 DUP2 DUP2 ADD SWAP1 PUSH2 0x1C1C SWAP1 DUP5 ADD DUP3 PUSH2 0x5A99 JUMP JUMPDEST POP PUSH1 0x5 DUP2 DUP2 ADD SWAP1 PUSH2 0x1C2F SWAP1 DUP5 ADD DUP3 PUSH2 0x5A99 JUMP JUMPDEST POP POP PUSH1 0xC SLOAD PUSH1 0x0 DUP2 DUP2 MSTORE PUSH1 0x12 PUSH1 0x20 MSTORE PUSH1 0x40 DUP2 KECCAK256 SWAP2 SWAP1 SWAP2 SSTORE PUSH1 0xD SLOAD PUSH1 0x13 SWAP3 POP PUSH2 0x1C59 SWAP1 PUSH1 0x1 SWAP1 PUSH2 0x5A38 JUMP JUMPDEST DUP2 MSTORE PUSH1 0x20 DUP1 DUP3 ADD SWAP3 SWAP1 SWAP3 MSTORE PUSH1 0x40 SWAP1 DUP2 ADD PUSH1 0x0 SWAP1 DUP2 KECCAK256 PUSH1 0x1 PUSH1 0x1 PUSH1 0xA0 SHL SUB DUP1 DUP7 AND DUP4 MSTORE PUSH1 0x19 DUP6 MSTORE DUP4 DUP4 KECCAK256 SLOAD DUP4 MSTORE PUSH1 0x13 SWAP1 SWAP5 MSTORE SWAP2 SWAP1 KECCAK256 DUP2 SLOAD DUP2 SSTORE PUSH1 0x1 DUP1 DUP4 ADD SLOAD SWAP1 DUP3 ADD DUP1 SLOAD PUSH1 0x1 PUSH1 0x1 PUSH1 0xA0 SHL SUB NOT AND SWAP2 SWAP1 SWAP5 AND OR SWAP1 SWAP3 SSTORE SWAP1 PUSH1 0x2 DUP1 DUP3 ADD SWAP1 PUSH2 0x1CC1 SWAP1 DUP5 ADD DUP3 PUSH2 0x5A99 JUMP JUMPDEST POP PUSH1 0x3 DUP2 DUP2 ADD SWAP1 PUSH2 0x1CD4 SWAP1 DUP5 ADD DUP3 PUSH2 0x5A99 JUMP JUMPDEST POP PUSH1 0x4 DUP2 DUP2 ADD SWAP1 PUSH2 0x1CE7 SWAP1 DUP5 ADD DUP3 PUSH2 0x5A99 JUMP JUMPDEST POP PUSH1 0x5 DUP2 DUP2 ADD SWAP1 PUSH2 0x1CFA SWAP1 DUP5 ADD DUP3 PUSH2 0x5A99 JUMP JUMPDEST POP POP POP PUSH1 0x1 PUSH1 0x1 PUSH1 0xA0 SHL SUB DUP2 AND PUSH1 0x0 SWAP1 DUP2 MSTORE PUSH1 0x19 PUSH1 0x20 DUP2 SWAP1 MSTORE PUSH1 0x40 DUP3 KECCAK256 SLOAD PUSH1 0xD SLOAD SWAP1 SWAP3 SWAP1 PUSH1 0x13 SWAP1 DUP3 SWAP1 PUSH2 0x1D2F SWAP1 PUSH1 0x1 SWAP1 PUSH2 0x5A38 JUMP JUMPDEST DUP2 MSTORE PUSH1 0x20 DUP1 DUP3 ADD SWAP3 SWAP1 SWAP3 MSTORE PUSH1 0x40 SWAP1 DUP2 ADD PUSH1 0x0 SWAP1 DUP2 KECCAK256 PUSH1 0x1 SWAP1 DUP2 ADD SLOAD PUSH1 0x1 PUSH1 0x1 PUSH1 0xA0 SHL SUB SWAP1 DUP2 AND DUP7 MSTORE DUP6 DUP6 ADD SWAP7 SWAP1 SWAP7 MSTORE SWAP4 DUP3 ADD DUP2 KECCAK256 SWAP6 SWAP1 SWAP6 SSTORE PUSH1 0xC DUP1 SLOAD SWAP5 DUP8 AND DUP7 MSTORE PUSH1 0x19 SWAP1 SWAP3 MSTORE DUP5 KECCAK256 DUP4 SWAP1 SSTORE SWAP1 SWAP3 SWAP1 SWAP2 PUSH2 0x1D89 SWAP1 DUP5 SWAP1 PUSH2 0x59F1 JUMP JUMPDEST SWAP3 POP POP DUP2 SWAP1 SSTORE POP PUSH1 0x13 PUSH1 0x0 PUSH1 0x1 PUSH1 0xD SLOAD PUSH2 0x1DA3 SWAP2 SWAP1 PUSH2 0x5A38 JUMP JUMPDEST DUP2 MSTORE PUSH1 0x20 DUP2 ADD SWAP2 SWAP1 SWAP2 MSTORE PUSH1 0x40 ADD PUSH1 0x0 SWAP1 DUP2 KECCAK256 DUP2 DUP2 SSTORE PUSH1 0x1 DUP2 ADD DUP1 SLOAD PUSH1 0x1 PUSH1 0x1 PUSH1 0xA0 SHL SUB NOT AND SWAP1 SSTORE SWAP1 PUSH2 0x1DD8 PUSH1 0x2 DUP4 ADD DUP3 PUSH2 0x4E4F JUMP JUMPDEST PUSH2 0x1DE6 PUSH1 0x3 DUP4 ADD PUSH1 0x0 PUSH2 0x4E4F JUMP JUMPDEST PUSH2 0x1DF4 PUSH1 0x4 DUP4 ADD PUSH1 0x0 PUSH2 0x4E4F JUMP JUMPDEST PUSH2 0x1E02 PUSH1 0x5 DUP4 ADD PUSH1 0x0 PUSH2 0x4E4F JUMP JUMPDEST POP POP PUSH1 0x1 PUSH1 0xD PUSH1 0x0 DUP3 DUP3 SLOAD PUSH2 0xFF5 SWAP2 SWAP1 PUSH2 0x5A38 JUMP JUMPDEST PUSH1 0x13 PUSH1 0x0 PUSH1 0x1 PUSH1 0xD SLOAD PUSH2 0x1E2A SWAP2 SWAP1 PUSH2 0x5A38 JUMP JUMPDEST DUP2 MSTORE PUSH1 0x20 DUP1 DUP3 ADD SWAP3 SWAP1 SWAP3 MSTORE PUSH1 0x40 SWAP1 DUP2 ADD PUSH1 0x0 SWAP1 DUP2 KECCAK256 PUSH1 0x1 PUSH1 0x1 PUSH1 0xA0 SHL SUB DUP1 DUP7 AND DUP4 MSTORE PUSH1 0x19 DUP6 MSTORE DUP4 DUP4 KECCAK256 SLOAD DUP4 MSTORE PUSH1 0x13 SWAP1 SWAP5 MSTORE SWAP2 SWAP1 KECCAK256 DUP2 SLOAD DUP2 SSTORE PUSH1 0x1 DUP1 DUP4 ADD SLOAD SWAP1 DUP3 ADD DUP1 SLOAD PUSH1 0x1 PUSH1 0x1 PUSH1 0xA0 SHL SUB NOT AND SWAP2 SWAP1 SWAP5 AND OR SWAP1 SWAP3 SSTORE SWAP1 PUSH1 0x2 DUP1 DUP3 ADD SWAP1 PUSH2 0x1E92 SWAP1 DUP5 ADD DUP3 PUSH2 0x5A99 JUMP JUMPDEST POP PUSH1 0x3 DUP2 DUP2 ADD SWAP1 PUSH2 0x1EA5 SWAP1 DUP5 ADD DUP3 PUSH2 0x5A99 JUMP JUMPDEST POP PUSH1 0x4 DUP2 DUP2 ADD SWAP1 PUSH2 0x1EB8 SWAP1 DUP5 ADD DUP3 PUSH2 0x5A99 JUMP JUMPDEST POP PUSH1 0x5 DUP2 DUP2 ADD SWAP1 PUSH2 0x1ECB SWAP1 DUP5 ADD DUP3 PUSH2 0x5A99 JUMP JUMPDEST POP POP POP PUSH1 0x1 PUSH1 0x1 PUSH1 0xA0 SHL SUB DUP2 AND PUSH1 0x0 SWAP1 DUP2 MSTORE PUSH1 0x19 PUSH1 0x20 DUP2 SWAP1 MSTORE PUSH1 0x40 DUP3 KECCAK256 SLOAD PUSH1 0xD SLOAD SWAP1 SWAP3 SWAP1 PUSH1 0x13 SWAP1 DUP3 SWAP1 PUSH2 0x1F00 SWAP1 PUSH1 0x1 SWAP1 PUSH2 0x5A38 JUMP JUMPDEST DUP2 MSTORE PUSH1 0x20 ADD SWAP1 DUP2 MSTORE PUSH1 0x20 ADD PUSH1 0x0 KECCAK256 PUSH1 0x1 ADD PUSH1 0x0 SWAP1 SLOAD SWAP1 PUSH2 0x100 EXP SWAP1 DIV PUSH1 0x1 PUSH1 0x1 PUSH1 0xA0 SHL SUB AND PUSH1 0x1 PUSH1 0x1 PUSH1 0xA0 SHL SUB AND PUSH1 0x1 PUSH1 0x1 PUSH1 0xA0 SHL SUB AND DUP2 MSTORE PUSH1 0x20 ADD SWAP1 DUP2 MSTORE PUSH1 0x20 ADD PUSH1 0x0 KECCAK256 DUP2 SWAP1 SSTORE POP PUSH1 0x13 PUSH1 0x0 PUSH1 0x1 PUSH1 0xD SLOAD PUSH2 0x1DA3 SWAP2 SWAP1 PUSH2 0x5A38 JUMP JUMPDEST PUSH1 0x0 DUP3 DUP2 MSTORE PUSH1 0x17 PUSH1 0x20 MSTORE PUSH1 0x40 DUP2 KECCAK256 PUSH1 0x5 ADD DUP1 SLOAD DUP4 SWAP3 SWAP1 PUSH2 0x1F7D SWAP1 DUP5 SWAP1 PUSH2 0x5A38 JUMP JUMPDEST SWAP1 SWAP2 SSTORE POP POP PUSH1 0x0 DUP3 DUP2 MSTORE PUSH1 0x17 PUSH1 0x20 MSTORE PUSH1 0x40 DUP2 KECCAK256 PUSH1 0x4 ADD DUP1 SLOAD DUP4 SWAP3 SWAP1 PUSH2 0x1619 SWAP1 DUP5 SWAP1 PUSH2 0x5A38 JUMP JUMPDEST PUSH1 0x40 DUP1 MLOAD PUSH2 0x160 DUP2 ADD DUP3 MSTORE PUSH1 0xB SLOAD DUP1 DUP3 MSTORE CALLER PUSH1 0x0 SWAP1 DUP2 MSTORE PUSH1 0x19 PUSH1 0x20 SWAP1 DUP2 MSTORE DUP5 DUP3 KECCAK256 SLOAD DUP2 DUP6 ADD SWAP1 DUP2 MSTORE DUP5 DUP7 ADD DUP15 DUP2 MSTORE PUSH1 0x60 DUP7 ADD DUP15 SWAP1 MSTORE PUSH1 0x80 DUP7 ADD DUP14 SWAP1 MSTORE PUSH1 0xA0 DUP7 ADD DUP13 SWAP1 MSTORE PUSH1 0xC0 DUP7 ADD DUP12 SWAP1 MSTORE PUSH1 0xE0 DUP7 ADD DUP11 SWAP1 MSTORE PUSH2 0x100 DUP7 ADD DUP10 SWAP1 MSTORE PUSH2 0x120 DUP7 ADD DUP5 SWAP1 MSTORE PUSH2 0x140 DUP7 ADD DUP9 SWAP1 MSTORE SWAP4 DUP4 MSTORE PUSH1 0x16 SWAP1 SWAP2 MSTORE SWAP4 SWAP1 KECCAK256 DUP3 MLOAD DUP2 SSTORE SWAP3 MLOAD PUSH1 0x1 DUP5 ADD SSTORE MLOAD SWAP1 SWAP2 SWAP1 PUSH1 0x2 DUP3 ADD SWAP1 PUSH2 0x2035 SWAP1 DUP3 PUSH2 0x5BF1 JUMP JUMPDEST POP PUSH1 0x60 DUP3 ADD MLOAD PUSH1 0x3 DUP3 ADD SWAP1 PUSH2 0x204A SWAP1 DUP3 PUSH2 0x5BF1 JUMP JUMPDEST POP PUSH1 0x80 DUP3 ADD MLOAD PUSH1 0x4 DUP3 ADD SWAP1 PUSH2 0x205F SWAP1 DUP3 PUSH2 0x5BF1 JUMP JUMPDEST POP PUSH1 0xA0 DUP3 ADD MLOAD PUSH1 0x5 DUP3 ADD SWAP1 PUSH2 0x2074 SWAP1 DUP3 PUSH2 0x5BF1 JUMP JUMPDEST POP PUSH1 0xC0 DUP3 ADD MLOAD PUSH1 0x6 DUP3 ADD SSTORE PUSH1 0xE0 DUP3 ADD MLOAD PUSH1 0x7 DUP3 ADD SSTORE PUSH2 0x100 DUP3 ADD MLOAD PUSH1 0x8 DUP3 ADD SSTORE PUSH2 0x120 DUP3 ADD MLOAD PUSH1 0x9 DUP3 ADD DUP1 SLOAD PUSH1 0xFF NOT AND SWAP2 ISZERO ISZERO SWAP2 SWAP1 SWAP2 OR SWAP1 SSTORE PUSH2 0x140 SWAP1 SWAP2 ADD MLOAD PUSH1 0xA SWAP1 SWAP2 ADD SSTORE PUSH1 0xB DUP1 SLOAD PUSH1 0x1 SWAP2 SWAP1 PUSH1 0x0 SWAP1 PUSH2 0x20D0 SWAP1 DUP5 SWAP1 PUSH2 0x59F1 JUMP JUMPDEST SWAP1 SWAP2 SSTORE POP POP PUSH1 0xB SLOAD PUSH2 0x12B9 SWAP1 PUSH2 0x3ED SWAP1 PUSH1 0x1 SWAP1 PUSH2 0x5A38 JUMP JUMPDEST PUSH1 0x60 PUSH1 0x0 DUP1 JUMPDEST PUSH1 0xE SLOAD DUP2 LT ISZERO PUSH2 0x2148 JUMPI PUSH1 0x1 PUSH1 0x1 PUSH1 0xA0 SHL SUB DUP5 AND PUSH1 0x0 SWAP1 DUP2 MSTORE PUSH1 0x19 PUSH1 0x20 SWAP1 DUP2 MSTORE PUSH1 0x40 DUP1 DUP4 KECCAK256 SLOAD DUP5 DUP5 MSTORE PUSH1 0x17 SWAP1 SWAP3 MSTORE SWAP1 SWAP2 KECCAK256 PUSH1 0x2 ADD SLOAD SUB PUSH2 0x2136 JUMPI PUSH2 0x2133 PUSH1 0x1 DUP4 PUSH2 0x59F1 JUMP JUMPDEST SWAP2 POP JUMPDEST DUP1 PUSH2 0x2140 DUP2 PUSH2 0x5B75 JUMP JUMPDEST SWAP2 POP POP PUSH2 0x20EE JUMP JUMPDEST POP PUSH1 0x0 DUP2 PUSH1 0x1 PUSH1 0x1 PUSH1 0x40 SHL SUB DUP2 GT ISZERO PUSH2 0x2163 JUMPI PUSH2 0x2163 PUSH2 0x537A JUMP JUMPDEST PUSH1 0x40 MLOAD SWAP1 DUP1 DUP3 MSTORE DUP1 PUSH1 0x20 MUL PUSH1 0x20 ADD DUP3 ADD PUSH1 0x40 MSTORE DUP1 ISZERO PUSH2 0x219C JUMPI DUP2 PUSH1 0x20 ADD JUMPDEST PUSH2 0x2189 PUSH2 0x4EE5 JUMP JUMPDEST DUP2 MSTORE PUSH1 0x20 ADD SWAP1 PUSH1 0x1 SWAP1 SUB SWAP1 DUP2 PUSH2 0x2181 JUMPI SWAP1 POP JUMPDEST POP SWAP1 POP PUSH1 0x0 SWAP2 POP PUSH1 0x0 JUMPDEST PUSH1 0xE SLOAD DUP2 LT ISZERO PUSH2 0x2287 JUMPI PUSH1 0x1 PUSH1 0x1 PUSH1 0xA0 SHL SUB DUP6 AND PUSH1 0x0 SWAP1 DUP2 MSTORE PUSH1 0x19 PUSH1 0x20 SWAP1 DUP2 MSTORE PUSH1 0x40 DUP1 DUP4 KECCAK256 SLOAD DUP5 DUP5 MSTORE PUSH1 0x17 SWAP1 SWAP3 MSTORE SWAP1 SWAP2 KECCAK256 PUSH1 0x2 ADD SLOAD SUB PUSH2 0x2275 JUMPI PUSH1 0x0 DUP2 DUP2 MSTORE PUSH1 0x17 PUSH1 0x20 SWAP1 DUP2 MSTORE PUSH1 0x40 SWAP2 DUP3 SWAP1 KECCAK256 DUP3 MLOAD PUSH1 0xE0 DUP2 ADD DUP5 MSTORE DUP2 SLOAD PUSH1 0x1 PUSH1 0x1 PUSH1 0xA0 SHL SUB AND DUP2 MSTORE PUSH1 0x1 DUP3 ADD SLOAD SWAP3 DUP2 ADD SWAP3 SWAP1 SWAP3 MSTORE PUSH1 0x2 DUP2 ADD SLOAD SWAP3 DUP3 ADD SWAP3 SWAP1 SWAP3 MSTORE PUSH1 0x3 DUP3 ADD SLOAD PUSH1 0x60 DUP3 ADD MSTORE PUSH1 0x4 DUP3 ADD SLOAD PUSH1 0x80 DUP3 ADD MSTORE PUSH1 0x5 DUP3 ADD SLOAD PUSH1 0xA0 DUP3 ADD MSTORE PUSH1 0x6 DUP3 ADD SLOAD PUSH1 0xC0 DUP3 ADD MSTORE DUP4 MLOAD DUP5 SWAP1 DUP7 SWAP1 DUP2 LT PUSH2 0x225B JUMPI PUSH2 0x225B PUSH2 0x5BDB JUMP JUMPDEST PUSH1 0x20 SWAP1 DUP2 MUL SWAP2 SWAP1 SWAP2 ADD ADD MSTORE PUSH2 0x2271 PUSH1 0x1 DUP6 PUSH2 0x59F1 JUMP JUMPDEST SWAP4 POP POP JUMPDEST DUP1 PUSH2 0x227F DUP2 PUSH2 0x5B75 JUMP JUMPDEST SWAP2 POP POP PUSH2 0x21A6 JUMP JUMPDEST POP SWAP4 SWAP3 POP POP POP JUMP JUMPDEST PUSH1 0x0 DUP2 DUP2 MSTORE PUSH1 0x2 PUSH1 0x20 MSTORE PUSH1 0x40 DUP2 KECCAK256 SLOAD PUSH1 0x1 PUSH1 0x1 PUSH1 0xA0 SHL SUB AND DUP1 PUSH2 0x9B9 JUMPI PUSH1 0x40 MLOAD PUSH3 0x461BCD PUSH1 0xE5 SHL DUP2 MSTORE PUSH1 0x20 PUSH1 0x4 DUP3 ADD MSTORE PUSH1 0x18 PUSH1 0x24 DUP3 ADD MSTORE PUSH24 0x115490CDCC8C4E881A5B9D985B1A59081D1BDAD95B881251 PUSH1 0x42 SHL PUSH1 0x44 DUP3 ADD MSTORE PUSH1 0x64 ADD PUSH2 0xB76 JUMP JUMPDEST PUSH1 0x60 PUSH1 0x0 PUSH1 0x9 SLOAD PUSH1 0x1 PUSH1 0x1 PUSH1 0x40 SHL SUB DUP2 GT ISZERO PUSH2 0x230D JUMPI PUSH2 0x230D PUSH2 0x537A JUMP JUMPDEST PUSH1 0x40 MLOAD SWAP1 DUP1 DUP3 MSTORE DUP1 PUSH1 0x20 MUL PUSH1 0x20 ADD DUP3 ADD PUSH1 0x40 MSTORE DUP1 ISZERO PUSH2 0x2380 JUMPI DUP2 PUSH1 0x20 ADD JUMPDEST PUSH2 0x236D PUSH1 0x40 MLOAD DUP1 PUSH1 0xE0 ADD PUSH1 0x40 MSTORE DUP1 PUSH1 0x0 DUP2 MSTORE PUSH1 0x20 ADD PUSH1 0x0 DUP2 MSTORE PUSH1 0x20 ADD PUSH1 0x0 DUP2 MSTORE PUSH1 0x20 ADD PUSH1 0x0 DUP2 MSTORE PUSH1 0x20 ADD PUSH1 0x0 DUP2 MSTORE PUSH1 0x20 ADD PUSH1 0x0 DUP2 MSTORE PUSH1 0x20 ADD PUSH1 0x0 DUP1 SIGNEXTEND DUP2 MSTORE POP SWAP1 JUMP JUMPDEST DUP2 MSTORE PUSH1 0x20 ADD SWAP1 PUSH1 0x1 SWAP1 SUB SWAP1 DUP2 PUSH2 0x232B JUMPI SWAP1 POP JUMPDEST POP SWAP1 POP PUSH1 0x0 JUMPDEST PUSH1 0xA SLOAD DUP2 LT ISZERO PUSH2 0x1B89 JUMPI PUSH1 0x0 DUP2 DUP2 MSTORE PUSH1 0x14 PUSH1 0x20 SWAP1 DUP2 MSTORE PUSH1 0x40 DUP1 DUP4 KECCAK256 DUP2 MLOAD PUSH1 0xE0 DUP2 ADD DUP4 MSTORE DUP2 SLOAD DUP2 MSTORE PUSH1 0x1 DUP3 ADD SLOAD SWAP4 DUP2 ADD SWAP4 SWAP1 SWAP4 MSTORE PUSH1 0x2 DUP2 ADD SLOAD SWAP2 DUP4 ADD SWAP2 SWAP1 SWAP2 MSTORE PUSH1 0x3 DUP2 ADD SLOAD PUSH1 0x60 DUP4 ADD MSTORE PUSH1 0x4 DUP2 ADD SLOAD PUSH1 0x80 DUP4 ADD MSTORE PUSH1 0x5 DUP2 ADD SLOAD PUSH1 0xA0 DUP4 ADD MSTORE PUSH1 0x6 DUP2 ADD SLOAD SWAP1 SWAP3 SIGNEXTEND PUSH1 0xC0 DUP3 ADD MSTORE DUP4 MLOAD DUP5 SWAP1 DUP5 SWAP1 DUP2 LT PUSH2 0x2404 JUMPI PUSH2 0x2404 PUSH2 0x5BDB JUMP JUMPDEST PUSH1 0x20 MUL PUSH1 0x20 ADD ADD DUP2 SWAP1 MSTORE POP POP DUP1 DUP1 PUSH2 0x241B SWAP1 PUSH2 0x5B75 JUMP JUMPDEST SWAP2 POP POP PUSH2 0x2386 JUMP JUMPDEST PUSH1 0x0 PUSH1 0x1 PUSH1 0x1 PUSH1 0xA0 SHL SUB DUP3 AND PUSH2 0x248D JUMPI PUSH1 0x40 MLOAD PUSH3 0x461BCD PUSH1 0xE5 SHL DUP2 MSTORE PUSH1 0x20 PUSH1 0x4 DUP3 ADD MSTORE PUSH1 0x29 PUSH1 0x24 DUP3 ADD MSTORE PUSH32 0x4552433732313A2061646472657373207A65726F206973206E6F742061207661 PUSH1 0x44 DUP3 ADD MSTORE PUSH9 0x3634B21037BBB732B9 PUSH1 0xB9 SHL PUSH1 0x64 DUP3 ADD MSTORE PUSH1 0x84 ADD PUSH2 0xB76 JUMP JUMPDEST POP PUSH1 0x1 PUSH1 0x1 PUSH1 0xA0 SHL SUB AND PUSH1 0x0 SWAP1 DUP2 MSTORE PUSH1 0x3 PUSH1 0x20 MSTORE PUSH1 0x40 SWAP1 KECCAK256 SLOAD SWAP1 JUMP JUMPDEST PUSH1 0x60 PUSH1 0x0 PUSH1 0x1 JUMPDEST PUSH1 0xF SLOAD DUP2 GT PUSH2 0x24FF JUMPI PUSH1 0x0 DUP2 DUP2 MSTORE PUSH1 0x11 PUSH1 0x20 SWAP1 DUP2 MSTORE PUSH1 0x40 DUP1 DUP4 KECCAK256 SLOAD DUP4 MSTORE PUSH1 0x10 SWAP1 SWAP2 MSTORE SWAP1 KECCAK256 PUSH1 0x1 ADD SLOAD DUP5 SWAP1 SUB PUSH2 0x24ED JUMPI PUSH2 0x24EA PUSH1 0x1 DUP4 PUSH2 0x59F1 JUMP JUMPDEST SWAP2 POP JUMPDEST DUP1 PUSH2 0x24F7 DUP2 PUSH2 0x5B75 JUMP JUMPDEST SWAP2 POP POP PUSH2 0x24B0 JUMP JUMPDEST POP PUSH1 0x0 DUP2 PUSH1 0x1 PUSH1 0x1 PUSH1 0x40 SHL SUB DUP2 GT ISZERO PUSH2 0x251A JUMPI PUSH2 0x251A PUSH2 0x537A JUMP JUMPDEST PUSH1 0x40 MLOAD SWAP1 DUP1 DUP3 MSTORE DUP1 PUSH1 0x20 MUL PUSH1 0x20 ADD DUP3 ADD PUSH1 0x40 MSTORE DUP1 ISZERO PUSH2 0x256F JUMPI DUP2 PUSH1 0x20 ADD JUMPDEST PUSH2 0x255C PUSH1 0x40 MLOAD DUP1 PUSH1 0x60 ADD PUSH1 0x40 MSTORE DUP1 PUSH1 0x0 DUP2 MSTORE PUSH1 0x20 ADD PUSH1 0x0 DUP2 MSTORE PUSH1 0x20 ADD PUSH1 0x0 DUP2 MSTORE POP SWAP1 JUMP JUMPDEST DUP2 MSTORE PUSH1 0x20 ADD SWAP1 PUSH1 0x1 SWAP1 SUB SWAP1 DUP2 PUSH2 0x2538 JUMPI SWAP1 POP JUMPDEST POP PUSH1 0x0 SWAP3 POP SWAP1 POP PUSH1 0x1 JUMPDEST PUSH1 0xF SLOAD DUP2 GT PUSH2 0x2287 JUMPI PUSH1 0x0 DUP2 DUP2 MSTORE PUSH1 0x11 PUSH1 0x20 SWAP1 DUP2 MSTORE PUSH1 0x40 DUP1 DUP4 KECCAK256 SLOAD DUP4 MSTORE PUSH1 0x10 SWAP1 SWAP2 MSTORE SWAP1 KECCAK256 PUSH1 0x1 ADD SLOAD DUP6 SWAP1 SUB PUSH2 0x260C JUMPI PUSH1 0x0 DUP2 DUP2 MSTORE PUSH1 0x11 PUSH1 0x20 SWAP1 DUP2 MSTORE PUSH1 0x40 SWAP2 DUP3 SWAP1 KECCAK256 DUP3 MLOAD PUSH1 0x60 DUP2 ADD DUP5 MSTORE DUP2 SLOAD DUP2 MSTORE PUSH1 0x1 DUP3 ADD SLOAD SWAP3 DUP2 ADD SWAP3 SWAP1 SWAP3 MSTORE PUSH1 0x2 DUP2 ADD SLOAD SWAP3 DUP3 ADD SWAP3 SWAP1 SWAP3 MSTORE DUP4 MLOAD DUP5 SWAP1 DUP7 SWAP1 DUP2 LT PUSH2 0x25F2 JUMPI PUSH2 0x25F2 PUSH2 0x5BDB JUMP JUMPDEST PUSH1 0x20 SWAP1 DUP2 MUL SWAP2 SWAP1 SWAP2 ADD ADD MSTORE PUSH2 0x2608 PUSH1 0x1 DUP6 PUSH2 0x59F1 JUMP JUMPDEST SWAP4 POP POP JUMPDEST DUP1 PUSH2 0x2616 DUP2 PUSH2 0x5B75 JUMP JUMPDEST SWAP2 POP POP PUSH2 0x2579 JUMP JUMPDEST PUSH1 0x60 PUSH1 0x0 DUP1 PUSH2 0x262C PUSH1 0x8 SLOAD SWAP1 JUMP JUMPDEST SWAP1 POP PUSH1 0x1 JUMPDEST DUP2 DUP2 GT PUSH2 0x2671 JUMPI PUSH1 0x0 DUP2 DUP2 MSTORE PUSH1 0x10 PUSH1 0x20 MSTORE PUSH1 0x40 SWAP1 KECCAK256 PUSH1 0x1 ADD SLOAD DUP6 SWAP1 SUB PUSH2 0x265F JUMPI PUSH2 0x265C PUSH1 0x1 DUP5 PUSH2 0x59F1 JUMP JUMPDEST SWAP3 POP JUMPDEST DUP1 PUSH2 0x2669 DUP2 PUSH2 0x5B75 JUMP JUMPDEST SWAP2 POP POP PUSH2 0x2631 JUMP JUMPDEST POP PUSH1 0x0 DUP3 PUSH1 0x1 PUSH1 0x1 PUSH1 0x40 SHL SUB DUP2 GT ISZERO PUSH2 0x268C JUMPI PUSH2 0x268C PUSH2 0x537A JUMP JUMPDEST PUSH1 0x40 MLOAD SWAP1 DUP1 DUP3 MSTORE DUP1 PUSH1 0x20 MUL PUSH1 0x20 ADD DUP3 ADD PUSH1 0x40 MSTORE DUP1 ISZERO PUSH2 0x26FD JUMPI DUP2 PUSH1 0x20 ADD JUMPDEST PUSH2 0x26EA PUSH1 0x40 MLOAD DUP1 PUSH1 0xE0 ADD PUSH1 0x40 MSTORE DUP1 PUSH1 0x0 DUP2 MSTORE PUSH1 0x20 ADD PUSH1 0x0 DUP2 MSTORE PUSH1 0x20 ADD PUSH1 0x0 DUP2 MSTORE PUSH1 0x20 ADD PUSH1 0x0 DUP2 MSTORE PUSH1 0x20 ADD PUSH1 0x0 DUP2 MSTORE PUSH1 0x20 ADD PUSH1 0x60 DUP2 MSTORE PUSH1 0x20 ADD PUSH1 0x60 DUP2 MSTORE POP SWAP1 JUMP JUMPDEST DUP2 MSTORE PUSH1 0x20 ADD SWAP1 PUSH1 0x1 SWAP1 SUB SWAP1 DUP2 PUSH2 0x26AA JUMPI SWAP1 POP JUMPDEST POP PUSH1 0x0 SWAP4 POP SWAP1 POP PUSH1 0x1 JUMPDEST DUP3 DUP2 GT PUSH2 0x28DE JUMPI PUSH1 0x0 DUP2 DUP2 MSTORE PUSH1 0x10 PUSH1 0x20 MSTORE PUSH1 0x40 SWAP1 KECCAK256 PUSH1 0x1 ADD SLOAD DUP7 SWAP1 SUB PUSH2 0x28CC JUMPI PUSH1 0x0 PUSH1 0x10 PUSH1 0x0 DUP4 DUP2 MSTORE PUSH1 0x20 ADD SWAP1 DUP2 MSTORE PUSH1 0x20 ADD PUSH1 0x0 KECCAK256 SWAP1 POP DUP1 PUSH1 0x40 MLOAD DUP1 PUSH1 0xE0 ADD PUSH1 0x40 MSTORE SWAP1 DUP2 PUSH1 0x0 DUP3 ADD SLOAD DUP2 MSTORE PUSH1 0x20 ADD PUSH1 0x1 DUP3 ADD SLOAD DUP2 MSTORE PUSH1 0x20 ADD PUSH1 0x2 DUP3 ADD SLOAD DUP2 MSTORE PUSH1 0x20 ADD PUSH1 0x3 DUP3 ADD SLOAD DUP2 MSTORE PUSH1 0x20 ADD PUSH1 0x4 DUP3 ADD SLOAD DUP2 MSTORE PUSH1 0x20 ADD PUSH1 0x5 DUP3 ADD DUP1 SLOAD PUSH2 0x278C SWAP1 PUSH2 0x5A04 JUMP JUMPDEST DUP1 PUSH1 0x1F ADD PUSH1 0x20 DUP1 SWAP2 DIV MUL PUSH1 0x20 ADD PUSH1 0x40 MLOAD SWAP1 DUP2 ADD PUSH1 0x40 MSTORE DUP1 SWAP3 SWAP2 SWAP1 DUP2 DUP2 MSTORE PUSH1 0x20 ADD DUP3 DUP1 SLOAD PUSH2 0x27B8 SWAP1 PUSH2 0x5A04 JUMP JUMPDEST DUP1 ISZERO PUSH2 0x2805 JUMPI DUP1 PUSH1 0x1F LT PUSH2 0x27DA JUMPI PUSH2 0x100 DUP1 DUP4 SLOAD DIV MUL DUP4 MSTORE SWAP2 PUSH1 0x20 ADD SWAP2 PUSH2 0x2805 JUMP JUMPDEST DUP3 ADD SWAP2 SWAP1 PUSH1 0x0 MSTORE PUSH1 0x20 PUSH1 0x0 KECCAK256 SWAP1 JUMPDEST DUP2 SLOAD DUP2 MSTORE SWAP1 PUSH1 0x1 ADD SWAP1 PUSH1 0x20 ADD DUP1 DUP4 GT PUSH2 0x27E8 JUMPI DUP3 SWAP1 SUB PUSH1 0x1F AND DUP3 ADD SWAP2 JUMPDEST POP POP POP POP POP DUP2 MSTORE PUSH1 0x20 ADD PUSH1 0x6 DUP3 ADD DUP1 SLOAD PUSH2 0x281E SWAP1 PUSH2 0x5A04 JUMP JUMPDEST DUP1 PUSH1 0x1F ADD PUSH1 0x20 DUP1 SWAP2 DIV MUL PUSH1 0x20 ADD PUSH1 0x40 MLOAD SWAP1 DUP2 ADD PUSH1 0x40 MSTORE DUP1 SWAP3 SWAP2 SWAP1 DUP2 DUP2 MSTORE PUSH1 0x20 ADD DUP3 DUP1 SLOAD PUSH2 0x284A SWAP1 PUSH2 0x5A04 JUMP JUMPDEST DUP1 ISZERO PUSH2 0x2897 JUMPI DUP1 PUSH1 0x1F LT PUSH2 0x286C JUMPI PUSH2 0x100 DUP1 DUP4 SLOAD DIV MUL DUP4 MSTORE SWAP2 PUSH1 0x20 ADD SWAP2 PUSH2 0x2897 JUMP JUMPDEST DUP3 ADD SWAP2 SWAP1 PUSH1 0x0 MSTORE PUSH1 0x20 PUSH1 0x0 KECCAK256 SWAP1 JUMPDEST DUP2 SLOAD DUP2 MSTORE SWAP1 PUSH1 0x1 ADD SWAP1 PUSH1 0x20 ADD DUP1 DUP4 GT PUSH2 0x287A JUMPI DUP3 SWAP1 SUB PUSH1 0x1F AND DUP3 ADD SWAP2 JUMPDEST POP POP POP POP POP DUP2 MSTORE POP POP DUP4 DUP7 DUP2 MLOAD DUP2 LT PUSH2 0x28B2 JUMPI PUSH2 0x28B2 PUSH2 0x5BDB JUMP JUMPDEST PUSH1 0x20 SWAP1 DUP2 MUL SWAP2 SWAP1 SWAP2 ADD ADD MSTORE PUSH2 0x28C8 PUSH1 0x1 DUP7 PUSH2 0x59F1 JUMP JUMPDEST SWAP5 POP POP JUMPDEST DUP1 PUSH2 0x28D6 DUP2 PUSH2 0x5B75 JUMP JUMPDEST SWAP2 POP POP PUSH2 0x2707 JUMP JUMPDEST POP SWAP5 SWAP4 POP POP POP POP JUMP JUMPDEST PUSH2 0x28F5 PUSH1 0x8 DUP1 SLOAD PUSH1 0x1 ADD SWAP1 SSTORE JUMP JUMPDEST PUSH1 0x0 PUSH2 0x2900 PUSH1 0x8 SLOAD SWAP1 JUMP JUMPDEST SWAP1 POP PUSH2 0x290C CALLER DUP3 PUSH2 0x47BB JUMP JUMPDEST PUSH2 0x2916 DUP2 DUP4 PUSH2 0x4954 JUMP JUMPDEST PUSH1 0x40 DUP1 MLOAD PUSH1 0xE0 DUP2 ADD DUP3 MSTORE DUP8 DUP2 MSTORE CALLER PUSH1 0x0 SWAP1 DUP2 MSTORE PUSH1 0x19 PUSH1 0x20 SWAP1 DUP2 MSTORE SWAP1 DUP4 SWAP1 KECCAK256 SLOAD SWAP1 DUP3 ADD MSTORE TIMESTAMP SWAP2 DUP2 ADD SWAP2 SWAP1 SWAP2 MSTORE PUSH1 0x60 DUP2 ADD PUSH2 0x2952 DUP8 PUSH3 0x278D00 PUSH2 0x5CA8 JUMP JUMPDEST PUSH2 0x295C SWAP1 TIMESTAMP PUSH2 0x59F1 JUMP JUMPDEST DUP2 MSTORE PUSH1 0x20 DUP1 DUP3 ADD DUP8 SWAP1 MSTORE PUSH1 0x40 DUP1 DUP4 ADD DUP8 SWAP1 MSTORE PUSH1 0x60 SWAP3 DUP4 ADD DUP7 SWAP1 MSTORE PUSH1 0x0 DUP6 DUP2 MSTORE PUSH1 0x10 DUP4 MSTORE DUP2 SWAP1 KECCAK256 DUP5 MLOAD DUP2 SSTORE SWAP2 DUP5 ADD MLOAD PUSH1 0x1 DUP4 ADD SSTORE DUP4 ADD MLOAD PUSH1 0x2 DUP3 ADD SSTORE SWAP1 DUP3 ADD MLOAD PUSH1 0x3 DUP3 ADD SSTORE PUSH1 0x80 DUP3 ADD MLOAD PUSH1 0x4 DUP3 ADD SSTORE PUSH1 0xA0 DUP3 ADD MLOAD PUSH1 0x5 DUP3 ADD SWAP1 PUSH2 0x29BE SWAP1 DUP3 PUSH2 0x5BF1 JUMP JUMPDEST POP PUSH1 0xC0 DUP3 ADD MLOAD PUSH1 0x6 DUP3 ADD SWAP1 PUSH2 0x29D3 SWAP1 DUP3 PUSH2 0x5BF1 JUMP JUMPDEST POP POP POP PUSH1 0x0 SWAP6 DUP7 MSTORE POP POP PUSH1 0x15 PUSH1 0x20 MSTORE POP POP PUSH1 0x40 SWAP1 SWAP2 KECCAK256 PUSH1 0x9 ADD DUP1 SLOAD PUSH1 0xFF NOT AND PUSH1 0x1 OR SWAP1 SSTORE POP JUMP JUMPDEST PUSH1 0x60 PUSH1 0x1 DUP1 SLOAD PUSH2 0xA58 SWAP1 PUSH2 0x5A04 JUMP JUMPDEST PUSH1 0x40 DUP1 MLOAD PUSH1 0xC0 DUP2 ADD DUP3 MSTORE PUSH1 0xD SLOAD DUP1 DUP3 MSTORE PUSH1 0x1 PUSH1 0x1 PUSH1 0xA0 SHL SUB DUP9 DUP2 AND PUSH1 0x20 DUP1 DUP6 ADD SWAP2 DUP3 MSTORE DUP5 DUP7 ADD DUP11 DUP2 MSTORE PUSH1 0x60 DUP7 ADD DUP11 SWAP1 MSTORE PUSH1 0x80 DUP7 ADD DUP10 SWAP1 MSTORE PUSH1 0xA0 DUP7 ADD DUP9 SWAP1 MSTORE PUSH1 0x0 SWAP5 DUP6 MSTORE PUSH1 0x13 SWAP1 SWAP2 MSTORE SWAP5 SWAP1 SWAP3 KECCAK256 DUP4 MLOAD DUP2 SSTORE SWAP2 MLOAD PUSH1 0x1 DUP4 ADD DUP1 SLOAD PUSH1 0x1 PUSH1 0x1 PUSH1 0xA0 SHL SUB NOT AND SWAP2 SWAP1 SWAP3 AND OR SWAP1 SSTORE SWAP2 MLOAD SWAP1 SWAP2 SWAP1 PUSH1 0x2 DUP3 ADD SWAP1 PUSH2 0x2A86 SWAP1 DUP3 PUSH2 0x5BF1 JUMP JUMPDEST POP PUSH1 0x60 DUP3 ADD MLOAD PUSH1 0x3 DUP3 ADD SWAP1 PUSH2 0x2A9B SWAP1 DUP3 PUSH2 0x5BF1 JUMP JUMPDEST POP PUSH1 0x80 DUP3 ADD MLOAD PUSH1 0x4 DUP3 ADD SWAP1 PUSH2 0x2AB0 SWAP1 DUP3 PUSH2 0x5BF1 JUMP JUMPDEST POP PUSH1 0xA0 DUP3 ADD MLOAD PUSH1 0x5 DUP3 ADD SWAP1 PUSH2 0x2AC5 SWAP1 DUP3 PUSH2 0x5BF1 JUMP JUMPDEST POP POP PUSH1 0xD SLOAD PUSH1 0x0 SWAP1 DUP2 MSTORE PUSH1 0x13 PUSH1 0x20 SWAP1 DUP2 MSTORE PUSH1 0x40 DUP1 DUP4 KECCAK256 PUSH1 0x1 PUSH1 0x1 PUSH1 0xA0 SHL SUB DUP1 DUP12 AND DUP6 MSTORE PUSH1 0x18 SWAP1 SWAP4 MSTORE SWAP3 KECCAK256 DUP3 SLOAD DUP2 SSTORE PUSH1 0x1 DUP1 DUP5 ADD SLOAD SWAP1 DUP3 ADD DUP1 SLOAD PUSH1 0x1 PUSH1 0x1 PUSH1 0xA0 SHL SUB NOT AND SWAP2 SWAP1 SWAP4 AND OR SWAP1 SWAP2 SSTORE SWAP1 SWAP2 POP PUSH1 0x2 DUP1 DUP3 ADD SWAP1 PUSH2 0x2B25 SWAP1 DUP5 ADD DUP3 PUSH2 0x5A99 JUMP JUMPDEST POP PUSH1 0x3 DUP2 DUP2 ADD SWAP1 PUSH2 0x2B38 SWAP1 DUP5 ADD DUP3 PUSH2 0x5A99 JUMP JUMPDEST POP PUSH1 0x4 DUP2 DUP2 ADD SWAP1 PUSH2 0x2B4B SWAP1 DUP5 ADD DUP3 PUSH2 0x5A99 JUMP JUMPDEST POP PUSH1 0x5 DUP2 DUP2 ADD SWAP1 PUSH2 0x2B5E SWAP1 DUP5 ADD DUP3 PUSH2 0x5A99 JUMP JUMPDEST POP SWAP1 POP POP PUSH1 0x1 PUSH1 0xD PUSH1 0x0 DUP3 DUP3 SLOAD PUSH2 0x2B75 SWAP2 SWAP1 PUSH2 0x59F1 JUMP JUMPDEST SWAP1 SWAP2 SSTORE POP PUSH2 0x44D SWAP1 POP DUP6 PUSH2 0x1B8F JUMP JUMPDEST PUSH2 0x2B8C PUSH2 0x4F2B JUMP JUMPDEST PUSH1 0x0 JUMPDEST PUSH1 0xC SLOAD DUP2 LT ISZERO PUSH2 0x2AE JUMPI PUSH1 0x0 DUP2 DUP2 MSTORE PUSH1 0x12 PUSH1 0x20 MSTORE PUSH1 0x40 SWAP1 KECCAK256 SLOAD DUP4 SWAP1 SUB PUSH2 0x2E39 JUMPI PUSH1 0x0 DUP2 DUP2 MSTORE PUSH1 0x12 PUSH1 0x20 SWAP1 DUP2 MSTORE PUSH1 0x40 SWAP2 DUP3 SWAP1 KECCAK256 DUP3 MLOAD PUSH1 0xC0 DUP2 ADD DUP5 MSTORE DUP2 SLOAD DUP2 MSTORE PUSH1 0x1 DUP3 ADD SLOAD PUSH1 0x1 PUSH1 0x1 PUSH1 0xA0 SHL SUB AND SWAP3 DUP2 ADD SWAP3 SWAP1 SWAP3 MSTORE PUSH1 0x2 DUP2 ADD DUP1 SLOAD SWAP3 SWAP4 SWAP2 SWAP3 SWAP2 DUP5 ADD SWAP2 PUSH2 0x2BF9 SWAP1 PUSH2 0x5A04 JUMP JUMPDEST DUP1 PUSH1 0x1F ADD PUSH1 0x20 DUP1 SWAP2 DIV MUL PUSH1 0x20 ADD PUSH1 0x40 MLOAD SWAP1 DUP2 ADD PUSH1 0x40 MSTORE DUP1 SWAP3 SWAP2 SWAP1 DUP2 DUP2 MSTORE PUSH1 0x20 ADD DUP3 DUP1 SLOAD PUSH2 0x2C25 SWAP1 PUSH2 0x5A04 JUMP JUMPDEST DUP1 ISZERO PUSH2 0x2C72 JUMPI DUP1 PUSH1 0x1F LT PUSH2 0x2C47 JUMPI PUSH2 0x100 DUP1 DUP4 SLOAD DIV MUL DUP4 MSTORE SWAP2 PUSH1 0x20 ADD SWAP2 PUSH2 0x2C72 JUMP JUMPDEST DUP3 ADD SWAP2 SWAP1 PUSH1 0x0 MSTORE PUSH1 0x20 PUSH1 0x0 KECCAK256 SWAP1 JUMPDEST DUP2 SLOAD DUP2 MSTORE SWAP1 PUSH1 0x1 ADD SWAP1 PUSH1 0x20 ADD DUP1 DUP4 GT PUSH2 0x2C55 JUMPI DUP3 SWAP1 SUB PUSH1 0x1F AND DUP3 ADD SWAP2 JUMPDEST POP POP POP POP POP DUP2 MSTORE PUSH1 0x20 ADD PUSH1 0x3 DUP3 ADD DUP1 SLOAD PUSH2 0x2C8B SWAP1 PUSH2 0x5A04 JUMP JUMPDEST DUP1 PUSH1 0x1F ADD PUSH1 0x20 DUP1 SWAP2 DIV MUL PUSH1 0x20 ADD PUSH1 0x40 MLOAD SWAP1 DUP2 ADD PUSH1 0x40 MSTORE DUP1 SWAP3 SWAP2 SWAP1 DUP2 DUP2 MSTORE PUSH1 0x20 ADD DUP3 DUP1 SLOAD PUSH2 0x2CB7 SWAP1 PUSH2 0x5A04 JUMP JUMPDEST DUP1 ISZERO PUSH2 0x2D04 JUMPI DUP1 PUSH1 0x1F LT PUSH2 0x2CD9 JUMPI PUSH2 0x100 DUP1 DUP4 SLOAD DIV MUL DUP4 MSTORE SWAP2 PUSH1 0x20 ADD SWAP2 PUSH2 0x2D04 JUMP JUMPDEST DUP3 ADD SWAP2 SWAP1 PUSH1 0x0 MSTORE PUSH1 0x20 PUSH1 0x0 KECCAK256 SWAP1 JUMPDEST DUP2 SLOAD DUP2 MSTORE SWAP1 PUSH1 0x1 ADD SWAP1 PUSH1 0x20 ADD DUP1 DUP4 GT PUSH2 0x2CE7 JUMPI DUP3 SWAP1 SUB PUSH1 0x1F AND DUP3 ADD SWAP2 JUMPDEST POP POP POP POP POP DUP2 MSTORE PUSH1 0x20 ADD PUSH1 0x4 DUP3 ADD DUP1 SLOAD PUSH2 0x2D1D SWAP1 PUSH2 0x5A04 JUMP JUMPDEST DUP1 PUSH1 0x1F ADD PUSH1 0x20 DUP1 SWAP2 DIV MUL PUSH1 0x20 ADD PUSH1 0x40 MLOAD SWAP1 DUP2 ADD PUSH1 0x40 MSTORE DUP1 SWAP3 SWAP2 SWAP1 DUP2 DUP2 MSTORE PUSH1 0x20 ADD DUP3 DUP1 SLOAD PUSH2 0x2D49 SWAP1 PUSH2 0x5A04 JUMP JUMPDEST DUP1 ISZERO PUSH2 0x2D96 JUMPI DUP1 PUSH1 0x1F LT PUSH2 0x2D6B JUMPI PUSH2 0x100 DUP1 DUP4 SLOAD DIV MUL DUP4 MSTORE SWAP2 PUSH1 0x20 ADD SWAP2 PUSH2 0x2D96 JUMP JUMPDEST DUP3 ADD SWAP2 SWAP1 PUSH1 0x0 MSTORE PUSH1 0x20 PUSH1 0x0 KECCAK256 SWAP1 JUMPDEST DUP2 SLOAD DUP2 MSTORE SWAP1 PUSH1 0x1 ADD SWAP1 PUSH1 0x20 ADD DUP1 DUP4 GT PUSH2 0x2D79 JUMPI DUP3 SWAP1 SUB PUSH1 0x1F AND DUP3 ADD SWAP2 JUMPDEST POP POP POP POP POP DUP2 MSTORE PUSH1 0x20 ADD PUSH1 0x5 DUP3 ADD DUP1 SLOAD PUSH2 0x2DAF SWAP1 PUSH2 0x5A04 JUMP JUMPDEST DUP1 PUSH1 0x1F ADD PUSH1 0x20 DUP1 SWAP2 DIV MUL PUSH1 0x20 ADD PUSH1 0x40 MLOAD SWAP1 DUP2 ADD PUSH1 0x40 MSTORE DUP1 SWAP3 SWAP2 SWAP1 DUP2 DUP2 MSTORE PUSH1 0x20 ADD DUP3 DUP1 SLOAD PUSH2 0x2DDB SWAP1 PUSH2 0x5A04 JUMP JUMPDEST DUP1 ISZERO PUSH2 0x2E28 JUMPI DUP1 PUSH1 0x1F LT PUSH2 0x2DFD JUMPI PUSH2 0x100 DUP1 DUP4 SLOAD DIV MUL DUP4 MSTORE SWAP2 PUSH1 0x20 ADD SWAP2 PUSH2 0x2E28 JUMP JUMPDEST DUP3 ADD SWAP2 SWAP1 PUSH1 0x0 MSTORE PUSH1 0x20 PUSH1 0x0 KECCAK256 SWAP1 JUMPDEST DUP2 SLOAD DUP2 MSTORE SWAP1 PUSH1 0x1 ADD SWAP1 PUSH1 0x20 ADD DUP1 DUP4 GT PUSH2 0x2E0B JUMPI DUP3 SWAP1 SUB PUSH1 0x1F AND DUP3 ADD SWAP2 JUMPDEST POP POP POP POP POP DUP2 MSTORE POP POP SWAP2 POP POP SWAP2 SWAP1 POP JUMP JUMPDEST DUP1 PUSH2 0x2E43 DUP2 PUSH2 0x5B75 JUMP JUMPDEST SWAP2 POP POP PUSH2 0x2B8F JUMP JUMPDEST PUSH2 0x2E53 PUSH2 0x4F2B JUMP JUMPDEST PUSH1 0x1 PUSH1 0x1 PUSH1 0xA0 SHL SUB DUP1 DUP4 AND PUSH1 0x0 SWAP1 DUP2 MSTORE PUSH1 0x18 PUSH1 0x20 SWAP1 DUP2 MSTORE PUSH1 0x40 SWAP2 DUP3 SWAP1 KECCAK256 DUP3 MLOAD PUSH1 0xC0 DUP2 ADD DUP5 MSTORE DUP2 SLOAD DUP2 MSTORE PUSH1 0x1 DUP3 ADD SLOAD SWAP1 SWAP5 AND SWAP2 DUP5 ADD SWAP2 SWAP1 SWAP2 MSTORE PUSH1 0x2 DUP2 ADD DUP1 SLOAD SWAP2 SWAP3 DUP5 ADD SWAP2 PUSH2 0x2E9F SWAP1 PUSH2 0x5A04 JUMP JUMPDEST DUP1 PUSH1 0x1F ADD PUSH1 0x20 DUP1 SWAP2 DIV MUL PUSH1 0x20 ADD PUSH1 0x40 MLOAD SWAP1 DUP2 ADD PUSH1 0x40 MSTORE DUP1 SWAP3 SWAP2 SWAP1 DUP2 DUP2 MSTORE PUSH1 0x20 ADD DUP3 DUP1 SLOAD PUSH2 0x2ECB SWAP1 PUSH2 0x5A04 JUMP JUMPDEST DUP1 ISZERO PUSH2 0x2F18 JUMPI DUP1 PUSH1 0x1F LT PUSH2 0x2EED JUMPI PUSH2 0x100 DUP1 DUP4 SLOAD DIV MUL DUP4 MSTORE SWAP2 PUSH1 0x20 ADD SWAP2 PUSH2 0x2F18 JUMP JUMPDEST DUP3 ADD SWAP2 SWAP1 PUSH1 0x0 MSTORE PUSH1 0x20 PUSH1 0x0 KECCAK256 SWAP1 JUMPDEST DUP2 SLOAD DUP2 MSTORE SWAP1 PUSH1 0x1 ADD SWAP1 PUSH1 0x20 ADD DUP1 DUP4 GT PUSH2 0x2EFB JUMPI DUP3 SWAP1 SUB PUSH1 0x1F AND DUP3 ADD SWAP2 JUMPDEST POP POP POP POP POP DUP2 MSTORE PUSH1 0x20 ADD PUSH1 0x3 DUP3 ADD DUP1 SLOAD PUSH2 0x2F31 SWAP1 PUSH2 0x5A04 JUMP JUMPDEST DUP1 PUSH1 0x1F ADD PUSH1 0x20 DUP1 SWAP2 DIV MUL PUSH1 0x20 ADD PUSH1 0x40 MLOAD SWAP1 DUP2 ADD PUSH1 0x40 MSTORE DUP1 SWAP3 SWAP2 SWAP1 DUP2 DUP2 MSTORE PUSH1 0x20 ADD DUP3 DUP1 SLOAD PUSH2 0x2F5D SWAP1 PUSH2 0x5A04 JUMP JUMPDEST DUP1 ISZERO PUSH2 0x2FAA JUMPI DUP1 PUSH1 0x1F LT PUSH2 0x2F7F JUMPI PUSH2 0x100 DUP1 DUP4 SLOAD DIV MUL DUP4 MSTORE SWAP2 PUSH1 0x20 ADD SWAP2 PUSH2 0x2FAA JUMP JUMPDEST DUP3 ADD SWAP2 SWAP1 PUSH1 0x0 MSTORE PUSH1 0x20 PUSH1 0x0 KECCAK256 SWAP1 JUMPDEST DUP2 SLOAD DUP2 MSTORE SWAP1 PUSH1 0x1 ADD SWAP1 PUSH1 0x20 ADD DUP1 DUP4 GT PUSH2 0x2F8D JUMPI DUP3 SWAP1 SUB PUSH1 0x1F AND DUP3 ADD SWAP2 JUMPDEST POP POP POP POP POP DUP2 MSTORE PUSH1 0x20 ADD PUSH1 0x4 DUP3 ADD DUP1 SLOAD PUSH2 0x2FC3 SWAP1 PUSH2 0x5A04 JUMP JUMPDEST DUP1 PUSH1 0x1F ADD PUSH1 0x20 DUP1 SWAP2 DIV MUL PUSH1 0x20 ADD PUSH1 0x40 MLOAD SWAP1 DUP2 ADD PUSH1 0x40 MSTORE DUP1 SWAP3 SWAP2 SWAP1 DUP2 DUP2 MSTORE PUSH1 0x20 ADD DUP3 DUP1 SLOAD PUSH2 0x2FEF SWAP1 PUSH2 0x5A04 JUMP JUMPDEST DUP1 ISZERO PUSH2 0x303C JUMPI DUP1 PUSH1 0x1F LT PUSH2 0x3011 JUMPI PUSH2 0x100 DUP1 DUP4 SLOAD DIV MUL DUP4 MSTORE SWAP2 PUSH1 0x20 ADD SWAP2 PUSH2 0x303C JUMP JUMPDEST DUP3 ADD SWAP2 SWAP1 PUSH1 0x0 MSTORE PUSH1 0x20 PUSH1 0x0 KECCAK256 SWAP1 JUMPDEST DUP2 SLOAD DUP2 MSTORE SWAP1 PUSH1 0x1 ADD SWAP1 PUSH1 0x20 ADD DUP1 DUP4 GT PUSH2 0x301F JUMPI DUP3 SWAP1 SUB PUSH1 0x1F AND DUP3 ADD SWAP2 JUMPDEST POP POP POP POP POP DUP2 MSTORE PUSH1 0x20 ADD PUSH1 0x5 DUP3 ADD DUP1 SLOAD PUSH2 0x1793 SWAP1 PUSH2 0x5A04 JUMP JUMPDEST PUSH2 0x3060 CALLER DUP4 DUP4 PUSH2 0x49E7 JUMP JUMPDEST POP POP JUMP JUMPDEST PUSH1 0x60 PUSH1 0x0 PUSH1 0xD SLOAD PUSH1 0x1 PUSH1 0x1 PUSH1 0x40 SHL SUB DUP2 GT ISZERO PUSH2 0x3082 JUMPI PUSH2 0x3082 PUSH2 0x537A JUMP JUMPDEST PUSH1 0x40 MLOAD SWAP1 DUP1 DUP3 MSTORE DUP1 PUSH1 0x20 MUL PUSH1 0x20 ADD DUP3 ADD PUSH1 0x40 MSTORE DUP1 ISZERO PUSH2 0x30BB JUMPI DUP2 PUSH1 0x20 ADD JUMPDEST PUSH2 0x30A8 PUSH2 0x4F2B JUMP JUMPDEST DUP2 MSTORE PUSH1 0x20 ADD SWAP1 PUSH1 0x1 SWAP1 SUB SWAP1 DUP2 PUSH2 0x30A0 JUMPI SWAP1 POP JUMPDEST POP SWAP1 POP PUSH1 0x0 JUMPDEST PUSH1 0xD SLOAD DUP2 LT ISZERO PUSH2 0x1B89 JUMPI PUSH1 0x0 DUP2 DUP2 MSTORE PUSH1 0x13 PUSH1 0x20 SWAP1 DUP2 MSTORE PUSH1 0x40 SWAP2 DUP3 SWAP1 KECCAK256 DUP3 MLOAD PUSH1 0xC0 DUP2 ADD DUP5 MSTORE DUP2 SLOAD DUP2 MSTORE PUSH1 0x1 DUP3 ADD SLOAD PUSH1 0x1 PUSH1 0x1 PUSH1 0xA0 SHL SUB AND SWAP3 DUP2 ADD SWAP3 SWAP1 SWAP3 MSTORE PUSH1 0x2 DUP2 ADD DUP1 SLOAD SWAP2 SWAP4 DUP5 SWAP3 SWAP1 DUP5 ADD SWAP2 SWAP1 PUSH2 0x3116 SWAP1 PUSH2 0x5A04 JUMP JUMPDEST DUP1 PUSH1 0x1F ADD PUSH1 0x20 DUP1 SWAP2 DIV MUL PUSH1 0x20 ADD PUSH1 0x40 MLOAD SWAP1 DUP2 ADD PUSH1 0x40 MSTORE DUP1 SWAP3 SWAP2 SWAP1 DUP2 DUP2 MSTORE PUSH1 0x20 ADD DUP3 DUP1 SLOAD PUSH2 0x3142 SWAP1 PUSH2 0x5A04 JUMP JUMPDEST DUP1 ISZERO PUSH2 0x318F JUMPI DUP1 PUSH1 0x1F LT PUSH2 0x3164 JUMPI PUSH2 0x100 DUP1 DUP4 SLOAD DIV MUL DUP4 MSTORE SWAP2 PUSH1 0x20 ADD SWAP2 PUSH2 0x318F JUMP JUMPDEST DUP3 ADD SWAP2 SWAP1 PUSH1 0x0 MSTORE PUSH1 0x20 PUSH1 0x0 KECCAK256 SWAP1 JUMPDEST DUP2 SLOAD DUP2 MSTORE SWAP1 PUSH1 0x1 ADD SWAP1 PUSH1 0x20 ADD DUP1 DUP4 GT PUSH2 0x3172 JUMPI DUP3 SWAP1 SUB PUSH1 0x1F AND DUP3 ADD SWAP2 JUMPDEST POP POP POP POP POP DUP2 MSTORE PUSH1 0x20 ADD PUSH1 0x3 DUP3 ADD DUP1 SLOAD PUSH2 0x31A8 SWAP1 PUSH2 0x5A04 JUMP JUMPDEST DUP1 PUSH1 0x1F ADD PUSH1 0x20 DUP1 SWAP2 DIV MUL PUSH1 0x20 ADD PUSH1 0x40 MLOAD SWAP1 DUP2 ADD PUSH1 0x40 MSTORE DUP1 SWAP3 SWAP2 SWAP1 DUP2 DUP2 MSTORE PUSH1 0x20 ADD DUP3 DUP1 SLOAD PUSH2 0x31D4 SWAP1 PUSH2 0x5A04 JUMP JUMPDEST DUP1 ISZERO PUSH2 0x3221 JUMPI DUP1 PUSH1 0x1F LT PUSH2 0x31F6 JUMPI PUSH2 0x100 DUP1 DUP4 SLOAD DIV MUL DUP4 MSTORE SWAP2 PUSH1 0x20 ADD SWAP2 PUSH2 0x3221 JUMP JUMPDEST DUP3 ADD SWAP2 SWAP1 PUSH1 0x0 MSTORE PUSH1 0x20 PUSH1 0x0 KECCAK256 SWAP1 JUMPDEST DUP2 SLOAD DUP2 MSTORE SWAP1 PUSH1 0x1 ADD SWAP1 PUSH1 0x20 ADD DUP1 DUP4 GT PUSH2 0x3204 JUMPI DUP3 SWAP1 SUB PUSH1 0x1F AND DUP3 ADD SWAP2 JUMPDEST POP POP POP POP POP DUP2 MSTORE PUSH1 0x20 ADD PUSH1 0x4 DUP3 ADD DUP1 SLOAD PUSH2 0x323A SWAP1 PUSH2 0x5A04 JUMP JUMPDEST DUP1 PUSH1 0x1F ADD PUSH1 0x20 DUP1 SWAP2 DIV MUL PUSH1 0x20 ADD PUSH1 0x40 MLOAD SWAP1 DUP2 ADD PUSH1 0x40 MSTORE DUP1 SWAP3 SWAP2 SWAP1 DUP2 DUP2 MSTORE PUSH1 0x20 ADD DUP3 DUP1 SLOAD PUSH2 0x3266 SWAP1 PUSH2 0x5A04 JUMP JUMPDEST DUP1 ISZERO PUSH2 0x32B3 JUMPI DUP1 PUSH1 0x1F LT PUSH2 0x3288 JUMPI PUSH2 0x100 DUP1 DUP4 SLOAD DIV MUL DUP4 MSTORE SWAP2 PUSH1 0x20 ADD SWAP2 PUSH2 0x32B3 JUMP JUMPDEST DUP3 ADD SWAP2 SWAP1 PUSH1 0x0 MSTORE PUSH1 0x20 PUSH1 0x0 KECCAK256 SWAP1 JUMPDEST DUP2 SLOAD DUP2 MSTORE SWAP1 PUSH1 0x1 ADD SWAP1 PUSH1 0x20 ADD DUP1 DUP4 GT PUSH2 0x3296 JUMPI DUP3 SWAP1 SUB PUSH1 0x1F AND DUP3 ADD SWAP2 JUMPDEST POP POP POP POP POP DUP2 MSTORE PUSH1 0x20 ADD PUSH1 0x5 DUP3 ADD DUP1 SLOAD PUSH2 0x32CC SWAP1 PUSH2 0x5A04 JUMP JUMPDEST DUP1 PUSH1 0x1F ADD PUSH1 0x20 DUP1 SWAP2 DIV MUL PUSH1 0x20 ADD PUSH1 0x40 MLOAD SWAP1 DUP2 ADD PUSH1 0x40 MSTORE DUP1 SWAP3 SWAP2 SWAP1 DUP2 DUP2 MSTORE PUSH1 0x20 ADD DUP3 DUP1 SLOAD PUSH2 0x32F8 SWAP1 PUSH2 0x5A04 JUMP JUMPDEST DUP1 ISZERO PUSH2 0x3345 JUMPI DUP1 PUSH1 0x1F LT PUSH2 0x331A JUMPI PUSH2 0x100 DUP1 DUP4 SLOAD DIV MUL DUP4 MSTORE SWAP2 PUSH1 0x20 ADD SWAP2 PUSH2 0x3345 JUMP JUMPDEST DUP3 ADD SWAP2 SWAP1 PUSH1 0x0 MSTORE PUSH1 0x20 PUSH1 0x0 KECCAK256 SWAP1 JUMPDEST DUP2 SLOAD DUP2 MSTORE SWAP1 PUSH1 0x1 ADD SWAP1 PUSH1 0x20 ADD DUP1 DUP4 GT PUSH2 0x3328 JUMPI DUP3 SWAP1 SUB PUSH1 0x1F AND DUP3 ADD SWAP2 JUMPDEST POP POP POP POP POP DUP2 MSTORE POP POP DUP4 DUP4 DUP2 MLOAD DUP2 LT PUSH2 0x3360 JUMPI PUSH2 0x3360 PUSH2 0x5BDB JUMP JUMPDEST PUSH1 0x20 MUL PUSH1 0x20 ADD ADD DUP2 SWAP1 MSTORE POP POP DUP1 DUP1 PUSH2 0x3377 SWAP1 PUSH2 0x5B75 JUMP JUMPDEST SWAP2 POP POP PUSH2 0x30C1 JUMP JUMPDEST PUSH2 0x3389 CALLER DUP4 PUSH2 0x45CC JUMP JUMPDEST PUSH2 0x33A5 JUMPI PUSH1 0x40 MLOAD PUSH3 0x461BCD PUSH1 0xE5 SHL DUP2 MSTORE PUSH1 0x4 ADD PUSH2 0xB76 SWAP1 PUSH2 0x5B8E JUMP JUMPDEST PUSH2 0x33B1 DUP5 DUP5 DUP5 DUP5 PUSH2 0x4AB5 JUMP JUMPDEST POP POP POP POP JUMP JUMPDEST PUSH1 0x0 DUP2 PUSH1 0x40 MLOAD PUSH1 0x20 ADD PUSH2 0x33CA SWAP2 SWAP1 PUSH2 0x5CBF JUMP JUMPDEST PUSH1 0x40 MLOAD PUSH1 0x20 DUP2 DUP4 SUB SUB DUP2 MSTORE SWAP1 PUSH1 0x40 MSTORE DUP1 MLOAD SWAP1 PUSH1 0x20 ADD KECCAK256 DUP4 PUSH1 0x40 MLOAD PUSH1 0x20 ADD PUSH2 0x33F1 SWAP2 SWAP1 PUSH2 0x5CBF JUMP JUMPDEST PUSH1 0x40 MLOAD PUSH1 0x20 DUP2 DUP4 SUB SUB DUP2 MSTORE SWAP1 PUSH1 0x40 MSTORE DUP1 MLOAD SWAP1 PUSH1 0x20 ADD KECCAK256 EQ SWAP1 POP SWAP3 SWAP2 POP POP JUMP JUMPDEST PUSH1 0x60 PUSH1 0x0 PUSH1 0xC SLOAD PUSH1 0x1 PUSH1 0x1 PUSH1 0x40 SHL SUB DUP2 GT ISZERO PUSH2 0x342E JUMPI PUSH2 0x342E PUSH2 0x537A JUMP JUMPDEST PUSH1 0x40 MLOAD SWAP1 DUP1 DUP3 MSTORE DUP1 PUSH1 0x20 MUL PUSH1 0x20 ADD DUP3 ADD PUSH1 0x40 MSTORE DUP1 ISZERO PUSH2 0x3467 JUMPI DUP2 PUSH1 0x20 ADD JUMPDEST PUSH2 0x3454 PUSH2 0x4F2B JUMP JUMPDEST DUP2 MSTORE PUSH1 0x20 ADD SWAP1 PUSH1 0x1 SWAP1 SUB SWAP1 DUP2 PUSH2 0x344C JUMPI SWAP1 POP JUMPDEST POP SWAP1 POP PUSH1 0x0 JUMPDEST PUSH1 0xC SLOAD DUP2 LT ISZERO PUSH2 0x1B89 JUMPI PUSH1 0x0 DUP2 DUP2 MSTORE PUSH1 0x12 PUSH1 0x20 SWAP1 DUP2 MSTORE PUSH1 0x40 SWAP2 DUP3 SWAP1 KECCAK256 DUP3 MLOAD PUSH1 0xC0 DUP2 ADD DUP5 MSTORE DUP2 SLOAD DUP2 MSTORE PUSH1 0x1 DUP3 ADD SLOAD PUSH1 0x1 PUSH1 0x1 PUSH1 0xA0 SHL SUB AND SWAP3 DUP2 ADD SWAP3 SWAP1 SWAP3 MSTORE PUSH1 0x2 DUP2 ADD DUP1 SLOAD SWAP2 SWAP4 DUP5 SWAP3 SWAP1 DUP5 ADD SWAP2 SWAP1 PUSH2 0x34C2 SWAP1 PUSH2 0x5A04 JUMP JUMPDEST DUP1 PUSH1 0x1F ADD PUSH1 0x20 DUP1 SWAP2 DIV MUL PUSH1 0x20 ADD PUSH1 0x40 MLOAD SWAP1 DUP2 ADD PUSH1 0x40 MSTORE DUP1 SWAP3 SWAP2 SWAP1 DUP2 DUP2 MSTORE PUSH1 0x20 ADD DUP3 DUP1 SLOAD PUSH2 0x34EE SWAP1 PUSH2 0x5A04 JUMP JUMPDEST DUP1 ISZERO PUSH2 0x353B JUMPI DUP1 PUSH1 0x1F LT PUSH2 0x3510 JUMPI PUSH2 0x100 DUP1 DUP4 SLOAD DIV MUL DUP4 MSTORE SWAP2 PUSH1 0x20 ADD SWAP2 PUSH2 0x353B JUMP JUMPDEST DUP3 ADD SWAP2 SWAP1 PUSH1 0x0 MSTORE PUSH1 0x20 PUSH1 0x0 KECCAK256 SWAP1 JUMPDEST DUP2 SLOAD DUP2 MSTORE SWAP1 PUSH1 0x1 ADD SWAP1 PUSH1 0x20 ADD DUP1 DUP4 GT PUSH2 0x351E JUMPI DUP3 SWAP1 SUB PUSH1 0x1F AND DUP3 ADD SWAP2 JUMPDEST POP POP POP POP POP DUP2 MSTORE PUSH1 0x20 ADD PUSH1 0x3 DUP3 ADD DUP1 SLOAD PUSH2 0x3554 SWAP1 PUSH2 0x5A04 JUMP JUMPDEST DUP1 PUSH1 0x1F ADD PUSH1 0x20 DUP1 SWAP2 DIV MUL PUSH1 0x20 ADD PUSH1 0x40 MLOAD SWAP1 DUP2 ADD PUSH1 0x40 MSTORE DUP1 SWAP3 SWAP2 SWAP1 DUP2 DUP2 MSTORE PUSH1 0x20 ADD DUP3 DUP1 SLOAD PUSH2 0x3580 SWAP1 PUSH2 0x5A04 JUMP JUMPDEST DUP1 ISZERO PUSH2 0x35CD JUMPI DUP1 PUSH1 0x1F LT PUSH2 0x35A2 JUMPI PUSH2 0x100 DUP1 DUP4 SLOAD DIV MUL DUP4 MSTORE SWAP2 PUSH1 0x20 ADD SWAP2 PUSH2 0x35CD JUMP JUMPDEST DUP3 ADD SWAP2 SWAP1 PUSH1 0x0 MSTORE PUSH1 0x20 PUSH1 0x0 KECCAK256 SWAP1 JUMPDEST DUP2 SLOAD DUP2 MSTORE SWAP1 PUSH1 0x1 ADD SWAP1 PUSH1 0x20 ADD DUP1 DUP4 GT PUSH2 0x35B0 JUMPI DUP3 SWAP1 SUB PUSH1 0x1F AND DUP3 ADD SWAP2 JUMPDEST POP POP POP POP POP DUP2 MSTORE PUSH1 0x20 ADD PUSH1 0x4 DUP3 ADD DUP1 SLOAD PUSH2 0x35E6 SWAP1 PUSH2 0x5A04 JUMP JUMPDEST DUP1 PUSH1 0x1F ADD PUSH1 0x20 DUP1 SWAP2 DIV MUL PUSH1 0x20 ADD PUSH1 0x40 MLOAD SWAP1 DUP2 ADD PUSH1 0x40 MSTORE DUP1 SWAP3 SWAP2 SWAP1 DUP2 DUP2 MSTORE PUSH1 0x20 ADD DUP3 DUP1 SLOAD PUSH2 0x3612 SWAP1 PUSH2 0x5A04 JUMP JUMPDEST DUP1 ISZERO PUSH2 0x365F JUMPI DUP1 PUSH1 0x1F LT PUSH2 0x3634 JUMPI PUSH2 0x100 DUP1 DUP4 SLOAD DIV MUL DUP4 MSTORE SWAP2 PUSH1 0x20 ADD SWAP2 PUSH2 0x365F JUMP JUMPDEST DUP3 ADD SWAP2 SWAP1 PUSH1 0x0 MSTORE PUSH1 0x20 PUSH1 0x0 KECCAK256 SWAP1 JUMPDEST DUP2 SLOAD DUP2 MSTORE SWAP1 PUSH1 0x1 ADD SWAP1 PUSH1 0x20 ADD DUP1 DUP4 GT PUSH2 0x3642 JUMPI DUP3 SWAP1 SUB PUSH1 0x1F AND DUP3 ADD SWAP2 JUMPDEST POP POP POP POP POP DUP2 MSTORE PUSH1 0x20 ADD PUSH1 0x5 DUP3 ADD DUP1 SLOAD PUSH2 0x3678 SWAP1 PUSH2 0x5A04 JUMP JUMPDEST DUP1 PUSH1 0x1F ADD PUSH1 0x20 DUP1 SWAP2 DIV MUL PUSH1 0x20 ADD PUSH1 0x40 MLOAD SWAP1 DUP2 ADD PUSH1 0x40 MSTORE DUP1 SWAP3 SWAP2 SWAP1 DUP2 DUP2 MSTORE PUSH1 0x20 ADD DUP3 DUP1 SLOAD PUSH2 0x36A4 SWAP1 PUSH2 0x5A04 JUMP JUMPDEST DUP1 ISZERO PUSH2 0x36F1 JUMPI DUP1 PUSH1 0x1F LT PUSH2 0x36C6 JUMPI PUSH2 0x100 DUP1 DUP4 SLOAD DIV MUL DUP4 MSTORE SWAP2 PUSH1 0x20 ADD SWAP2 PUSH2 0x36F1 JUMP JUMPDEST DUP3 ADD SWAP2 SWAP1 PUSH1 0x0 MSTORE PUSH1 0x20 PUSH1 0x0 KECCAK256 SWAP1 JUMPDEST DUP2 SLOAD DUP2 MSTORE SWAP1 PUSH1 0x1 ADD SWAP1 PUSH1 0x20 ADD DUP1 DUP4 GT PUSH2 0x36D4 JUMPI DUP3 SWAP1 SUB PUSH1 0x1F AND DUP3 ADD SWAP2 JUMPDEST POP POP POP POP POP DUP2 MSTORE POP POP DUP4 DUP4 DUP2 MLOAD DUP2 LT PUSH2 0x370C JUMPI PUSH2 0x370C PUSH2 0x5BDB JUMP JUMPDEST PUSH1 0x20 MUL PUSH1 0x20 ADD ADD DUP2 SWAP1 MSTORE POP POP DUP1 DUP1 PUSH2 0x3723 SWAP1 PUSH2 0x5B75 JUMP JUMPDEST SWAP2 POP POP PUSH2 0x346D JUMP JUMPDEST PUSH1 0x60 PUSH1 0x0 DUP1 JUMPDEST PUSH1 0xE SLOAD DUP2 LT ISZERO PUSH2 0x3774 JUMPI PUSH1 0x0 DUP2 DUP2 MSTORE PUSH1 0x17 PUSH1 0x20 MSTORE PUSH1 0x40 SWAP1 KECCAK256 PUSH1 0x3 ADD SLOAD DUP5 SWAP1 SUB PUSH2 0x3762 JUMPI PUSH2 0x375F PUSH1 0x1 DUP4 PUSH2 0x59F1 JUMP JUMPDEST SWAP2 POP JUMPDEST DUP1 PUSH2 0x376C DUP2 PUSH2 0x5B75 JUMP JUMPDEST SWAP2 POP POP PUSH2 0x3731 JUMP JUMPDEST POP PUSH1 0x0 DUP2 PUSH1 0x1 PUSH1 0x1 PUSH1 0x40 SHL SUB DUP2 GT ISZERO PUSH2 0x378F JUMPI PUSH2 0x378F PUSH2 0x537A JUMP JUMPDEST PUSH1 0x40 MLOAD SWAP1 DUP1 DUP3 MSTORE DUP1 PUSH1 0x20 MUL PUSH1 0x20 ADD DUP3 ADD PUSH1 0x40 MSTORE DUP1 ISZERO PUSH2 0x37C8 JUMPI DUP2 PUSH1 0x20 ADD JUMPDEST PUSH2 0x37B5 PUSH2 0x4EE5 JUMP JUMPDEST DUP2 MSTORE PUSH1 0x20 ADD SWAP1 PUSH1 0x1 SWAP1 SUB SWAP1 DUP2 PUSH2 0x37AD JUMPI SWAP1 POP JUMPDEST POP SWAP1 POP PUSH1 0x0 SWAP2 POP PUSH1 0x0 JUMPDEST PUSH1 0xE SLOAD DUP2 LT ISZERO PUSH2 0x2287 JUMPI PUSH1 0x0 DUP2 DUP2 MSTORE PUSH1 0x17 PUSH1 0x20 MSTORE PUSH1 0x40 SWAP1 KECCAK256 PUSH1 0x3 ADD SLOAD DUP6 SWAP1 SUB PUSH2 0x388A JUMPI PUSH1 0x0 DUP2 DUP2 MSTORE PUSH1 0x17 PUSH1 0x20 SWAP1 DUP2 MSTORE PUSH1 0x40 SWAP2 DUP3 SWAP1 KECCAK256 DUP3 MLOAD PUSH1 0xE0 DUP2 ADD DUP5 MSTORE DUP2 SLOAD PUSH1 0x1 PUSH1 0x1 PUSH1 0xA0 SHL SUB AND DUP2 MSTORE PUSH1 0x1 DUP3 ADD SLOAD SWAP3 DUP2 ADD SWAP3 SWAP1 SWAP3 MSTORE PUSH1 0x2 DUP2 ADD SLOAD SWAP3 DUP3 ADD SWAP3 SWAP1 SWAP3 MSTORE PUSH1 0x3 DUP3 ADD SLOAD PUSH1 0x60 DUP3 ADD MSTORE PUSH1 0x4 DUP3 ADD SLOAD PUSH1 0x80 DUP3 ADD MSTORE PUSH1 0x5 DUP3 ADD SLOAD PUSH1 0xA0 DUP3 ADD MSTORE PUSH1 0x6 DUP3 ADD SLOAD PUSH1 0xC0 DUP3 ADD MSTORE DUP4 MLOAD DUP5 SWAP1 DUP7 SWAP1 DUP2 LT PUSH2 0x3870 JUMPI PUSH2 0x3870 PUSH2 0x5BDB JUMP JUMPDEST PUSH1 0x20 SWAP1 DUP2 MUL SWAP2 SWAP1 SWAP2 ADD ADD MSTORE PUSH2 0x3886 PUSH1 0x1 DUP6 PUSH2 0x59F1 JUMP JUMPDEST SWAP4 POP POP JUMPDEST DUP1 PUSH2 0x3894 DUP2 PUSH2 0x5B75 JUMP JUMPDEST SWAP2 POP POP PUSH2 0x37D2 JUMP JUMPDEST PUSH1 0x60 PUSH2 0x38A7 DUP3 PUSH2 0x44FF JUMP JUMPDEST PUSH1 0x0 DUP3 DUP2 MSTORE PUSH1 0x6 PUSH1 0x20 MSTORE PUSH1 0x40 DUP2 KECCAK256 DUP1 SLOAD PUSH2 0x38C0 SWAP1 PUSH2 0x5A04 JUMP JUMPDEST DUP1 PUSH1 0x1F ADD PUSH1 0x20 DUP1 SWAP2 DIV MUL PUSH1 0x20 ADD PUSH1 0x40 MLOAD SWAP1 DUP2 ADD PUSH1 0x40 MSTORE DUP1 SWAP3 SWAP2 SWAP1 DUP2 DUP2 MSTORE PUSH1 0x20 ADD DUP3 DUP1 SLOAD PUSH2 0x38EC SWAP1 PUSH2 0x5A04 JUMP JUMPDEST DUP1 ISZERO PUSH2 0x3939 JUMPI DUP1 PUSH1 0x1F LT PUSH2 0x390E JUMPI PUSH2 0x100 DUP1 DUP4 SLOAD DIV MUL DUP4 MSTORE SWAP2 PUSH1 0x20 ADD SWAP2 PUSH2 0x3939 JUMP JUMPDEST DUP3 ADD SWAP2 SWAP1 PUSH1 0x0 MSTORE PUSH1 0x20 PUSH1 0x0 KECCAK256 SWAP1 JUMPDEST DUP2 SLOAD DUP2 MSTORE SWAP1 PUSH1 0x1 ADD SWAP1 PUSH1 0x20 ADD DUP1 DUP4 GT PUSH2 0x391C JUMPI DUP3 SWAP1 SUB PUSH1 0x1F AND DUP3 ADD SWAP2 JUMPDEST POP POP POP POP POP SWAP1 POP PUSH1 0x0 PUSH2 0x3957 PUSH1 0x40 DUP1 MLOAD PUSH1 0x20 DUP2 ADD SWAP1 SWAP2 MSTORE PUSH1 0x0 DUP2 MSTORE SWAP1 JUMP JUMPDEST SWAP1 POP DUP1 MLOAD PUSH1 0x0 SUB PUSH2 0x3969 JUMPI POP SWAP3 SWAP2 POP POP JUMP JUMPDEST DUP2 MLOAD ISZERO PUSH2 0x399B JUMPI DUP1 DUP3 PUSH1 0x40 MLOAD PUSH1 0x20 ADD PUSH2 0x3983 SWAP3 SWAP2 SWAP1 PUSH2 0x5CDB JUMP JUMPDEST PUSH1 0x40 MLOAD PUSH1 0x20 DUP2 DUP4 SUB SUB DUP2 MSTORE SWAP1 PUSH1 0x40 MSTORE SWAP3 POP POP POP SWAP2 SWAP1 POP JUMP JUMPDEST PUSH2 0x39A4 DUP5 PUSH2 0x4AE8 JUMP JUMPDEST SWAP5 SWAP4 POP POP POP POP JUMP JUMPDEST PUSH1 0x0 DUP2 DUP2 MSTORE PUSH1 0x10 PUSH1 0x20 MSTORE PUSH1 0x40 SWAP1 KECCAK256 PUSH1 0x4 ADD SLOAD CALLVALUE LT ISZERO PUSH2 0x3A1C JUMPI PUSH1 0x40 MLOAD PUSH3 0x461BCD PUSH1 0xE5 SHL DUP2 MSTORE PUSH1 0x20 PUSH1 0x4 DUP3 ADD MSTORE PUSH1 0x26 PUSH1 0x24 DUP3 ADD MSTORE PUSH32 0x506C65617365206769766520746865206D696E696D756D20616D6F756E74206E PUSH1 0x44 DUP3 ADD MSTORE PUSH6 0x656564656421 PUSH1 0xD0 SHL PUSH1 0x64 DUP3 ADD MSTORE PUSH1 0x84 ADD PUSH2 0xB76 JUMP JUMPDEST PUSH1 0x0 PUSH1 0x1 PUSH1 0xF SLOAD PUSH2 0x3A2D SWAP2 SWAP1 PUSH2 0x5A38 JUMP JUMPDEST SWAP1 POP JUMPDEST PUSH1 0x0 DUP2 DUP2 MSTORE PUSH1 0x11 PUSH1 0x20 MSTORE PUSH1 0x40 SWAP1 KECCAK256 SLOAD DUP3 EQ DUP1 ISZERO PUSH2 0x3A75 JUMPI POP PUSH1 0x0 DUP2 DUP2 MSTORE PUSH1 0x11 PUSH1 0x20 SWAP1 DUP2 MSTORE PUSH1 0x40 DUP1 DUP4 KECCAK256 SLOAD DUP4 MSTORE PUSH1 0x10 DUP3 MSTORE DUP1 DUP4 KECCAK256 PUSH1 0x1 ADD SLOAD CALLER DUP5 MSTORE PUSH1 0x19 SWAP1 SWAP3 MSTORE SWAP1 SWAP2 KECCAK256 SLOAD EQ JUMPDEST PUSH2 0x3A8B JUMPI DUP1 PUSH2 0x3A83 DUP2 PUSH2 0x5D0A JUMP JUMPDEST SWAP2 POP POP PUSH2 0x3A30 JUMP JUMPDEST PUSH1 0x0 DUP2 DUP2 MSTORE PUSH1 0x11 PUSH1 0x20 MSTORE PUSH1 0x40 SWAP1 KECCAK256 PUSH1 0x2 ADD SLOAD PUSH1 0x1E SWAP1 PUSH2 0x3AAA SWAP1 TIMESTAMP PUSH2 0x5A38 JUMP JUMPDEST LT ISZERO PUSH2 0x3AB5 JUMPI PUSH1 0x0 DUP1 REVERT JUMPDEST POP PUSH1 0x0 JUMPDEST PUSH1 0xE SLOAD DUP2 LT ISZERO PUSH2 0x3BFF JUMPI PUSH1 0x0 DUP3 DUP2 MSTORE PUSH1 0x10 PUSH1 0x20 SWAP1 DUP2 MSTORE PUSH1 0x40 DUP1 DUP4 KECCAK256 SLOAD DUP5 DUP5 MSTORE PUSH1 0x17 SWAP1 SWAP3 MSTORE SWAP1 SWAP2 KECCAK256 PUSH1 0x3 ADD SLOAD SUB PUSH2 0x3BED JUMPI PUSH1 0x0 DUP2 DUP2 MSTORE PUSH1 0x17 PUSH1 0x20 DUP2 DUP2 MSTORE PUSH1 0x40 DUP1 DUP5 KECCAK256 PUSH1 0x3 DUP2 ADD SLOAD DUP6 MSTORE PUSH1 0x15 DUP4 MSTORE SWAP1 DUP5 KECCAK256 PUSH1 0x6 ADD SLOAD SWAP4 DUP6 SWAP1 MSTORE SWAP2 SWAP1 MSTORE PUSH1 0x4 ADD SLOAD ADDRESS SWAP2 PUSH2 0x8FC SWAP2 CALLVALUE SWAP2 PUSH2 0x3B28 SWAP2 PUSH2 0x5D21 JUMP JUMPDEST PUSH2 0x3B32 SWAP2 SWAP1 PUSH2 0x5CA8 JUMP JUMPDEST PUSH1 0x40 MLOAD DUP2 ISZERO SWAP1 SWAP3 MUL SWAP2 PUSH1 0x0 DUP2 DUP2 DUP2 DUP6 DUP9 DUP9 CALL SWAP4 POP POP POP POP ISZERO DUP1 ISZERO PUSH2 0x3B5A JUMPI RETURNDATASIZE PUSH1 0x0 DUP1 RETURNDATACOPY RETURNDATASIZE PUSH1 0x0 REVERT JUMPDEST POP PUSH1 0x0 DUP2 DUP2 MSTORE PUSH1 0x17 PUSH1 0x20 DUP2 DUP2 MSTORE PUSH1 0x40 DUP1 DUP5 KECCAK256 PUSH1 0x2 DUP2 ADD SLOAD DUP6 MSTORE PUSH1 0x12 DUP4 MSTORE DUP2 DUP6 KECCAK256 PUSH1 0x1 ADD SLOAD PUSH1 0x3 DUP3 ADD SLOAD DUP7 MSTORE PUSH1 0x15 DUP5 MSTORE SWAP2 DUP6 KECCAK256 PUSH1 0x6 ADD SLOAD SWAP5 DUP7 SWAP1 MSTORE SWAP3 SWAP1 SWAP2 MSTORE PUSH1 0x4 SWAP1 SWAP2 ADD SLOAD PUSH1 0x1 PUSH1 0x1 PUSH1 0xA0 SHL SUB SWAP1 SWAP2 AND SWAP2 PUSH2 0x8FC SWAP2 CALLVALUE SWAP2 PUSH2 0x3BB9 SWAP2 PUSH2 0x5D21 JUMP JUMPDEST PUSH2 0x3BC3 SWAP2 SWAP1 PUSH2 0x5CA8 JUMP JUMPDEST PUSH1 0x40 MLOAD DUP2 ISZERO SWAP1 SWAP3 MUL SWAP2 PUSH1 0x0 DUP2 DUP2 DUP2 DUP6 DUP9 DUP9 CALL SWAP4 POP POP POP POP ISZERO DUP1 ISZERO PUSH2 0x3BEB JUMPI RETURNDATASIZE PUSH1 0x0 DUP1 RETURNDATACOPY RETURNDATASIZE PUSH1 0x0 REVERT JUMPDEST POP JUMPDEST DUP1 PUSH2 0x3BF7 DUP2 PUSH2 0x5B75 JUMP JUMPDEST SWAP2 POP POP PUSH2 0x3AB9 JUMP JUMPDEST PUSH1 0x40 MLOAD DUP1 PUSH1 0x60 ADD PUSH1 0x40 MSTORE DUP1 DUP4 DUP2 MSTORE PUSH1 0x20 ADD CALLVALUE DUP2 MSTORE PUSH1 0x20 ADD TIMESTAMP DUP2 MSTORE POP PUSH1 0x11 PUSH1 0x0 PUSH1 0xF PUSH1 0x0 DUP2 SLOAD DUP1 SWAP3 SWAP2 SWAP1 PUSH2 0x3C31 SWAP1 PUSH2 0x5B75 JUMP JUMPDEST SWAP2 SWAP1 POP SSTORE DUP2 MSTORE PUSH1 0x20 ADD SWAP1 DUP2 MSTORE PUSH1 0x20 ADD PUSH1 0x0 KECCAK256 PUSH1 0x0 DUP3 ADD MLOAD DUP2 PUSH1 0x0 ADD SSTORE PUSH1 0x20 DUP3 ADD MLOAD DUP2 PUSH1 0x1 ADD SSTORE PUSH1 0x40 DUP3 ADD MLOAD DUP2 PUSH1 0x2 ADD SSTORE SWAP1 POP POP POP POP JUMP JUMPDEST PUSH1 0x60 PUSH1 0x0 PUSH1 0xA SLOAD PUSH1 0x1 PUSH1 0x1 PUSH1 0x40 SHL SUB DUP2 GT ISZERO PUSH2 0x3C86 JUMPI PUSH2 0x3C86 PUSH2 0x537A JUMP JUMPDEST PUSH1 0x40 MLOAD SWAP1 DUP1 DUP3 MSTORE DUP1 PUSH1 0x20 MUL PUSH1 0x20 ADD DUP3 ADD PUSH1 0x40 MSTORE DUP1 ISZERO PUSH2 0x3CBF JUMPI DUP2 PUSH1 0x20 ADD JUMPDEST PUSH2 0x3CAC PUSH2 0x4E89 JUMP JUMPDEST DUP2 MSTORE PUSH1 0x20 ADD SWAP1 PUSH1 0x1 SWAP1 SUB SWAP1 DUP2 PUSH2 0x3CA4 JUMPI SWAP1 POP JUMPDEST POP SWAP1 POP PUSH1 0x0 JUMPDEST PUSH1 0xA SLOAD DUP2 LT ISZERO PUSH2 0x1B89 JUMPI PUSH1 0x0 PUSH1 0x15 PUSH1 0x0 DUP4 DUP2 MSTORE PUSH1 0x20 ADD SWAP1 DUP2 MSTORE PUSH1 0x20 ADD PUSH1 0x0 KECCAK256 SWAP1 POP DUP1 PUSH1 0x40 MLOAD DUP1 PUSH2 0x160 ADD PUSH1 0x40 MSTORE SWAP1 DUP2 PUSH1 0x0 DUP3 ADD SLOAD DUP2 MSTORE PUSH1 0x20 ADD PUSH1 0x1 DUP3 ADD SLOAD DUP2 MSTORE PUSH1 0x20 ADD PUSH1 0x2 DUP3 ADD DUP1 SLOAD PUSH2 0x3D17 SWAP1 PUSH2 0x5A04 JUMP JUMPDEST DUP1 PUSH1 0x1F ADD PUSH1 0x20 DUP1 SWAP2 DIV MUL PUSH1 0x20 ADD PUSH1 0x40 MLOAD SWAP1 DUP2 ADD PUSH1 0x40 MSTORE DUP1 SWAP3 SWAP2 SWAP1 DUP2 DUP2 MSTORE PUSH1 0x20 ADD DUP3 DUP1 SLOAD PUSH2 0x3D43 SWAP1 PUSH2 0x5A04 JUMP JUMPDEST DUP1 ISZERO PUSH2 0x3D90 JUMPI DUP1 PUSH1 0x1F LT PUSH2 0x3D65 JUMPI PUSH2 0x100 DUP1 DUP4 SLOAD DIV MUL DUP4 MSTORE SWAP2 PUSH1 0x20 ADD SWAP2 PUSH2 0x3D90 JUMP JUMPDEST DUP3 ADD SWAP2 SWAP1 PUSH1 0x0 MSTORE PUSH1 0x20 PUSH1 0x0 KECCAK256 SWAP1 JUMPDEST DUP2 SLOAD DUP2 MSTORE SWAP1 PUSH1 0x1 ADD SWAP1 PUSH1 0x20 ADD DUP1 DUP4 GT PUSH2 0x3D73 JUMPI DUP3 SWAP1 SUB PUSH1 0x1F AND DUP3 ADD SWAP2 JUMPDEST POP POP POP POP POP DUP2 MSTORE PUSH1 0x20 ADD PUSH1 0x3 DUP3 ADD DUP1 SLOAD PUSH2 0x3DA9 SWAP1 PUSH2 0x5A04 JUMP JUMPDEST DUP1 PUSH1 0x1F ADD PUSH1 0x20 DUP1 SWAP2 DIV MUL PUSH1 0x20 ADD PUSH1 0x40 MLOAD SWAP1 DUP2 ADD PUSH1 0x40 MSTORE DUP1 SWAP3 SWAP2 SWAP1 DUP2 DUP2 MSTORE PUSH1 0x20 ADD DUP3 DUP1 SLOAD PUSH2 0x3DD5 SWAP1 PUSH2 0x5A04 JUMP JUMPDEST DUP1 ISZERO PUSH2 0x3E22 JUMPI DUP1 PUSH1 0x1F LT PUSH2 0x3DF7 JUMPI PUSH2 0x100 DUP1 DUP4 SLOAD DIV MUL DUP4 MSTORE SWAP2 PUSH1 0x20 ADD SWAP2 PUSH2 0x3E22 JUMP JUMPDEST DUP3 ADD SWAP2 SWAP1 PUSH1 0x0 MSTORE PUSH1 0x20 PUSH1 0x0 KECCAK256 SWAP1 JUMPDEST DUP2 SLOAD DUP2 MSTORE SWAP1 PUSH1 0x1 ADD SWAP1 PUSH1 0x20 ADD DUP1 DUP4 GT PUSH2 0x3E05 JUMPI DUP3 SWAP1 SUB PUSH1 0x1F AND DUP3 ADD SWAP2 JUMPDEST POP POP POP POP POP DUP2 MSTORE PUSH1 0x20 ADD PUSH1 0x4 DUP3 ADD DUP1 SLOAD PUSH2 0x3E3B SWAP1 PUSH2 0x5A04 JUMP JUMPDEST DUP1 PUSH1 0x1F ADD PUSH1 0x20 DUP1 SWAP2 DIV MUL PUSH1 0x20 ADD PUSH1 0x40 MLOAD SWAP1 DUP2 ADD PUSH1 0x40 MSTORE DUP1 SWAP3 SWAP2 SWAP1 DUP2 DUP2 MSTORE PUSH1 0x20 ADD DUP3 DUP1 SLOAD PUSH2 0x3E67 SWAP1 PUSH2 0x5A04 JUMP JUMPDEST DUP1 ISZERO PUSH2 0x3EB4 JUMPI DUP1 PUSH1 0x1F LT PUSH2 0x3E89 JUMPI PUSH2 0x100 DUP1 DUP4 SLOAD DIV MUL DUP4 MSTORE SWAP2 PUSH1 0x20 ADD SWAP2 PUSH2 0x3EB4 JUMP JUMPDEST DUP3 ADD SWAP2 SWAP1 PUSH1 0x0 MSTORE PUSH1 0x20 PUSH1 0x0 KECCAK256 SWAP1 JUMPDEST DUP2 SLOAD DUP2 MSTORE SWAP1 PUSH1 0x1 ADD SWAP1 PUSH1 0x20 ADD DUP1 DUP4 GT PUSH2 0x3E97 JUMPI DUP3 SWAP1 SUB PUSH1 0x1F AND DUP3 ADD SWAP2 JUMPDEST POP POP POP POP POP DUP2 MSTORE PUSH1 0x20 ADD PUSH1 0x5 DUP3 ADD DUP1 SLOAD PUSH2 0x3ECD SWAP1 PUSH2 0x5A04 JUMP JUMPDEST DUP1 PUSH1 0x1F ADD PUSH1 0x20 DUP1 SWAP2 DIV MUL PUSH1 0x20 ADD PUSH1 0x40 MLOAD SWAP1 DUP2 ADD PUSH1 0x40 MSTORE DUP1 SWAP3 SWAP2 SWAP1 DUP2 DUP2 MSTORE PUSH1 0x20 ADD DUP3 DUP1 SLOAD PUSH2 0x3EF9 SWAP1 PUSH2 0x5A04 JUMP JUMPDEST DUP1 ISZERO PUSH2 0x3F46 JUMPI DUP1 PUSH1 0x1F LT PUSH2 0x3F1B JUMPI PUSH2 0x100 DUP1 DUP4 SLOAD DIV MUL DUP4 MSTORE SWAP2 PUSH1 0x20 ADD SWAP2 PUSH2 0x3F46 JUMP JUMPDEST DUP3 ADD SWAP2 SWAP1 PUSH1 0x0 MSTORE PUSH1 0x20 PUSH1 0x0 KECCAK256 SWAP1 JUMPDEST DUP2 SLOAD DUP2 MSTORE SWAP1 PUSH1 0x1 ADD SWAP1 PUSH1 0x20 ADD DUP1 DUP4 GT PUSH2 0x3F29 JUMPI DUP3 SWAP1 SUB PUSH1 0x1F AND DUP3 ADD SWAP2 JUMPDEST POP POP POP SWAP2 DUP4 MSTORE POP POP PUSH1 0x6 DUP3 ADD SLOAD PUSH1 0x20 DUP3 ADD MSTORE PUSH1 0x7 DUP3 ADD SLOAD PUSH1 0x40 DUP3 ADD MSTORE PUSH1 0x8 DUP3 ADD SLOAD PUSH1 0x60 DUP3 ADD MSTORE PUSH1 0x9 DUP3 ADD SLOAD PUSH1 0xFF AND ISZERO ISZERO PUSH1 0x80 DUP3 ADD MSTORE PUSH1 0xA SWAP1 SWAP2 ADD SLOAD PUSH1 0xA0 SWAP1 SWAP2 ADD MSTORE DUP4 MLOAD DUP5 SWAP1 DUP5 SWAP1 DUP2 LT PUSH2 0x3F9B JUMPI PUSH2 0x3F9B PUSH2 0x5BDB JUMP JUMPDEST PUSH1 0x20 MUL PUSH1 0x20 ADD ADD DUP2 SWAP1 MSTORE POP POP DUP1 DUP1 PUSH2 0x3FB2 SWAP1 PUSH2 0x5B75 JUMP JUMPDEST SWAP2 POP POP PUSH2 0x3CC5 JUMP JUMPDEST PUSH1 0x60 PUSH1 0x0 DUP1 JUMPDEST PUSH1 0xA SLOAD DUP2 LT ISZERO PUSH2 0x401A JUMPI PUSH1 0x1 PUSH1 0x1 PUSH1 0xA0 SHL SUB DUP5 AND PUSH1 0x0 SWAP1 DUP2 MSTORE PUSH1 0x19 PUSH1 0x20 SWAP1 DUP2 MSTORE PUSH1 0x40 DUP1 DUP4 KECCAK256 SLOAD DUP5 DUP5 MSTORE PUSH1 0x15 SWAP1 SWAP3 MSTORE SWAP1 SWAP2 KECCAK256 PUSH1 0x1 ADD SLOAD SUB PUSH2 0x4008 JUMPI PUSH2 0x4005 PUSH1 0x1 DUP4 PUSH2 0x59F1 JUMP JUMPDEST SWAP2 POP JUMPDEST DUP1 PUSH2 0x4012 DUP2 PUSH2 0x5B75 JUMP JUMPDEST SWAP2 POP POP PUSH2 0x3FC0 JUMP JUMPDEST POP PUSH1 0x0 DUP2 PUSH1 0x1 PUSH1 0x1 PUSH1 0x40 SHL SUB DUP2 GT ISZERO PUSH2 0x4035 JUMPI PUSH2 0x4035 PUSH2 0x537A JUMP JUMPDEST PUSH1 0x40 MLOAD SWAP1 DUP1 DUP3 MSTORE DUP1 PUSH1 0x20 MUL PUSH1 0x20 ADD DUP3 ADD PUSH1 0x40 MSTORE DUP1 ISZERO PUSH2 0x406E JUMPI DUP2 PUSH1 0x20 ADD JUMPDEST PUSH2 0x405B PUSH2 0x4E89 JUMP JUMPDEST DUP2 MSTORE PUSH1 0x20 ADD SWAP1 PUSH1 0x1 SWAP1 SUB SWAP1 DUP2 PUSH2 0x4053 JUMPI SWAP1 POP JUMPDEST POP SWAP1 POP PUSH1 0x0 SWAP2 POP PUSH1 0x0 JUMPDEST PUSH1 0xA SLOAD DUP2 LT ISZERO PUSH2 0x2287 JUMPI PUSH1 0x1 PUSH1 0x1 PUSH1 0xA0 SHL SUB DUP6 AND PUSH1 0x0 SWAP1 DUP2 MSTORE PUSH1 0x19 PUSH1 0x20 SWAP1 DUP2 MSTORE PUSH1 0x40 DUP1 DUP4 KECCAK256 SLOAD DUP5 DUP5 MSTORE PUSH1 0x15 SWAP1 SWAP3 MSTORE SWAP1 SWAP2 KECCAK256 PUSH1 0x1 ADD SLOAD SUB PUSH2 0x4398 JUMPI PUSH1 0x0 PUSH1 0x15 PUSH1 0x0 DUP4 DUP2 MSTORE PUSH1 0x20 ADD SWAP1 DUP2 MSTORE PUSH1 0x20 ADD PUSH1 0x0 KECCAK256 SWAP1 POP DUP1 PUSH1 0x40 MLOAD DUP1 PUSH2 0x160 ADD PUSH1 0x40 MSTORE SWAP1 DUP2 PUSH1 0x0 DUP3 ADD SLOAD DUP2 MSTORE PUSH1 0x20 ADD PUSH1 0x1 DUP3 ADD SLOAD DUP2 MSTORE PUSH1 0x20 ADD PUSH1 0x2 DUP3 ADD DUP1 SLOAD PUSH2 0x40FA SWAP1 PUSH2 0x5A04 JUMP JUMPDEST DUP1 PUSH1 0x1F ADD PUSH1 0x20 DUP1 SWAP2 DIV MUL PUSH1 0x20 ADD PUSH1 0x40 MLOAD SWAP1 DUP2 ADD PUSH1 0x40 MSTORE DUP1 SWAP3 SWAP2 SWAP1 DUP2 DUP2 MSTORE PUSH1 0x20 ADD DUP3 DUP1 SLOAD PUSH2 0x4126 SWAP1 PUSH2 0x5A04 JUMP JUMPDEST DUP1 ISZERO PUSH2 0x4173 JUMPI DUP1 PUSH1 0x1F LT PUSH2 0x4148 JUMPI PUSH2 0x100 DUP1 DUP4 SLOAD DIV MUL DUP4 MSTORE SWAP2 PUSH1 0x20 ADD SWAP2 PUSH2 0x4173 JUMP JUMPDEST DUP3 ADD SWAP2 SWAP1 PUSH1 0x0 MSTORE PUSH1 0x20 PUSH1 0x0 KECCAK256 SWAP1 JUMPDEST DUP2 SLOAD DUP2 MSTORE SWAP1 PUSH1 0x1 ADD SWAP1 PUSH1 0x20 ADD DUP1 DUP4 GT PUSH2 0x4156 JUMPI DUP3 SWAP1 SUB PUSH1 0x1F AND DUP3 ADD SWAP2 JUMPDEST POP POP POP POP POP DUP2 MSTORE PUSH1 0x20 ADD PUSH1 0x3 DUP3 ADD DUP1 SLOAD PUSH2 0x418C SWAP1 PUSH2 0x5A04 JUMP JUMPDEST DUP1 PUSH1 0x1F ADD PUSH1 0x20 DUP1 SWAP2 DIV MUL PUSH1 0x20 ADD PUSH1 0x40 MLOAD SWAP1 DUP2 ADD PUSH1 0x40 MSTORE DUP1 SWAP3 SWAP2 SWAP1 DUP2 DUP2 MSTORE PUSH1 0x20 ADD DUP3 DUP1 SLOAD PUSH2 0x41B8 SWAP1 PUSH2 0x5A04 JUMP JUMPDEST DUP1 ISZERO PUSH2 0x4205 JUMPI DUP1 PUSH1 0x1F LT PUSH2 0x41DA JUMPI PUSH2 0x100 DUP1 DUP4 SLOAD DIV MUL DUP4 MSTORE SWAP2 PUSH1 0x20 ADD SWAP2 PUSH2 0x4205 JUMP JUMPDEST DUP3 ADD SWAP2 SWAP1 PUSH1 0x0 MSTORE PUSH1 0x20 PUSH1 0x0 KECCAK256 SWAP1 JUMPDEST DUP2 SLOAD DUP2 MSTORE SWAP1 PUSH1 0x1 ADD SWAP1 PUSH1 0x20 ADD DUP1 DUP4 GT PUSH2 0x41E8 JUMPI DUP3 SWAP1 SUB PUSH1 0x1F AND DUP3 ADD SWAP2 JUMPDEST POP POP POP POP POP DUP2 MSTORE PUSH1 0x20 ADD PUSH1 0x4 DUP3 ADD DUP1 SLOAD PUSH2 0x421E SWAP1 PUSH2 0x5A04 JUMP JUMPDEST DUP1 PUSH1 0x1F ADD PUSH1 0x20 DUP1 SWAP2 DIV MUL PUSH1 0x20 ADD PUSH1 0x40 MLOAD SWAP1 DUP2 ADD PUSH1 0x40 MSTORE DUP1 SWAP3 SWAP2 SWAP1 DUP2 DUP2 MSTORE PUSH1 0x20 ADD DUP3 DUP1 SLOAD PUSH2 0x424A SWAP1 PUSH2 0x5A04 JUMP JUMPDEST DUP1 ISZERO PUSH2 0x4297 JUMPI DUP1 PUSH1 0x1F LT PUSH2 0x426C JUMPI PUSH2 0x100 DUP1 DUP4 SLOAD DIV MUL DUP4 MSTORE SWAP2 PUSH1 0x20 ADD SWAP2 PUSH2 0x4297 JUMP JUMPDEST DUP3 ADD SWAP2 SWAP1 PUSH1 0x0 MSTORE PUSH1 0x20 PUSH1 0x0 KECCAK256 SWAP1 JUMPDEST DUP2 SLOAD DUP2 MSTORE SWAP1 PUSH1 0x1 ADD SWAP1 PUSH1 0x20 ADD DUP1 DUP4 GT PUSH2 0x427A JUMPI DUP3 SWAP1 SUB PUSH1 0x1F AND DUP3 ADD SWAP2 JUMPDEST POP POP POP POP POP DUP2 MSTORE PUSH1 0x20 ADD PUSH1 0x5 DUP3 ADD DUP1 SLOAD PUSH2 0x42B0 SWAP1 PUSH2 0x5A04 JUMP JUMPDEST DUP1 PUSH1 0x1F ADD PUSH1 0x20 DUP1 SWAP2 DIV MUL PUSH1 0x20 ADD PUSH1 0x40 MLOAD SWAP1 DUP2 ADD PUSH1 0x40 MSTORE DUP1 SWAP3 SWAP2 SWAP1 DUP2 DUP2 MSTORE PUSH1 0x20 ADD DUP3 DUP1 SLOAD PUSH2 0x42DC SWAP1 PUSH2 0x5A04 JUMP JUMPDEST DUP1 ISZERO PUSH2 0x4329 JUMPI DUP1 PUSH1 0x1F LT PUSH2 0x42FE JUMPI PUSH2 0x100 DUP1 DUP4 SLOAD DIV MUL DUP4 MSTORE SWAP2 PUSH1 0x20 ADD SWAP2 PUSH2 0x4329 JUMP JUMPDEST DUP3 ADD SWAP2 SWAP1 PUSH1 0x0 MSTORE PUSH1 0x20 PUSH1 0x0 KECCAK256 SWAP1 JUMPDEST DUP2 SLOAD DUP2 MSTORE SWAP1 PUSH1 0x1 ADD SWAP1 PUSH1 0x20 ADD DUP1 DUP4 GT PUSH2 0x430C JUMPI DUP3 SWAP1 SUB PUSH1 0x1F AND DUP3 ADD SWAP2 JUMPDEST POP POP POP SWAP2 DUP4 MSTORE POP POP PUSH1 0x6 DUP3 ADD SLOAD PUSH1 0x20 DUP3 ADD MSTORE PUSH1 0x7 DUP3 ADD SLOAD PUSH1 0x40 DUP3 ADD MSTORE PUSH1 0x8 DUP3 ADD SLOAD PUSH1 0x60 DUP3 ADD MSTORE PUSH1 0x9 DUP3 ADD SLOAD PUSH1 0xFF AND ISZERO ISZERO PUSH1 0x80 DUP3 ADD MSTORE PUSH1 0xA SWAP1 SWAP2 ADD SLOAD PUSH1 0xA0 SWAP1 SWAP2 ADD MSTORE DUP4 MLOAD DUP5 SWAP1 DUP7 SWAP1 DUP2 LT PUSH2 0x437E JUMPI PUSH2 0x437E PUSH2 0x5BDB JUMP JUMPDEST PUSH1 0x20 SWAP1 DUP2 MUL SWAP2 SWAP1 SWAP2 ADD ADD MSTORE PUSH2 0x4394 PUSH1 0x1 DUP6 PUSH2 0x59F1 JUMP JUMPDEST SWAP4 POP POP JUMPDEST DUP1 PUSH2 0x43A2 DUP2 PUSH2 0x5B75 JUMP JUMPDEST SWAP2 POP POP PUSH2 0x4078 JUMP JUMPDEST PUSH1 0x60 PUSH1 0x0 PUSH1 0x1 JUMPDEST PUSH1 0xF SLOAD DUP2 GT PUSH2 0x43F0 JUMPI PUSH1 0x0 DUP2 DUP2 MSTORE PUSH1 0x11 PUSH1 0x20 MSTORE PUSH1 0x40 SWAP1 KECCAK256 SLOAD DUP5 SWAP1 SUB PUSH2 0x43DE JUMPI PUSH2 0x43DB PUSH1 0x1 DUP4 PUSH2 0x59F1 JUMP JUMPDEST SWAP2 POP JUMPDEST DUP1 PUSH2 0x43E8 DUP2 PUSH2 0x5B75 JUMP JUMPDEST SWAP2 POP POP PUSH2 0x43B1 JUMP JUMPDEST POP PUSH1 0x0 DUP2 PUSH1 0x1 PUSH1 0x1 PUSH1 0x40 SHL SUB DUP2 GT ISZERO PUSH2 0x440B JUMPI PUSH2 0x440B PUSH2 0x537A JUMP JUMPDEST PUSH1 0x40 MLOAD SWAP1 DUP1 DUP3 MSTORE DUP1 PUSH1 0x20 MUL PUSH1 0x20 ADD DUP3 ADD PUSH1 0x40 MSTORE DUP1 ISZERO PUSH2 0x4460 JUMPI DUP2 PUSH1 0x20 ADD JUMPDEST PUSH2 0x444D PUSH1 0x40 MLOAD DUP1 PUSH1 0x60 ADD PUSH1 0x40 MSTORE DUP1 PUSH1 0x0 DUP2 MSTORE PUSH1 0x20 ADD PUSH1 0x0 DUP2 MSTORE PUSH1 0x20 ADD PUSH1 0x0 DUP2 MSTORE POP SWAP1 JUMP JUMPDEST DUP2 MSTORE PUSH1 0x20 ADD SWAP1 PUSH1 0x1 SWAP1 SUB SWAP1 DUP2 PUSH2 0x4429 JUMPI SWAP1 POP JUMPDEST POP PUSH1 0x0 SWAP3 POP SWAP1 POP PUSH1 0x1 JUMPDEST PUSH1 0xF SLOAD DUP2 GT PUSH2 0x2287 JUMPI PUSH1 0x0 DUP2 DUP2 MSTORE PUSH1 0x11 PUSH1 0x20 MSTORE PUSH1 0x40 SWAP1 KECCAK256 SLOAD DUP6 SWAP1 SUB PUSH2 0x44ED JUMPI PUSH1 0x0 DUP2 DUP2 MSTORE PUSH1 0x11 PUSH1 0x20 SWAP1 DUP2 MSTORE PUSH1 0x40 SWAP2 DUP3 SWAP1 KECCAK256 DUP3 MLOAD PUSH1 0x60 DUP2 ADD DUP5 MSTORE DUP2 SLOAD DUP2 MSTORE PUSH1 0x1 DUP3 ADD SLOAD SWAP3 DUP2 ADD SWAP3 SWAP1 SWAP3 MSTORE PUSH1 0x2 DUP2 ADD SLOAD SWAP3 DUP3 ADD SWAP3 SWAP1 SWAP3 MSTORE DUP4 MLOAD DUP5 SWAP1 DUP7 SWAP1 DUP2 LT PUSH2 0x44D3 JUMPI PUSH2 0x44D3 PUSH2 0x5BDB JUMP JUMPDEST PUSH1 0x20 SWAP1 DUP2 MUL SWAP2 SWAP1 SWAP2 ADD ADD MSTORE PUSH2 0x44E9 PUSH1 0x1 DUP6 PUSH2 0x59F1 JUMP JUMPDEST SWAP4 POP POP JUMPDEST DUP1 PUSH2 0x44F7 DUP2 PUSH2 0x5B75 JUMP JUMPDEST SWAP2 POP POP PUSH2 0x446A JUMP JUMPDEST PUSH1 0x0 DUP2 DUP2 MSTORE PUSH1 0x2 PUSH1 0x20 MSTORE PUSH1 0x40 SWAP1 KECCAK256 SLOAD PUSH1 0x1 PUSH1 0x1 PUSH1 0xA0 SHL SUB AND PUSH2 0xA46 JUMPI PUSH1 0x40 MLOAD PUSH3 0x461BCD PUSH1 0xE5 SHL DUP2 MSTORE PUSH1 0x20 PUSH1 0x4 DUP3 ADD MSTORE PUSH1 0x18 PUSH1 0x24 DUP3 ADD MSTORE PUSH24 0x115490CDCC8C4E881A5B9D985B1A59081D1BDAD95B881251 PUSH1 0x42 SHL PUSH1 0x44 DUP3 ADD MSTORE PUSH1 0x64 ADD PUSH2 0xB76 JUMP JUMPDEST PUSH1 0x0 DUP2 DUP2 MSTORE PUSH1 0x4 PUSH1 0x20 MSTORE PUSH1 0x40 SWAP1 KECCAK256 DUP1 SLOAD PUSH1 0x1 PUSH1 0x1 PUSH1 0xA0 SHL SUB NOT AND PUSH1 0x1 PUSH1 0x1 PUSH1 0xA0 SHL SUB DUP5 AND SWAP1 DUP2 OR SWAP1 SWAP2 SSTORE DUP2 SWAP1 PUSH2 0x4593 DUP3 PUSH2 0x228F JUMP JUMPDEST PUSH1 0x1 PUSH1 0x1 PUSH1 0xA0 SHL SUB AND PUSH32 0x8C5BE1E5EBEC7D5BD14F71427D1E84F3DD0314C0F7B2291E5B200AC8C7C3B925 PUSH1 0x40 MLOAD PUSH1 0x40 MLOAD DUP1 SWAP2 SUB SWAP1 LOG4 POP POP JUMP JUMPDEST PUSH1 0x0 DUP1 PUSH2 0x45D8 DUP4 PUSH2 0x228F JUMP JUMPDEST SWAP1 POP DUP1 PUSH1 0x1 PUSH1 0x1 PUSH1 0xA0 SHL SUB AND DUP5 PUSH1 0x1 PUSH1 0x1 PUSH1 0xA0 SHL SUB AND EQ DUP1 PUSH2 0x461F JUMPI POP PUSH1 0x1 PUSH1 0x1 PUSH1 0xA0 SHL SUB DUP1 DUP3 AND PUSH1 0x0 SWAP1 DUP2 MSTORE PUSH1 0x5 PUSH1 0x20 SWAP1 DUP2 MSTORE PUSH1 0x40 DUP1 DUP4 KECCAK256 SWAP4 DUP9 AND DUP4 MSTORE SWAP3 SWAP1 MSTORE KECCAK256 SLOAD PUSH1 0xFF AND JUMPDEST DUP1 PUSH2 0x39A4 JUMPI POP DUP4 PUSH1 0x1 PUSH1 0x1 PUSH1 0xA0 SHL SUB AND PUSH2 0x4638 DUP5 PUSH2 0xADB JUMP JUMPDEST PUSH1 0x1 PUSH1 0x1 PUSH1 0xA0 SHL SUB AND EQ SWAP5 SWAP4 POP POP POP POP JUMP JUMPDEST DUP3 PUSH1 0x1 PUSH1 0x1 PUSH1 0xA0 SHL SUB AND PUSH2 0x465D DUP3 PUSH2 0x228F JUMP JUMPDEST PUSH1 0x1 PUSH1 0x1 PUSH1 0xA0 SHL SUB AND EQ PUSH2 0x4683 JUMPI PUSH1 0x40 MLOAD PUSH3 0x461BCD PUSH1 0xE5 SHL DUP2 MSTORE PUSH1 0x4 ADD PUSH2 0xB76 SWAP1 PUSH2 0x5D43 JUMP JUMPDEST PUSH1 0x1 PUSH1 0x1 PUSH1 0xA0 SHL SUB DUP3 AND PUSH2 0x46E5 JUMPI PUSH1 0x40 MLOAD PUSH3 0x461BCD PUSH1 0xE5 SHL DUP2 MSTORE PUSH1 0x20 PUSH1 0x4 DUP3 ADD MSTORE PUSH1 0x24 DUP1 DUP3 ADD MSTORE PUSH32 0x4552433732313A207472616E7366657220746F20746865207A65726F20616464 PUSH1 0x44 DUP3 ADD MSTORE PUSH4 0x72657373 PUSH1 0xE0 SHL PUSH1 0x64 DUP3 ADD MSTORE PUSH1 0x84 ADD PUSH2 0xB76 JUMP JUMPDEST PUSH2 0x46F2 DUP4 DUP4 DUP4 PUSH1 0x1 PUSH2 0x4B5C JUMP JUMPDEST DUP3 PUSH1 0x1 PUSH1 0x1 PUSH1 0xA0 SHL SUB AND PUSH2 0x4705 DUP3 PUSH2 0x228F JUMP JUMPDEST PUSH1 0x1 PUSH1 0x1 PUSH1 0xA0 SHL SUB AND EQ PUSH2 0x472B JUMPI PUSH1 0x40 MLOAD PUSH3 0x461BCD PUSH1 0xE5 SHL DUP2 MSTORE PUSH1 0x4 ADD PUSH2 0xB76 SWAP1 PUSH2 0x5D43 JUMP JUMPDEST PUSH1 0x0 DUP2 DUP2 MSTORE PUSH1 0x4 PUSH1 0x20 SWAP1 DUP2 MSTORE PUSH1 0x40 DUP1 DUP4 KECCAK256 DUP1 SLOAD PUSH1 0x1 PUSH1 0x1 PUSH1 0xA0 SHL SUB NOT SWAP1 DUP2 AND SWAP1 SWAP2 SSTORE PUSH1 0x1 PUSH1 0x1 PUSH1 0xA0 SHL SUB DUP8 DUP2 AND DUP1 DUP7 MSTORE PUSH1 0x3 DUP6 MSTORE DUP4 DUP7 KECCAK256 DUP1 SLOAD PUSH1 0x0 NOT ADD SWAP1 SSTORE SWAP1 DUP8 AND DUP1 DUP7 MSTORE DUP4 DUP7 KECCAK256 DUP1 SLOAD PUSH1 0x1 ADD SWAP1 SSTORE DUP7 DUP7 MSTORE PUSH1 0x2 SWAP1 SWAP5 MSTORE DUP3 DUP6 KECCAK256 DUP1 SLOAD SWAP1 SWAP3 AND DUP5 OR SWAP1 SWAP2 SSTORE SWAP1 MLOAD DUP5 SWAP4 PUSH32 0xDDF252AD1BE2C89B69C2B068FC378DAA952BA7F163C4A11628F55A4DF523B3EF SWAP2 LOG4 POP POP POP JUMP JUMPDEST PUSH1 0x1 PUSH1 0x1 PUSH1 0xA0 SHL SUB DUP3 AND PUSH2 0x4811 JUMPI PUSH1 0x40 MLOAD PUSH3 0x461BCD PUSH1 0xE5 SHL DUP2 MSTORE PUSH1 0x20 PUSH1 0x4 DUP3 ADD DUP2 SWAP1 MSTORE PUSH1 0x24 DUP3 ADD MSTORE PUSH32 0x4552433732313A206D696E7420746F20746865207A65726F2061646472657373 PUSH1 0x44 DUP3 ADD MSTORE PUSH1 0x64 ADD PUSH2 0xB76 JUMP JUMPDEST PUSH1 0x0 DUP2 DUP2 MSTORE PUSH1 0x2 PUSH1 0x20 MSTORE PUSH1 0x40 SWAP1 KECCAK256 SLOAD PUSH1 0x1 PUSH1 0x1 PUSH1 0xA0 SHL SUB AND ISZERO PUSH2 0x4876 JUMPI PUSH1 0x40 MLOAD PUSH3 0x461BCD PUSH1 0xE5 SHL DUP2 MSTORE PUSH1 0x20 PUSH1 0x4 DUP3 ADD MSTORE PUSH1 0x1C PUSH1 0x24 DUP3 ADD MSTORE PUSH32 0x4552433732313A20746F6B656E20616C7265616479206D696E74656400000000 PUSH1 0x44 DUP3 ADD MSTORE PUSH1 0x64 ADD PUSH2 0xB76 JUMP JUMPDEST PUSH2 0x4884 PUSH1 0x0 DUP4 DUP4 PUSH1 0x1 PUSH2 0x4B5C JUMP JUMPDEST PUSH1 0x0 DUP2 DUP2 MSTORE PUSH1 0x2 PUSH1 0x20 MSTORE PUSH1 0x40 SWAP1 KECCAK256 SLOAD PUSH1 0x1 PUSH1 0x1 PUSH1 0xA0 SHL SUB AND ISZERO PUSH2 0x48E9 JUMPI PUSH1 0x40 MLOAD PUSH3 0x461BCD PUSH1 0xE5 SHL DUP2 MSTORE PUSH1 0x20 PUSH1 0x4 DUP3 ADD MSTORE PUSH1 0x1C PUSH1 0x24 DUP3 ADD MSTORE PUSH32 0x4552433732313A20746F6B656E20616C7265616479206D696E74656400000000 PUSH1 0x44 DUP3 ADD MSTORE PUSH1 0x64 ADD PUSH2 0xB76 JUMP JUMPDEST PUSH1 0x1 PUSH1 0x1 PUSH1 0xA0 SHL SUB DUP3 AND PUSH1 0x0 DUP2 DUP2 MSTORE PUSH1 0x3 PUSH1 0x20 SWAP1 DUP2 MSTORE PUSH1 0x40 DUP1 DUP4 KECCAK256 DUP1 SLOAD PUSH1 0x1 ADD SWAP1 SSTORE DUP5 DUP4 MSTORE PUSH1 0x2 SWAP1 SWAP2 MSTORE DUP1 DUP3 KECCAK256 DUP1 SLOAD PUSH1 0x1 PUSH1 0x1 PUSH1 0xA0 SHL SUB NOT AND DUP5 OR SWAP1 SSTORE MLOAD DUP4 SWAP3 SWAP2 SWAP1 PUSH32 0xDDF252AD1BE2C89B69C2B068FC378DAA952BA7F163C4A11628F55A4DF523B3EF SWAP1 DUP3 SWAP1 LOG4 POP POP JUMP JUMPDEST PUSH1 0x0 DUP3 DUP2 MSTORE PUSH1 0x2 PUSH1 0x20 MSTORE PUSH1 0x40 SWAP1 KECCAK256 SLOAD PUSH1 0x1 PUSH1 0x1 PUSH1 0xA0 SHL SUB AND PUSH2 0x49CF JUMPI PUSH1 0x40 MLOAD PUSH3 0x461BCD PUSH1 0xE5 SHL DUP2 MSTORE PUSH1 0x20 PUSH1 0x4 DUP3 ADD MSTORE PUSH1 0x2E PUSH1 0x24 DUP3 ADD MSTORE PUSH32 0x45524337323155524953746F726167653A2055524920736574206F66206E6F6E PUSH1 0x44 DUP3 ADD MSTORE PUSH14 0x32BC34B9BA32B73A103A37B5B2B7 PUSH1 0x91 SHL PUSH1 0x64 DUP3 ADD MSTORE PUSH1 0x84 ADD PUSH2 0xB76 JUMP JUMPDEST PUSH1 0x0 DUP3 DUP2 MSTORE PUSH1 0x6 PUSH1 0x20 MSTORE PUSH1 0x40 SWAP1 KECCAK256 PUSH2 0xC17 DUP3 DUP3 PUSH2 0x5BF1 JUMP JUMPDEST DUP2 PUSH1 0x1 PUSH1 0x1 PUSH1 0xA0 SHL SUB AND DUP4 PUSH1 0x1 PUSH1 0x1 PUSH1 0xA0 SHL SUB AND SUB PUSH2 0x4A48 JUMPI PUSH1 0x40 MLOAD PUSH3 0x461BCD PUSH1 0xE5 SHL DUP2 MSTORE PUSH1 0x20 PUSH1 0x4 DUP3 ADD MSTORE PUSH1 0x19 PUSH1 0x24 DUP3 ADD MSTORE PUSH32 0x4552433732313A20617070726F766520746F2063616C6C657200000000000000 PUSH1 0x44 DUP3 ADD MSTORE PUSH1 0x64 ADD PUSH2 0xB76 JUMP JUMPDEST PUSH1 0x1 PUSH1 0x1 PUSH1 0xA0 SHL SUB DUP4 DUP2 AND PUSH1 0x0 DUP2 DUP2 MSTORE PUSH1 0x5 PUSH1 0x20 SWAP1 DUP2 MSTORE PUSH1 0x40 DUP1 DUP4 KECCAK256 SWAP5 DUP8 AND DUP1 DUP5 MSTORE SWAP5 DUP3 MSTORE SWAP2 DUP3 SWAP1 KECCAK256 DUP1 SLOAD PUSH1 0xFF NOT AND DUP7 ISZERO ISZERO SWAP1 DUP2 OR SWAP1 SWAP2 SSTORE SWAP2 MLOAD SWAP2 DUP3 MSTORE PUSH32 0x17307EAB39AB6107E8899845AD3D59BD9653F200F220920489CA2B5937696C31 SWAP2 ADD PUSH1 0x40 MLOAD DUP1 SWAP2 SUB SWAP1 LOG3 POP POP POP JUMP JUMPDEST PUSH2 0x4AC0 DUP5 DUP5 DUP5 PUSH2 0x464A JUMP JUMPDEST PUSH2 0x4ACC DUP5 DUP5 DUP5 DUP5 PUSH2 0x4BE4 JUMP JUMPDEST PUSH2 0x33B1 JUMPI PUSH1 0x40 MLOAD PUSH3 0x461BCD PUSH1 0xE5 SHL DUP2 MSTORE PUSH1 0x4 ADD PUSH2 0xB76 SWAP1 PUSH2 0x5D88 JUMP JUMPDEST PUSH1 0x60 PUSH2 0x4AF3 DUP3 PUSH2 0x44FF JUMP JUMPDEST PUSH1 0x0 PUSH2 0x4B0A PUSH1 0x40 DUP1 MLOAD PUSH1 0x20 DUP2 ADD SWAP1 SWAP2 MSTORE PUSH1 0x0 DUP2 MSTORE SWAP1 JUMP JUMPDEST SWAP1 POP PUSH1 0x0 DUP2 MLOAD GT PUSH2 0x4B2A JUMPI PUSH1 0x40 MLOAD DUP1 PUSH1 0x20 ADD PUSH1 0x40 MSTORE DUP1 PUSH1 0x0 DUP2 MSTORE POP PUSH2 0x4B55 JUMP JUMPDEST DUP1 PUSH2 0x4B34 DUP5 PUSH2 0x4CE5 JUMP JUMPDEST PUSH1 0x40 MLOAD PUSH1 0x20 ADD PUSH2 0x4B45 SWAP3 SWAP2 SWAP1 PUSH2 0x5CDB JUMP JUMPDEST PUSH1 0x40 MLOAD PUSH1 0x20 DUP2 DUP4 SUB SUB DUP2 MSTORE SWAP1 PUSH1 0x40 MSTORE JUMPDEST SWAP4 SWAP3 POP POP POP JUMP JUMPDEST PUSH1 0x1 DUP2 GT ISZERO PUSH2 0x33B1 JUMPI PUSH1 0x1 PUSH1 0x1 PUSH1 0xA0 SHL SUB DUP5 AND ISZERO PUSH2 0x4BA2 JUMPI PUSH1 0x1 PUSH1 0x1 PUSH1 0xA0 SHL SUB DUP5 AND PUSH1 0x0 SWAP1 DUP2 MSTORE PUSH1 0x3 PUSH1 0x20 MSTORE PUSH1 0x40 DUP2 KECCAK256 DUP1 SLOAD DUP4 SWAP3 SWAP1 PUSH2 0x4B9C SWAP1 DUP5 SWAP1 PUSH2 0x5A38 JUMP JUMPDEST SWAP1 SWAP2 SSTORE POP POP JUMPDEST PUSH1 0x1 PUSH1 0x1 PUSH1 0xA0 SHL SUB DUP4 AND ISZERO PUSH2 0x33B1 JUMPI PUSH1 0x1 PUSH1 0x1 PUSH1 0xA0 SHL SUB DUP4 AND PUSH1 0x0 SWAP1 DUP2 MSTORE PUSH1 0x3 PUSH1 0x20 MSTORE PUSH1 0x40 DUP2 KECCAK256 DUP1 SLOAD DUP4 SWAP3 SWAP1 PUSH2 0x4BD9 SWAP1 DUP5 SWAP1 PUSH2 0x59F1 JUMP JUMPDEST SWAP1 SWAP2 SSTORE POP POP POP POP POP POP JUMP JUMPDEST PUSH1 0x0 PUSH1 0x1 PUSH1 0x1 PUSH1 0xA0 SHL SUB DUP5 AND EXTCODESIZE ISZERO PUSH2 0x4CDA JUMPI PUSH1 0x40 MLOAD PUSH4 0xA85BD01 PUSH1 0xE1 SHL DUP2 MSTORE PUSH1 0x1 PUSH1 0x1 PUSH1 0xA0 SHL SUB DUP6 AND SWAP1 PUSH4 0x150B7A02 SWAP1 PUSH2 0x4C28 SWAP1 CALLER SWAP1 DUP10 SWAP1 DUP9 SWAP1 DUP9 SWAP1 PUSH1 0x4 ADD PUSH2 0x5DDA JUMP JUMPDEST PUSH1 0x20 PUSH1 0x40 MLOAD DUP1 DUP4 SUB DUP2 PUSH1 0x0 DUP8 GAS CALL SWAP3 POP POP POP DUP1 ISZERO PUSH2 0x4C63 JUMPI POP PUSH1 0x40 DUP1 MLOAD PUSH1 0x1F RETURNDATASIZE SWAP1 DUP2 ADD PUSH1 0x1F NOT AND DUP3 ADD SWAP1 SWAP3 MSTORE PUSH2 0x4C60 SWAP2 DUP2 ADD SWAP1 PUSH2 0x5E17 JUMP JUMPDEST PUSH1 0x1 JUMPDEST PUSH2 0x4CC0 JUMPI RETURNDATASIZE DUP1 DUP1 ISZERO PUSH2 0x4C91 JUMPI PUSH1 0x40 MLOAD SWAP2 POP PUSH1 0x1F NOT PUSH1 0x3F RETURNDATASIZE ADD AND DUP3 ADD PUSH1 0x40 MSTORE RETURNDATASIZE DUP3 MSTORE RETURNDATASIZE PUSH1 0x0 PUSH1 0x20 DUP5 ADD RETURNDATACOPY PUSH2 0x4C96 JUMP JUMPDEST PUSH1 0x60 SWAP2 POP JUMPDEST POP DUP1 MLOAD PUSH1 0x0 SUB PUSH2 0x4CB8 JUMPI PUSH1 0x40 MLOAD PUSH3 0x461BCD PUSH1 0xE5 SHL DUP2 MSTORE PUSH1 0x4 ADD PUSH2 0xB76 SWAP1 PUSH2 0x5D88 JUMP JUMPDEST DUP1 MLOAD DUP2 PUSH1 0x20 ADD REVERT JUMPDEST PUSH1 0x1 PUSH1 0x1 PUSH1 0xE0 SHL SUB NOT AND PUSH4 0xA85BD01 PUSH1 0xE1 SHL EQ SWAP1 POP PUSH2 0x39A4 JUMP JUMPDEST POP PUSH1 0x1 SWAP5 SWAP4 POP POP POP POP JUMP JUMPDEST PUSH1 0x60 PUSH1 0x0 PUSH2 0x4CF2 DUP4 PUSH2 0x4D77 JUMP JUMPDEST PUSH1 0x1 ADD SWAP1 POP PUSH1 0x0 DUP2 PUSH1 0x1 PUSH1 0x1 PUSH1 0x40 SHL SUB DUP2 GT ISZERO PUSH2 0x4D11 JUMPI PUSH2 0x4D11 PUSH2 0x537A JUMP JUMPDEST PUSH1 0x40 MLOAD SWAP1 DUP1 DUP3 MSTORE DUP1 PUSH1 0x1F ADD PUSH1 0x1F NOT AND PUSH1 0x20 ADD DUP3 ADD PUSH1 0x40 MSTORE DUP1 ISZERO PUSH2 0x4D3B JUMPI PUSH1 0x20 DUP3 ADD DUP2 DUP1 CALLDATASIZE DUP4 CALLDATACOPY ADD SWAP1 POP JUMPDEST POP SWAP1 POP DUP2 DUP2 ADD PUSH1 0x20 ADD JUMPDEST PUSH1 0x0 NOT ADD PUSH16 0x181899199A1A9B1B9C1CB0B131B232B3 PUSH1 0x81 SHL PUSH1 0xA DUP7 MOD BYTE DUP2 MSTORE8 PUSH1 0xA DUP6 DIV SWAP5 POP DUP5 PUSH2 0x4D45 JUMPI POP SWAP4 SWAP3 POP POP POP JUMP JUMPDEST PUSH1 0x0 DUP1 PUSH19 0x184F03E93FF9F4DAA797ED6E38ED64BF6A1F01 PUSH1 0x40 SHL DUP4 LT PUSH2 0x4DB6 JUMPI PUSH19 0x184F03E93FF9F4DAA797ED6E38ED64BF6A1F01 PUSH1 0x40 SHL DUP4 DIV SWAP3 POP PUSH1 0x40 ADD JUMPDEST PUSH14 0x4EE2D6D415B85ACEF8100000000 DUP4 LT PUSH2 0x4DE2 JUMPI PUSH14 0x4EE2D6D415B85ACEF8100000000 DUP4 DIV SWAP3 POP PUSH1 0x20 ADD JUMPDEST PUSH7 0x2386F26FC10000 DUP4 LT PUSH2 0x4E00 JUMPI PUSH7 0x2386F26FC10000 DUP4 DIV SWAP3 POP PUSH1 0x10 ADD JUMPDEST PUSH4 0x5F5E100 DUP4 LT PUSH2 0x4E18 JUMPI PUSH4 0x5F5E100 DUP4 DIV SWAP3 POP PUSH1 0x8 ADD JUMPDEST PUSH2 0x2710 DUP4 LT PUSH2 0x4E2C JUMPI PUSH2 0x2710 DUP4 DIV SWAP3 POP PUSH1 0x4 ADD JUMPDEST PUSH1 0x64 DUP4 LT PUSH2 0x4E3E JUMPI PUSH1 0x64 DUP4 DIV SWAP3 POP PUSH1 0x2 ADD JUMPDEST PUSH1 0xA DUP4 LT PUSH2 0x9B9 JUMPI PUSH1 0x1 ADD SWAP3 SWAP2 POP POP JUMP JUMPDEST POP DUP1 SLOAD PUSH2 0x4E5B SWAP1 PUSH2 0x5A04 JUMP JUMPDEST PUSH1 0x0 DUP3 SSTORE DUP1 PUSH1 0x1F LT PUSH2 0x4E6B JUMPI POP POP JUMP JUMPDEST PUSH1 0x1F ADD PUSH1 0x20 SWAP1 DIV SWAP1 PUSH1 0x0 MSTORE PUSH1 0x20 PUSH1 0x0 KECCAK256 SWAP1 DUP2 ADD SWAP1 PUSH2 0xA46 SWAP2 SWAP1 PUSH2 0x4F6A JUMP JUMPDEST PUSH1 0x40 MLOAD DUP1 PUSH2 0x160 ADD PUSH1 0x40 MSTORE DUP1 PUSH1 0x0 DUP2 MSTORE PUSH1 0x20 ADD PUSH1 0x0 DUP2 MSTORE PUSH1 0x20 ADD PUSH1 0x60 DUP2 MSTORE PUSH1 0x20 ADD PUSH1 0x60 DUP2 MSTORE PUSH1 0x20 ADD PUSH1 0x60 DUP2 MSTORE PUSH1 0x20 ADD PUSH1 0x60 DUP2 MSTORE PUSH1 0x20 ADD PUSH1 0x0 DUP2 MSTORE PUSH1 0x20 ADD PUSH1 0x0 DUP2 MSTORE PUSH1 0x20 ADD PUSH1 0x0 DUP2 MSTORE PUSH1 0x20 ADD PUSH1 0x0 ISZERO ISZERO DUP2 MSTORE PUSH1 0x20 ADD PUSH1 0x0 DUP2 MSTORE POP SWAP1 JUMP JUMPDEST PUSH1 0x40 MLOAD DUP1 PUSH1 0xE0 ADD PUSH1 0x40 MSTORE DUP1 PUSH1 0x0 PUSH1 0x1 PUSH1 0x1 PUSH1 0xA0 SHL SUB AND DUP2 MSTORE PUSH1 0x20 ADD PUSH1 0x0 DUP2 MSTORE PUSH1 0x20 ADD PUSH1 0x0 DUP2 MSTORE PUSH1 0x20 ADD PUSH1 0x0 DUP2 MSTORE PUSH1 0x20 ADD PUSH1 0x0 DUP2 MSTORE PUSH1 0x20 ADD PUSH1 0x0 DUP2 MSTORE PUSH1 0x20 ADD PUSH1 0x0 DUP2 MSTORE POP SWAP1 JUMP JUMPDEST PUSH1 0x40 MLOAD DUP1 PUSH1 0xC0 ADD PUSH1 0x40 MSTORE DUP1 PUSH1 0x0 DUP2 MSTORE PUSH1 0x20 ADD PUSH1 0x0 PUSH1 0x1 PUSH1 0x1 PUSH1 0xA0 SHL SUB AND DUP2 MSTORE PUSH1 0x20 ADD PUSH1 0x60 DUP2 MSTORE PUSH1 0x20 ADD PUSH1 0x60 DUP2 MSTORE PUSH1 0x20 ADD PUSH1 0x60 DUP2 MSTORE PUSH1 0x20 ADD PUSH1 0x60 DUP2 MSTORE POP SWAP1 JUMP JUMPDEST JUMPDEST DUP1 DUP3 GT ISZERO PUSH2 0x4F7F JUMPI PUSH1 0x0 DUP2 SSTORE PUSH1 0x1 ADD PUSH2 0x4F6B JUMP JUMPDEST POP SWAP1 JUMP JUMPDEST PUSH1 0x0 DUP1 PUSH1 0x40 DUP4 DUP6 SUB SLT ISZERO PUSH2 0x4F96 JUMPI PUSH1 0x0 DUP1 REVERT JUMPDEST POP POP DUP1 CALLDATALOAD SWAP3 PUSH1 0x20 SWAP1 SWAP2 ADD CALLDATALOAD SWAP2 POP JUMP JUMPDEST PUSH1 0x1 PUSH1 0x1 PUSH1 0xE0 SHL SUB NOT DUP2 AND DUP2 EQ PUSH2 0xA46 JUMPI PUSH1 0x0 DUP1 REVERT JUMPDEST PUSH1 0x0 PUSH1 0x20 DUP3 DUP5 SUB SLT ISZERO PUSH2 0x4FCD JUMPI PUSH1 0x0 DUP1 REVERT JUMPDEST DUP2 CALLDATALOAD PUSH2 0x4B55 DUP2 PUSH2 0x4FA5 JUMP JUMPDEST PUSH1 0x0 PUSH1 0x20 DUP3 DUP5 SUB SLT ISZERO PUSH2 0x4FEA JUMPI PUSH1 0x0 DUP1 REVERT JUMPDEST POP CALLDATALOAD SWAP2 SWAP1 POP JUMP JUMPDEST PUSH1 0x0 JUMPDEST DUP4 DUP2 LT ISZERO PUSH2 0x500C JUMPI DUP2 DUP2 ADD MLOAD DUP4 DUP3 ADD MSTORE PUSH1 0x20 ADD PUSH2 0x4FF4 JUMP JUMPDEST POP POP PUSH1 0x0 SWAP2 ADD MSTORE JUMP JUMPDEST PUSH1 0x0 DUP2 MLOAD DUP1 DUP5 MSTORE PUSH2 0x502D DUP2 PUSH1 0x20 DUP7 ADD PUSH1 0x20 DUP7 ADD PUSH2 0x4FF1 JUMP JUMPDEST PUSH1 0x1F ADD PUSH1 0x1F NOT AND SWAP3 SWAP1 SWAP3 ADD PUSH1 0x20 ADD SWAP3 SWAP2 POP POP JUMP JUMPDEST PUSH1 0x20 DUP2 MSTORE PUSH1 0x0 PUSH2 0x4B55 PUSH1 0x20 DUP4 ADD DUP5 PUSH2 0x5015 JUMP JUMPDEST DUP1 CALLDATALOAD PUSH1 0x1 PUSH1 0x1 PUSH1 0xA0 SHL SUB DUP2 AND DUP2 EQ PUSH2 0x506B JUMPI PUSH1 0x0 DUP1 REVERT JUMPDEST SWAP2 SWAP1 POP JUMP JUMPDEST PUSH1 0x0 DUP1 PUSH1 0x40 DUP4 DUP6 SUB SLT ISZERO PUSH2 0x5083 JUMPI PUSH1 0x0 DUP1 REVERT JUMPDEST PUSH2 0x508C DUP4 PUSH2 0x5054 JUMP JUMPDEST SWAP5 PUSH1 0x20 SWAP4 SWAP1 SWAP4 ADD CALLDATALOAD SWAP4 POP POP POP JUMP JUMPDEST PUSH1 0x0 DUP1 PUSH1 0x0 DUP1 PUSH1 0x0 DUP1 PUSH1 0xC0 DUP8 DUP10 SUB SLT ISZERO PUSH2 0x50B3 JUMPI PUSH1 0x0 DUP1 REVERT JUMPDEST POP POP DUP5 CALLDATALOAD SWAP7 PUSH1 0x20 DUP7 ADD CALLDATALOAD SWAP7 POP PUSH1 0x40 DUP7 ADD CALLDATALOAD SWAP6 PUSH1 0x60 DUP2 ADD CALLDATALOAD SWAP6 POP PUSH1 0x80 DUP2 ADD CALLDATALOAD SWAP5 POP PUSH1 0xA0 ADD CALLDATALOAD SWAP3 POP SWAP1 POP JUMP JUMPDEST PUSH1 0x0 DUP1 PUSH1 0x0 DUP1 PUSH1 0x0 DUP1 PUSH1 0xC0 DUP8 DUP10 SUB SLT ISZERO PUSH2 0x50F6 JUMPI PUSH1 0x0 DUP1 REVERT JUMPDEST DUP7 CALLDATALOAD SWAP6 POP PUSH2 0x5106 PUSH1 0x20 DUP9 ADD PUSH2 0x5054 JUMP JUMPDEST SWAP6 SWAP9 SWAP6 SWAP8 POP POP POP POP PUSH1 0x40 DUP5 ADD CALLDATALOAD SWAP4 PUSH1 0x60 DUP2 ADD CALLDATALOAD SWAP4 PUSH1 0x80 DUP3 ADD CALLDATALOAD SWAP4 POP PUSH1 0xA0 SWAP1 SWAP2 ADD CALLDATALOAD SWAP2 POP JUMP JUMPDEST PUSH1 0x0 DUP1 PUSH1 0x0 DUP1 PUSH1 0x0 PUSH1 0xA0 DUP7 DUP9 SUB SLT ISZERO PUSH2 0x5143 JUMPI PUSH1 0x0 DUP1 REVERT JUMPDEST PUSH2 0x514C DUP7 PUSH2 0x5054 JUMP JUMPDEST SWAP8 PUSH1 0x20 DUP8 ADD CALLDATALOAD SWAP8 POP PUSH1 0x40 DUP8 ADD CALLDATALOAD SWAP7 PUSH1 0x60 DUP2 ADD CALLDATALOAD SWAP7 POP PUSH1 0x80 ADD CALLDATALOAD SWAP5 POP SWAP3 POP POP POP JUMP JUMPDEST PUSH1 0x0 DUP1 PUSH1 0x0 PUSH1 0x60 DUP5 DUP7 SUB SLT ISZERO PUSH2 0x5182 JUMPI PUSH1 0x0 DUP1 REVERT JUMPDEST PUSH2 0x518B DUP5 PUSH2 0x5054 JUMP JUMPDEST SWAP3 POP PUSH2 0x5199 PUSH1 0x20 DUP6 ADD PUSH2 0x5054 JUMP JUMPDEST SWAP2 POP PUSH1 0x40 DUP5 ADD CALLDATALOAD SWAP1 POP SWAP3 POP SWAP3 POP SWAP3 JUMP JUMPDEST PUSH1 0x0 PUSH2 0x160 DUP3 MLOAD DUP5 MSTORE PUSH1 0x20 DUP4 ADD MLOAD PUSH1 0x20 DUP6 ADD MSTORE PUSH1 0x40 DUP4 ADD MLOAD DUP2 PUSH1 0x40 DUP7 ADD MSTORE PUSH2 0x51D3 DUP3 DUP7 ADD DUP3 PUSH2 0x5015 JUMP JUMPDEST SWAP2 POP POP PUSH1 0x60 DUP4 ADD MLOAD DUP5 DUP3 SUB PUSH1 0x60 DUP7 ADD MSTORE PUSH2 0x51ED DUP3 DUP3 PUSH2 0x5015 JUMP JUMPDEST SWAP2 POP POP PUSH1 0x80 DUP4 ADD MLOAD DUP5 DUP3 SUB PUSH1 0x80 DUP7 ADD MSTORE PUSH2 0x5207 DUP3 DUP3 PUSH2 0x5015 JUMP JUMPDEST SWAP2 POP POP PUSH1 0xA0 DUP4 ADD MLOAD DUP5 DUP3 SUB PUSH1 0xA0 DUP7 ADD MSTORE PUSH2 0x5221 DUP3 DUP3 PUSH2 0x5015 JUMP JUMPDEST SWAP2 POP POP PUSH1 0xC0 DUP4 ADD MLOAD PUSH1 0xC0 DUP6 ADD MSTORE PUSH1 0xE0 DUP4 ADD MLOAD PUSH1 0xE0 DUP6 ADD MSTORE PUSH2 0x100 DUP1 DUP5 ADD MLOAD DUP2 DUP7 ADD MSTORE POP PUSH2 0x120 DUP1 DUP5 ADD MLOAD PUSH2 0x5258 DUP3 DUP8 ADD DUP3 ISZERO ISZERO SWAP1 MSTORE JUMP JUMPDEST POP POP PUSH2 0x140 SWAP3 DUP4 ADD MLOAD SWAP4 SWAP1 SWAP3 ADD SWAP3 SWAP1 SWAP3 MSTORE SWAP2 SWAP1 POP JUMP JUMPDEST PUSH1 0x20 DUP2 MSTORE PUSH1 0x0 PUSH2 0x4B55 PUSH1 0x20 DUP4 ADD DUP5 PUSH2 0x51A9 JUMP JUMPDEST DUP1 MLOAD DUP3 MSTORE PUSH1 0x20 DUP2 ADD MLOAD PUSH1 0x20 DUP4 ADD MSTORE PUSH1 0x40 DUP2 ADD MLOAD PUSH1 0x40 DUP4 ADD MSTORE PUSH1 0x60 DUP2 ADD MLOAD PUSH1 0x60 DUP4 ADD MSTORE PUSH1 0x80 DUP2 ADD MLOAD PUSH1 0x80 DUP4 ADD MSTORE PUSH1 0x0 PUSH1 0xA0 DUP3 ADD MLOAD PUSH1 0xE0 PUSH1 0xA0 DUP6 ADD MSTORE PUSH2 0x52C8 PUSH1 0xE0 DUP6 ADD DUP3 PUSH2 0x5015 JUMP JUMPDEST SWAP1 POP PUSH1 0xC0 DUP4 ADD MLOAD DUP5 DUP3 SUB PUSH1 0xC0 DUP7 ADD MSTORE PUSH2 0x52E1 DUP3 DUP3 PUSH2 0x5015 JUMP JUMPDEST SWAP6 SWAP5 POP POP POP POP POP JUMP JUMPDEST PUSH1 0x20 DUP2 MSTORE PUSH1 0x0 PUSH2 0x4B55 PUSH1 0x20 DUP4 ADD DUP5 PUSH2 0x5281 JUMP JUMPDEST PUSH1 0x0 PUSH1 0x20 DUP1 DUP4 ADD DUP2 DUP5 MSTORE DUP1 DUP6 MLOAD DUP1 DUP4 MSTORE PUSH1 0x40 DUP7 ADD SWAP2 POP PUSH1 0x40 DUP2 PUSH1 0x5 SHL DUP8 ADD ADD SWAP3 POP DUP4 DUP8 ADD PUSH1 0x0 JUMPDEST DUP3 DUP2 LT ISZERO PUSH2 0x5352 JUMPI PUSH1 0x3F NOT DUP9 DUP7 SUB ADD DUP5 MSTORE PUSH2 0x5340 DUP6 DUP4 MLOAD PUSH2 0x51A9 JUMP JUMPDEST SWAP5 POP SWAP3 DUP6 ADD SWAP3 SWAP1 DUP6 ADD SWAP1 PUSH1 0x1 ADD PUSH2 0x5324 JUMP JUMPDEST POP SWAP3 SWAP8 SWAP7 POP POP POP POP POP POP POP JUMP JUMPDEST PUSH1 0x0 PUSH1 0x20 DUP3 DUP5 SUB SLT ISZERO PUSH2 0x5371 JUMPI PUSH1 0x0 DUP1 REVERT JUMPDEST PUSH2 0x4B55 DUP3 PUSH2 0x5054 JUMP JUMPDEST PUSH4 0x4E487B71 PUSH1 0xE0 SHL PUSH1 0x0 MSTORE PUSH1 0x41 PUSH1 0x4 MSTORE PUSH1 0x24 PUSH1 0x0 REVERT JUMPDEST PUSH1 0x0 PUSH1 0x1 PUSH1 0x1 PUSH1 0x40 SHL SUB DUP1 DUP5 GT ISZERO PUSH2 0x53AA JUMPI PUSH2 0x53AA PUSH2 0x537A JUMP JUMPDEST PUSH1 0x40 MLOAD PUSH1 0x1F DUP6 ADD PUSH1 0x1F NOT SWAP1 DUP2 AND PUSH1 0x3F ADD AND DUP2 ADD SWAP1 DUP3 DUP3 GT DUP2 DUP4 LT OR ISZERO PUSH2 0x53D2 JUMPI PUSH2 0x53D2 PUSH2 0x537A JUMP JUMPDEST DUP2 PUSH1 0x40 MSTORE DUP1 SWAP4 POP DUP6 DUP2 MSTORE DUP7 DUP7 DUP7 ADD GT ISZERO PUSH2 0x53EB JUMPI PUSH1 0x0 DUP1 REVERT JUMPDEST DUP6 DUP6 PUSH1 0x20 DUP4 ADD CALLDATACOPY PUSH1 0x0 PUSH1 0x20 DUP8 DUP4 ADD ADD MSTORE POP POP POP SWAP4 SWAP3 POP POP POP JUMP JUMPDEST PUSH1 0x0 DUP3 PUSH1 0x1F DUP4 ADD SLT PUSH2 0x5416 JUMPI PUSH1 0x0 DUP1 REVERT JUMPDEST PUSH2 0x4B55 DUP4 DUP4 CALLDATALOAD PUSH1 0x20 DUP6 ADD PUSH2 0x5390 JUMP JUMPDEST PUSH1 0x0 DUP1 PUSH1 0x0 DUP1 PUSH1 0x0 DUP1 PUSH1 0x0 DUP1 PUSH2 0x100 DUP10 DUP12 SUB SLT ISZERO PUSH2 0x5442 JUMPI PUSH1 0x0 DUP1 REVERT JUMPDEST DUP9 CALLDATALOAD PUSH1 0x1 PUSH1 0x1 PUSH1 0x40 SHL SUB DUP1 DUP3 GT ISZERO PUSH2 0x5459 JUMPI PUSH1 0x0 DUP1 REVERT JUMPDEST PUSH2 0x5465 DUP13 DUP4 DUP14 ADD PUSH2 0x5405 JUMP JUMPDEST SWAP10 POP PUSH1 0x20 DUP12 ADD CALLDATALOAD SWAP2 POP DUP1 DUP3 GT ISZERO PUSH2 0x547B JUMPI PUSH1 0x0 DUP1 REVERT JUMPDEST PUSH2 0x5487 DUP13 DUP4 DUP14 ADD PUSH2 0x5405 JUMP JUMPDEST SWAP9 POP PUSH1 0x40 DUP12 ADD CALLDATALOAD SWAP2 POP DUP1 DUP3 GT ISZERO PUSH2 0x549D JUMPI PUSH1 0x0 DUP1 REVERT JUMPDEST PUSH2 0x54A9 DUP13 DUP4 DUP14 ADD PUSH2 0x5405 JUMP JUMPDEST SWAP8 POP PUSH1 0x60 DUP12 ADD CALLDATALOAD SWAP2 POP DUP1 DUP3 GT ISZERO PUSH2 0x54BF JUMPI PUSH1 0x0 DUP1 REVERT JUMPDEST POP PUSH2 0x54CC DUP12 DUP3 DUP13 ADD PUSH2 0x5405 JUMP JUMPDEST SWAP9 SWAP12 SWAP8 SWAP11 POP SWAP6 SWAP9 PUSH1 0x80 DUP2 ADD CALLDATALOAD SWAP8 PUSH1 0xA0 DUP3 ADD CALLDATALOAD SWAP8 POP PUSH1 0xC0 DUP3 ADD CALLDATALOAD SWAP7 POP PUSH1 0xE0 SWAP1 SWAP2 ADD CALLDATALOAD SWAP5 POP SWAP3 POP POP POP JUMP JUMPDEST PUSH1 0x20 DUP1 DUP3 MSTORE DUP3 MLOAD DUP3 DUP3 ADD DUP2 SWAP1 MSTORE PUSH1 0x0 SWAP2 SWAP1 PUSH1 0x40 SWAP1 DUP2 DUP6 ADD SWAP1 DUP7 DUP5 ADD DUP6 JUMPDEST DUP3 DUP2 LT ISZERO PUSH2 0x5573 JUMPI DUP2 MLOAD DUP1 MLOAD PUSH1 0x1 PUSH1 0x1 PUSH1 0xA0 SHL SUB AND DUP6 MSTORE DUP7 DUP2 ADD MLOAD DUP8 DUP7 ADD MSTORE DUP6 DUP2 ADD MLOAD DUP7 DUP7 ADD MSTORE PUSH1 0x60 DUP1 DUP3 ADD MLOAD SWAP1 DUP7 ADD MSTORE PUSH1 0x80 DUP1 DUP3 ADD MLOAD SWAP1 DUP7 ADD MSTORE PUSH1 0xA0 DUP1 DUP3 ADD MLOAD SWAP1 DUP7 ADD MSTORE PUSH1 0xC0 SWAP1 DUP2 ADD MLOAD SWAP1 DUP6 ADD MSTORE PUSH1 0xE0 SWAP1 SWAP4 ADD SWAP3 SWAP1 DUP6 ADD SWAP1 PUSH1 0x1 ADD PUSH2 0x5512 JUMP JUMPDEST POP SWAP2 SWAP8 SWAP7 POP POP POP POP POP POP POP JUMP JUMPDEST PUSH1 0x20 DUP1 DUP3 MSTORE DUP3 MLOAD DUP3 DUP3 ADD DUP2 SWAP1 MSTORE PUSH1 0x0 SWAP2 SWAP1 PUSH1 0x40 SWAP1 DUP2 DUP6 ADD SWAP1 DUP7 DUP5 ADD DUP6 DUP1 JUMPDEST DUP4 DUP2 LT ISZERO PUSH2 0x55F8 JUMPI DUP3 MLOAD DUP1 MLOAD DUP7 MSTORE DUP8 DUP2 ADD MLOAD DUP9 DUP8 ADD MSTORE DUP7 DUP2 ADD MLOAD DUP8 DUP8 ADD MSTORE PUSH1 0x60 DUP1 DUP3 ADD MLOAD SWAP1 DUP8 ADD MSTORE PUSH1 0x80 DUP1 DUP3 ADD MLOAD SWAP1 DUP8 ADD MSTORE PUSH1 0xA0 DUP1 DUP3 ADD MLOAD SWAP1 DUP8 ADD MSTORE PUSH1 0xC0 SWAP1 DUP2 ADD MLOAD DUP4 SIGNEXTEND SWAP1 DUP7 ADD MSTORE PUSH1 0xE0 SWAP1 SWAP5 ADD SWAP4 SWAP2 DUP7 ADD SWAP2 PUSH1 0x1 ADD PUSH2 0x559E JUMP JUMPDEST POP SWAP3 SWAP9 SWAP8 POP POP POP POP POP POP POP POP JUMP JUMPDEST PUSH1 0x20 DUP1 DUP3 MSTORE DUP3 MLOAD DUP3 DUP3 ADD DUP2 SWAP1 MSTORE PUSH1 0x0 SWAP2 SWAP1 PUSH1 0x40 SWAP1 DUP2 DUP6 ADD SWAP1 DUP7 DUP5 ADD DUP6 JUMPDEST DUP3 DUP2 LT ISZERO PUSH2 0x5573 JUMPI DUP2 MLOAD DUP1 MLOAD DUP6 MSTORE DUP7 DUP2 ADD MLOAD DUP8 DUP7 ADD MSTORE DUP6 ADD MLOAD DUP6 DUP6 ADD MSTORE PUSH1 0x60 SWAP1 SWAP4 ADD SWAP3 SWAP1 DUP6 ADD SWAP1 PUSH1 0x1 ADD PUSH2 0x5623 JUMP JUMPDEST PUSH1 0x0 PUSH1 0x20 DUP1 DUP4 ADD DUP2 DUP5 MSTORE DUP1 DUP6 MLOAD DUP1 DUP4 MSTORE PUSH1 0x40 DUP7 ADD SWAP2 POP PUSH1 0x40 DUP2 PUSH1 0x5 SHL DUP8 ADD ADD SWAP3 POP DUP4 DUP8 ADD PUSH1 0x0 JUMPDEST DUP3 DUP2 LT ISZERO PUSH2 0x5352 JUMPI PUSH1 0x3F NOT DUP9 DUP7 SUB ADD DUP5 MSTORE PUSH2 0x5695 DUP6 DUP4 MLOAD PUSH2 0x5281 JUMP JUMPDEST SWAP5 POP SWAP3 DUP6 ADD SWAP3 SWAP1 DUP6 ADD SWAP1 PUSH1 0x1 ADD PUSH2 0x5679 JUMP JUMPDEST PUSH1 0x0 DUP1 PUSH1 0x0 DUP1 PUSH1 0x0 PUSH1 0xA0 DUP7 DUP9 SUB SLT ISZERO PUSH2 0x56BF JUMPI PUSH1 0x0 DUP1 REVERT JUMPDEST DUP6 CALLDATALOAD SWAP5 POP PUSH1 0x20 DUP7 ADD CALLDATALOAD SWAP4 POP PUSH1 0x40 DUP7 ADD CALLDATALOAD SWAP3 POP PUSH1 0x60 DUP7 ADD CALLDATALOAD PUSH1 0x1 PUSH1 0x1 PUSH1 0x40 SHL SUB DUP1 DUP3 GT ISZERO PUSH2 0x56EB JUMPI PUSH1 0x0 DUP1 REVERT JUMPDEST PUSH2 0x56F7 DUP10 DUP4 DUP11 ADD PUSH2 0x5405 JUMP JUMPDEST SWAP4 POP PUSH1 0x80 DUP9 ADD CALLDATALOAD SWAP2 POP DUP1 DUP3 GT ISZERO PUSH2 0x570D JUMPI PUSH1 0x0 DUP1 REVERT JUMPDEST POP PUSH2 0x571A DUP9 DUP3 DUP10 ADD PUSH2 0x5405 JUMP JUMPDEST SWAP2 POP POP SWAP3 SWAP6 POP SWAP3 SWAP6 SWAP1 SWAP4 POP JUMP JUMPDEST PUSH1 0x0 DUP1 PUSH1 0x0 DUP1 PUSH1 0x0 PUSH1 0xA0 DUP7 DUP9 SUB SLT ISZERO PUSH2 0x573F JUMPI PUSH1 0x0 DUP1 REVERT JUMPDEST PUSH2 0x5748 DUP7 PUSH2 0x5054 JUMP JUMPDEST SWAP5 POP PUSH1 0x20 DUP7 ADD CALLDATALOAD PUSH1 0x1 PUSH1 0x1 PUSH1 0x40 SHL SUB DUP1 DUP3 GT ISZERO PUSH2 0x5764 JUMPI PUSH1 0x0 DUP1 REVERT JUMPDEST PUSH2 0x5770 DUP10 DUP4 DUP11 ADD PUSH2 0x5405 JUMP JUMPDEST SWAP6 POP PUSH1 0x40 DUP9 ADD CALLDATALOAD SWAP2 POP DUP1 DUP3 GT ISZERO PUSH2 0x5786 JUMPI PUSH1 0x0 DUP1 REVERT JUMPDEST PUSH2 0x5792 DUP10 DUP4 DUP11 ADD PUSH2 0x5405 JUMP JUMPDEST SWAP5 POP PUSH1 0x60 DUP9 ADD CALLDATALOAD SWAP2 POP DUP1 DUP3 GT ISZERO PUSH2 0x56EB JUMPI PUSH1 0x0 DUP1 REVERT JUMPDEST DUP1 MLOAD DUP3 MSTORE PUSH1 0x1 DUP1 PUSH1 0xA0 SHL SUB PUSH1 0x20 DUP3 ADD MLOAD AND PUSH1 0x20 DUP4 ADD MSTORE PUSH1 0x0 PUSH1 0x40 DUP3 ADD MLOAD PUSH1 0xC0 PUSH1 0x40 DUP6 ADD MSTORE PUSH2 0x57D9 PUSH1 0xC0 DUP6 ADD DUP3 PUSH2 0x5015 JUMP JUMPDEST SWAP1 POP PUSH1 0x60 DUP4 ADD MLOAD DUP5 DUP3 SUB PUSH1 0x60 DUP7 ADD MSTORE PUSH2 0x57F2 DUP3 DUP3 PUSH2 0x5015 JUMP JUMPDEST SWAP2 POP POP PUSH1 0x80 DUP4 ADD MLOAD DUP5 DUP3 SUB PUSH1 0x80 DUP7 ADD MSTORE PUSH2 0x580C DUP3 DUP3 PUSH2 0x5015 JUMP JUMPDEST SWAP2 POP POP PUSH1 0xA0 DUP4 ADD MLOAD DUP5 DUP3 SUB PUSH1 0xA0 DUP7 ADD MSTORE PUSH2 0x52E1 DUP3 DUP3 PUSH2 0x5015 JUMP JUMPDEST PUSH1 0x20 DUP2 MSTORE PUSH1 0x0 PUSH2 0x4B55 PUSH1 0x20 DUP4 ADD DUP5 PUSH2 0x57A8 JUMP JUMPDEST PUSH1 0x0 DUP1 PUSH1 0x40 DUP4 DUP6 SUB SLT ISZERO PUSH2 0x584C JUMPI PUSH1 0x0 DUP1 REVERT JUMPDEST PUSH2 0x5855 DUP4 PUSH2 0x5054 JUMP JUMPDEST SWAP2 POP PUSH1 0x20 DUP4 ADD CALLDATALOAD DUP1 ISZERO ISZERO DUP2 EQ PUSH2 0x586A JUMPI PUSH1 0x0 DUP1 REVERT JUMPDEST DUP1 SWAP2 POP POP SWAP3 POP SWAP3 SWAP1 POP JUMP JUMPDEST PUSH1 0x0 PUSH1 0x20 DUP1 DUP4 ADD DUP2 DUP5 MSTORE DUP1 DUP6 MLOAD DUP1 DUP4 MSTORE PUSH1 0x40 DUP7 ADD SWAP2 POP PUSH1 0x40 DUP2 PUSH1 0x5 SHL DUP8 ADD ADD SWAP3 POP DUP4 DUP8 ADD PUSH1 0x0 JUMPDEST DUP3 DUP2 LT ISZERO PUSH2 0x5352 JUMPI PUSH1 0x3F NOT DUP9 DUP7 SUB ADD DUP5 MSTORE PUSH2 0x58B8 DUP6 DUP4 MLOAD PUSH2 0x57A8 JUMP JUMPDEST SWAP5 POP SWAP3 DUP6 ADD SWAP3 SWAP1 DUP6 ADD SWAP1 PUSH1 0x1 ADD PUSH2 0x589C JUMP JUMPDEST PUSH1 0x0 DUP1 PUSH1 0x0 DUP1 PUSH1 0x80 DUP6 DUP8 SUB SLT ISZERO PUSH2 0x58E0 JUMPI PUSH1 0x0 DUP1 REVERT JUMPDEST PUSH2 0x58E9 DUP6 PUSH2 0x5054 JUMP JUMPDEST SWAP4 POP PUSH2 0x58F7 PUSH1 0x20 DUP7 ADD PUSH2 0x5054 JUMP JUMPDEST SWAP3 POP PUSH1 0x40 DUP6 ADD CALLDATALOAD SWAP2 POP PUSH1 0x60 DUP6 ADD CALLDATALOAD PUSH1 0x1 PUSH1 0x1 PUSH1 0x40 SHL SUB DUP2 GT ISZERO PUSH2 0x5919 JUMPI PUSH1 0x0 DUP1 REVERT JUMPDEST DUP6 ADD PUSH1 0x1F DUP2 ADD DUP8 SGT PUSH2 0x592A JUMPI PUSH1 0x0 DUP1 REVERT JUMPDEST PUSH2 0x5939 DUP8 DUP3 CALLDATALOAD PUSH1 0x20 DUP5 ADD PUSH2 0x5390 JUMP JUMPDEST SWAP2 POP POP SWAP3 SWAP6 SWAP2 SWAP5 POP SWAP3 POP JUMP JUMPDEST PUSH1 0x0 DUP1 PUSH1 0x40 DUP4 DUP6 SUB SLT ISZERO PUSH2 0x5958 JUMPI PUSH1 0x0 DUP1 REVERT JUMPDEST DUP3 CALLDATALOAD PUSH1 0x1 PUSH1 0x1 PUSH1 0x40 SHL SUB DUP1 DUP3 GT ISZERO PUSH2 0x596F JUMPI PUSH1 0x0 DUP1 REVERT JUMPDEST PUSH2 0x597B DUP7 DUP4 DUP8 ADD PUSH2 0x5405 JUMP JUMPDEST SWAP4 POP PUSH1 0x20 DUP6 ADD CALLDATALOAD SWAP2 POP DUP1 DUP3 GT ISZERO PUSH2 0x5991 JUMPI PUSH1 0x0 DUP1 REVERT JUMPDEST POP PUSH2 0x599E DUP6 DUP3 DUP7 ADD PUSH2 0x5405 JUMP JUMPDEST SWAP2 POP POP SWAP3 POP SWAP3 SWAP1 POP JUMP JUMPDEST PUSH1 0x0 DUP1 PUSH1 0x40 DUP4 DUP6 SUB SLT ISZERO PUSH2 0x59BB JUMPI PUSH1 0x0 DUP1 REVERT JUMPDEST PUSH2 0x59C4 DUP4 PUSH2 0x5054 JUMP JUMPDEST SWAP2 POP PUSH2 0x59D2 PUSH1 0x20 DUP5 ADD PUSH2 0x5054 JUMP JUMPDEST SWAP1 POP SWAP3 POP SWAP3 SWAP1 POP JUMP JUMPDEST PUSH4 0x4E487B71 PUSH1 0xE0 SHL PUSH1 0x0 MSTORE PUSH1 0x11 PUSH1 0x4 MSTORE PUSH1 0x24 PUSH1 0x0 REVERT JUMPDEST DUP1 DUP3 ADD DUP1 DUP3 GT ISZERO PUSH2 0x9B9 JUMPI PUSH2 0x9B9 PUSH2 0x59DB JUMP JUMPDEST PUSH1 0x1 DUP2 DUP2 SHR SWAP1 DUP3 AND DUP1 PUSH2 0x5A18 JUMPI PUSH1 0x7F DUP3 AND SWAP2 POP JUMPDEST PUSH1 0x20 DUP3 LT DUP2 SUB PUSH2 0x1B89 JUMPI PUSH4 0x4E487B71 PUSH1 0xE0 SHL PUSH1 0x0 MSTORE PUSH1 0x22 PUSH1 0x4 MSTORE PUSH1 0x24 PUSH1 0x0 REVERT JUMPDEST DUP2 DUP2 SUB DUP2 DUP2 GT ISZERO PUSH2 0x9B9 JUMPI PUSH2 0x9B9 PUSH2 0x59DB JUMP JUMPDEST PUSH1 0x1F DUP3 GT ISZERO PUSH2 0xC17 JUMPI PUSH1 0x0 DUP2 DUP2 MSTORE PUSH1 0x20 DUP2 KECCAK256 PUSH1 0x1F DUP6 ADD PUSH1 0x5 SHR DUP2 ADD PUSH1 0x20 DUP7 LT ISZERO PUSH2 0x5A72 JUMPI POP DUP1 JUMPDEST PUSH1 0x1F DUP6 ADD PUSH1 0x5 SHR DUP3 ADD SWAP2 POP JUMPDEST DUP2 DUP2 LT ISZERO PUSH2 0x5A91 JUMPI DUP3 DUP2 SSTORE PUSH1 0x1 ADD PUSH2 0x5A7E JUMP JUMPDEST POP POP POP POP POP POP JUMP JUMPDEST DUP2 DUP2 SUB PUSH2 0x5AA4 JUMPI POP POP JUMP JUMPDEST PUSH2 0x5AAE DUP3 SLOAD PUSH2 0x5A04 JUMP JUMPDEST PUSH1 0x1 PUSH1 0x1 PUSH1 0x40 SHL SUB DUP2 GT ISZERO PUSH2 0x5AC5 JUMPI PUSH2 0x5AC5 PUSH2 0x537A JUMP JUMPDEST PUSH2 0x5AD9 DUP2 PUSH2 0x5AD3 DUP5 SLOAD PUSH2 0x5A04 JUMP JUMPDEST DUP5 PUSH2 0x5A4B JUMP JUMPDEST PUSH1 0x0 PUSH1 0x1F DUP3 GT PUSH1 0x1 DUP2 EQ PUSH2 0x5B0D JUMPI PUSH1 0x0 DUP4 ISZERO PUSH2 0x5AF5 JUMPI POP DUP5 DUP3 ADD SLOAD JUMPDEST PUSH1 0x0 NOT PUSH1 0x3 DUP6 SWAP1 SHL SHR NOT AND PUSH1 0x1 DUP5 SWAP1 SHL OR DUP5 SSTORE PUSH2 0x44D JUMP JUMPDEST PUSH1 0x0 DUP6 DUP2 MSTORE PUSH1 0x20 SWAP1 KECCAK256 PUSH1 0x1F NOT DUP5 AND SWAP1 PUSH1 0x0 DUP7 DUP2 MSTORE PUSH1 0x20 SWAP1 KECCAK256 DUP5 JUMPDEST DUP4 DUP2 LT ISZERO PUSH2 0x5B47 JUMPI DUP3 DUP7 ADD SLOAD DUP3 SSTORE PUSH1 0x1 SWAP6 DUP7 ADD SWAP6 SWAP1 SWAP2 ADD SWAP1 PUSH1 0x20 ADD PUSH2 0x5B27 JUMP JUMPDEST POP DUP6 DUP4 LT ISZERO PUSH2 0x5B65 JUMPI DUP2 DUP6 ADD SLOAD PUSH1 0x0 NOT PUSH1 0x3 DUP9 SWAP1 SHL PUSH1 0xF8 AND SHR NOT AND DUP2 SSTORE JUMPDEST POP POP POP POP POP PUSH1 0x1 SWAP1 DUP2 SHL ADD SWAP1 SSTORE POP JUMP JUMPDEST PUSH1 0x0 PUSH1 0x1 DUP3 ADD PUSH2 0x5B87 JUMPI PUSH2 0x5B87 PUSH2 0x59DB JUMP JUMPDEST POP PUSH1 0x1 ADD SWAP1 JUMP JUMPDEST PUSH1 0x20 DUP1 DUP3 MSTORE PUSH1 0x2D SWAP1 DUP3 ADD MSTORE PUSH32 0x4552433732313A2063616C6C6572206973206E6F7420746F6B656E206F776E65 PUSH1 0x40 DUP3 ADD MSTORE PUSH13 0x1C881BDC88185C1C1C9BDD9959 PUSH1 0x9A SHL PUSH1 0x60 DUP3 ADD MSTORE PUSH1 0x80 ADD SWAP1 JUMP JUMPDEST PUSH4 0x4E487B71 PUSH1 0xE0 SHL PUSH1 0x0 MSTORE PUSH1 0x32 PUSH1 0x4 MSTORE PUSH1 0x24 PUSH1 0x0 REVERT JUMPDEST DUP2 MLOAD PUSH1 0x1 PUSH1 0x1 PUSH1 0x40 SHL SUB DUP2 GT ISZERO PUSH2 0x5C0A JUMPI PUSH2 0x5C0A PUSH2 0x537A JUMP JUMPDEST PUSH2 0x5C18 DUP2 PUSH2 0x5AD3 DUP5 SLOAD PUSH2 0x5A04 JUMP JUMPDEST PUSH1 0x20 DUP1 PUSH1 0x1F DUP4 GT PUSH1 0x1 DUP2 EQ PUSH2 0x5C4D JUMPI PUSH1 0x0 DUP5 ISZERO PUSH2 0x5C35 JUMPI POP DUP6 DUP4 ADD MLOAD JUMPDEST PUSH1 0x0 NOT PUSH1 0x3 DUP7 SWAP1 SHL SHR NOT AND PUSH1 0x1 DUP6 SWAP1 SHL OR DUP6 SSTORE PUSH2 0x5A91 JUMP JUMPDEST PUSH1 0x0 DUP6 DUP2 MSTORE PUSH1 0x20 DUP2 KECCAK256 PUSH1 0x1F NOT DUP7 AND SWAP2 JUMPDEST DUP3 DUP2 LT ISZERO PUSH2 0x5C7C JUMPI DUP9 DUP7 ADD MLOAD DUP3 SSTORE SWAP5 DUP5 ADD SWAP5 PUSH1 0x1 SWAP1 SWAP2 ADD SWAP1 DUP5 ADD PUSH2 0x5C5D JUMP JUMPDEST POP DUP6 DUP3 LT ISZERO PUSH2 0x5B65 JUMPI SWAP4 SWAP1 SWAP7 ADD MLOAD PUSH1 0x0 NOT PUSH1 0xF8 PUSH1 0x3 DUP8 SWAP1 SHL AND SHR NOT AND SWAP1 SWAP3 SSTORE POP POP PUSH1 0x1 SWAP1 DUP2 SHL ADD SWAP1 SSTORE POP JUMP JUMPDEST DUP1 DUP3 MUL DUP2 ISZERO DUP3 DUP3 DIV DUP5 EQ OR PUSH2 0x9B9 JUMPI PUSH2 0x9B9 PUSH2 0x59DB JUMP JUMPDEST PUSH1 0x0 DUP3 MLOAD PUSH2 0x5CD1 DUP2 DUP5 PUSH1 0x20 DUP8 ADD PUSH2 0x4FF1 JUMP JUMPDEST SWAP2 SWAP1 SWAP2 ADD SWAP3 SWAP2 POP POP JUMP JUMPDEST PUSH1 0x0 DUP4 MLOAD PUSH2 0x5CED DUP2 DUP5 PUSH1 0x20 DUP9 ADD PUSH2 0x4FF1 JUMP JUMPDEST DUP4 MLOAD SWAP1 DUP4 ADD SWAP1 PUSH2 0x5D01 DUP2 DUP4 PUSH1 0x20 DUP9 ADD PUSH2 0x4FF1 JUMP JUMPDEST ADD SWAP5 SWAP4 POP POP POP POP JUMP JUMPDEST PUSH1 0x0 DUP2 PUSH2 0x5D19 JUMPI PUSH2 0x5D19 PUSH2 0x59DB JUMP JUMPDEST POP PUSH1 0x0 NOT ADD SWAP1 JUMP JUMPDEST PUSH1 0x0 DUP3 PUSH2 0x5D3E JUMPI PUSH4 0x4E487B71 PUSH1 0xE0 SHL PUSH1 0x0 MSTORE PUSH1 0x12 PUSH1 0x4 MSTORE PUSH1 0x24 PUSH1 0x0 REVERT JUMPDEST POP DIV SWAP1 JUMP JUMPDEST PUSH1 0x20 DUP1 DUP3 MSTORE PUSH1 0x25 SWAP1 DUP3 ADD MSTORE PUSH32 0x4552433732313A207472616E736665722066726F6D20696E636F727265637420 PUSH1 0x40 DUP3 ADD MSTORE PUSH5 0x37BBB732B9 PUSH1 0xD9 SHL PUSH1 0x60 DUP3 ADD MSTORE PUSH1 0x80 ADD SWAP1 JUMP JUMPDEST PUSH1 0x20 DUP1 DUP3 MSTORE PUSH1 0x32 SWAP1 DUP3 ADD MSTORE PUSH32 0x4552433732313A207472616E7366657220746F206E6F6E204552433732315265 PUSH1 0x40 DUP3 ADD MSTORE PUSH18 0x31B2B4BB32B91034B6B83632B6B2B73A32B9 PUSH1 0x71 SHL PUSH1 0x60 DUP3 ADD MSTORE PUSH1 0x80 ADD SWAP1 JUMP JUMPDEST PUSH1 0x1 PUSH1 0x1 PUSH1 0xA0 SHL SUB DUP6 DUP2 AND DUP3 MSTORE DUP5 AND PUSH1 0x20 DUP3 ADD MSTORE PUSH1 0x40 DUP2 ADD DUP4 SWAP1 MSTORE PUSH1 0x80 PUSH1 0x60 DUP3 ADD DUP2 SWAP1 MSTORE PUSH1 0x0 SWAP1 PUSH2 0x5E0D SWAP1 DUP4 ADD DUP5 PUSH2 0x5015 JUMP JUMPDEST SWAP7 SWAP6 POP POP POP POP POP POP JUMP JUMPDEST PUSH1 0x0 PUSH1 0x20 DUP3 DUP5 SUB SLT ISZERO PUSH2 0x5E29 JUMPI PUSH1 0x0 DUP1 REVERT JUMPDEST DUP2 MLOAD PUSH2 0x4B55 DUP2 PUSH2 0x4FA5 JUMP INVALID LOG2 PUSH5 0x6970667358 0x22 SLT KECCAK256 DUP10 0xD6 0xA6 0x1F NOT 0xCA 0xCB 0xF9 0xDC 0xDD COINBASE OR 0x21 REVERT PUSH14 0xB5405A969E2369143DFE1DE86A6D MSTORE8 0xC8 PUSH28 0x64736F6C634300081100330000000000000000000000000000000000 "},"methodIdentifiers":{"acceptPlot(uint256)":"1396f769","addPlot(string,string,string,string,uint256,uint256,uint256,uint256)":"5097bef8","approve(address,uint256)":"095ea7b3","balanceOf(address)":"70a08231","buyStocks(uint256,address,uint256,uint256,uint256,uint256)":"1c468f0b","checkAvailableStocksForBuyer(uint256,uint256)":"3c2cff22","checkAvailableStocksForSeller(uint256,uint256)":"01c2b352","compareStrings(string,string)":"bed34bba","createTransaction(uint256,uint256,uint256,uint256,uint256,uint256)":"11a80f7e","fetchAllPaymentByRentID(uint256)":"e980509c","fetchAllPlotRequests()":"4d770ca0","fetchAllPlots()":"e44176d8","fetchAllRentAggrements(uint256)":"801c6767","fetchAllStocksForPlot(uint256)":"c63af15f","fetchAllStocksForUser(address)":"5dd38e2d","fetchAllTransactions()":"661b4cc2","fetchAllUserPayments(uint256)":"7190314a","fetchAllUserRequests()":"ad509e8d","fetchAllUsers()":"c3374315","fetchPlotById(uint256)":"310cd34f","fetchRentAggrementById(uint256)":"3ffc0d10","fetchUserByAddress(address)":"9f900a18","fetchUserById(uint256)":"9c432e34","fetchUserPlots(address)":"e959bf39","getApproved(uint256)":"081812fc","isApprovedForAll(address,address)":"e985e9c5","isOwner()":"8f32d59b","mint(uint256,uint256,uint256,string,string)":"8cffd853","name()":"06fdde03","ownerOf(uint256)":"6352211e","payRent(uint256)":"d9e8843f","registerUser(address,string,string,string,string)":"999eab2b","rejectPlot(uint256)":"3b682632","rejectTransaction(uint256)":"05bf37aa","rejectUser(address)":"4dc92885","requestToBuyStocks(address,uint256,uint256,uint256,uint256)":"1cd8f3c5","safeTransferFrom(address,address,uint256)":"42842e0e","safeTransferFrom(address,address,uint256,bytes)":"b88d4fde","setApprovalForAll(address,bool)":"a22cb465","supportsInterface(bytes4)":"01ffc9a7","symbol()":"95d89b41","tokenURI(uint256)":"c87b56dd","transferFrom(address,address,uint256)":"23b872dd","updateBuyableStocks(uint256,uint256)":"4f92e87d","updateRentPrice(uint256,uint256)":"4feb2982","updateSellableStocks(uint256,uint256)":"31793fee","updateStockPrice(uint256,uint256)":"3fd7f8b8","validateTransaction(uint256)":"18c5c090","verifyUser(address)":"4d813120"}}}}}