{"contracts/SmartEstate.sol":{"SmartEstate":{"abi":[{"inputs":[],"stateMutability":"nonpayable","type":"constructor"},{"anonymous":false,"inputs":[{"indexed":true,"internalType":"address","name":"owner","type":"address"},{"indexed":true,"internalType":"address","name":"approved","type":"address"},{"indexed":true,"internalType":"uint256","name":"tokenId","type":"uint256"}],"name":"Approval","type":"event"},{"anonymous":false,"inputs":[{"indexed":true,"internalType":"address","name":"owner","type":"address"},{"indexed":true,"internalType":"address","name":"operator","type":"address"},{"indexed":false,"internalType":"bool","name":"approved","type":"bool"}],"name":"ApprovalForAll","type":"event"},{"anonymous":false,"inputs":[{"indexed":true,"internalType":"address","name":"from","type":"address"},{"indexed":true,"internalType":"address","name":"to","type":"address"},{"indexed":true,"internalType":"uint256","name":"tokenId","type":"uint256"}],"name":"Transfer","type":"event"},{"inputs":[{"internalType":"uint256","name":"plotId","type":"uint256"}],"name":"acceptPlot","outputs":[],"stateMutability":"nonpayable","type":"function"},{"inputs":[{"internalType":"string","name":"name","type":"string"},{"internalType":"string","name":"realAdd","type":"string"},{"internalType":"string","name":"xCor","type":"string"},{"internalType":"string","name":"yCor","type":"string"},{"internalType":"uint256","name":"totalQuantity","type":"uint256"},{"internalType":"uint256","name":"availableStocks","type":"uint256"},{"internalType":"uint256","name":"price","type":"uint256"},{"internalType":"uint256","name":"rentAmount","type":"uint256"}],"name":"addPlot","outputs":[],"stateMutability":"nonpayable","type":"function"},{"inputs":[{"internalType":"address","name":"to","type":"address"},{"internalType":"uint256","name":"tokenId","type":"uint256"}],"name":"approve","outputs":[],"stateMutability":"nonpayable","type":"function"},{"inputs":[{"internalType":"address","name":"owner","type":"address"}],"name":"balanceOf","outputs":[{"internalType":"uint256","name":"","type":"uint256"}],"stateMutability":"view","type":"function"},{"inputs":[{"internalType":"uint256","name":"stockId","type":"uint256"},{"internalType":"address","name":"target","type":"address"},{"internalType":"uint256","name":"quantityToBuy","type":"uint256"},{"internalType":"uint256","name":"price","type":"uint256"},{"internalType":"uint256","name":"plotId","type":"uint256"},{"internalType":"uint256","name":"sellQuantity","type":"uint256"}],"name":"buyStocks","outputs":[],"stateMutability":"nonpayable","type":"function"},{"inputs":[{"internalType":"uint256","name":"stockId","type":"uint256"},{"internalType":"uint256","name":"buyable","type":"uint256"}],"name":"checkAvailableStocksForBuyer","outputs":[{"internalType":"bool","name":"","type":"bool"}],"stateMutability":"view","type":"function"},{"inputs":[{"internalType":"uint256","name":"stockId","type":"uint256"},{"internalType":"uint256","name":"sellable","type":"uint256"}],"name":"checkAvailableStocksForSeller","outputs":[{"internalType":"bool","name":"","type":"bool"}],"stateMutability":"view","type":"function"},{"inputs":[{"internalType":"string","name":"_string1","type":"string"},{"internalType":"string","name":"_string2","type":"string"}],"name":"compareStrings","outputs":[{"internalType":"bool","name":"","type":"bool"}],"stateMutability":"pure","type":"function"},{"inputs":[{"internalType":"uint256","name":"source","type":"uint256"},{"internalType":"uint256","name":"target","type":"uint256"},{"internalType":"uint256","name":"quantity","type":"uint256"},{"internalType":"uint256","name":"price","type":"uint256"},{"internalType":"uint256","name":"timestamp","type":"uint256"},{"internalType":"uint256","name":"plotId","type":"uint256"}],"name":"createTransaction","outputs":[{"internalType":"uint256","name":"","type":"uint256"}],"stateMutability":"nonpayable","type":"function"},{"inputs":[{"internalType":"uint256","name":"rentId","type":"uint256"}],"name":"fetchAllPaymentByRentID","outputs":[{"components":[{"internalType":"uint256","name":"rentId","type":"uint256"},{"internalType":"uint256","name":"amount","type":"uint256"},{"internalType":"uint256","name":"date","type":"uint256"}],"internalType":"struct SmartEstate.Payment[]","name":"","type":"tuple[]"}],"stateMutability":"view","type":"function"},{"inputs":[],"name":"fetchAllPlotRequests","outputs":[{"components":[{"internalType":"uint256","name":"id","type":"uint256"},{"internalType":"uint256","name":"creatorId","type":"uint256"},{"internalType":"string","name":"name","type":"string"},{"internalType":"string","name":"realAdd","type":"string"},{"internalType":"string","name":"xCor","type":"string"},{"internalType":"string","name":"yCor","type":"string"},{"internalType":"uint256","name":"totalQuantity","type":"uint256"},{"internalType":"uint256","name":"availableStocks","type":"uint256"},{"internalType":"uint256","name":"price","type":"uint256"},{"internalType":"bool","name":"rented","type":"bool"},{"internalType":"uint256","name":"rentAmount","type":"uint256"}],"internalType":"struct SmartEstate.Plot[]","name":"","type":"tuple[]"}],"stateMutability":"view","type":"function"},{"inputs":[],"name":"fetchAllPlots","outputs":[{"components":[{"internalType":"uint256","name":"id","type":"uint256"},{"internalType":"uint256","name":"creatorId","type":"uint256"},{"internalType":"string","name":"name","type":"string"},{"internalType":"string","name":"realAdd","type":"string"},{"internalType":"string","name":"xCor","type":"string"},{"internalType":"string","name":"yCor","type":"string"},{"internalType":"uint256","name":"totalQuantity","type":"uint256"},{"internalType":"uint256","name":"availableStocks","type":"uint256"},{"internalType":"uint256","name":"price","type":"uint256"},{"internalType":"bool","name":"rented","type":"bool"},{"internalType":"uint256","name":"rentAmount","type":"uint256"}],"internalType":"struct SmartEstate.Plot[]","name":"","type":"tuple[]"}],"stateMutability":"view","type":"function"},{"inputs":[{"internalType":"uint256","name":"userId","type":"uint256"}],"name":"fetchAllRentAggrements","outputs":[{"components":[{"internalType":"uint256","name":"plotId","type":"uint256"},{"internalType":"uint256","name":"renterId","type":"uint256"},{"internalType":"uint256","name":"startDate","type":"uint256"},{"internalType":"uint256","name":"endDate","type":"uint256"},{"internalType":"uint256","name":"rentAmount","type":"uint256"},{"internalType":"string","name":"description","type":"string"},{"internalType":"string","name":"cid","type":"string"}],"internalType":"struct SmartEstate.RentAggrement[]","name":"","type":"tuple[]"}],"stateMutability":"view","type":"function"},{"inputs":[{"internalType":"uint256","name":"plotId","type":"uint256"}],"name":"fetchAllStocksForPlot","outputs":[{"components":[{"internalType":"uint256","name":"userId","type":"uint256"},{"internalType":"uint256","name":"plotId","type":"uint256"},{"internalType":"uint256","name":"quantity","type":"uint256"},{"internalType":"uint256","name":"sellable","type":"uint256"},{"internalType":"uint256","name":"price","type":"uint256"}],"internalType":"struct SmartEstate.Stocks[]","name":"","type":"tuple[]"}],"stateMutability":"view","type":"function"},{"inputs":[],"name":"fetchAllTransactions","outputs":[{"components":[{"internalType":"uint256","name":"source","type":"uint256"},{"internalType":"uint256","name":"target","type":"uint256"},{"internalType":"uint256","name":"quantity","type":"uint256"},{"internalType":"uint256","name":"price","type":"uint256"},{"internalType":"uint256","name":"timestamp","type":"uint256"},{"internalType":"uint256","name":"plotId","type":"uint256"},{"internalType":"int8","name":"state","type":"int8"}],"internalType":"struct SmartEstate.Transaction[]","name":"","type":"tuple[]"}],"stateMutability":"view","type":"function"},{"inputs":[{"internalType":"uint256","name":"userId","type":"uint256"}],"name":"fetchAllUserPayments","outputs":[{"components":[{"internalType":"uint256","name":"rentId","type":"uint256"},{"internalType":"uint256","name":"amount","type":"uint256"},{"internalType":"uint256","name":"date","type":"uint256"}],"internalType":"struct SmartEstate.Payment[]","name":"","type":"tuple[]"}],"stateMutability":"view","type":"function"},{"inputs":[],"name":"fetchAllUserRequests","outputs":[{"components":[{"internalType":"uint256","name":"userId","type":"uint256"},{"internalType":"address","name":"userAdd","type":"address"},{"internalType":"string","name":"name","type":"string"},{"internalType":"string","name":"mobileNo","type":"string"},{"internalType":"string","name":"aadhaar","type":"string"},{"internalType":"string","name":"aadhaarCID","type":"string"}],"internalType":"struct SmartEstate.User[]","name":"","type":"tuple[]"}],"stateMutability":"view","type":"function"},{"inputs":[],"name":"fetchAllUsers","outputs":[{"components":[{"internalType":"uint256","name":"userId","type":"uint256"},{"internalType":"address","name":"userAdd","type":"address"},{"internalType":"string","name":"name","type":"string"},{"internalType":"string","name":"mobileNo","type":"string"},{"internalType":"string","name":"aadhaar","type":"string"},{"internalType":"string","name":"aadhaarCID","type":"string"}],"internalType":"struct SmartEstate.User[]","name":"","type":"tuple[]"}],"stateMutability":"view","type":"function"},{"inputs":[{"internalType":"uint256","name":"rentId","type":"uint256"}],"name":"fetchRentAggrementById","outputs":[{"components":[{"internalType":"uint256","name":"plotId","type":"uint256"},{"internalType":"uint256","name":"renterId","type":"uint256"},{"internalType":"uint256","name":"startDate","type":"uint256"},{"internalType":"uint256","name":"endDate","type":"uint256"},{"internalType":"uint256","name":"rentAmount","type":"uint256"},{"internalType":"string","name":"description","type":"string"},{"internalType":"string","name":"cid","type":"string"}],"internalType":"struct SmartEstate.RentAggrement","name":"","type":"tuple"}],"stateMutability":"view","type":"function"},{"inputs":[{"internalType":"address","name":"addr","type":"address"}],"name":"fetchUserByAddress","outputs":[{"components":[{"internalType":"uint256","name":"userId","type":"uint256"},{"internalType":"address","name":"userAdd","type":"address"},{"internalType":"string","name":"name","type":"string"},{"internalType":"string","name":"mobileNo","type":"string"},{"internalType":"string","name":"aadhaar","type":"string"},{"internalType":"string","name":"aadhaarCID","type":"string"}],"internalType":"struct SmartEstate.User","name":"","type":"tuple"}],"stateMutability":"view","type":"function"},{"inputs":[{"internalType":"uint256","name":"tokenId","type":"uint256"}],"name":"getApproved","outputs":[{"internalType":"address","name":"","type":"address"}],"stateMutability":"view","type":"function"},{"inputs":[{"internalType":"address","name":"owner","type":"address"},{"internalType":"address","name":"operator","type":"address"}],"name":"isApprovedForAll","outputs":[{"internalType":"bool","name":"","type":"bool"}],"stateMutability":"view","type":"function"},{"inputs":[],"name":"isOwner","outputs":[{"internalType":"bool","name":"","type":"bool"}],"stateMutability":"view","type":"function"},{"inputs":[{"internalType":"uint256","name":"plotId","type":"uint256"},{"internalType":"uint256","name":"months","type":"uint256"},{"internalType":"uint256","name":"rentAmount","type":"uint256"},{"internalType":"string","name":"description","type":"string"},{"internalType":"string","name":"cid","type":"string"}],"name":"mint","outputs":[],"stateMutability":"nonpayable","type":"function"},{"inputs":[],"name":"name","outputs":[{"internalType":"string","name":"","type":"string"}],"stateMutability":"view","type":"function"},{"inputs":[{"internalType":"uint256","name":"tokenId","type":"uint256"}],"name":"ownerOf","outputs":[{"internalType":"address","name":"","type":"address"}],"stateMutability":"view","type":"function"},{"inputs":[{"internalType":"uint256","name":"rentId","type":"uint256"}],"name":"payRent","outputs":[],"stateMutability":"payable","type":"function"},{"inputs":[{"internalType":"address","name":"userAdd","type":"address"},{"internalType":"string","name":"name","type":"string"},{"internalType":"string","name":"mobileNo","type":"string"},{"internalType":"string","name":"aadhaar","type":"string"},{"internalType":"string","name":"aadhaarCID","type":"string"}],"name":"registerUser","outputs":[],"stateMutability":"nonpayable","type":"function"},{"inputs":[{"internalType":"uint256","name":"plotId","type":"uint256"}],"name":"rejectPlot","outputs":[],"stateMutability":"nonpayable","type":"function"},{"inputs":[{"internalType":"uint256","name":"transacId","type":"uint256"}],"name":"rejectTransaction","outputs":[],"stateMutability":"nonpayable","type":"function"},{"inputs":[{"internalType":"address","name":"userAdd","type":"address"}],"name":"rejectUser","outputs":[],"stateMutability":"nonpayable","type":"function"},{"inputs":[{"internalType":"address","name":"target","type":"address"},{"internalType":"uint256","name":"quantityToBuy","type":"uint256"},{"internalType":"uint256","name":"price","type":"uint256"},{"internalType":"uint256","name":"plotId","type":"uint256"},{"internalType":"uint256","name":"sellQuantity","type":"uint256"}],"name":"requestToBuyStocks","outputs":[],"stateMutability":"nonpayable","type":"function"},{"inputs":[{"internalType":"address","name":"from","type":"address"},{"internalType":"address","name":"to","type":"address"},{"internalType":"uint256","name":"tokenId","type":"uint256"}],"name":"safeTransferFrom","outputs":[],"stateMutability":"nonpayable","type":"function"},{"inputs":[{"internalType":"address","name":"from","type":"address"},{"internalType":"address","name":"to","type":"address"},{"internalType":"uint256","name":"tokenId","type":"uint256"},{"internalType":"bytes","name":"data","type":"bytes"}],"name":"safeTransferFrom","outputs":[],"stateMutability":"nonpayable","type":"function"},{"inputs":[{"internalType":"address","name":"operator","type":"address"},{"internalType":"bool","name":"approved","type":"bool"}],"name":"setApprovalForAll","outputs":[],"stateMutability":"nonpayable","type":"function"},{"inputs":[{"internalType":"bytes4","name":"interfaceId","type":"bytes4"}],"name":"supportsInterface","outputs":[{"internalType":"bool","name":"","type":"bool"}],"stateMutability":"view","type":"function"},{"inputs":[],"name":"symbol","outputs":[{"internalType":"string","name":"","type":"string"}],"stateMutability":"view","type":"function"},{"inputs":[{"internalType":"uint256","name":"tokenId","type":"uint256"}],"name":"tokenURI","outputs":[{"internalType":"string","name":"","type":"string"}],"stateMutability":"view","type":"function"},{"inputs":[{"internalType":"address","name":"from","type":"address"},{"internalType":"address","name":"to","type":"address"},{"internalType":"uint256","name":"tokenId","type":"uint256"}],"name":"transferFrom","outputs":[],"stateMutability":"nonpayable","type":"function"},{"inputs":[{"internalType":"uint256","name":"stockId","type":"uint256"},{"internalType":"address","name":"target","type":"address"},{"internalType":"uint256","name":"quantityToSell","type":"uint256"},{"internalType":"uint256","name":"price","type":"uint256"},{"internalType":"uint256","name":"plotId","type":"uint256"},{"internalType":"uint256","name":"sellQuantity","type":"uint256"}],"name":"transferOwnershipOfStocks","outputs":[],"stateMutability":"nonpayable","type":"function"},{"inputs":[{"internalType":"uint256","name":"stockId","type":"uint256"},{"internalType":"uint256","name":"buyable","type":"uint256"}],"name":"updateBuyableStocks","outputs":[],"stateMutability":"nonpayable","type":"function"},{"inputs":[{"internalType":"uint256","name":"plotId","type":"uint256"},{"internalType":"uint256","name":"rentAmount","type":"uint256"}],"name":"updateRentPrice","outputs":[],"stateMutability":"nonpayable","type":"function"},{"inputs":[{"internalType":"uint256","name":"stockId","type":"uint256"},{"internalType":"uint256","name":"sellable","type":"uint256"}],"name":"updateSellableStocks","outputs":[],"stateMutability":"nonpayable","type":"function"},{"inputs":[{"internalType":"uint256","name":"stockId","type":"uint256"},{"internalType":"uint256","name":"price","type":"uint256"}],"name":"updateStockPrice","outputs":[],"stateMutability":"nonpayable","type":"function"},{"inputs":[{"internalType":"uint256","name":"transacId","type":"uint256"}],"name":"validateTransaction","outputs":[],"stateMutability":"nonpayable","type":"function"},{"inputs":[{"internalType":"address","name":"userAdd","type":"address"}],"name":"verifyUser","outputs":[],"stateMutability":"nonpayable","type":"function"}],"evm":{"bytecode":{"linkReferences":{},"object":"60806040523480156200001157600080fd5b506040518060400160405280600681526020016566646a6b6c7360d01b815250604051806040016040528060048152602001636a6c6b7360e01b81525081600090816200005f91906200012e565b5060016200006e82826200012e565b5050600780546001600160a01b0319163317905550620001fa565b634e487b7160e01b600052604160045260246000fd5b600181811c90821680620000b457607f821691505b602082108103620000d557634e487b7160e01b600052602260045260246000fd5b50919050565b601f8211156200012957600081815260208120601f850160051c81016020861015620001045750805b601f850160051c820191505b81811015620001255782815560010162000110565b5050505b505050565b81516001600160401b038111156200014a576200014a62000089565b62000162816200015b84546200009f565b84620000db565b602080601f8311600181146200019a5760008415620001815750858301515b600019600386901b1c1916600185901b17855562000125565b600085815260208120601f198616915b82811015620001cb57888601518255948401946001909101908401620001aa565b5085821015620001ea5787850151600019600388901b60f8161c191681555b5050505050600190811b01905550565b615216806200020a6000396000f3fe60806040526004361061027d5760003560e01c8063502ff3101161014f5780639f900a18116100c1578063c63af15f1161007a578063c63af15f14610808578063c87b56dd14610835578063d9e8843f14610855578063e44176d814610868578063e980509c1461087d578063e985e9c51461089d57600080fd5b80639f900a1814610744578063a22cb46514610771578063ad509e8d14610791578063b88d4fde146107b3578063bed34bba146107d3578063c3374315146107f357600080fd5b80637190314a116101135780637190314a14610674578063801c6767146106a15780638cffd853146106ce5780638f32d59b146106ee57806395d89b411461070f578063999eab2b1461072457600080fd5b8063502ff310146105d25780635097bef8146105f25780636352211e14610612578063661b4cc21461063257806370a082311461065457600080fd5b806323b872dd116101f357806342842e0e116101ac57806342842e0e146105005780634d770ca0146105205780634d813120146105425780634dc92885146105625780634f92e87d146105825780634feb2982146105a257600080fd5b806323b872dd1461042357806331793fee146104435780633b682632146104635780633c2cff22146104835780633fd7f8b8146104a35780633ffc0d10146104d357600080fd5b8063095ea7b311610245578063095ea7b31461035357806311a80f7e146103735780631396f769146103a157806318c5c090146103c15780631c468f0b146103e15780631cd8f3c51461040157600080fd5b806301c2b3521461028257806301ffc9a7146102b757806305bf37aa146102d757806306fdde03146102f9578063081812fc1461031b575b600080fd5b34801561028e57600080fd5b506102a261029d36600461436f565b6108e6565b60405190151581526020015b60405180910390f35b3480156102c357600080fd5b506102a26102d23660046143a7565b610921565b3480156102e357600080fd5b506102f76102f23660046143c4565b610971565b005b34801561030557600080fd5b5061030e6109ab565b6040516102ae919061442d565b34801561032757600080fd5b5061033b6103363660046143c4565b610a3d565b6040516001600160a01b0390911681526020016102ae565b34801561035f57600080fd5b506102f761036e36600461445c565b610a64565b34801561037f57600080fd5b5061039361038e366004614486565b610b7e565b6040519081526020016102ae565b3480156103ad57600080fd5b506102f76103bc3660046143c4565b610c38565b3480156103cd57600080fd5b506102f76103dc3660046143c4565b610f29565b3480156103ed57600080fd5b506102f76103fc3660046144c9565b610f62565b34801561040d57600080fd5b506102f761041c366004614517565b5050505050565b34801561042f57600080fd5b506102f761043e366004614559565b611150565b34801561044f57600080fd5b506102f761045e36600461436f565b611181565b34801561046f57600080fd5b506102f761047e3660046143c4565b6111ab565b34801561048f57600080fd5b506102a261049e36600461436f565b6111be565b3480156104af57600080fd5b506102f76104be36600461436f565b60009182526017602052604090912060040155565b3480156104df57600080fd5b506104f36104ee3660046143c4565b6111ea565b6040516102ae91906145fe565b34801561050c57600080fd5b506102f761051b366004614559565b6113a5565b34801561052c57600080fd5b506105356113c0565b6040516102ae9190614611565b34801561054e57600080fd5b506102f761055d36600461471b565b611718565b34801561056e57600080fd5b506102f761057d36600461471b565b6119a0565b34801561058e57600080fd5b506102f761059d36600461436f565b611ae5565b3480156105ae57600080fd5b506102f76105bd36600461436f565b600091825260156020526040909120600a0155565b3480156105de57600080fd5b506102f76105ed3660046144c9565b611b2c565b3480156105fe57600080fd5b506102f761060d3660046147e1565b611c4a565b34801561061e57600080fd5b5061033b61062d3660046143c4565b611d86565b34801561063e57600080fd5b50610647611de6565b6040516102ae91906148b1565b34801561066057600080fd5b5061039361066f36600461471b565b611f1a565b34801561068057600080fd5b5061069461068f3660046143c4565b611fa0565b6040516102ae9190614937565b3480156106ad57600080fd5b506106c16106bc3660046143c4565b61211d565b6040516102ae9190614990565b3480156106da57600080fd5b506102f76106e93660046149f2565b6123e6565b3480156106fa57600080fd5b506102a26007546001600160a01b0316331490565b34801561071b57600080fd5b5061030e6124f9565b34801561073057600080fd5b506102f761073f366004614a72565b612508565b34801561075057600080fd5b5061076461075f36600461471b565b6125e7565b6040516102ae9190614b71565b34801561077d57600080fd5b506102f761078c366004614b84565b6128bc565b34801561079d57600080fd5b506107a66128cb565b6040516102ae9190614bc0565b3480156107bf57600080fd5b506102f76107ce366004614c15565b612be6565b3480156107df57600080fd5b506102a26107ee366004614c90565b612c1e565b3480156107ff57600080fd5b506107a6612c77565b34801561081457600080fd5b506108286108233660046143c4565b612f92565b6040516102ae9190614cf3565b34801561084157600080fd5b5061030e6108503660046143c4565b6130c0565b6102f76108633660046143c4565b6131d0565b34801561087457600080fd5b5061053561348a565b34801561088957600080fd5b506106946108983660046143c4565b6137dc565b3480156108a957600080fd5b506102a26108b8366004614d54565b6001600160a01b03918216600090815260056020908152604080832093909416825291909152205460ff1690565b6000828152601760205260408120600281015460039091015461090a908490614d9d565b116109175750600161091b565b5060005b92915050565b60006001600160e01b031982166380ac58cd60e01b148061095257506001600160e01b03198216635b5e139f60e01b145b8061091b57506301ffc9a760e01b6001600160e01b031983161461091b565b600081815260146020526040812060060154810b90036109a8576000818152601460205260409020600601805460ff191660021790555b50565b6060600080546109ba90614db0565b80601f01602080910402602001604051908101604052809291908181526020018280546109e690614db0565b8015610a335780601f10610a0857610100808354040283529160200191610a33565b820191906000526020600020905b815481529060010190602001808311610a1657829003601f168201915b5050505050905090565b6000610a4882613931565b506000908152600460205260409020546001600160a01b031690565b6000610a6f82611d86565b9050806001600160a01b0316836001600160a01b031603610ae15760405162461bcd60e51b815260206004820152602160248201527f4552433732313a20617070726f76616c20746f2063757272656e74206f776e656044820152603960f91b60648201526084015b60405180910390fd5b336001600160a01b0382161480610afd5750610afd81336108b8565b610b6f5760405162461bcd60e51b815260206004820152603d60248201527f4552433732313a20617070726f76652063616c6c6572206973206e6f7420746f60448201527f6b656e206f776e6572206f7220617070726f76656420666f7220616c6c0000006064820152608401610ad8565b610b798383613990565b505050565b6040805160e0810182528781526020808201888152828401888152606084018881526080850188815260a08601888152600060c088018181526009805483526014909852988120975188559451600180890191909155935160028801559151600387015551600486015551600585015593516006909301805460ff191660ff9094169390931790925580549192918390610c19908490614d9d565b9091555050600954610c2d90600190614de4565b979650505050505050565b6000818152601660209081526040808320600a54845260159092529091208154815560018083015490820155600280820190610c7690840182614e45565b50600381810190610c8990840182614e45565b50600481810190610c9c90840182614e45565b50600581810190610caf90840182614e45565b50600682810154828201556007808401548184015560088085015481850155600980860154908501805460ff191660ff9092161515919091179055600a948501549385019390935592546000818152601560209081526040808320848155815160a0810183523385526018845282852054815280840195865295810154868301908152978101546060870190815296015460808601908152600e805485526017909352908320945185559251600185810191909155955160028501559351600384015590516004909201919091558154610d8a908490614d9d565b925050819055506001600a6000828254610da49190614d9d565b92505081905550601660006001600b54610dbe9190614de4565b8152602080820192909252604090810160009081208482526016909352208154815560018083015490820155600280820190610dfc90840182614e45565b50600381810190610e0f90840182614e45565b50600481810190610e2290840182614e45565b50600581810190610e3590840182614e45565b50600682810154908201556007808301549082015560088083015490820155600980830154908201805460ff191660ff9092161515919091179055600a91820154910155600b54601690600090610e8e90600190614de4565b8152602081019190915260400160009081208181556001810182905590610eb86002830182614281565b610ec6600383016000614281565b610ed4600483016000614281565b610ee2600583016000614281565b50600060068201819055600782018190556008820181905560098201805460ff19169055600a909101819055600b805460019290610f21908490614de4565b909155505050565b600081815260146020526040812060060154810b90036109a8576000818152601460205260409020600601805460ff1916600117905550565b33600090815260186020526040808220546001600160a01b038816835290822054610f91919087874288610b7e565b9050610f9d87866111be565b610faf57610faa81610971565b611147565b60005b600e54811015611085573360009081526018602090815260408083205484845260179092529091205403611073576000818152601760205260409020600201548390610fff908890614d9d565b111561106a5760008181526017602052604081206002018054889290611026908490614d9d565b90915550506000818152601760205260408120600301805488929061104c908490614d9d565b9091555061105c90508887611ae5565b61106582610f29565b611073565b61107382610971565b8061107d81614f21565b915050610fb2565b600e548103611145578286111561113c576110a08887611ae5565b6040805160a081018252336000908152601860209081528382205483528083018881528385018b8152606085018981528a8552601584528685206008015460808701908152600e805487526017909552968520955186559151600180870191909155905160028601559051600385015593516004909301929092558154611128908490614d9d565b90915550611137905082610f29565b611145565b61114582610971565b505b50505050505050565b61115a33826139fe565b6111765760405162461bcd60e51b8152600401610ad890614f3a565b610b79838383613a7c565b600082815260176020526040812060030180548392906111a2908490614d9d565b90915550505050565b601660006001600b54610dbe9190614de4565b60008281526017602052604081206003015481906111dd908490614de4565b106109175750600161091b565b61122a6040518060e00160405280600081526020016000815260200160008152602001600081526020016000815260200160608152602001606081525090565b601060008381526020019081526020016000206040518060e0016040529081600082015481526020016001820154815260200160028201548152602001600382015481526020016004820154815260200160058201805461128a90614db0565b80601f01602080910402602001604051908101604052809291908181526020018280546112b690614db0565b80156113035780601f106112d857610100808354040283529160200191611303565b820191906000526020600020905b8154815290600101906020018083116112e657829003601f168201915b5050505050815260200160068201805461131c90614db0565b80601f016020809104026020016040519081016040528092919081815260200182805461134890614db0565b80156113955780601f1061136a57610100808354040283529160200191611395565b820191906000526020600020905b81548152906001019060200180831161137857829003601f168201915b5050505050815250509050919050565b610b7983838360405180602001604052806000815250612be6565b60606000600b546001600160401b038111156113de576113de614736565b60405190808252806020026020018201604052801561141757816020015b6114046142bb565b8152602001906001900390816113fc5790505b50905060005b600b548110156117125760006016600083815260200190815260200160002090508060405180610160016040529081600082015481526020016001820154815260200160028201805461146f90614db0565b80601f016020809104026020016040519081016040528092919081815260200182805461149b90614db0565b80156114e85780601f106114bd576101008083540402835291602001916114e8565b820191906000526020600020905b8154815290600101906020018083116114cb57829003601f168201915b5050505050815260200160038201805461150190614db0565b80601f016020809104026020016040519081016040528092919081815260200182805461152d90614db0565b801561157a5780601f1061154f5761010080835404028352916020019161157a565b820191906000526020600020905b81548152906001019060200180831161155d57829003601f168201915b5050505050815260200160048201805461159390614db0565b80601f01602080910402602001604051908101604052809291908181526020018280546115bf90614db0565b801561160c5780601f106115e15761010080835404028352916020019161160c565b820191906000526020600020905b8154815290600101906020018083116115ef57829003601f168201915b5050505050815260200160058201805461162590614db0565b80601f016020809104026020016040519081016040528092919081815260200182805461165190614db0565b801561169e5780601f106116735761010080835404028352916020019161169e565b820191906000526020600020905b81548152906001019060200180831161168157829003601f168201915b5050509183525050600682015460208201526007820154604082015260088201546060820152600982015460ff1615156080820152600a9091015460a09091015283518490849081106116f3576116f3614f87565b602002602001018190525050808061170a90614f21565b91505061141d565b50919050565b6001600160a01b03808216600090815260186020908152604080832054835260138252808320600c54845260129092529091208154815560018083015490820180546001600160a01b03191691909416179092559060028082019061177f90840182614e45565b5060038181019061179290840182614e45565b506004818101906117a590840182614e45565b506005818101906117b890840182614e45565b5050600c54600081815260126020526040812091909155600d54601392506117e290600190614de4565b8152602080820192909252604090810160009081206001600160a01b0380861683526018855283832054835260139094529190208154815560018083015490820180546001600160a01b03191691909416179092559060028082019061184a90840182614e45565b5060038181019061185d90840182614e45565b5060048181019061187090840182614e45565b5060058181019061188390840182614e45565b5050506001600160a01b0381166000908152601860208190526040822054600d5490929060139082906118b890600190614de4565b8152602080820192909252604090810160009081206001908101546001600160a01b03908116865285850196909652938201812095909555600c805494871686526018909252842083905590929091611912908490614d9d565b92505081905550601360006001600d5461192c9190614de4565b8152602081019190915260400160009081208181556001810180546001600160a01b0319169055906119616002830182614281565b61196f600383016000614281565b61197d600483016000614281565b61198b600583016000614281565b50506001600d6000828254610f219190614de4565b601360006001600d546119b39190614de4565b8152602080820192909252604090810160009081206001600160a01b0380861683526018855283832054835260139094529190208154815560018083015490820180546001600160a01b031916919094161790925590600280820190611a1b90840182614e45565b50600381810190611a2e90840182614e45565b50600481810190611a4190840182614e45565b50600581810190611a5490840182614e45565b5050506001600160a01b0381166000908152601860208190526040822054600d549092906013908290611a8990600190614de4565b815260200190815260200160002060010160009054906101000a90046001600160a01b03166001600160a01b03166001600160a01b0316815260200190815260200160002081905550601360006001600d5461192c9190614de4565b60008281526017602052604081206003018054839290611b06908490614de4565b9091555050600082815260176020526040812060020180548392906111a2908490614de4565b33600090815260186020526040808220546001600160a01b038816835290822054611b5b919087874288610b7e565b9050611b6787866111be565b611b7457610faa81610971565b60005b600e54811015611085573360009081526018602090815260408083205484845260179092529091205403611c38576000818152601760205260409020600201548390611bc4908890614d9d565b1115611c2f5760008181526017602052604081206002018054889290611beb908490614d9d565b909155505060008181526017602052604081206003018054889290611c11908490614d9d565b90915550611c2190508887611ae5565b611c2a82610f29565b611c38565b611c3882610971565b80611c4281614f21565b915050611b77565b6040805161016081018252600b5480825233600090815260186020908152848220548185019081528486018e8152606086018e9052608086018d905260a086018c905260c086018b905260e086018a905261010086018990526101208601849052610140860188905293835260169091529390208251815592516001840155519091906002820190611cdc9082614f9d565b5060608201516003820190611cf19082614f9d565b5060808201516004820190611d069082614f9d565b5060a08201516005820190611d1b9082614f9d565b5060c0820151600682015560e08201516007820155610100820151600882015561012082015160098201805460ff191691151591909117905561014090910151600a90910155600b805460019190600090611d77908490614d9d565b90915550505050505050505050565b6000818152600260205260408120546001600160a01b03168061091b5760405162461bcd60e51b8152602060048201526018602482015277115490cdcc8c4e881a5b9d985b1a59081d1bdad95b88125160421b6044820152606401610ad8565b606060006009546001600160401b03811115611e0457611e04614736565b604051908082528060200260200182016040528015611e7757816020015b611e646040518060e001604052806000815260200160008152602001600081526020016000815260200160008152602001600081526020016000800b81525090565b815260200190600190039081611e225790505b50905060005b600a54811015611712576000818152601460209081526040808320815160e081018352815481526001820154938101939093526002810154918301919091526003810154606083015260048101546080830152600581015460a0830152600681015490920b60c08201528351849084908110611efb57611efb614f87565b6020026020010181905250508080611f1290614f21565b915050611e7d565b60006001600160a01b038216611f845760405162461bcd60e51b815260206004820152602960248201527f4552433732313a2061646472657373207a65726f206973206e6f7420612076616044820152683634b21037bbb732b960b91b6064820152608401610ad8565b506001600160a01b031660009081526003602052604090205490565b6060600060015b600f548111611ff65760008181526011602090815260408083205483526010909152902060010154849003611fe457611fe1600183614d9d565b91505b80611fee81614f21565b915050611fa7565b506000816001600160401b0381111561201157612011614736565b60405190808252806020026020018201604052801561206657816020015b61205360405180606001604052806000815260200160008152602001600081525090565b81526020019060019003908161202f5790505b5060009250905060015b600f54811161211557600081815260116020908152604080832054835260109091529020600101548590036121035760008181526011602090815260409182902082516060810184528154815260018201549281019290925260028101549282019290925283518490869081106120e9576120e9614f87565b60209081029190910101526120ff600185614d9d565b9350505b8061210d81614f21565b915050612070565b509392505050565b606060008061212b60085490565b905060015b8181116121705760008181526010602052604090206001015485900361215e5761215b600184614d9d565b92505b8061216881614f21565b915050612130565b506000826001600160401b0381111561218b5761218b614736565b6040519080825280602002602001820160405280156121fc57816020015b6121e96040518060e00160405280600081526020016000815260200160008152602001600081526020016000815260200160608152602001606081525090565b8152602001906001900390816121a95790505b5060009350905060015b8281116123dd576000818152601060205260409020600101548690036123cb576000601060008381526020019081526020016000209050806040518060e0016040529081600082015481526020016001820154815260200160028201548152602001600382015481526020016004820154815260200160058201805461228b90614db0565b80601f01602080910402602001604051908101604052809291908181526020018280546122b790614db0565b80156123045780601f106122d957610100808354040283529160200191612304565b820191906000526020600020905b8154815290600101906020018083116122e757829003601f168201915b5050505050815260200160068201805461231d90614db0565b80601f016020809104026020016040519081016040528092919081815260200182805461234990614db0565b80156123965780601f1061236b57610100808354040283529160200191612396565b820191906000526020600020905b81548152906001019060200180831161237957829003601f168201915b5050505050815250508386815181106123b1576123b1614f87565b60209081029190910101526123c7600186614d9d565b9450505b806123d581614f21565b915050612206565b50949350505050565b6123f4600880546001019055565b60006123ff60085490565b905061240b3382613bed565b6124158183613d86565b6040805160e081018252878152336000908152601860209081529083902054908201524291810191909152606081016124518762278d00615054565b61245b9042614d9d565b81526020808201879052604080830187905260609283018690526000858152601083528190208451815591840151600183015583015160028201559082015160038201556080820151600482015560a082015160058201906124bd9082614f9d565b5060c082015160068201906124d29082614f9d565b50505060009586525050601560205250506040909120600901805460ff1916600117905550565b6060600180546109ba90614db0565b6040805160c081018252600d548082526001600160a01b0388811660208085019182528486018a8152606086018a90526080860189905260a0860188905260009485526013909152949092208351815591516001830180546001600160a01b03191691909216179055915190919060028201906125859082614f9d565b506060820151600382019061259a9082614f9d565b50608082015160048201906125af9082614f9d565b5060a082015160058201906125c49082614f9d565b509050506001600d60008282546125db9190614d9d565b90915550505050505050565b6125ef614317565b60005b600c5481101561027d576000818152601260205260409020600101546001600160a01b038085169116036128aa57600081815260126020908152604091829020825160c0810184528154815260018201546001600160a01b031692810192909252600281018054929391929184019161266a90614db0565b80601f016020809104026020016040519081016040528092919081815260200182805461269690614db0565b80156126e35780601f106126b8576101008083540402835291602001916126e3565b820191906000526020600020905b8154815290600101906020018083116126c657829003601f168201915b505050505081526020016003820180546126fc90614db0565b80601f016020809104026020016040519081016040528092919081815260200182805461272890614db0565b80156127755780601f1061274a57610100808354040283529160200191612775565b820191906000526020600020905b81548152906001019060200180831161275857829003601f168201915b5050505050815260200160048201805461278e90614db0565b80601f01602080910402602001604051908101604052809291908181526020018280546127ba90614db0565b80156128075780601f106127dc57610100808354040283529160200191612807565b820191906000526020600020905b8154815290600101906020018083116127ea57829003601f168201915b5050505050815260200160058201805461282090614db0565b80601f016020809104026020016040519081016040528092919081815260200182805461284c90614db0565b80156128995780601f1061286e57610100808354040283529160200191612899565b820191906000526020600020905b81548152906001019060200180831161287c57829003601f168201915b505050505081525050915050919050565b806128b481614f21565b9150506125f2565b6128c7338383613e19565b5050565b60606000600d546001600160401b038111156128e9576128e9614736565b60405190808252806020026020018201604052801561292257816020015b61290f614317565b8152602001906001900390816129075790505b50905060005b600d5481101561171257600081815260136020908152604091829020825160c0810184528154815260018201546001600160a01b03169281019290925260028101805491938492908401919061297d90614db0565b80601f01602080910402602001604051908101604052809291908181526020018280546129a990614db0565b80156129f65780601f106129cb576101008083540402835291602001916129f6565b820191906000526020600020905b8154815290600101906020018083116129d957829003601f168201915b50505050508152602001600382018054612a0f90614db0565b80601f0160208091040260200160405190810160405280929190818152602001828054612a3b90614db0565b8015612a885780601f10612a5d57610100808354040283529160200191612a88565b820191906000526020600020905b815481529060010190602001808311612a6b57829003601f168201915b50505050508152602001600482018054612aa190614db0565b80601f0160208091040260200160405190810160405280929190818152602001828054612acd90614db0565b8015612b1a5780601f10612aef57610100808354040283529160200191612b1a565b820191906000526020600020905b815481529060010190602001808311612afd57829003601f168201915b50505050508152602001600582018054612b3390614db0565b80601f0160208091040260200160405190810160405280929190818152602001828054612b5f90614db0565b8015612bac5780601f10612b8157610100808354040283529160200191612bac565b820191906000526020600020905b815481529060010190602001808311612b8f57829003601f168201915b505050505081525050838381518110612bc757612bc7614f87565b6020026020010181905250508080612bde90614f21565b915050612928565b612bf033836139fe565b612c0c5760405162461bcd60e51b8152600401610ad890614f3a565b612c1884848484613ee7565b50505050565b600081604051602001612c31919061506b565b6040516020818303038152906040528051906020012083604051602001612c58919061506b565b6040516020818303038152906040528051906020012014905092915050565b60606000600c546001600160401b03811115612c9557612c95614736565b604051908082528060200260200182016040528015612cce57816020015b612cbb614317565b815260200190600190039081612cb35790505b50905060005b600c5481101561171257600081815260126020908152604091829020825160c0810184528154815260018201546001600160a01b031692810192909252600281018054919384929084019190612d2990614db0565b80601f0160208091040260200160405190810160405280929190818152602001828054612d5590614db0565b8015612da25780601f10612d7757610100808354040283529160200191612da2565b820191906000526020600020905b815481529060010190602001808311612d8557829003601f168201915b50505050508152602001600382018054612dbb90614db0565b80601f0160208091040260200160405190810160405280929190818152602001828054612de790614db0565b8015612e345780601f10612e0957610100808354040283529160200191612e34565b820191906000526020600020905b815481529060010190602001808311612e1757829003601f168201915b50505050508152602001600482018054612e4d90614db0565b80601f0160208091040260200160405190810160405280929190818152602001828054612e7990614db0565b8015612ec65780601f10612e9b57610100808354040283529160200191612ec6565b820191906000526020600020905b815481529060010190602001808311612ea957829003601f168201915b50505050508152602001600582018054612edf90614db0565b80601f0160208091040260200160405190810160405280929190818152602001828054612f0b90614db0565b8015612f585780601f10612f2d57610100808354040283529160200191612f58565b820191906000526020600020905b815481529060010190602001808311612f3b57829003601f168201915b505050505081525050838381518110612f7357612f73614f87565b6020026020010181905250508080612f8a90614f21565b915050612cd4565b60606000600e546001600160401b03811115612fb057612fb0614736565b60405190808252806020026020018201604052801561301357816020015b6130006040518060a0016040528060008152602001600081526020016000815260200160008152602001600081525090565b815260200190600190039081612fce5790505b50905060005b600e548110156130b9576000818152601760205260409020600101548490036130a757600081815260176020908152604091829020825160a081018452815481526001820154928101929092526002810154928201929092526003820154606082015260048201546080820152835184908490811061309a5761309a614f87565b6020026020010181905250505b806130b181614f21565b915050613019565b5092915050565b60606130cb82613931565b600082815260066020526040812080546130e490614db0565b80601f016020809104026020016040519081016040528092919081815260200182805461311090614db0565b801561315d5780601f106131325761010080835404028352916020019161315d565b820191906000526020600020905b81548152906001019060200180831161314057829003601f168201915b50505050509050600061317b60408051602081019091526000815290565b9050805160000361318d575092915050565b8151156131bf5780826040516020016131a7929190615087565b60405160208183030381529060405292505050919050565b6131c884613f1a565b949350505050565b6000818152601060205260409020600401543410156132405760405162461bcd60e51b815260206004820152602660248201527f506c65617365206769766520746865206d696e696d756d20616d6f756e74206e60448201526565656465642160d01b6064820152608401610ad8565b60006001600f546132519190614de4565b90505b60008181526011602052604090205482148015613299575060008181526011602090815260408083205483526010825280832060010154338452601890925290912054145b6132af57806132a7816150b6565b915050613254565b600081815260116020526040902060020154601e906132ce9042614de4565b10156132d957600080fd5b5060005b600e54811015613421576000828152601060209081526040808320548484526017909252909120600101540361340f576000818152601760208181526040808420600181015485526015835290842060060154938590529190526002015430916108fc91349161334c916150cd565b6133569190615054565b6040518115909202916000818181858888f1935050505015801561337e573d6000803e3d6000fd5b5060008181526017602081815260408084208054855260128352818520600190810154908201548652601584529185206006015494869052929091526002909101546001600160a01b03909116916108fc9134916133db916150cd565b6133e59190615054565b6040518115909202916000818181858888f1935050505015801561340d573d6000803e3d6000fd5b505b8061341981614f21565b9150506132dd565b60405180606001604052808381526020013481526020014281525060116000600f600081548092919061345390614f21565b9190505581526020019081526020016000206000820151816000015560208201518160010155604082015181600201559050505050565b60606000600a546001600160401b038111156134a8576134a8614736565b6040519080825280602002602001820160405280156134e157816020015b6134ce6142bb565b8152602001906001900390816134c65790505b50905060005b600a548110156117125760006015600083815260200190815260200160002090508060405180610160016040529081600082015481526020016001820154815260200160028201805461353990614db0565b80601f016020809104026020016040519081016040528092919081815260200182805461356590614db0565b80156135b25780601f10613587576101008083540402835291602001916135b2565b820191906000526020600020905b81548152906001019060200180831161359557829003601f168201915b505050505081526020016003820180546135cb90614db0565b80601f01602080910402602001604051908101604052809291908181526020018280546135f790614db0565b80156136445780601f1061361957610100808354040283529160200191613644565b820191906000526020600020905b81548152906001019060200180831161362757829003601f168201915b5050505050815260200160048201805461365d90614db0565b80601f016020809104026020016040519081016040528092919081815260200182805461368990614db0565b80156136d65780601f106136ab576101008083540402835291602001916136d6565b820191906000526020600020905b8154815290600101906020018083116136b957829003601f168201915b505050505081526020016005820180546136ef90614db0565b80601f016020809104026020016040519081016040528092919081815260200182805461371b90614db0565b80156137685780601f1061373d57610100808354040283529160200191613768565b820191906000526020600020905b81548152906001019060200180831161374b57829003601f168201915b5050509183525050600682015460208201526007820154604082015260088201546060820152600982015460ff1615156080820152600a9091015460a09091015283518490849081106137bd576137bd614f87565b60200260200101819052505080806137d490614f21565b9150506134e7565b6060600060015b600f548111613822576000818152601160205260409020548490036138105761380d600183614d9d565b91505b8061381a81614f21565b9150506137e3565b506000816001600160401b0381111561383d5761383d614736565b60405190808252806020026020018201604052801561389257816020015b61387f60405180606001604052806000815260200160008152602001600081525090565b81526020019060019003908161385b5790505b5060009250905060015b600f5481116121155760008181526011602052604090205485900361391f57600081815260116020908152604091829020825160608101845281548152600182015492810192909252600281015492820192909252835184908690811061390557613905614f87565b602090810291909101015261391b600185614d9d565b9350505b8061392981614f21565b91505061389c565b6000818152600260205260409020546001600160a01b03166109a85760405162461bcd60e51b8152602060048201526018602482015277115490cdcc8c4e881a5b9d985b1a59081d1bdad95b88125160421b6044820152606401610ad8565b600081815260046020526040902080546001600160a01b0319166001600160a01b03841690811790915581906139c582611d86565b6001600160a01b03167f8c5be1e5ebec7d5bd14f71427d1e84f3dd0314c0f7b2291e5b200ac8c7c3b92560405160405180910390a45050565b600080613a0a83611d86565b9050806001600160a01b0316846001600160a01b03161480613a5157506001600160a01b0380821660009081526005602090815260408083209388168352929052205460ff165b806131c85750836001600160a01b0316613a6a84610a3d565b6001600160a01b031614949350505050565b826001600160a01b0316613a8f82611d86565b6001600160a01b031614613ab55760405162461bcd60e51b8152600401610ad8906150ef565b6001600160a01b038216613b175760405162461bcd60e51b8152602060048201526024808201527f4552433732313a207472616e7366657220746f20746865207a65726f206164646044820152637265737360e01b6064820152608401610ad8565b613b248383836001613f8e565b826001600160a01b0316613b3782611d86565b6001600160a01b031614613b5d5760405162461bcd60e51b8152600401610ad8906150ef565b600081815260046020908152604080832080546001600160a01b03199081169091556001600160a01b0387811680865260038552838620805460001901905590871680865283862080546001019055868652600290945282852080549092168417909155905184937fddf252ad1be2c89b69c2b068fc378daa952ba7f163c4a11628f55a4df523b3ef91a4505050565b6001600160a01b038216613c435760405162461bcd60e51b815260206004820181905260248201527f4552433732313a206d696e7420746f20746865207a65726f20616464726573736044820152606401610ad8565b6000818152600260205260409020546001600160a01b031615613ca85760405162461bcd60e51b815260206004820152601c60248201527f4552433732313a20746f6b656e20616c7265616479206d696e746564000000006044820152606401610ad8565b613cb6600083836001613f8e565b6000818152600260205260409020546001600160a01b031615613d1b5760405162461bcd60e51b815260206004820152601c60248201527f4552433732313a20746f6b656e20616c7265616479206d696e746564000000006044820152606401610ad8565b6001600160a01b038216600081815260036020908152604080832080546001019055848352600290915280822080546001600160a01b0319168417905551839291907fddf252ad1be2c89b69c2b068fc378daa952ba7f163c4a11628f55a4df523b3ef908290a45050565b6000828152600260205260409020546001600160a01b0316613e015760405162461bcd60e51b815260206004820152602e60248201527f45524337323155524953746f726167653a2055524920736574206f66206e6f6e60448201526d32bc34b9ba32b73a103a37b5b2b760911b6064820152608401610ad8565b6000828152600660205260409020610b798282614f9d565b816001600160a01b0316836001600160a01b031603613e7a5760405162461bcd60e51b815260206004820152601960248201527f4552433732313a20617070726f766520746f2063616c6c6572000000000000006044820152606401610ad8565b6001600160a01b03838116600081815260056020908152604080832094871680845294825291829020805460ff191686151590811790915591519182527f17307eab39ab6107e8899845ad3d59bd9653f200f220920489ca2b5937696c31910160405180910390a3505050565b613ef2848484613a7c565b613efe84848484614016565b612c185760405162461bcd60e51b8152600401610ad890615134565b6060613f2582613931565b6000613f3c60408051602081019091526000815290565b90506000815111613f5c5760405180602001604052806000815250613f87565b80613f6684614117565b604051602001613f77929190615087565b6040516020818303038152906040525b9392505050565b6001811115612c18576001600160a01b03841615613fd4576001600160a01b03841660009081526003602052604081208054839290613fce908490614de4565b90915550505b6001600160a01b03831615612c18576001600160a01b0383166000908152600360205260408120805483929061400b908490614d9d565b909155505050505050565b60006001600160a01b0384163b1561410c57604051630a85bd0160e11b81526001600160a01b0385169063150b7a029061405a903390899088908890600401615186565b6020604051808303816000875af1925050508015614095575060408051601f3d908101601f19168201909252614092918101906151c3565b60015b6140f2573d8080156140c3576040519150601f19603f3d011682016040523d82523d6000602084013e6140c8565b606091505b5080516000036140ea5760405162461bcd60e51b8152600401610ad890615134565b805181602001fd5b6001600160e01b031916630a85bd0160e11b1490506131c8565b506001949350505050565b60606000614124836141a9565b60010190506000816001600160401b0381111561414357614143614736565b6040519080825280601f01601f19166020018201604052801561416d576020820181803683370190505b5090508181016020015b600019016f181899199a1a9b1b9c1cb0b131b232b360811b600a86061a8153600a850494508461417757509392505050565b60008072184f03e93ff9f4daa797ed6e38ed64bf6a1f0160401b83106141e85772184f03e93ff9f4daa797ed6e38ed64bf6a1f0160401b830492506040015b6d04ee2d6d415b85acef81000000008310614214576d04ee2d6d415b85acef8100000000830492506020015b662386f26fc10000831061423257662386f26fc10000830492506010015b6305f5e100831061424a576305f5e100830492506008015b612710831061425e57612710830492506004015b60648310614270576064830492506002015b600a831061091b5760010192915050565b50805461428d90614db0565b6000825580601f1061429d575050565b601f0160209004906000526020600020908101906109a89190614356565b604051806101600160405280600081526020016000815260200160608152602001606081526020016060815260200160608152602001600081526020016000815260200160008152602001600015158152602001600081525090565b6040518060c001604052806000815260200160006001600160a01b03168152602001606081526020016060815260200160608152602001606081525090565b5b8082111561436b5760008155600101614357565b5090565b6000806040838503121561438257600080fd5b50508035926020909101359150565b6001600160e01b0319811681146109a857600080fd5b6000602082840312156143b957600080fd5b8135613f8781614391565b6000602082840312156143d657600080fd5b5035919050565b60005b838110156143f85781810151838201526020016143e0565b50506000910152565b600081518084526144198160208601602086016143dd565b601f01601f19169290920160200192915050565b602081526000613f876020830184614401565b80356001600160a01b038116811461445757600080fd5b919050565b6000806040838503121561446f57600080fd5b61447883614440565b946020939093013593505050565b60008060008060008060c0878903121561449f57600080fd5b505084359660208601359650604086013595606081013595506080810135945060a0013592509050565b60008060008060008060c087890312156144e257600080fd5b863595506144f260208801614440565b95989597505050506040840135936060810135936080820135935060a0909101359150565b600080600080600060a0868803121561452f57600080fd5b61453886614440565b97602087013597506040870135966060810135965060800135945092505050565b60008060006060848603121561456e57600080fd5b61457784614440565b925061458560208501614440565b9150604084013590509250925092565b8051825260208101516020830152604081015160408301526060810151606083015260808101516080830152600060a082015160e060a08501526145dc60e0850182614401565b905060c083015184820360c08601526145f58282614401565b95945050505050565b602081526000613f876020830184614595565b60006020808301818452808551808352604092508286019150828160051b87010184880160005b8381101561470d57603f19898403018552815161016081518552888201518986015287820151818987015261466f82870182614401565b915050606080830151868303828801526146898382614401565b92505050608080830151868303828801526146a48382614401565b9250505060a080830151868303828801526146bf8382614401565b60c0858101519089015260e080860151908901526101008086015190890152610120808601511515908901526101409485015194909701939093525050509386019390860190600101614638565b509098975050505050505050565b60006020828403121561472d57600080fd5b613f8782614440565b634e487b7160e01b600052604160045260246000fd5b60006001600160401b038084111561476657614766614736565b604051601f8501601f19908116603f0116810190828211818310171561478e5761478e614736565b816040528093508581528686860111156147a757600080fd5b858560208301376000602087830101525050509392505050565b600082601f8301126147d257600080fd5b613f878383356020850161474c565b600080600080600080600080610100898b0312156147fe57600080fd5b88356001600160401b038082111561481557600080fd5b6148218c838d016147c1565b995060208b013591508082111561483757600080fd5b6148438c838d016147c1565b985060408b013591508082111561485957600080fd5b6148658c838d016147c1565b975060608b013591508082111561487b57600080fd5b506148888b828c016147c1565b989b979a50959860808101359760a0820135975060c0820135965060e090910135945092505050565b60208082528251828201819052600091906040908185019086840185805b838110156149295782518051865287810151888701528681015187870152606080820151908701526080808201519087015260a0808201519087015260c090810151830b9086015260e090940193918601916001016148cf565b509298975050505050505050565b602080825282518282018190526000919060409081850190868401855b828110156149835781518051855286810151878601528501518585015260609093019290850190600101614954565b5091979650505050505050565b6000602080830181845280855180835260408601915060408160051b870101925083870160005b828110156149e557603f198886030184526149d3858351614595565b945092850192908501906001016149b7565b5092979650505050505050565b600080600080600060a08688031215614a0a57600080fd5b85359450602086013593506040860135925060608601356001600160401b0380821115614a3657600080fd5b614a4289838a016147c1565b93506080880135915080821115614a5857600080fd5b50614a65888289016147c1565b9150509295509295909350565b600080600080600060a08688031215614a8a57600080fd5b614a9386614440565b945060208601356001600160401b0380821115614aaf57600080fd5b614abb89838a016147c1565b95506040880135915080821115614ad157600080fd5b614add89838a016147c1565b94506060880135915080821115614a3657600080fd5b8051825260018060a01b0360208201511660208301526000604082015160c06040850152614b2460c0850182614401565b905060608301518482036060860152614b3d8282614401565b91505060808301518482036080860152614b578282614401565b91505060a083015184820360a08601526145f58282614401565b602081526000613f876020830184614af3565b60008060408385031215614b9757600080fd5b614ba083614440565b915060208301358015158114614bb557600080fd5b809150509250929050565b6000602080830181845280855180835260408601915060408160051b870101925083870160005b828110156149e557603f19888603018452614c03858351614af3565b94509285019290850190600101614be7565b60008060008060808587031215614c2b57600080fd5b614c3485614440565b9350614c4260208601614440565b92506040850135915060608501356001600160401b03811115614c6457600080fd5b8501601f81018713614c7557600080fd5b614c848782356020840161474c565b91505092959194509250565b60008060408385031215614ca357600080fd5b82356001600160401b0380821115614cba57600080fd5b614cc6868387016147c1565b93506020850135915080821115614cdc57600080fd5b50614ce9858286016147c1565b9150509250929050565b602080825282518282018190526000919060409081850190868401855b828110156149835781518051855286810151878601528581015186860152606080820151908601526080908101519085015260a09093019290850190600101614d10565b60008060408385031215614d6757600080fd5b614d7083614440565b9150614d7e60208401614440565b90509250929050565b634e487b7160e01b600052601160045260246000fd5b8082018082111561091b5761091b614d87565b600181811c90821680614dc457607f821691505b60208210810361171257634e487b7160e01b600052602260045260246000fd5b8181038181111561091b5761091b614d87565b601f821115610b7957600081815260208120601f850160051c81016020861015614e1e5750805b601f850160051c820191505b81811015614e3d57828155600101614e2a565b505050505050565b818103614e50575050565b614e5a8254614db0565b6001600160401b03811115614e7157614e71614736565b614e8581614e7f8454614db0565b84614df7565b6000601f821160018114614eb95760008315614ea15750848201545b600019600385901b1c1916600184901b17845561041c565b600085815260209020601f19841690600086815260209020845b83811015614ef35782860154825560019586019590910190602001614ed3565b5085831015614f115781850154600019600388901b60f8161c191681555b5050505050600190811b01905550565b600060018201614f3357614f33614d87565b5060010190565b6020808252602d908201527f4552433732313a2063616c6c6572206973206e6f7420746f6b656e206f776e6560408201526c1c881bdc88185c1c1c9bdd9959609a1b606082015260800190565b634e487b7160e01b600052603260045260246000fd5b81516001600160401b03811115614fb657614fb6614736565b614fc481614e7f8454614db0565b602080601f831160018114614ff95760008415614fe15750858301515b600019600386901b1c1916600185901b178555614e3d565b600085815260208120601f198616915b8281101561502857888601518255948401946001909101908401615009565b5085821015614f1157939096015160001960f8600387901b161c19169092555050600190811b01905550565b808202811582820484141761091b5761091b614d87565b6000825161507d8184602087016143dd565b9190910192915050565b600083516150998184602088016143dd565b8351908301906150ad8183602088016143dd565b01949350505050565b6000816150c5576150c5614d87565b506000190190565b6000826150ea57634e487b7160e01b600052601260045260246000fd5b500490565b60208082526025908201527f4552433732313a207472616e736665722066726f6d20696e636f72726563742060408201526437bbb732b960d91b606082015260800190565b60208082526032908201527f4552433732313a207472616e7366657220746f206e6f6e20455243373231526560408201527131b2b4bb32b91034b6b83632b6b2b73a32b960711b606082015260800190565b6001600160a01b03858116825284166020820152604081018390526080606082018190526000906151b990830184614401565b9695505050505050565b6000602082840312156151d557600080fd5b8151613f878161439156fea26469706673582212206a5abca6de96a794861904158250aff064547430ec69f6980b75c71334dbd1ee64736f6c63430008110033","opcodes":"PUSH1 0x80 PUSH1 0x40 MSTORE CALLVALUE DUP1 ISZERO PUSH3 0x11 JUMPI PUSH1 0x0 DUP1 REVERT JUMPDEST POP PUSH1 0x40 MLOAD DUP1 PUSH1 0x40 ADD PUSH1 0x40 MSTORE DUP1 PUSH1 0x6 DUP2 MSTORE PUSH1 0x20 ADD PUSH6 0x66646A6B6C73 PUSH1 0xD0 SHL DUP2 MSTORE POP PUSH1 0x40 MLOAD DUP1 PUSH1 0x40 ADD PUSH1 0x40 MSTORE DUP1 PUSH1 0x4 DUP2 MSTORE PUSH1 0x20 ADD PUSH4 0x6A6C6B73 PUSH1 0xE0 SHL DUP2 MSTORE POP DUP2 PUSH1 0x0 SWAP1 DUP2 PUSH3 0x5F SWAP2 SWAP1 PUSH3 0x12E JUMP JUMPDEST POP PUSH1 0x1 PUSH3 0x6E DUP3 DUP3 PUSH3 0x12E JUMP JUMPDEST POP POP PUSH1 0x7 DUP1 SLOAD PUSH1 0x1 PUSH1 0x1 PUSH1 0xA0 SHL SUB NOT AND CALLER OR SWAP1 SSTORE POP PUSH3 0x1FA JUMP JUMPDEST PUSH4 0x4E487B71 PUSH1 0xE0 SHL PUSH1 0x0 MSTORE PUSH1 0x41 PUSH1 0x4 MSTORE PUSH1 0x24 PUSH1 0x0 REVERT JUMPDEST PUSH1 0x1 DUP2 DUP2 SHR SWAP1 DUP3 AND DUP1 PUSH3 0xB4 JUMPI PUSH1 0x7F DUP3 AND SWAP2 POP JUMPDEST PUSH1 0x20 DUP3 LT DUP2 SUB PUSH3 0xD5 JUMPI PUSH4 0x4E487B71 PUSH1 0xE0 SHL PUSH1 0x0 MSTORE PUSH1 0x22 PUSH1 0x4 MSTORE PUSH1 0x24 PUSH1 0x0 REVERT JUMPDEST POP SWAP2 SWAP1 POP JUMP JUMPDEST PUSH1 0x1F DUP3 GT ISZERO PUSH3 0x129 JUMPI PUSH1 0x0 DUP2 DUP2 MSTORE PUSH1 0x20 DUP2 KECCAK256 PUSH1 0x1F DUP6 ADD PUSH1 0x5 SHR DUP2 ADD PUSH1 0x20 DUP7 LT ISZERO PUSH3 0x104 JUMPI POP DUP1 JUMPDEST PUSH1 0x1F DUP6 ADD PUSH1 0x5 SHR DUP3 ADD SWAP2 POP JUMPDEST DUP2 DUP2 LT ISZERO PUSH3 0x125 JUMPI DUP3 DUP2 SSTORE PUSH1 0x1 ADD PUSH3 0x110 JUMP JUMPDEST POP POP POP JUMPDEST POP POP POP JUMP JUMPDEST DUP2 MLOAD PUSH1 0x1 PUSH1 0x1 PUSH1 0x40 SHL SUB DUP2 GT ISZERO PUSH3 0x14A JUMPI PUSH3 0x14A PUSH3 0x89 JUMP JUMPDEST PUSH3 0x162 DUP2 PUSH3 0x15B DUP5 SLOAD PUSH3 0x9F JUMP JUMPDEST DUP5 PUSH3 0xDB JUMP JUMPDEST PUSH1 0x20 DUP1 PUSH1 0x1F DUP4 GT PUSH1 0x1 DUP2 EQ PUSH3 0x19A JUMPI PUSH1 0x0 DUP5 ISZERO PUSH3 0x181 JUMPI POP DUP6 DUP4 ADD MLOAD JUMPDEST PUSH1 0x0 NOT PUSH1 0x3 DUP7 SWAP1 SHL SHR NOT AND PUSH1 0x1 DUP6 SWAP1 SHL OR DUP6 SSTORE PUSH3 0x125 JUMP JUMPDEST PUSH1 0x0 DUP6 DUP2 MSTORE PUSH1 0x20 DUP2 KECCAK256 PUSH1 0x1F NOT DUP7 AND SWAP2 JUMPDEST DUP3 DUP2 LT ISZERO PUSH3 0x1CB JUMPI DUP9 DUP7 ADD MLOAD DUP3 SSTORE SWAP5 DUP5 ADD SWAP5 PUSH1 0x1 SWAP1 SWAP2 ADD SWAP1 DUP5 ADD PUSH3 0x1AA JUMP JUMPDEST POP DUP6 DUP3 LT ISZERO PUSH3 0x1EA JUMPI DUP8 DUP6 ADD MLOAD PUSH1 0x0 NOT PUSH1 0x3 DUP9 SWAP1 SHL PUSH1 0xF8 AND SHR NOT AND DUP2 SSTORE JUMPDEST POP POP POP POP POP PUSH1 0x1 SWAP1 DUP2 SHL ADD SWAP1 SSTORE POP JUMP JUMPDEST PUSH2 0x5216 DUP1 PUSH3 0x20A PUSH1 0x0 CODECOPY PUSH1 0x0 RETURN INVALID PUSH1 0x80 PUSH1 0x40 MSTORE PUSH1 0x4 CALLDATASIZE LT PUSH2 0x27D JUMPI PUSH1 0x0 CALLDATALOAD PUSH1 0xE0 SHR DUP1 PUSH4 0x502FF310 GT PUSH2 0x14F JUMPI DUP1 PUSH4 0x9F900A18 GT PUSH2 0xC1 JUMPI DUP1 PUSH4 0xC63AF15F GT PUSH2 0x7A JUMPI DUP1 PUSH4 0xC63AF15F EQ PUSH2 0x808 JUMPI DUP1 PUSH4 0xC87B56DD EQ PUSH2 0x835 JUMPI DUP1 PUSH4 0xD9E8843F EQ PUSH2 0x855 JUMPI DUP1 PUSH4 0xE44176D8 EQ PUSH2 0x868 JUMPI DUP1 PUSH4 0xE980509C EQ PUSH2 0x87D JUMPI DUP1 PUSH4 0xE985E9C5 EQ PUSH2 0x89D JUMPI PUSH1 0x0 DUP1 REVERT JUMPDEST DUP1 PUSH4 0x9F900A18 EQ PUSH2 0x744 JUMPI DUP1 PUSH4 0xA22CB465 EQ PUSH2 0x771 JUMPI DUP1 PUSH4 0xAD509E8D EQ PUSH2 0x791 JUMPI DUP1 PUSH4 0xB88D4FDE EQ PUSH2 0x7B3 JUMPI DUP1 PUSH4 0xBED34BBA EQ PUSH2 0x7D3 JUMPI DUP1 PUSH4 0xC3374315 EQ PUSH2 0x7F3 JUMPI PUSH1 0x0 DUP1 REVERT JUMPDEST DUP1 PUSH4 0x7190314A GT PUSH2 0x113 JUMPI DUP1 PUSH4 0x7190314A EQ PUSH2 0x674 JUMPI DUP1 PUSH4 0x801C6767 EQ PUSH2 0x6A1 JUMPI DUP1 PUSH4 0x8CFFD853 EQ PUSH2 0x6CE JUMPI DUP1 PUSH4 0x8F32D59B EQ PUSH2 0x6EE JUMPI DUP1 PUSH4 0x95D89B41 EQ PUSH2 0x70F JUMPI DUP1 PUSH4 0x999EAB2B EQ PUSH2 0x724 JUMPI PUSH1 0x0 DUP1 REVERT JUMPDEST DUP1 PUSH4 0x502FF310 EQ PUSH2 0x5D2 JUMPI DUP1 PUSH4 0x5097BEF8 EQ PUSH2 0x5F2 JUMPI DUP1 PUSH4 0x6352211E EQ PUSH2 0x612 JUMPI DUP1 PUSH4 0x661B4CC2 EQ PUSH2 0x632 JUMPI DUP1 PUSH4 0x70A08231 EQ PUSH2 0x654 JUMPI PUSH1 0x0 DUP1 REVERT JUMPDEST DUP1 PUSH4 0x23B872DD GT PUSH2 0x1F3 JUMPI DUP1 PUSH4 0x42842E0E GT PUSH2 0x1AC JUMPI DUP1 PUSH4 0x42842E0E EQ PUSH2 0x500 JUMPI DUP1 PUSH4 0x4D770CA0 EQ PUSH2 0x520 JUMPI DUP1 PUSH4 0x4D813120 EQ PUSH2 0x542 JUMPI DUP1 PUSH4 0x4DC92885 EQ PUSH2 0x562 JUMPI DUP1 PUSH4 0x4F92E87D EQ PUSH2 0x582 JUMPI DUP1 PUSH4 0x4FEB2982 EQ PUSH2 0x5A2 JUMPI PUSH1 0x0 DUP1 REVERT JUMPDEST DUP1 PUSH4 0x23B872DD EQ PUSH2 0x423 JUMPI DUP1 PUSH4 0x31793FEE EQ PUSH2 0x443 JUMPI DUP1 PUSH4 0x3B682632 EQ PUSH2 0x463 JUMPI DUP1 PUSH4 0x3C2CFF22 EQ PUSH2 0x483 JUMPI DUP1 PUSH4 0x3FD7F8B8 EQ PUSH2 0x4A3 JUMPI DUP1 PUSH4 0x3FFC0D10 EQ PUSH2 0x4D3 JUMPI PUSH1 0x0 DUP1 REVERT JUMPDEST DUP1 PUSH4 0x95EA7B3 GT PUSH2 0x245 JUMPI DUP1 PUSH4 0x95EA7B3 EQ PUSH2 0x353 JUMPI DUP1 PUSH4 0x11A80F7E EQ PUSH2 0x373 JUMPI DUP1 PUSH4 0x1396F769 EQ PUSH2 0x3A1 JUMPI DUP1 PUSH4 0x18C5C090 EQ PUSH2 0x3C1 JUMPI DUP1 PUSH4 0x1C468F0B EQ PUSH2 0x3E1 JUMPI DUP1 PUSH4 0x1CD8F3C5 EQ PUSH2 0x401 JUMPI PUSH1 0x0 DUP1 REVERT JUMPDEST DUP1 PUSH4 0x1C2B352 EQ PUSH2 0x282 JUMPI DUP1 PUSH4 0x1FFC9A7 EQ PUSH2 0x2B7 JUMPI DUP1 PUSH4 0x5BF37AA EQ PUSH2 0x2D7 JUMPI DUP1 PUSH4 0x6FDDE03 EQ PUSH2 0x2F9 JUMPI DUP1 PUSH4 0x81812FC EQ PUSH2 0x31B JUMPI JUMPDEST PUSH1 0x0 DUP1 REVERT JUMPDEST CALLVALUE DUP1 ISZERO PUSH2 0x28E JUMPI PUSH1 0x0 DUP1 REVERT JUMPDEST POP PUSH2 0x2A2 PUSH2 0x29D CALLDATASIZE PUSH1 0x4 PUSH2 0x436F JUMP JUMPDEST PUSH2 0x8E6 JUMP JUMPDEST PUSH1 0x40 MLOAD SWAP1 ISZERO ISZERO DUP2 MSTORE PUSH1 0x20 ADD JUMPDEST PUSH1 0x40 MLOAD DUP1 SWAP2 SUB SWAP1 RETURN JUMPDEST CALLVALUE DUP1 ISZERO PUSH2 0x2C3 JUMPI PUSH1 0x0 DUP1 REVERT JUMPDEST POP PUSH2 0x2A2 PUSH2 0x2D2 CALLDATASIZE PUSH1 0x4 PUSH2 0x43A7 JUMP JUMPDEST PUSH2 0x921 JUMP JUMPDEST CALLVALUE DUP1 ISZERO PUSH2 0x2E3 JUMPI PUSH1 0x0 DUP1 REVERT JUMPDEST POP PUSH2 0x2F7 PUSH2 0x2F2 CALLDATASIZE PUSH1 0x4 PUSH2 0x43C4 JUMP JUMPDEST PUSH2 0x971 JUMP JUMPDEST STOP JUMPDEST CALLVALUE DUP1 ISZERO PUSH2 0x305 JUMPI PUSH1 0x0 DUP1 REVERT JUMPDEST POP PUSH2 0x30E PUSH2 0x9AB JUMP JUMPDEST PUSH1 0x40 MLOAD PUSH2 0x2AE SWAP2 SWAP1 PUSH2 0x442D JUMP JUMPDEST CALLVALUE DUP1 ISZERO PUSH2 0x327 JUMPI PUSH1 0x0 DUP1 REVERT JUMPDEST POP PUSH2 0x33B PUSH2 0x336 CALLDATASIZE PUSH1 0x4 PUSH2 0x43C4 JUMP JUMPDEST PUSH2 0xA3D JUMP JUMPDEST PUSH1 0x40 MLOAD PUSH1 0x1 PUSH1 0x1 PUSH1 0xA0 SHL SUB SWAP1 SWAP2 AND DUP2 MSTORE PUSH1 0x20 ADD PUSH2 0x2AE JUMP JUMPDEST CALLVALUE DUP1 ISZERO PUSH2 0x35F JUMPI PUSH1 0x0 DUP1 REVERT JUMPDEST POP PUSH2 0x2F7 PUSH2 0x36E CALLDATASIZE PUSH1 0x4 PUSH2 0x445C JUMP JUMPDEST PUSH2 0xA64 JUMP JUMPDEST CALLVALUE DUP1 ISZERO PUSH2 0x37F JUMPI PUSH1 0x0 DUP1 REVERT JUMPDEST POP PUSH2 0x393 PUSH2 0x38E CALLDATASIZE PUSH1 0x4 PUSH2 0x4486 JUMP JUMPDEST PUSH2 0xB7E JUMP JUMPDEST PUSH1 0x40 MLOAD SWAP1 DUP2 MSTORE PUSH1 0x20 ADD PUSH2 0x2AE JUMP JUMPDEST CALLVALUE DUP1 ISZERO PUSH2 0x3AD JUMPI PUSH1 0x0 DUP1 REVERT JUMPDEST POP PUSH2 0x2F7 PUSH2 0x3BC CALLDATASIZE PUSH1 0x4 PUSH2 0x43C4 JUMP JUMPDEST PUSH2 0xC38 JUMP JUMPDEST CALLVALUE DUP1 ISZERO PUSH2 0x3CD JUMPI PUSH1 0x0 DUP1 REVERT JUMPDEST POP PUSH2 0x2F7 PUSH2 0x3DC CALLDATASIZE PUSH1 0x4 PUSH2 0x43C4 JUMP JUMPDEST PUSH2 0xF29 JUMP JUMPDEST CALLVALUE DUP1 ISZERO PUSH2 0x3ED JUMPI PUSH1 0x0 DUP1 REVERT JUMPDEST POP PUSH2 0x2F7 PUSH2 0x3FC CALLDATASIZE PUSH1 0x4 PUSH2 0x44C9 JUMP JUMPDEST PUSH2 0xF62 JUMP JUMPDEST CALLVALUE DUP1 ISZERO PUSH2 0x40D JUMPI PUSH1 0x0 DUP1 REVERT JUMPDEST POP PUSH2 0x2F7 PUSH2 0x41C CALLDATASIZE PUSH1 0x4 PUSH2 0x4517 JUMP JUMPDEST POP POP POP POP POP JUMP JUMPDEST CALLVALUE DUP1 ISZERO PUSH2 0x42F JUMPI PUSH1 0x0 DUP1 REVERT JUMPDEST POP PUSH2 0x2F7 PUSH2 0x43E CALLDATASIZE PUSH1 0x4 PUSH2 0x4559 JUMP JUMPDEST PUSH2 0x1150 JUMP JUMPDEST CALLVALUE DUP1 ISZERO PUSH2 0x44F JUMPI PUSH1 0x0 DUP1 REVERT JUMPDEST POP PUSH2 0x2F7 PUSH2 0x45E CALLDATASIZE PUSH1 0x4 PUSH2 0x436F JUMP JUMPDEST PUSH2 0x1181 JUMP JUMPDEST CALLVALUE DUP1 ISZERO PUSH2 0x46F JUMPI PUSH1 0x0 DUP1 REVERT JUMPDEST POP PUSH2 0x2F7 PUSH2 0x47E CALLDATASIZE PUSH1 0x4 PUSH2 0x43C4 JUMP JUMPDEST PUSH2 0x11AB JUMP JUMPDEST CALLVALUE DUP1 ISZERO PUSH2 0x48F JUMPI PUSH1 0x0 DUP1 REVERT JUMPDEST POP PUSH2 0x2A2 PUSH2 0x49E CALLDATASIZE PUSH1 0x4 PUSH2 0x436F JUMP JUMPDEST PUSH2 0x11BE JUMP JUMPDEST CALLVALUE DUP1 ISZERO PUSH2 0x4AF JUMPI PUSH1 0x0 DUP1 REVERT JUMPDEST POP PUSH2 0x2F7 PUSH2 0x4BE CALLDATASIZE PUSH1 0x4 PUSH2 0x436F JUMP JUMPDEST PUSH1 0x0 SWAP2 DUP3 MSTORE PUSH1 0x17 PUSH1 0x20 MSTORE PUSH1 0x40 SWAP1 SWAP2 KECCAK256 PUSH1 0x4 ADD SSTORE JUMP JUMPDEST CALLVALUE DUP1 ISZERO PUSH2 0x4DF JUMPI PUSH1 0x0 DUP1 REVERT JUMPDEST POP PUSH2 0x4F3 PUSH2 0x4EE CALLDATASIZE PUSH1 0x4 PUSH2 0x43C4 JUMP JUMPDEST PUSH2 0x11EA JUMP JUMPDEST PUSH1 0x40 MLOAD PUSH2 0x2AE SWAP2 SWAP1 PUSH2 0x45FE JUMP JUMPDEST CALLVALUE DUP1 ISZERO PUSH2 0x50C JUMPI PUSH1 0x0 DUP1 REVERT JUMPDEST POP PUSH2 0x2F7 PUSH2 0x51B CALLDATASIZE PUSH1 0x4 PUSH2 0x4559 JUMP JUMPDEST PUSH2 0x13A5 JUMP JUMPDEST CALLVALUE DUP1 ISZERO PUSH2 0x52C JUMPI PUSH1 0x0 DUP1 REVERT JUMPDEST POP PUSH2 0x535 PUSH2 0x13C0 JUMP JUMPDEST PUSH1 0x40 MLOAD PUSH2 0x2AE SWAP2 SWAP1 PUSH2 0x4611 JUMP JUMPDEST CALLVALUE DUP1 ISZERO PUSH2 0x54E JUMPI PUSH1 0x0 DUP1 REVERT JUMPDEST POP PUSH2 0x2F7 PUSH2 0x55D CALLDATASIZE PUSH1 0x4 PUSH2 0x471B JUMP JUMPDEST PUSH2 0x1718 JUMP JUMPDEST CALLVALUE DUP1 ISZERO PUSH2 0x56E JUMPI PUSH1 0x0 DUP1 REVERT JUMPDEST POP PUSH2 0x2F7 PUSH2 0x57D CALLDATASIZE PUSH1 0x4 PUSH2 0x471B JUMP JUMPDEST PUSH2 0x19A0 JUMP JUMPDEST CALLVALUE DUP1 ISZERO PUSH2 0x58E JUMPI PUSH1 0x0 DUP1 REVERT JUMPDEST POP PUSH2 0x2F7 PUSH2 0x59D CALLDATASIZE PUSH1 0x4 PUSH2 0x436F JUMP JUMPDEST PUSH2 0x1AE5 JUMP JUMPDEST CALLVALUE DUP1 ISZERO PUSH2 0x5AE JUMPI PUSH1 0x0 DUP1 REVERT JUMPDEST POP PUSH2 0x2F7 PUSH2 0x5BD CALLDATASIZE PUSH1 0x4 PUSH2 0x436F JUMP JUMPDEST PUSH1 0x0 SWAP2 DUP3 MSTORE PUSH1 0x15 PUSH1 0x20 MSTORE PUSH1 0x40 SWAP1 SWAP2 KECCAK256 PUSH1 0xA ADD SSTORE JUMP JUMPDEST CALLVALUE DUP1 ISZERO PUSH2 0x5DE JUMPI PUSH1 0x0 DUP1 REVERT JUMPDEST POP PUSH2 0x2F7 PUSH2 0x5ED CALLDATASIZE PUSH1 0x4 PUSH2 0x44C9 JUMP JUMPDEST PUSH2 0x1B2C JUMP JUMPDEST CALLVALUE DUP1 ISZERO PUSH2 0x5FE JUMPI PUSH1 0x0 DUP1 REVERT JUMPDEST POP PUSH2 0x2F7 PUSH2 0x60D CALLDATASIZE PUSH1 0x4 PUSH2 0x47E1 JUMP JUMPDEST PUSH2 0x1C4A JUMP JUMPDEST CALLVALUE DUP1 ISZERO PUSH2 0x61E JUMPI PUSH1 0x0 DUP1 REVERT JUMPDEST POP PUSH2 0x33B PUSH2 0x62D CALLDATASIZE PUSH1 0x4 PUSH2 0x43C4 JUMP JUMPDEST PUSH2 0x1D86 JUMP JUMPDEST CALLVALUE DUP1 ISZERO PUSH2 0x63E JUMPI PUSH1 0x0 DUP1 REVERT JUMPDEST POP PUSH2 0x647 PUSH2 0x1DE6 JUMP JUMPDEST PUSH1 0x40 MLOAD PUSH2 0x2AE SWAP2 SWAP1 PUSH2 0x48B1 JUMP JUMPDEST CALLVALUE DUP1 ISZERO PUSH2 0x660 JUMPI PUSH1 0x0 DUP1 REVERT JUMPDEST POP PUSH2 0x393 PUSH2 0x66F CALLDATASIZE PUSH1 0x4 PUSH2 0x471B JUMP JUMPDEST PUSH2 0x1F1A JUMP JUMPDEST CALLVALUE DUP1 ISZERO PUSH2 0x680 JUMPI PUSH1 0x0 DUP1 REVERT JUMPDEST POP PUSH2 0x694 PUSH2 0x68F CALLDATASIZE PUSH1 0x4 PUSH2 0x43C4 JUMP JUMPDEST PUSH2 0x1FA0 JUMP JUMPDEST PUSH1 0x40 MLOAD PUSH2 0x2AE SWAP2 SWAP1 PUSH2 0x4937 JUMP JUMPDEST CALLVALUE DUP1 ISZERO PUSH2 0x6AD JUMPI PUSH1 0x0 DUP1 REVERT JUMPDEST POP PUSH2 0x6C1 PUSH2 0x6BC CALLDATASIZE PUSH1 0x4 PUSH2 0x43C4 JUMP JUMPDEST PUSH2 0x211D JUMP JUMPDEST PUSH1 0x40 MLOAD PUSH2 0x2AE SWAP2 SWAP1 PUSH2 0x4990 JUMP JUMPDEST CALLVALUE DUP1 ISZERO PUSH2 0x6DA JUMPI PUSH1 0x0 DUP1 REVERT JUMPDEST POP PUSH2 0x2F7 PUSH2 0x6E9 CALLDATASIZE PUSH1 0x4 PUSH2 0x49F2 JUMP JUMPDEST PUSH2 0x23E6 JUMP JUMPDEST CALLVALUE DUP1 ISZERO PUSH2 0x6FA JUMPI PUSH1 0x0 DUP1 REVERT JUMPDEST POP PUSH2 0x2A2 PUSH1 0x7 SLOAD PUSH1 0x1 PUSH1 0x1 PUSH1 0xA0 SHL SUB AND CALLER EQ SWAP1 JUMP JUMPDEST CALLVALUE DUP1 ISZERO PUSH2 0x71B JUMPI PUSH1 0x0 DUP1 REVERT JUMPDEST POP PUSH2 0x30E PUSH2 0x24F9 JUMP JUMPDEST CALLVALUE DUP1 ISZERO PUSH2 0x730 JUMPI PUSH1 0x0 DUP1 REVERT JUMPDEST POP PUSH2 0x2F7 PUSH2 0x73F CALLDATASIZE PUSH1 0x4 PUSH2 0x4A72 JUMP JUMPDEST PUSH2 0x2508 JUMP JUMPDEST CALLVALUE DUP1 ISZERO PUSH2 0x750 JUMPI PUSH1 0x0 DUP1 REVERT JUMPDEST POP PUSH2 0x764 PUSH2 0x75F CALLDATASIZE PUSH1 0x4 PUSH2 0x471B JUMP JUMPDEST PUSH2 0x25E7 JUMP JUMPDEST PUSH1 0x40 MLOAD PUSH2 0x2AE SWAP2 SWAP1 PUSH2 0x4B71 JUMP JUMPDEST CALLVALUE DUP1 ISZERO PUSH2 0x77D JUMPI PUSH1 0x0 DUP1 REVERT JUMPDEST POP PUSH2 0x2F7 PUSH2 0x78C CALLDATASIZE PUSH1 0x4 PUSH2 0x4B84 JUMP JUMPDEST PUSH2 0x28BC JUMP JUMPDEST CALLVALUE DUP1 ISZERO PUSH2 0x79D JUMPI PUSH1 0x0 DUP1 REVERT JUMPDEST POP PUSH2 0x7A6 PUSH2 0x28CB JUMP JUMPDEST PUSH1 0x40 MLOAD PUSH2 0x2AE SWAP2 SWAP1 PUSH2 0x4BC0 JUMP JUMPDEST CALLVALUE DUP1 ISZERO PUSH2 0x7BF JUMPI PUSH1 0x0 DUP1 REVERT JUMPDEST POP PUSH2 0x2F7 PUSH2 0x7CE CALLDATASIZE PUSH1 0x4 PUSH2 0x4C15 JUMP JUMPDEST PUSH2 0x2BE6 JUMP JUMPDEST CALLVALUE DUP1 ISZERO PUSH2 0x7DF JUMPI PUSH1 0x0 DUP1 REVERT JUMPDEST POP PUSH2 0x2A2 PUSH2 0x7EE CALLDATASIZE PUSH1 0x4 PUSH2 0x4C90 JUMP JUMPDEST PUSH2 0x2C1E JUMP JUMPDEST CALLVALUE DUP1 ISZERO PUSH2 0x7FF JUMPI PUSH1 0x0 DUP1 REVERT JUMPDEST POP PUSH2 0x7A6 PUSH2 0x2C77 JUMP JUMPDEST CALLVALUE DUP1 ISZERO PUSH2 0x814 JUMPI PUSH1 0x0 DUP1 REVERT JUMPDEST POP PUSH2 0x828 PUSH2 0x823 CALLDATASIZE PUSH1 0x4 PUSH2 0x43C4 JUMP JUMPDEST PUSH2 0x2F92 JUMP JUMPDEST PUSH1 0x40 MLOAD PUSH2 0x2AE SWAP2 SWAP1 PUSH2 0x4CF3 JUMP JUMPDEST CALLVALUE DUP1 ISZERO PUSH2 0x841 JUMPI PUSH1 0x0 DUP1 REVERT JUMPDEST POP PUSH2 0x30E PUSH2 0x850 CALLDATASIZE PUSH1 0x4 PUSH2 0x43C4 JUMP JUMPDEST PUSH2 0x30C0 JUMP JUMPDEST PUSH2 0x2F7 PUSH2 0x863 CALLDATASIZE PUSH1 0x4 PUSH2 0x43C4 JUMP JUMPDEST PUSH2 0x31D0 JUMP JUMPDEST CALLVALUE DUP1 ISZERO PUSH2 0x874 JUMPI PUSH1 0x0 DUP1 REVERT JUMPDEST POP PUSH2 0x535 PUSH2 0x348A JUMP JUMPDEST CALLVALUE DUP1 ISZERO PUSH2 0x889 JUMPI PUSH1 0x0 DUP1 REVERT JUMPDEST POP PUSH2 0x694 PUSH2 0x898 CALLDATASIZE PUSH1 0x4 PUSH2 0x43C4 JUMP JUMPDEST PUSH2 0x37DC JUMP JUMPDEST CALLVALUE DUP1 ISZERO PUSH2 0x8A9 JUMPI PUSH1 0x0 DUP1 REVERT JUMPDEST POP PUSH2 0x2A2 PUSH2 0x8B8 CALLDATASIZE PUSH1 0x4 PUSH2 0x4D54 JUMP JUMPDEST PUSH1 0x1 PUSH1 0x1 PUSH1 0xA0 SHL SUB SWAP2 DUP3 AND PUSH1 0x0 SWAP1 DUP2 MSTORE PUSH1 0x5 PUSH1 0x20 SWAP1 DUP2 MSTORE PUSH1 0x40 DUP1 DUP4 KECCAK256 SWAP4 SWAP1 SWAP5 AND DUP3 MSTORE SWAP2 SWAP1 SWAP2 MSTORE KECCAK256 SLOAD PUSH1 0xFF AND SWAP1 JUMP JUMPDEST PUSH1 0x0 DUP3 DUP2 MSTORE PUSH1 0x17 PUSH1 0x20 MSTORE PUSH1 0x40 DUP2 KECCAK256 PUSH1 0x2 DUP2 ADD SLOAD PUSH1 0x3 SWAP1 SWAP2 ADD SLOAD PUSH2 0x90A SWAP1 DUP5 SWAP1 PUSH2 0x4D9D JUMP JUMPDEST GT PUSH2 0x917 JUMPI POP PUSH1 0x1 PUSH2 0x91B JUMP JUMPDEST POP PUSH1 0x0 JUMPDEST SWAP3 SWAP2 POP POP JUMP JUMPDEST PUSH1 0x0 PUSH1 0x1 PUSH1 0x1 PUSH1 0xE0 SHL SUB NOT DUP3 AND PUSH4 0x80AC58CD PUSH1 0xE0 SHL EQ DUP1 PUSH2 0x952 JUMPI POP PUSH1 0x1 PUSH1 0x1 PUSH1 0xE0 SHL SUB NOT DUP3 AND PUSH4 0x5B5E139F PUSH1 0xE0 SHL EQ JUMPDEST DUP1 PUSH2 0x91B JUMPI POP PUSH4 0x1FFC9A7 PUSH1 0xE0 SHL PUSH1 0x1 PUSH1 0x1 PUSH1 0xE0 SHL SUB NOT DUP4 AND EQ PUSH2 0x91B JUMP JUMPDEST PUSH1 0x0 DUP2 DUP2 MSTORE PUSH1 0x14 PUSH1 0x20 MSTORE PUSH1 0x40 DUP2 KECCAK256 PUSH1 0x6 ADD SLOAD DUP2 SIGNEXTEND SWAP1 SUB PUSH2 0x9A8 JUMPI PUSH1 0x0 DUP2 DUP2 MSTORE PUSH1 0x14 PUSH1 0x20 MSTORE PUSH1 0x40 SWAP1 KECCAK256 PUSH1 0x6 ADD DUP1 SLOAD PUSH1 0xFF NOT AND PUSH1 0x2 OR SWAP1 SSTORE JUMPDEST POP JUMP JUMPDEST PUSH1 0x60 PUSH1 0x0 DUP1 SLOAD PUSH2 0x9BA SWAP1 PUSH2 0x4DB0 JUMP JUMPDEST DUP1 PUSH1 0x1F ADD PUSH1 0x20 DUP1 SWAP2 DIV MUL PUSH1 0x20 ADD PUSH1 0x40 MLOAD SWAP1 DUP2 ADD PUSH1 0x40 MSTORE DUP1 SWAP3 SWAP2 SWAP1 DUP2 DUP2 MSTORE PUSH1 0x20 ADD DUP3 DUP1 SLOAD PUSH2 0x9E6 SWAP1 PUSH2 0x4DB0 JUMP JUMPDEST DUP1 ISZERO PUSH2 0xA33 JUMPI DUP1 PUSH1 0x1F LT PUSH2 0xA08 JUMPI PUSH2 0x100 DUP1 DUP4 SLOAD DIV MUL DUP4 MSTORE SWAP2 PUSH1 0x20 ADD SWAP2 PUSH2 0xA33 JUMP JUMPDEST DUP3 ADD SWAP2 SWAP1 PUSH1 0x0 MSTORE PUSH1 0x20 PUSH1 0x0 KECCAK256 SWAP1 JUMPDEST DUP2 SLOAD DUP2 MSTORE SWAP1 PUSH1 0x1 ADD SWAP1 PUSH1 0x20 ADD DUP1 DUP4 GT PUSH2 0xA16 JUMPI DUP3 SWAP1 SUB PUSH1 0x1F AND DUP3 ADD SWAP2 JUMPDEST POP POP POP POP POP SWAP1 POP SWAP1 JUMP JUMPDEST PUSH1 0x0 PUSH2 0xA48 DUP3 PUSH2 0x3931 JUMP JUMPDEST POP PUSH1 0x0 SWAP1 DUP2 MSTORE PUSH1 0x4 PUSH1 0x20 MSTORE PUSH1 0x40 SWAP1 KECCAK256 SLOAD PUSH1 0x1 PUSH1 0x1 PUSH1 0xA0 SHL SUB AND SWAP1 JUMP JUMPDEST PUSH1 0x0 PUSH2 0xA6F DUP3 PUSH2 0x1D86 JUMP JUMPDEST SWAP1 POP DUP1 PUSH1 0x1 PUSH1 0x1 PUSH1 0xA0 SHL SUB AND DUP4 PUSH1 0x1 PUSH1 0x1 PUSH1 0xA0 SHL SUB AND SUB PUSH2 0xAE1 JUMPI PUSH1 0x40 MLOAD PUSH3 0x461BCD PUSH1 0xE5 SHL DUP2 MSTORE PUSH1 0x20 PUSH1 0x4 DUP3 ADD MSTORE PUSH1 0x21 PUSH1 0x24 DUP3 ADD MSTORE PUSH32 0x4552433732313A20617070726F76616C20746F2063757272656E74206F776E65 PUSH1 0x44 DUP3 ADD MSTORE PUSH1 0x39 PUSH1 0xF9 SHL PUSH1 0x64 DUP3 ADD MSTORE PUSH1 0x84 ADD JUMPDEST PUSH1 0x40 MLOAD DUP1 SWAP2 SUB SWAP1 REVERT JUMPDEST CALLER PUSH1 0x1 PUSH1 0x1 PUSH1 0xA0 SHL SUB DUP3 AND EQ DUP1 PUSH2 0xAFD JUMPI POP PUSH2 0xAFD DUP2 CALLER PUSH2 0x8B8 JUMP JUMPDEST PUSH2 0xB6F JUMPI PUSH1 0x40 MLOAD PUSH3 0x461BCD PUSH1 0xE5 SHL DUP2 MSTORE PUSH1 0x20 PUSH1 0x4 DUP3 ADD MSTORE PUSH1 0x3D PUSH1 0x24 DUP3 ADD MSTORE PUSH32 0x4552433732313A20617070726F76652063616C6C6572206973206E6F7420746F PUSH1 0x44 DUP3 ADD MSTORE PUSH32 0x6B656E206F776E6572206F7220617070726F76656420666F7220616C6C000000 PUSH1 0x64 DUP3 ADD MSTORE PUSH1 0x84 ADD PUSH2 0xAD8 JUMP JUMPDEST PUSH2 0xB79 DUP4 DUP4 PUSH2 0x3990 JUMP JUMPDEST POP POP POP JUMP JUMPDEST PUSH1 0x40 DUP1 MLOAD PUSH1 0xE0 DUP2 ADD DUP3 MSTORE DUP8 DUP2 MSTORE PUSH1 0x20 DUP1 DUP3 ADD DUP9 DUP2 MSTORE DUP3 DUP5 ADD DUP9 DUP2 MSTORE PUSH1 0x60 DUP5 ADD DUP9 DUP2 MSTORE PUSH1 0x80 DUP6 ADD DUP9 DUP2 MSTORE PUSH1 0xA0 DUP7 ADD DUP9 DUP2 MSTORE PUSH1 0x0 PUSH1 0xC0 DUP9 ADD DUP2 DUP2 MSTORE PUSH1 0x9 DUP1 SLOAD DUP4 MSTORE PUSH1 0x14 SWAP1 SWAP9 MSTORE SWAP9 DUP2 KECCAK256 SWAP8 MLOAD DUP9 SSTORE SWAP5 MLOAD PUSH1 0x1 DUP1 DUP10 ADD SWAP2 SWAP1 SWAP2 SSTORE SWAP4 MLOAD PUSH1 0x2 DUP9 ADD SSTORE SWAP2 MLOAD PUSH1 0x3 DUP8 ADD SSTORE MLOAD PUSH1 0x4 DUP7 ADD SSTORE MLOAD PUSH1 0x5 DUP6 ADD SSTORE SWAP4 MLOAD PUSH1 0x6 SWAP1 SWAP4 ADD DUP1 SLOAD PUSH1 0xFF NOT AND PUSH1 0xFF SWAP1 SWAP5 AND SWAP4 SWAP1 SWAP4 OR SWAP1 SWAP3 SSTORE DUP1 SLOAD SWAP2 SWAP3 SWAP2 DUP4 SWAP1 PUSH2 0xC19 SWAP1 DUP5 SWAP1 PUSH2 0x4D9D JUMP JUMPDEST SWAP1 SWAP2 SSTORE POP POP PUSH1 0x9 SLOAD PUSH2 0xC2D SWAP1 PUSH1 0x1 SWAP1 PUSH2 0x4DE4 JUMP JUMPDEST SWAP8 SWAP7 POP POP POP POP POP POP POP JUMP JUMPDEST PUSH1 0x0 DUP2 DUP2 MSTORE PUSH1 0x16 PUSH1 0x20 SWAP1 DUP2 MSTORE PUSH1 0x40 DUP1 DUP4 KECCAK256 PUSH1 0xA SLOAD DUP5 MSTORE PUSH1 0x15 SWAP1 SWAP3 MSTORE SWAP1 SWAP2 KECCAK256 DUP2 SLOAD DUP2 SSTORE PUSH1 0x1 DUP1 DUP4 ADD SLOAD SWAP1 DUP3 ADD SSTORE PUSH1 0x2 DUP1 DUP3 ADD SWAP1 PUSH2 0xC76 SWAP1 DUP5 ADD DUP3 PUSH2 0x4E45 JUMP JUMPDEST POP PUSH1 0x3 DUP2 DUP2 ADD SWAP1 PUSH2 0xC89 SWAP1 DUP5 ADD DUP3 PUSH2 0x4E45 JUMP JUMPDEST POP PUSH1 0x4 DUP2 DUP2 ADD SWAP1 PUSH2 0xC9C SWAP1 DUP5 ADD DUP3 PUSH2 0x4E45 JUMP JUMPDEST POP PUSH1 0x5 DUP2 DUP2 ADD SWAP1 PUSH2 0xCAF SWAP1 DUP5 ADD DUP3 PUSH2 0x4E45 JUMP JUMPDEST POP PUSH1 0x6 DUP3 DUP2 ADD SLOAD DUP3 DUP3 ADD SSTORE PUSH1 0x7 DUP1 DUP5 ADD SLOAD DUP2 DUP5 ADD SSTORE PUSH1 0x8 DUP1 DUP6 ADD SLOAD DUP2 DUP6 ADD SSTORE PUSH1 0x9 DUP1 DUP7 ADD SLOAD SWAP1 DUP6 ADD DUP1 SLOAD PUSH1 0xFF NOT AND PUSH1 0xFF SWAP1 SWAP3 AND ISZERO ISZERO SWAP2 SWAP1 SWAP2 OR SWAP1 SSTORE PUSH1 0xA SWAP5 DUP6 ADD SLOAD SWAP4 DUP6 ADD SWAP4 SWAP1 SWAP4 SSTORE SWAP3 SLOAD PUSH1 0x0 DUP2 DUP2 MSTORE PUSH1 0x15 PUSH1 0x20 SWAP1 DUP2 MSTORE PUSH1 0x40 DUP1 DUP4 KECCAK256 DUP5 DUP2 SSTORE DUP2 MLOAD PUSH1 0xA0 DUP2 ADD DUP4 MSTORE CALLER DUP6 MSTORE PUSH1 0x18 DUP5 MSTORE DUP3 DUP6 KECCAK256 SLOAD DUP2 MSTORE DUP1 DUP5 ADD SWAP6 DUP7 MSTORE SWAP6 DUP2 ADD SLOAD DUP7 DUP4 ADD SWAP1 DUP2 MSTORE SWAP8 DUP2 ADD SLOAD PUSH1 0x60 DUP8 ADD SWAP1 DUP2 MSTORE SWAP7 ADD SLOAD PUSH1 0x80 DUP7 ADD SWAP1 DUP2 MSTORE PUSH1 0xE DUP1 SLOAD DUP6 MSTORE PUSH1 0x17 SWAP1 SWAP4 MSTORE SWAP1 DUP4 KECCAK256 SWAP5 MLOAD DUP6 SSTORE SWAP3 MLOAD PUSH1 0x1 DUP6 DUP2 ADD SWAP2 SWAP1 SWAP2 SSTORE SWAP6 MLOAD PUSH1 0x2 DUP6 ADD SSTORE SWAP4 MLOAD PUSH1 0x3 DUP5 ADD SSTORE SWAP1 MLOAD PUSH1 0x4 SWAP1 SWAP3 ADD SWAP2 SWAP1 SWAP2 SSTORE DUP2 SLOAD PUSH2 0xD8A SWAP1 DUP5 SWAP1 PUSH2 0x4D9D JUMP JUMPDEST SWAP3 POP POP DUP2 SWAP1 SSTORE POP PUSH1 0x1 PUSH1 0xA PUSH1 0x0 DUP3 DUP3 SLOAD PUSH2 0xDA4 SWAP2 SWAP1 PUSH2 0x4D9D JUMP JUMPDEST SWAP3 POP POP DUP2 SWAP1 SSTORE POP PUSH1 0x16 PUSH1 0x0 PUSH1 0x1 PUSH1 0xB SLOAD PUSH2 0xDBE SWAP2 SWAP1 PUSH2 0x4DE4 JUMP JUMPDEST DUP2 MSTORE PUSH1 0x20 DUP1 DUP3 ADD SWAP3 SWAP1 SWAP3 MSTORE PUSH1 0x40 SWAP1 DUP2 ADD PUSH1 0x0 SWAP1 DUP2 KECCAK256 DUP5 DUP3 MSTORE PUSH1 0x16 SWAP1 SWAP4 MSTORE KECCAK256 DUP2 SLOAD DUP2 SSTORE PUSH1 0x1 DUP1 DUP4 ADD SLOAD SWAP1 DUP3 ADD SSTORE PUSH1 0x2 DUP1 DUP3 ADD SWAP1 PUSH2 0xDFC SWAP1 DUP5 ADD DUP3 PUSH2 0x4E45 JUMP JUMPDEST POP PUSH1 0x3 DUP2 DUP2 ADD SWAP1 PUSH2 0xE0F SWAP1 DUP5 ADD DUP3 PUSH2 0x4E45 JUMP JUMPDEST POP PUSH1 0x4 DUP2 DUP2 ADD SWAP1 PUSH2 0xE22 SWAP1 DUP5 ADD DUP3 PUSH2 0x4E45 JUMP JUMPDEST POP PUSH1 0x5 DUP2 DUP2 ADD SWAP1 PUSH2 0xE35 SWAP1 DUP5 ADD DUP3 PUSH2 0x4E45 JUMP JUMPDEST POP PUSH1 0x6 DUP3 DUP2 ADD SLOAD SWAP1 DUP3 ADD SSTORE PUSH1 0x7 DUP1 DUP4 ADD SLOAD SWAP1 DUP3 ADD SSTORE PUSH1 0x8 DUP1 DUP4 ADD SLOAD SWAP1 DUP3 ADD SSTORE PUSH1 0x9 DUP1 DUP4 ADD SLOAD SWAP1 DUP3 ADD DUP1 SLOAD PUSH1 0xFF NOT AND PUSH1 0xFF SWAP1 SWAP3 AND ISZERO ISZERO SWAP2 SWAP1 SWAP2 OR SWAP1 SSTORE PUSH1 0xA SWAP2 DUP3 ADD SLOAD SWAP2 ADD SSTORE PUSH1 0xB SLOAD PUSH1 0x16 SWAP1 PUSH1 0x0 SWAP1 PUSH2 0xE8E SWAP1 PUSH1 0x1 SWAP1 PUSH2 0x4DE4 JUMP JUMPDEST DUP2 MSTORE PUSH1 0x20 DUP2 ADD SWAP2 SWAP1 SWAP2 MSTORE PUSH1 0x40 ADD PUSH1 0x0 SWAP1 DUP2 KECCAK256 DUP2 DUP2 SSTORE PUSH1 0x1 DUP2 ADD DUP3 SWAP1 SSTORE SWAP1 PUSH2 0xEB8 PUSH1 0x2 DUP4 ADD DUP3 PUSH2 0x4281 JUMP JUMPDEST PUSH2 0xEC6 PUSH1 0x3 DUP4 ADD PUSH1 0x0 PUSH2 0x4281 JUMP JUMPDEST PUSH2 0xED4 PUSH1 0x4 DUP4 ADD PUSH1 0x0 PUSH2 0x4281 JUMP JUMPDEST PUSH2 0xEE2 PUSH1 0x5 DUP4 ADD PUSH1 0x0 PUSH2 0x4281 JUMP JUMPDEST POP PUSH1 0x0 PUSH1 0x6 DUP3 ADD DUP2 SWAP1 SSTORE PUSH1 0x7 DUP3 ADD DUP2 SWAP1 SSTORE PUSH1 0x8 DUP3 ADD DUP2 SWAP1 SSTORE PUSH1 0x9 DUP3 ADD DUP1 SLOAD PUSH1 0xFF NOT AND SWAP1 SSTORE PUSH1 0xA SWAP1 SWAP2 ADD DUP2 SWAP1 SSTORE PUSH1 0xB DUP1 SLOAD PUSH1 0x1 SWAP3 SWAP1 PUSH2 0xF21 SWAP1 DUP5 SWAP1 PUSH2 0x4DE4 JUMP JUMPDEST SWAP1 SWAP2 SSTORE POP POP POP JUMP JUMPDEST PUSH1 0x0 DUP2 DUP2 MSTORE PUSH1 0x14 PUSH1 0x20 MSTORE PUSH1 0x40 DUP2 KECCAK256 PUSH1 0x6 ADD SLOAD DUP2 SIGNEXTEND SWAP1 SUB PUSH2 0x9A8 JUMPI PUSH1 0x0 DUP2 DUP2 MSTORE PUSH1 0x14 PUSH1 0x20 MSTORE PUSH1 0x40 SWAP1 KECCAK256 PUSH1 0x6 ADD DUP1 SLOAD PUSH1 0xFF NOT AND PUSH1 0x1 OR SWAP1 SSTORE POP JUMP JUMPDEST CALLER PUSH1 0x0 SWAP1 DUP2 MSTORE PUSH1 0x18 PUSH1 0x20 MSTORE PUSH1 0x40 DUP1 DUP3 KECCAK256 SLOAD PUSH1 0x1 PUSH1 0x1 PUSH1 0xA0 SHL SUB DUP9 AND DUP4 MSTORE SWAP1 DUP3 KECCAK256 SLOAD PUSH2 0xF91 SWAP2 SWAP1 DUP8 DUP8 TIMESTAMP DUP9 PUSH2 0xB7E JUMP JUMPDEST SWAP1 POP PUSH2 0xF9D DUP8 DUP7 PUSH2 0x11BE JUMP JUMPDEST PUSH2 0xFAF JUMPI PUSH2 0xFAA DUP2 PUSH2 0x971 JUMP JUMPDEST PUSH2 0x1147 JUMP JUMPDEST PUSH1 0x0 JUMPDEST PUSH1 0xE SLOAD DUP2 LT ISZERO PUSH2 0x1085 JUMPI CALLER PUSH1 0x0 SWAP1 DUP2 MSTORE PUSH1 0x18 PUSH1 0x20 SWAP1 DUP2 MSTORE PUSH1 0x40 DUP1 DUP4 KECCAK256 SLOAD DUP5 DUP5 MSTORE PUSH1 0x17 SWAP1 SWAP3 MSTORE SWAP1 SWAP2 KECCAK256 SLOAD SUB PUSH2 0x1073 JUMPI PUSH1 0x0 DUP2 DUP2 MSTORE PUSH1 0x17 PUSH1 0x20 MSTORE PUSH1 0x40 SWAP1 KECCAK256 PUSH1 0x2 ADD SLOAD DUP4 SWAP1 PUSH2 0xFFF SWAP1 DUP9 SWAP1 PUSH2 0x4D9D JUMP JUMPDEST GT ISZERO PUSH2 0x106A JUMPI PUSH1 0x0 DUP2 DUP2 MSTORE PUSH1 0x17 PUSH1 0x20 MSTORE PUSH1 0x40 DUP2 KECCAK256 PUSH1 0x2 ADD DUP1 SLOAD DUP9 SWAP3 SWAP1 PUSH2 0x1026 SWAP1 DUP5 SWAP1 PUSH2 0x4D9D JUMP JUMPDEST SWAP1 SWAP2 SSTORE POP POP PUSH1 0x0 DUP2 DUP2 MSTORE PUSH1 0x17 PUSH1 0x20 MSTORE PUSH1 0x40 DUP2 KECCAK256 PUSH1 0x3 ADD DUP1 SLOAD DUP9 SWAP3 SWAP1 PUSH2 0x104C SWAP1 DUP5 SWAP1 PUSH2 0x4D9D JUMP JUMPDEST SWAP1 SWAP2 SSTORE POP PUSH2 0x105C SWAP1 POP DUP9 DUP8 PUSH2 0x1AE5 JUMP JUMPDEST PUSH2 0x1065 DUP3 PUSH2 0xF29 JUMP JUMPDEST PUSH2 0x1073 JUMP JUMPDEST PUSH2 0x1073 DUP3 PUSH2 0x971 JUMP JUMPDEST DUP1 PUSH2 0x107D DUP2 PUSH2 0x4F21 JUMP JUMPDEST SWAP2 POP POP PUSH2 0xFB2 JUMP JUMPDEST PUSH1 0xE SLOAD DUP2 SUB PUSH2 0x1145 JUMPI DUP3 DUP7 GT ISZERO PUSH2 0x113C JUMPI PUSH2 0x10A0 DUP9 DUP8 PUSH2 0x1AE5 JUMP JUMPDEST PUSH1 0x40 DUP1 MLOAD PUSH1 0xA0 DUP2 ADD DUP3 MSTORE CALLER PUSH1 0x0 SWAP1 DUP2 MSTORE PUSH1 0x18 PUSH1 0x20 SWAP1 DUP2 MSTORE DUP4 DUP3 KECCAK256 SLOAD DUP4 MSTORE DUP1 DUP4 ADD DUP9 DUP2 MSTORE DUP4 DUP6 ADD DUP12 DUP2 MSTORE PUSH1 0x60 DUP6 ADD DUP10 DUP2 MSTORE DUP11 DUP6 MSTORE PUSH1 0x15 DUP5 MSTORE DUP7 DUP6 KECCAK256 PUSH1 0x8 ADD SLOAD PUSH1 0x80 DUP8 ADD SWAP1 DUP2 MSTORE PUSH1 0xE DUP1 SLOAD DUP8 MSTORE PUSH1 0x17 SWAP1 SWAP6 MSTORE SWAP7 DUP6 KECCAK256 SWAP6 MLOAD DUP7 SSTORE SWAP2 MLOAD PUSH1 0x1 DUP1 DUP8 ADD SWAP2 SWAP1 SWAP2 SSTORE SWAP1 MLOAD PUSH1 0x2 DUP7 ADD SSTORE SWAP1 MLOAD PUSH1 0x3 DUP6 ADD SSTORE SWAP4 MLOAD PUSH1 0x4 SWAP1 SWAP4 ADD SWAP3 SWAP1 SWAP3 SSTORE DUP2 SLOAD PUSH2 0x1128 SWAP1 DUP5 SWAP1 PUSH2 0x4D9D JUMP JUMPDEST SWAP1 SWAP2 SSTORE POP PUSH2 0x1137 SWAP1 POP DUP3 PUSH2 0xF29 JUMP JUMPDEST PUSH2 0x1145 JUMP JUMPDEST PUSH2 0x1145 DUP3 PUSH2 0x971 JUMP JUMPDEST POP JUMPDEST POP POP POP POP POP POP POP JUMP JUMPDEST PUSH2 0x115A CALLER DUP3 PUSH2 0x39FE JUMP JUMPDEST PUSH2 0x1176 JUMPI PUSH1 0x40 MLOAD PUSH3 0x461BCD PUSH1 0xE5 SHL DUP2 MSTORE PUSH1 0x4 ADD PUSH2 0xAD8 SWAP1 PUSH2 0x4F3A JUMP JUMPDEST PUSH2 0xB79 DUP4 DUP4 DUP4 PUSH2 0x3A7C JUMP JUMPDEST PUSH1 0x0 DUP3 DUP2 MSTORE PUSH1 0x17 PUSH1 0x20 MSTORE PUSH1 0x40 DUP2 KECCAK256 PUSH1 0x3 ADD DUP1 SLOAD DUP4 SWAP3 SWAP1 PUSH2 0x11A2 SWAP1 DUP5 SWAP1 PUSH2 0x4D9D JUMP JUMPDEST SWAP1 SWAP2 SSTORE POP POP POP POP JUMP JUMPDEST PUSH1 0x16 PUSH1 0x0 PUSH1 0x1 PUSH1 0xB SLOAD PUSH2 0xDBE SWAP2 SWAP1 PUSH2 0x4DE4 JUMP JUMPDEST PUSH1 0x0 DUP3 DUP2 MSTORE PUSH1 0x17 PUSH1 0x20 MSTORE PUSH1 0x40 DUP2 KECCAK256 PUSH1 0x3 ADD SLOAD DUP2 SWAP1 PUSH2 0x11DD SWAP1 DUP5 SWAP1 PUSH2 0x4DE4 JUMP JUMPDEST LT PUSH2 0x917 JUMPI POP PUSH1 0x1 PUSH2 0x91B JUMP JUMPDEST PUSH2 0x122A PUSH1 0x40 MLOAD DUP1 PUSH1 0xE0 ADD PUSH1 0x40 MSTORE DUP1 PUSH1 0x0 DUP2 MSTORE PUSH1 0x20 ADD PUSH1 0x0 DUP2 MSTORE PUSH1 0x20 ADD PUSH1 0x0 DUP2 MSTORE PUSH1 0x20 ADD PUSH1 0x0 DUP2 MSTORE PUSH1 0x20 ADD PUSH1 0x0 DUP2 MSTORE PUSH1 0x20 ADD PUSH1 0x60 DUP2 MSTORE PUSH1 0x20 ADD PUSH1 0x60 DUP2 MSTORE POP SWAP1 JUMP JUMPDEST PUSH1 0x10 PUSH1 0x0 DUP4 DUP2 MSTORE PUSH1 0x20 ADD SWAP1 DUP2 MSTORE PUSH1 0x20 ADD PUSH1 0x0 KECCAK256 PUSH1 0x40 MLOAD DUP1 PUSH1 0xE0 ADD PUSH1 0x40 MSTORE SWAP1 DUP2 PUSH1 0x0 DUP3 ADD SLOAD DUP2 MSTORE PUSH1 0x20 ADD PUSH1 0x1 DUP3 ADD SLOAD DUP2 MSTORE PUSH1 0x20 ADD PUSH1 0x2 DUP3 ADD SLOAD DUP2 MSTORE PUSH1 0x20 ADD PUSH1 0x3 DUP3 ADD SLOAD DUP2 MSTORE PUSH1 0x20 ADD PUSH1 0x4 DUP3 ADD SLOAD DUP2 MSTORE PUSH1 0x20 ADD PUSH1 0x5 DUP3 ADD DUP1 SLOAD PUSH2 0x128A SWAP1 PUSH2 0x4DB0 JUMP JUMPDEST DUP1 PUSH1 0x1F ADD PUSH1 0x20 DUP1 SWAP2 DIV MUL PUSH1 0x20 ADD PUSH1 0x40 MLOAD SWAP1 DUP2 ADD PUSH1 0x40 MSTORE DUP1 SWAP3 SWAP2 SWAP1 DUP2 DUP2 MSTORE PUSH1 0x20 ADD DUP3 DUP1 SLOAD PUSH2 0x12B6 SWAP1 PUSH2 0x4DB0 JUMP JUMPDEST DUP1 ISZERO PUSH2 0x1303 JUMPI DUP1 PUSH1 0x1F LT PUSH2 0x12D8 JUMPI PUSH2 0x100 DUP1 DUP4 SLOAD DIV MUL DUP4 MSTORE SWAP2 PUSH1 0x20 ADD SWAP2 PUSH2 0x1303 JUMP JUMPDEST DUP3 ADD SWAP2 SWAP1 PUSH1 0x0 MSTORE PUSH1 0x20 PUSH1 0x0 KECCAK256 SWAP1 JUMPDEST DUP2 SLOAD DUP2 MSTORE SWAP1 PUSH1 0x1 ADD SWAP1 PUSH1 0x20 ADD DUP1 DUP4 GT PUSH2 0x12E6 JUMPI DUP3 SWAP1 SUB PUSH1 0x1F AND DUP3 ADD SWAP2 JUMPDEST POP POP POP POP POP DUP2 MSTORE PUSH1 0x20 ADD PUSH1 0x6 DUP3 ADD DUP1 SLOAD PUSH2 0x131C SWAP1 PUSH2 0x4DB0 JUMP JUMPDEST DUP1 PUSH1 0x1F ADD PUSH1 0x20 DUP1 SWAP2 DIV MUL PUSH1 0x20 ADD PUSH1 0x40 MLOAD SWAP1 DUP2 ADD PUSH1 0x40 MSTORE DUP1 SWAP3 SWAP2 SWAP1 DUP2 DUP2 MSTORE PUSH1 0x20 ADD DUP3 DUP1 SLOAD PUSH2 0x1348 SWAP1 PUSH2 0x4DB0 JUMP JUMPDEST DUP1 ISZERO PUSH2 0x1395 JUMPI DUP1 PUSH1 0x1F LT PUSH2 0x136A JUMPI PUSH2 0x100 DUP1 DUP4 SLOAD DIV MUL DUP4 MSTORE SWAP2 PUSH1 0x20 ADD SWAP2 PUSH2 0x1395 JUMP JUMPDEST DUP3 ADD SWAP2 SWAP1 PUSH1 0x0 MSTORE PUSH1 0x20 PUSH1 0x0 KECCAK256 SWAP1 JUMPDEST DUP2 SLOAD DUP2 MSTORE SWAP1 PUSH1 0x1 ADD SWAP1 PUSH1 0x20 ADD DUP1 DUP4 GT PUSH2 0x1378 JUMPI DUP3 SWAP1 SUB PUSH1 0x1F AND DUP3 ADD SWAP2 JUMPDEST POP POP POP POP POP DUP2 MSTORE POP POP SWAP1 POP SWAP2 SWAP1 POP JUMP JUMPDEST PUSH2 0xB79 DUP4 DUP4 DUP4 PUSH1 0x40 MLOAD DUP1 PUSH1 0x20 ADD PUSH1 0x40 MSTORE DUP1 PUSH1 0x0 DUP2 MSTORE POP PUSH2 0x2BE6 JUMP JUMPDEST PUSH1 0x60 PUSH1 0x0 PUSH1 0xB SLOAD PUSH1 0x1 PUSH1 0x1 PUSH1 0x40 SHL SUB DUP2 GT ISZERO PUSH2 0x13DE JUMPI PUSH2 0x13DE PUSH2 0x4736 JUMP JUMPDEST PUSH1 0x40 MLOAD SWAP1 DUP1 DUP3 MSTORE DUP1 PUSH1 0x20 MUL PUSH1 0x20 ADD DUP3 ADD PUSH1 0x40 MSTORE DUP1 ISZERO PUSH2 0x1417 JUMPI DUP2 PUSH1 0x20 ADD JUMPDEST PUSH2 0x1404 PUSH2 0x42BB JUMP JUMPDEST DUP2 MSTORE PUSH1 0x20 ADD SWAP1 PUSH1 0x1 SWAP1 SUB SWAP1 DUP2 PUSH2 0x13FC JUMPI SWAP1 POP JUMPDEST POP SWAP1 POP PUSH1 0x0 JUMPDEST PUSH1 0xB SLOAD DUP2 LT ISZERO PUSH2 0x1712 JUMPI PUSH1 0x0 PUSH1 0x16 PUSH1 0x0 DUP4 DUP2 MSTORE PUSH1 0x20 ADD SWAP1 DUP2 MSTORE PUSH1 0x20 ADD PUSH1 0x0 KECCAK256 SWAP1 POP DUP1 PUSH1 0x40 MLOAD DUP1 PUSH2 0x160 ADD PUSH1 0x40 MSTORE SWAP1 DUP2 PUSH1 0x0 DUP3 ADD SLOAD DUP2 MSTORE PUSH1 0x20 ADD PUSH1 0x1 DUP3 ADD SLOAD DUP2 MSTORE PUSH1 0x20 ADD PUSH1 0x2 DUP3 ADD DUP1 SLOAD PUSH2 0x146F SWAP1 PUSH2 0x4DB0 JUMP JUMPDEST DUP1 PUSH1 0x1F ADD PUSH1 0x20 DUP1 SWAP2 DIV MUL PUSH1 0x20 ADD PUSH1 0x40 MLOAD SWAP1 DUP2 ADD PUSH1 0x40 MSTORE DUP1 SWAP3 SWAP2 SWAP1 DUP2 DUP2 MSTORE PUSH1 0x20 ADD DUP3 DUP1 SLOAD PUSH2 0x149B SWAP1 PUSH2 0x4DB0 JUMP JUMPDEST DUP1 ISZERO PUSH2 0x14E8 JUMPI DUP1 PUSH1 0x1F LT PUSH2 0x14BD JUMPI PUSH2 0x100 DUP1 DUP4 SLOAD DIV MUL DUP4 MSTORE SWAP2 PUSH1 0x20 ADD SWAP2 PUSH2 0x14E8 JUMP JUMPDEST DUP3 ADD SWAP2 SWAP1 PUSH1 0x0 MSTORE PUSH1 0x20 PUSH1 0x0 KECCAK256 SWAP1 JUMPDEST DUP2 SLOAD DUP2 MSTORE SWAP1 PUSH1 0x1 ADD SWAP1 PUSH1 0x20 ADD DUP1 DUP4 GT PUSH2 0x14CB JUMPI DUP3 SWAP1 SUB PUSH1 0x1F AND DUP3 ADD SWAP2 JUMPDEST POP POP POP POP POP DUP2 MSTORE PUSH1 0x20 ADD PUSH1 0x3 DUP3 ADD DUP1 SLOAD PUSH2 0x1501 SWAP1 PUSH2 0x4DB0 JUMP JUMPDEST DUP1 PUSH1 0x1F ADD PUSH1 0x20 DUP1 SWAP2 DIV MUL PUSH1 0x20 ADD PUSH1 0x40 MLOAD SWAP1 DUP2 ADD PUSH1 0x40 MSTORE DUP1 SWAP3 SWAP2 SWAP1 DUP2 DUP2 MSTORE PUSH1 0x20 ADD DUP3 DUP1 SLOAD PUSH2 0x152D SWAP1 PUSH2 0x4DB0 JUMP JUMPDEST DUP1 ISZERO PUSH2 0x157A JUMPI DUP1 PUSH1 0x1F LT PUSH2 0x154F JUMPI PUSH2 0x100 DUP1 DUP4 SLOAD DIV MUL DUP4 MSTORE SWAP2 PUSH1 0x20 ADD SWAP2 PUSH2 0x157A JUMP JUMPDEST DUP3 ADD SWAP2 SWAP1 PUSH1 0x0 MSTORE PUSH1 0x20 PUSH1 0x0 KECCAK256 SWAP1 JUMPDEST DUP2 SLOAD DUP2 MSTORE SWAP1 PUSH1 0x1 ADD SWAP1 PUSH1 0x20 ADD DUP1 DUP4 GT PUSH2 0x155D JUMPI DUP3 SWAP1 SUB PUSH1 0x1F AND DUP3 ADD SWAP2 JUMPDEST POP POP POP POP POP DUP2 MSTORE PUSH1 0x20 ADD PUSH1 0x4 DUP3 ADD DUP1 SLOAD PUSH2 0x1593 SWAP1 PUSH2 0x4DB0 JUMP JUMPDEST DUP1 PUSH1 0x1F ADD PUSH1 0x20 DUP1 SWAP2 DIV MUL PUSH1 0x20 ADD PUSH1 0x40 MLOAD SWAP1 DUP2 ADD PUSH1 0x40 MSTORE DUP1 SWAP3 SWAP2 SWAP1 DUP2 DUP2 MSTORE PUSH1 0x20 ADD DUP3 DUP1 SLOAD PUSH2 0x15BF SWAP1 PUSH2 0x4DB0 JUMP JUMPDEST DUP1 ISZERO PUSH2 0x160C JUMPI DUP1 PUSH1 0x1F LT PUSH2 0x15E1 JUMPI PUSH2 0x100 DUP1 DUP4 SLOAD DIV MUL DUP4 MSTORE SWAP2 PUSH1 0x20 ADD SWAP2 PUSH2 0x160C JUMP JUMPDEST DUP3 ADD SWAP2 SWAP1 PUSH1 0x0 MSTORE PUSH1 0x20 PUSH1 0x0 KECCAK256 SWAP1 JUMPDEST DUP2 SLOAD DUP2 MSTORE SWAP1 PUSH1 0x1 ADD SWAP1 PUSH1 0x20 ADD DUP1 DUP4 GT PUSH2 0x15EF JUMPI DUP3 SWAP1 SUB PUSH1 0x1F AND DUP3 ADD SWAP2 JUMPDEST POP POP POP POP POP DUP2 MSTORE PUSH1 0x20 ADD PUSH1 0x5 DUP3 ADD DUP1 SLOAD PUSH2 0x1625 SWAP1 PUSH2 0x4DB0 JUMP JUMPDEST DUP1 PUSH1 0x1F ADD PUSH1 0x20 DUP1 SWAP2 DIV MUL PUSH1 0x20 ADD PUSH1 0x40 MLOAD SWAP1 DUP2 ADD PUSH1 0x40 MSTORE DUP1 SWAP3 SWAP2 SWAP1 DUP2 DUP2 MSTORE PUSH1 0x20 ADD DUP3 DUP1 SLOAD PUSH2 0x1651 SWAP1 PUSH2 0x4DB0 JUMP JUMPDEST DUP1 ISZERO PUSH2 0x169E JUMPI DUP1 PUSH1 0x1F LT PUSH2 0x1673 JUMPI PUSH2 0x100 DUP1 DUP4 SLOAD DIV MUL DUP4 MSTORE SWAP2 PUSH1 0x20 ADD SWAP2 PUSH2 0x169E JUMP JUMPDEST DUP3 ADD SWAP2 SWAP1 PUSH1 0x0 MSTORE PUSH1 0x20 PUSH1 0x0 KECCAK256 SWAP1 JUMPDEST DUP2 SLOAD DUP2 MSTORE SWAP1 PUSH1 0x1 ADD SWAP1 PUSH1 0x20 ADD DUP1 DUP4 GT PUSH2 0x1681 JUMPI DUP3 SWAP1 SUB PUSH1 0x1F AND DUP3 ADD SWAP2 JUMPDEST POP POP POP SWAP2 DUP4 MSTORE POP POP PUSH1 0x6 DUP3 ADD SLOAD PUSH1 0x20 DUP3 ADD MSTORE PUSH1 0x7 DUP3 ADD SLOAD PUSH1 0x40 DUP3 ADD MSTORE PUSH1 0x8 DUP3 ADD SLOAD PUSH1 0x60 DUP3 ADD MSTORE PUSH1 0x9 DUP3 ADD SLOAD PUSH1 0xFF AND ISZERO ISZERO PUSH1 0x80 DUP3 ADD MSTORE PUSH1 0xA SWAP1 SWAP2 ADD SLOAD PUSH1 0xA0 SWAP1 SWAP2 ADD MSTORE DUP4 MLOAD DUP5 SWAP1 DUP5 SWAP1 DUP2 LT PUSH2 0x16F3 JUMPI PUSH2 0x16F3 PUSH2 0x4F87 JUMP JUMPDEST PUSH1 0x20 MUL PUSH1 0x20 ADD ADD DUP2 SWAP1 MSTORE POP POP DUP1 DUP1 PUSH2 0x170A SWAP1 PUSH2 0x4F21 JUMP JUMPDEST SWAP2 POP POP PUSH2 0x141D JUMP JUMPDEST POP SWAP2 SWAP1 POP JUMP JUMPDEST PUSH1 0x1 PUSH1 0x1 PUSH1 0xA0 SHL SUB DUP1 DUP3 AND PUSH1 0x0 SWAP1 DUP2 MSTORE PUSH1 0x18 PUSH1 0x20 SWAP1 DUP2 MSTORE PUSH1 0x40 DUP1 DUP4 KECCAK256 SLOAD DUP4 MSTORE PUSH1 0x13 DUP3 MSTORE DUP1 DUP4 KECCAK256 PUSH1 0xC SLOAD DUP5 MSTORE PUSH1 0x12 SWAP1 SWAP3 MSTORE SWAP1 SWAP2 KECCAK256 DUP2 SLOAD DUP2 SSTORE PUSH1 0x1 DUP1 DUP4 ADD SLOAD SWAP1 DUP3 ADD DUP1 SLOAD PUSH1 0x1 PUSH1 0x1 PUSH1 0xA0 SHL SUB NOT AND SWAP2 SWAP1 SWAP5 AND OR SWAP1 SWAP3 SSTORE SWAP1 PUSH1 0x2 DUP1 DUP3 ADD SWAP1 PUSH2 0x177F SWAP1 DUP5 ADD DUP3 PUSH2 0x4E45 JUMP JUMPDEST POP PUSH1 0x3 DUP2 DUP2 ADD SWAP1 PUSH2 0x1792 SWAP1 DUP5 ADD DUP3 PUSH2 0x4E45 JUMP JUMPDEST POP PUSH1 0x4 DUP2 DUP2 ADD SWAP1 PUSH2 0x17A5 SWAP1 DUP5 ADD DUP3 PUSH2 0x4E45 JUMP JUMPDEST POP PUSH1 0x5 DUP2 DUP2 ADD SWAP1 PUSH2 0x17B8 SWAP1 DUP5 ADD DUP3 PUSH2 0x4E45 JUMP JUMPDEST POP POP PUSH1 0xC SLOAD PUSH1 0x0 DUP2 DUP2 MSTORE PUSH1 0x12 PUSH1 0x20 MSTORE PUSH1 0x40 DUP2 KECCAK256 SWAP2 SWAP1 SWAP2 SSTORE PUSH1 0xD SLOAD PUSH1 0x13 SWAP3 POP PUSH2 0x17E2 SWAP1 PUSH1 0x1 SWAP1 PUSH2 0x4DE4 JUMP JUMPDEST DUP2 MSTORE PUSH1 0x20 DUP1 DUP3 ADD SWAP3 SWAP1 SWAP3 MSTORE PUSH1 0x40 SWAP1 DUP2 ADD PUSH1 0x0 SWAP1 DUP2 KECCAK256 PUSH1 0x1 PUSH1 0x1 PUSH1 0xA0 SHL SUB DUP1 DUP7 AND DUP4 MSTORE PUSH1 0x18 DUP6 MSTORE DUP4 DUP4 KECCAK256 SLOAD DUP4 MSTORE PUSH1 0x13 SWAP1 SWAP5 MSTORE SWAP2 SWAP1 KECCAK256 DUP2 SLOAD DUP2 SSTORE PUSH1 0x1 DUP1 DUP4 ADD SLOAD SWAP1 DUP3 ADD DUP1 SLOAD PUSH1 0x1 PUSH1 0x1 PUSH1 0xA0 SHL SUB NOT AND SWAP2 SWAP1 SWAP5 AND OR SWAP1 SWAP3 SSTORE SWAP1 PUSH1 0x2 DUP1 DUP3 ADD SWAP1 PUSH2 0x184A SWAP1 DUP5 ADD DUP3 PUSH2 0x4E45 JUMP JUMPDEST POP PUSH1 0x3 DUP2 DUP2 ADD SWAP1 PUSH2 0x185D SWAP1 DUP5 ADD DUP3 PUSH2 0x4E45 JUMP JUMPDEST POP PUSH1 0x4 DUP2 DUP2 ADD SWAP1 PUSH2 0x1870 SWAP1 DUP5 ADD DUP3 PUSH2 0x4E45 JUMP JUMPDEST POP PUSH1 0x5 DUP2 DUP2 ADD SWAP1 PUSH2 0x1883 SWAP1 DUP5 ADD DUP3 PUSH2 0x4E45 JUMP JUMPDEST POP POP POP PUSH1 0x1 PUSH1 0x1 PUSH1 0xA0 SHL SUB DUP2 AND PUSH1 0x0 SWAP1 DUP2 MSTORE PUSH1 0x18 PUSH1 0x20 DUP2 SWAP1 MSTORE PUSH1 0x40 DUP3 KECCAK256 SLOAD PUSH1 0xD SLOAD SWAP1 SWAP3 SWAP1 PUSH1 0x13 SWAP1 DUP3 SWAP1 PUSH2 0x18B8 SWAP1 PUSH1 0x1 SWAP1 PUSH2 0x4DE4 JUMP JUMPDEST DUP2 MSTORE PUSH1 0x20 DUP1 DUP3 ADD SWAP3 SWAP1 SWAP3 MSTORE PUSH1 0x40 SWAP1 DUP2 ADD PUSH1 0x0 SWAP1 DUP2 KECCAK256 PUSH1 0x1 SWAP1 DUP2 ADD SLOAD PUSH1 0x1 PUSH1 0x1 PUSH1 0xA0 SHL SUB SWAP1 DUP2 AND DUP7 MSTORE DUP6 DUP6 ADD SWAP7 SWAP1 SWAP7 MSTORE SWAP4 DUP3 ADD DUP2 KECCAK256 SWAP6 SWAP1 SWAP6 SSTORE PUSH1 0xC DUP1 SLOAD SWAP5 DUP8 AND DUP7 MSTORE PUSH1 0x18 SWAP1 SWAP3 MSTORE DUP5 KECCAK256 DUP4 SWAP1 SSTORE SWAP1 SWAP3 SWAP1 SWAP2 PUSH2 0x1912 SWAP1 DUP5 SWAP1 PUSH2 0x4D9D JUMP JUMPDEST SWAP3 POP POP DUP2 SWAP1 SSTORE POP PUSH1 0x13 PUSH1 0x0 PUSH1 0x1 PUSH1 0xD SLOAD PUSH2 0x192C SWAP2 SWAP1 PUSH2 0x4DE4 JUMP JUMPDEST DUP2 MSTORE PUSH1 0x20 DUP2 ADD SWAP2 SWAP1 SWAP2 MSTORE PUSH1 0x40 ADD PUSH1 0x0 SWAP1 DUP2 KECCAK256 DUP2 DUP2 SSTORE PUSH1 0x1 DUP2 ADD DUP1 SLOAD PUSH1 0x1 PUSH1 0x1 PUSH1 0xA0 SHL SUB NOT AND SWAP1 SSTORE SWAP1 PUSH2 0x1961 PUSH1 0x2 DUP4 ADD DUP3 PUSH2 0x4281 JUMP JUMPDEST PUSH2 0x196F PUSH1 0x3 DUP4 ADD PUSH1 0x0 PUSH2 0x4281 JUMP JUMPDEST PUSH2 0x197D PUSH1 0x4 DUP4 ADD PUSH1 0x0 PUSH2 0x4281 JUMP JUMPDEST PUSH2 0x198B PUSH1 0x5 DUP4 ADD PUSH1 0x0 PUSH2 0x4281 JUMP JUMPDEST POP POP PUSH1 0x1 PUSH1 0xD PUSH1 0x0 DUP3 DUP3 SLOAD PUSH2 0xF21 SWAP2 SWAP1 PUSH2 0x4DE4 JUMP JUMPDEST PUSH1 0x13 PUSH1 0x0 PUSH1 0x1 PUSH1 0xD SLOAD PUSH2 0x19B3 SWAP2 SWAP1 PUSH2 0x4DE4 JUMP JUMPDEST DUP2 MSTORE PUSH1 0x20 DUP1 DUP3 ADD SWAP3 SWAP1 SWAP3 MSTORE PUSH1 0x40 SWAP1 DUP2 ADD PUSH1 0x0 SWAP1 DUP2 KECCAK256 PUSH1 0x1 PUSH1 0x1 PUSH1 0xA0 SHL SUB DUP1 DUP7 AND DUP4 MSTORE PUSH1 0x18 DUP6 MSTORE DUP4 DUP4 KECCAK256 SLOAD DUP4 MSTORE PUSH1 0x13 SWAP1 SWAP5 MSTORE SWAP2 SWAP1 KECCAK256 DUP2 SLOAD DUP2 SSTORE PUSH1 0x1 DUP1 DUP4 ADD SLOAD SWAP1 DUP3 ADD DUP1 SLOAD PUSH1 0x1 PUSH1 0x1 PUSH1 0xA0 SHL SUB NOT AND SWAP2 SWAP1 SWAP5 AND OR SWAP1 SWAP3 SSTORE SWAP1 PUSH1 0x2 DUP1 DUP3 ADD SWAP1 PUSH2 0x1A1B SWAP1 DUP5 ADD DUP3 PUSH2 0x4E45 JUMP JUMPDEST POP PUSH1 0x3 DUP2 DUP2 ADD SWAP1 PUSH2 0x1A2E SWAP1 DUP5 ADD DUP3 PUSH2 0x4E45 JUMP JUMPDEST POP PUSH1 0x4 DUP2 DUP2 ADD SWAP1 PUSH2 0x1A41 SWAP1 DUP5 ADD DUP3 PUSH2 0x4E45 JUMP JUMPDEST POP PUSH1 0x5 DUP2 DUP2 ADD SWAP1 PUSH2 0x1A54 SWAP1 DUP5 ADD DUP3 PUSH2 0x4E45 JUMP JUMPDEST POP POP POP PUSH1 0x1 PUSH1 0x1 PUSH1 0xA0 SHL SUB DUP2 AND PUSH1 0x0 SWAP1 DUP2 MSTORE PUSH1 0x18 PUSH1 0x20 DUP2 SWAP1 MSTORE PUSH1 0x40 DUP3 KECCAK256 SLOAD PUSH1 0xD SLOAD SWAP1 SWAP3 SWAP1 PUSH1 0x13 SWAP1 DUP3 SWAP1 PUSH2 0x1A89 SWAP1 PUSH1 0x1 SWAP1 PUSH2 0x4DE4 JUMP JUMPDEST DUP2 MSTORE PUSH1 0x20 ADD SWAP1 DUP2 MSTORE PUSH1 0x20 ADD PUSH1 0x0 KECCAK256 PUSH1 0x1 ADD PUSH1 0x0 SWAP1 SLOAD SWAP1 PUSH2 0x100 EXP SWAP1 DIV PUSH1 0x1 PUSH1 0x1 PUSH1 0xA0 SHL SUB AND PUSH1 0x1 PUSH1 0x1 PUSH1 0xA0 SHL SUB AND PUSH1 0x1 PUSH1 0x1 PUSH1 0xA0 SHL SUB AND DUP2 MSTORE PUSH1 0x20 ADD SWAP1 DUP2 MSTORE PUSH1 0x20 ADD PUSH1 0x0 KECCAK256 DUP2 SWAP1 SSTORE POP PUSH1 0x13 PUSH1 0x0 PUSH1 0x1 PUSH1 0xD SLOAD PUSH2 0x192C SWAP2 SWAP1 PUSH2 0x4DE4 JUMP JUMPDEST PUSH1 0x0 DUP3 DUP2 MSTORE PUSH1 0x17 PUSH1 0x20 MSTORE PUSH1 0x40 DUP2 KECCAK256 PUSH1 0x3 ADD DUP1 SLOAD DUP4 SWAP3 SWAP1 PUSH2 0x1B06 SWAP1 DUP5 SWAP1 PUSH2 0x4DE4 JUMP JUMPDEST SWAP1 SWAP2 SSTORE POP POP PUSH1 0x0 DUP3 DUP2 MSTORE PUSH1 0x17 PUSH1 0x20 MSTORE PUSH1 0x40 DUP2 KECCAK256 PUSH1 0x2 ADD DUP1 SLOAD DUP4 SWAP3 SWAP1 PUSH2 0x11A2 SWAP1 DUP5 SWAP1 PUSH2 0x4DE4 JUMP JUMPDEST CALLER PUSH1 0x0 SWAP1 DUP2 MSTORE PUSH1 0x18 PUSH1 0x20 MSTORE PUSH1 0x40 DUP1 DUP3 KECCAK256 SLOAD PUSH1 0x1 PUSH1 0x1 PUSH1 0xA0 SHL SUB DUP9 AND DUP4 MSTORE SWAP1 DUP3 KECCAK256 SLOAD PUSH2 0x1B5B SWAP2 SWAP1 DUP8 DUP8 TIMESTAMP DUP9 PUSH2 0xB7E JUMP JUMPDEST SWAP1 POP PUSH2 0x1B67 DUP8 DUP7 PUSH2 0x11BE JUMP JUMPDEST PUSH2 0x1B74 JUMPI PUSH2 0xFAA DUP2 PUSH2 0x971 JUMP JUMPDEST PUSH1 0x0 JUMPDEST PUSH1 0xE SLOAD DUP2 LT ISZERO PUSH2 0x1085 JUMPI CALLER PUSH1 0x0 SWAP1 DUP2 MSTORE PUSH1 0x18 PUSH1 0x20 SWAP1 DUP2 MSTORE PUSH1 0x40 DUP1 DUP4 KECCAK256 SLOAD DUP5 DUP5 MSTORE PUSH1 0x17 SWAP1 SWAP3 MSTORE SWAP1 SWAP2 KECCAK256 SLOAD SUB PUSH2 0x1C38 JUMPI PUSH1 0x0 DUP2 DUP2 MSTORE PUSH1 0x17 PUSH1 0x20 MSTORE PUSH1 0x40 SWAP1 KECCAK256 PUSH1 0x2 ADD SLOAD DUP4 SWAP1 PUSH2 0x1BC4 SWAP1 DUP9 SWAP1 PUSH2 0x4D9D JUMP JUMPDEST GT ISZERO PUSH2 0x1C2F JUMPI PUSH1 0x0 DUP2 DUP2 MSTORE PUSH1 0x17 PUSH1 0x20 MSTORE PUSH1 0x40 DUP2 KECCAK256 PUSH1 0x2 ADD DUP1 SLOAD DUP9 SWAP3 SWAP1 PUSH2 0x1BEB SWAP1 DUP5 SWAP1 PUSH2 0x4D9D JUMP JUMPDEST SWAP1 SWAP2 SSTORE POP POP PUSH1 0x0 DUP2 DUP2 MSTORE PUSH1 0x17 PUSH1 0x20 MSTORE PUSH1 0x40 DUP2 KECCAK256 PUSH1 0x3 ADD DUP1 SLOAD DUP9 SWAP3 SWAP1 PUSH2 0x1C11 SWAP1 DUP5 SWAP1 PUSH2 0x4D9D JUMP JUMPDEST SWAP1 SWAP2 SSTORE POP PUSH2 0x1C21 SWAP1 POP DUP9 DUP8 PUSH2 0x1AE5 JUMP JUMPDEST PUSH2 0x1C2A DUP3 PUSH2 0xF29 JUMP JUMPDEST PUSH2 0x1C38 JUMP JUMPDEST PUSH2 0x1C38 DUP3 PUSH2 0x971 JUMP JUMPDEST DUP1 PUSH2 0x1C42 DUP2 PUSH2 0x4F21 JUMP JUMPDEST SWAP2 POP POP PUSH2 0x1B77 JUMP JUMPDEST PUSH1 0x40 DUP1 MLOAD PUSH2 0x160 DUP2 ADD DUP3 MSTORE PUSH1 0xB SLOAD DUP1 DUP3 MSTORE CALLER PUSH1 0x0 SWAP1 DUP2 MSTORE PUSH1 0x18 PUSH1 0x20 SWAP1 DUP2 MSTORE DUP5 DUP3 KECCAK256 SLOAD DUP2 DUP6 ADD SWAP1 DUP2 MSTORE DUP5 DUP7 ADD DUP15 DUP2 MSTORE PUSH1 0x60 DUP7 ADD DUP15 SWAP1 MSTORE PUSH1 0x80 DUP7 ADD DUP14 SWAP1 MSTORE PUSH1 0xA0 DUP7 ADD DUP13 SWAP1 MSTORE PUSH1 0xC0 DUP7 ADD DUP12 SWAP1 MSTORE PUSH1 0xE0 DUP7 ADD DUP11 SWAP1 MSTORE PUSH2 0x100 DUP7 ADD DUP10 SWAP1 MSTORE PUSH2 0x120 DUP7 ADD DUP5 SWAP1 MSTORE PUSH2 0x140 DUP7 ADD DUP9 SWAP1 MSTORE SWAP4 DUP4 MSTORE PUSH1 0x16 SWAP1 SWAP2 MSTORE SWAP4 SWAP1 KECCAK256 DUP3 MLOAD DUP2 SSTORE SWAP3 MLOAD PUSH1 0x1 DUP5 ADD SSTORE MLOAD SWAP1 SWAP2 SWAP1 PUSH1 0x2 DUP3 ADD SWAP1 PUSH2 0x1CDC SWAP1 DUP3 PUSH2 0x4F9D JUMP JUMPDEST POP PUSH1 0x60 DUP3 ADD MLOAD PUSH1 0x3 DUP3 ADD SWAP1 PUSH2 0x1CF1 SWAP1 DUP3 PUSH2 0x4F9D JUMP JUMPDEST POP PUSH1 0x80 DUP3 ADD MLOAD PUSH1 0x4 DUP3 ADD SWAP1 PUSH2 0x1D06 SWAP1 DUP3 PUSH2 0x4F9D JUMP JUMPDEST POP PUSH1 0xA0 DUP3 ADD MLOAD PUSH1 0x5 DUP3 ADD SWAP1 PUSH2 0x1D1B SWAP1 DUP3 PUSH2 0x4F9D JUMP JUMPDEST POP PUSH1 0xC0 DUP3 ADD MLOAD PUSH1 0x6 DUP3 ADD SSTORE PUSH1 0xE0 DUP3 ADD MLOAD PUSH1 0x7 DUP3 ADD SSTORE PUSH2 0x100 DUP3 ADD MLOAD PUSH1 0x8 DUP3 ADD SSTORE PUSH2 0x120 DUP3 ADD MLOAD PUSH1 0x9 DUP3 ADD DUP1 SLOAD PUSH1 0xFF NOT AND SWAP2 ISZERO ISZERO SWAP2 SWAP1 SWAP2 OR SWAP1 SSTORE PUSH2 0x140 SWAP1 SWAP2 ADD MLOAD PUSH1 0xA SWAP1 SWAP2 ADD SSTORE PUSH1 0xB DUP1 SLOAD PUSH1 0x1 SWAP2 SWAP1 PUSH1 0x0 SWAP1 PUSH2 0x1D77 SWAP1 DUP5 SWAP1 PUSH2 0x4D9D JUMP JUMPDEST SWAP1 SWAP2 SSTORE POP POP POP POP POP POP POP POP POP POP JUMP JUMPDEST PUSH1 0x0 DUP2 DUP2 MSTORE PUSH1 0x2 PUSH1 0x20 MSTORE PUSH1 0x40 DUP2 KECCAK256 SLOAD PUSH1 0x1 PUSH1 0x1 PUSH1 0xA0 SHL SUB AND DUP1 PUSH2 0x91B JUMPI PUSH1 0x40 MLOAD PUSH3 0x461BCD PUSH1 0xE5 SHL DUP2 MSTORE PUSH1 0x20 PUSH1 0x4 DUP3 ADD MSTORE PUSH1 0x18 PUSH1 0x24 DUP3 ADD MSTORE PUSH24 0x115490CDCC8C4E881A5B9D985B1A59081D1BDAD95B881251 PUSH1 0x42 SHL PUSH1 0x44 DUP3 ADD MSTORE PUSH1 0x64 ADD PUSH2 0xAD8 JUMP JUMPDEST PUSH1 0x60 PUSH1 0x0 PUSH1 0x9 SLOAD PUSH1 0x1 PUSH1 0x1 PUSH1 0x40 SHL SUB DUP2 GT ISZERO PUSH2 0x1E04 JUMPI PUSH2 0x1E04 PUSH2 0x4736 JUMP JUMPDEST PUSH1 0x40 MLOAD SWAP1 DUP1 DUP3 MSTORE DUP1 PUSH1 0x20 MUL PUSH1 0x20 ADD DUP3 ADD PUSH1 0x40 MSTORE DUP1 ISZERO PUSH2 0x1E77 JUMPI DUP2 PUSH1 0x20 ADD JUMPDEST PUSH2 0x1E64 PUSH1 0x40 MLOAD DUP1 PUSH1 0xE0 ADD PUSH1 0x40 MSTORE DUP1 PUSH1 0x0 DUP2 MSTORE PUSH1 0x20 ADD PUSH1 0x0 DUP2 MSTORE PUSH1 0x20 ADD PUSH1 0x0 DUP2 MSTORE PUSH1 0x20 ADD PUSH1 0x0 DUP2 MSTORE PUSH1 0x20 ADD PUSH1 0x0 DUP2 MSTORE PUSH1 0x20 ADD PUSH1 0x0 DUP2 MSTORE PUSH1 0x20 ADD PUSH1 0x0 DUP1 SIGNEXTEND DUP2 MSTORE POP SWAP1 JUMP JUMPDEST DUP2 MSTORE PUSH1 0x20 ADD SWAP1 PUSH1 0x1 SWAP1 SUB SWAP1 DUP2 PUSH2 0x1E22 JUMPI SWAP1 POP JUMPDEST POP SWAP1 POP PUSH1 0x0 JUMPDEST PUSH1 0xA SLOAD DUP2 LT ISZERO PUSH2 0x1712 JUMPI PUSH1 0x0 DUP2 DUP2 MSTORE PUSH1 0x14 PUSH1 0x20 SWAP1 DUP2 MSTORE PUSH1 0x40 DUP1 DUP4 KECCAK256 DUP2 MLOAD PUSH1 0xE0 DUP2 ADD DUP4 MSTORE DUP2 SLOAD DUP2 MSTORE PUSH1 0x1 DUP3 ADD SLOAD SWAP4 DUP2 ADD SWAP4 SWAP1 SWAP4 MSTORE PUSH1 0x2 DUP2 ADD SLOAD SWAP2 DUP4 ADD SWAP2 SWAP1 SWAP2 MSTORE PUSH1 0x3 DUP2 ADD SLOAD PUSH1 0x60 DUP4 ADD MSTORE PUSH1 0x4 DUP2 ADD SLOAD PUSH1 0x80 DUP4 ADD MSTORE PUSH1 0x5 DUP2 ADD SLOAD PUSH1 0xA0 DUP4 ADD MSTORE PUSH1 0x6 DUP2 ADD SLOAD SWAP1 SWAP3 SIGNEXTEND PUSH1 0xC0 DUP3 ADD MSTORE DUP4 MLOAD DUP5 SWAP1 DUP5 SWAP1 DUP2 LT PUSH2 0x1EFB JUMPI PUSH2 0x1EFB PUSH2 0x4F87 JUMP JUMPDEST PUSH1 0x20 MUL PUSH1 0x20 ADD ADD DUP2 SWAP1 MSTORE POP POP DUP1 DUP1 PUSH2 0x1F12 SWAP1 PUSH2 0x4F21 JUMP JUMPDEST SWAP2 POP POP PUSH2 0x1E7D JUMP JUMPDEST PUSH1 0x0 PUSH1 0x1 PUSH1 0x1 PUSH1 0xA0 SHL SUB DUP3 AND PUSH2 0x1F84 JUMPI PUSH1 0x40 MLOAD PUSH3 0x461BCD PUSH1 0xE5 SHL DUP2 MSTORE PUSH1 0x20 PUSH1 0x4 DUP3 ADD MSTORE PUSH1 0x29 PUSH1 0x24 DUP3 ADD MSTORE PUSH32 0x4552433732313A2061646472657373207A65726F206973206E6F742061207661 PUSH1 0x44 DUP3 ADD MSTORE PUSH9 0x3634B21037BBB732B9 PUSH1 0xB9 SHL PUSH1 0x64 DUP3 ADD MSTORE PUSH1 0x84 ADD PUSH2 0xAD8 JUMP JUMPDEST POP PUSH1 0x1 PUSH1 0x1 PUSH1 0xA0 SHL SUB AND PUSH1 0x0 SWAP1 DUP2 MSTORE PUSH1 0x3 PUSH1 0x20 MSTORE PUSH1 0x40 SWAP1 KECCAK256 SLOAD SWAP1 JUMP JUMPDEST PUSH1 0x60 PUSH1 0x0 PUSH1 0x1 JUMPDEST PUSH1 0xF SLOAD DUP2 GT PUSH2 0x1FF6 JUMPI PUSH1 0x0 DUP2 DUP2 MSTORE PUSH1 0x11 PUSH1 0x20 SWAP1 DUP2 MSTORE PUSH1 0x40 DUP1 DUP4 KECCAK256 SLOAD DUP4 MSTORE PUSH1 0x10 SWAP1 SWAP2 MSTORE SWAP1 KECCAK256 PUSH1 0x1 ADD SLOAD DUP5 SWAP1 SUB PUSH2 0x1FE4 JUMPI PUSH2 0x1FE1 PUSH1 0x1 DUP4 PUSH2 0x4D9D JUMP JUMPDEST SWAP2 POP JUMPDEST DUP1 PUSH2 0x1FEE DUP2 PUSH2 0x4F21 JUMP JUMPDEST SWAP2 POP POP PUSH2 0x1FA7 JUMP JUMPDEST POP PUSH1 0x0 DUP2 PUSH1 0x1 PUSH1 0x1 PUSH1 0x40 SHL SUB DUP2 GT ISZERO PUSH2 0x2011 JUMPI PUSH2 0x2011 PUSH2 0x4736 JUMP JUMPDEST PUSH1 0x40 MLOAD SWAP1 DUP1 DUP3 MSTORE DUP1 PUSH1 0x20 MUL PUSH1 0x20 ADD DUP3 ADD PUSH1 0x40 MSTORE DUP1 ISZERO PUSH2 0x2066 JUMPI DUP2 PUSH1 0x20 ADD JUMPDEST PUSH2 0x2053 PUSH1 0x40 MLOAD DUP1 PUSH1 0x60 ADD PUSH1 0x40 MSTORE DUP1 PUSH1 0x0 DUP2 MSTORE PUSH1 0x20 ADD PUSH1 0x0 DUP2 MSTORE PUSH1 0x20 ADD PUSH1 0x0 DUP2 MSTORE POP SWAP1 JUMP JUMPDEST DUP2 MSTORE PUSH1 0x20 ADD SWAP1 PUSH1 0x1 SWAP1 SUB SWAP1 DUP2 PUSH2 0x202F JUMPI SWAP1 POP JUMPDEST POP PUSH1 0x0 SWAP3 POP SWAP1 POP PUSH1 0x1 JUMPDEST PUSH1 0xF SLOAD DUP2 GT PUSH2 0x2115 JUMPI PUSH1 0x0 DUP2 DUP2 MSTORE PUSH1 0x11 PUSH1 0x20 SWAP1 DUP2 MSTORE PUSH1 0x40 DUP1 DUP4 KECCAK256 SLOAD DUP4 MSTORE PUSH1 0x10 SWAP1 SWAP2 MSTORE SWAP1 KECCAK256 PUSH1 0x1 ADD SLOAD DUP6 SWAP1 SUB PUSH2 0x2103 JUMPI PUSH1 0x0 DUP2 DUP2 MSTORE PUSH1 0x11 PUSH1 0x20 SWAP1 DUP2 MSTORE PUSH1 0x40 SWAP2 DUP3 SWAP1 KECCAK256 DUP3 MLOAD PUSH1 0x60 DUP2 ADD DUP5 MSTORE DUP2 SLOAD DUP2 MSTORE PUSH1 0x1 DUP3 ADD SLOAD SWAP3 DUP2 ADD SWAP3 SWAP1 SWAP3 MSTORE PUSH1 0x2 DUP2 ADD SLOAD SWAP3 DUP3 ADD SWAP3 SWAP1 SWAP3 MSTORE DUP4 MLOAD DUP5 SWAP1 DUP7 SWAP1 DUP2 LT PUSH2 0x20E9 JUMPI PUSH2 0x20E9 PUSH2 0x4F87 JUMP JUMPDEST PUSH1 0x20 SWAP1 DUP2 MUL SWAP2 SWAP1 SWAP2 ADD ADD MSTORE PUSH2 0x20FF PUSH1 0x1 DUP6 PUSH2 0x4D9D JUMP JUMPDEST SWAP4 POP POP JUMPDEST DUP1 PUSH2 0x210D DUP2 PUSH2 0x4F21 JUMP JUMPDEST SWAP2 POP POP PUSH2 0x2070 JUMP JUMPDEST POP SWAP4 SWAP3 POP POP POP JUMP JUMPDEST PUSH1 0x60 PUSH1 0x0 DUP1 PUSH2 0x212B PUSH1 0x8 SLOAD SWAP1 JUMP JUMPDEST SWAP1 POP PUSH1 0x1 JUMPDEST DUP2 DUP2 GT PUSH2 0x2170 JUMPI PUSH1 0x0 DUP2 DUP2 MSTORE PUSH1 0x10 PUSH1 0x20 MSTORE PUSH1 0x40 SWAP1 KECCAK256 PUSH1 0x1 ADD SLOAD DUP6 SWAP1 SUB PUSH2 0x215E JUMPI PUSH2 0x215B PUSH1 0x1 DUP5 PUSH2 0x4D9D JUMP JUMPDEST SWAP3 POP JUMPDEST DUP1 PUSH2 0x2168 DUP2 PUSH2 0x4F21 JUMP JUMPDEST SWAP2 POP POP PUSH2 0x2130 JUMP JUMPDEST POP PUSH1 0x0 DUP3 PUSH1 0x1 PUSH1 0x1 PUSH1 0x40 SHL SUB DUP2 GT ISZERO PUSH2 0x218B JUMPI PUSH2 0x218B PUSH2 0x4736 JUMP JUMPDEST PUSH1 0x40 MLOAD SWAP1 DUP1 DUP3 MSTORE DUP1 PUSH1 0x20 MUL PUSH1 0x20 ADD DUP3 ADD PUSH1 0x40 MSTORE DUP1 ISZERO PUSH2 0x21FC JUMPI DUP2 PUSH1 0x20 ADD JUMPDEST PUSH2 0x21E9 PUSH1 0x40 MLOAD DUP1 PUSH1 0xE0 ADD PUSH1 0x40 MSTORE DUP1 PUSH1 0x0 DUP2 MSTORE PUSH1 0x20 ADD PUSH1 0x0 DUP2 MSTORE PUSH1 0x20 ADD PUSH1 0x0 DUP2 MSTORE PUSH1 0x20 ADD PUSH1 0x0 DUP2 MSTORE PUSH1 0x20 ADD PUSH1 0x0 DUP2 MSTORE PUSH1 0x20 ADD PUSH1 0x60 DUP2 MSTORE PUSH1 0x20 ADD PUSH1 0x60 DUP2 MSTORE POP SWAP1 JUMP JUMPDEST DUP2 MSTORE PUSH1 0x20 ADD SWAP1 PUSH1 0x1 SWAP1 SUB SWAP1 DUP2 PUSH2 0x21A9 JUMPI SWAP1 POP JUMPDEST POP PUSH1 0x0 SWAP4 POP SWAP1 POP PUSH1 0x1 JUMPDEST DUP3 DUP2 GT PUSH2 0x23DD JUMPI PUSH1 0x0 DUP2 DUP2 MSTORE PUSH1 0x10 PUSH1 0x20 MSTORE PUSH1 0x40 SWAP1 KECCAK256 PUSH1 0x1 ADD SLOAD DUP7 SWAP1 SUB PUSH2 0x23CB JUMPI PUSH1 0x0 PUSH1 0x10 PUSH1 0x0 DUP4 DUP2 MSTORE PUSH1 0x20 ADD SWAP1 DUP2 MSTORE PUSH1 0x20 ADD PUSH1 0x0 KECCAK256 SWAP1 POP DUP1 PUSH1 0x40 MLOAD DUP1 PUSH1 0xE0 ADD PUSH1 0x40 MSTORE SWAP1 DUP2 PUSH1 0x0 DUP3 ADD SLOAD DUP2 MSTORE PUSH1 0x20 ADD PUSH1 0x1 DUP3 ADD SLOAD DUP2 MSTORE PUSH1 0x20 ADD PUSH1 0x2 DUP3 ADD SLOAD DUP2 MSTORE PUSH1 0x20 ADD PUSH1 0x3 DUP3 ADD SLOAD DUP2 MSTORE PUSH1 0x20 ADD PUSH1 0x4 DUP3 ADD SLOAD DUP2 MSTORE PUSH1 0x20 ADD PUSH1 0x5 DUP3 ADD DUP1 SLOAD PUSH2 0x228B SWAP1 PUSH2 0x4DB0 JUMP JUMPDEST DUP1 PUSH1 0x1F ADD PUSH1 0x20 DUP1 SWAP2 DIV MUL PUSH1 0x20 ADD PUSH1 0x40 MLOAD SWAP1 DUP2 ADD PUSH1 0x40 MSTORE DUP1 SWAP3 SWAP2 SWAP1 DUP2 DUP2 MSTORE PUSH1 0x20 ADD DUP3 DUP1 SLOAD PUSH2 0x22B7 SWAP1 PUSH2 0x4DB0 JUMP JUMPDEST DUP1 ISZERO PUSH2 0x2304 JUMPI DUP1 PUSH1 0x1F LT PUSH2 0x22D9 JUMPI PUSH2 0x100 DUP1 DUP4 SLOAD DIV MUL DUP4 MSTORE SWAP2 PUSH1 0x20 ADD SWAP2 PUSH2 0x2304 JUMP JUMPDEST DUP3 ADD SWAP2 SWAP1 PUSH1 0x0 MSTORE PUSH1 0x20 PUSH1 0x0 KECCAK256 SWAP1 JUMPDEST DUP2 SLOAD DUP2 MSTORE SWAP1 PUSH1 0x1 ADD SWAP1 PUSH1 0x20 ADD DUP1 DUP4 GT PUSH2 0x22E7 JUMPI DUP3 SWAP1 SUB PUSH1 0x1F AND DUP3 ADD SWAP2 JUMPDEST POP POP POP POP POP DUP2 MSTORE PUSH1 0x20 ADD PUSH1 0x6 DUP3 ADD DUP1 SLOAD PUSH2 0x231D SWAP1 PUSH2 0x4DB0 JUMP JUMPDEST DUP1 PUSH1 0x1F ADD PUSH1 0x20 DUP1 SWAP2 DIV MUL PUSH1 0x20 ADD PUSH1 0x40 MLOAD SWAP1 DUP2 ADD PUSH1 0x40 MSTORE DUP1 SWAP3 SWAP2 SWAP1 DUP2 DUP2 MSTORE PUSH1 0x20 ADD DUP3 DUP1 SLOAD PUSH2 0x2349 SWAP1 PUSH2 0x4DB0 JUMP JUMPDEST DUP1 ISZERO PUSH2 0x2396 JUMPI DUP1 PUSH1 0x1F LT PUSH2 0x236B JUMPI PUSH2 0x100 DUP1 DUP4 SLOAD DIV MUL DUP4 MSTORE SWAP2 PUSH1 0x20 ADD SWAP2 PUSH2 0x2396 JUMP JUMPDEST DUP3 ADD SWAP2 SWAP1 PUSH1 0x0 MSTORE PUSH1 0x20 PUSH1 0x0 KECCAK256 SWAP1 JUMPDEST DUP2 SLOAD DUP2 MSTORE SWAP1 PUSH1 0x1 ADD SWAP1 PUSH1 0x20 ADD DUP1 DUP4 GT PUSH2 0x2379 JUMPI DUP3 SWAP1 SUB PUSH1 0x1F AND DUP3 ADD SWAP2 JUMPDEST POP POP POP POP POP DUP2 MSTORE POP POP DUP4 DUP7 DUP2 MLOAD DUP2 LT PUSH2 0x23B1 JUMPI PUSH2 0x23B1 PUSH2 0x4F87 JUMP JUMPDEST PUSH1 0x20 SWAP1 DUP2 MUL SWAP2 SWAP1 SWAP2 ADD ADD MSTORE PUSH2 0x23C7 PUSH1 0x1 DUP7 PUSH2 0x4D9D JUMP JUMPDEST SWAP5 POP POP JUMPDEST DUP1 PUSH2 0x23D5 DUP2 PUSH2 0x4F21 JUMP JUMPDEST SWAP2 POP POP PUSH2 0x2206 JUMP JUMPDEST POP SWAP5 SWAP4 POP POP POP POP JUMP JUMPDEST PUSH2 0x23F4 PUSH1 0x8 DUP1 SLOAD PUSH1 0x1 ADD SWAP1 SSTORE JUMP JUMPDEST PUSH1 0x0 PUSH2 0x23FF PUSH1 0x8 SLOAD SWAP1 JUMP JUMPDEST SWAP1 POP PUSH2 0x240B CALLER DUP3 PUSH2 0x3BED JUMP JUMPDEST PUSH2 0x2415 DUP2 DUP4 PUSH2 0x3D86 JUMP JUMPDEST PUSH1 0x40 DUP1 MLOAD PUSH1 0xE0 DUP2 ADD DUP3 MSTORE DUP8 DUP2 MSTORE CALLER PUSH1 0x0 SWAP1 DUP2 MSTORE PUSH1 0x18 PUSH1 0x20 SWAP1 DUP2 MSTORE SWAP1 DUP4 SWAP1 KECCAK256 SLOAD SWAP1 DUP3 ADD MSTORE TIMESTAMP SWAP2 DUP2 ADD SWAP2 SWAP1 SWAP2 MSTORE PUSH1 0x60 DUP2 ADD PUSH2 0x2451 DUP8 PUSH3 0x278D00 PUSH2 0x5054 JUMP JUMPDEST PUSH2 0x245B SWAP1 TIMESTAMP PUSH2 0x4D9D JUMP JUMPDEST DUP2 MSTORE PUSH1 0x20 DUP1 DUP3 ADD DUP8 SWAP1 MSTORE PUSH1 0x40 DUP1 DUP4 ADD DUP8 SWAP1 MSTORE PUSH1 0x60 SWAP3 DUP4 ADD DUP7 SWAP1 MSTORE PUSH1 0x0 DUP6 DUP2 MSTORE PUSH1 0x10 DUP4 MSTORE DUP2 SWAP1 KECCAK256 DUP5 MLOAD DUP2 SSTORE SWAP2 DUP5 ADD MLOAD PUSH1 0x1 DUP4 ADD SSTORE DUP4 ADD MLOAD PUSH1 0x2 DUP3 ADD SSTORE SWAP1 DUP3 ADD MLOAD PUSH1 0x3 DUP3 ADD SSTORE PUSH1 0x80 DUP3 ADD MLOAD PUSH1 0x4 DUP3 ADD SSTORE PUSH1 0xA0 DUP3 ADD MLOAD PUSH1 0x5 DUP3 ADD SWAP1 PUSH2 0x24BD SWAP1 DUP3 PUSH2 0x4F9D JUMP JUMPDEST POP PUSH1 0xC0 DUP3 ADD MLOAD PUSH1 0x6 DUP3 ADD SWAP1 PUSH2 0x24D2 SWAP1 DUP3 PUSH2 0x4F9D JUMP JUMPDEST POP POP POP PUSH1 0x0 SWAP6 DUP7 MSTORE POP POP PUSH1 0x15 PUSH1 0x20 MSTORE POP POP PUSH1 0x40 SWAP1 SWAP2 KECCAK256 PUSH1 0x9 ADD DUP1 SLOAD PUSH1 0xFF NOT AND PUSH1 0x1 OR SWAP1 SSTORE POP JUMP JUMPDEST PUSH1 0x60 PUSH1 0x1 DUP1 SLOAD PUSH2 0x9BA SWAP1 PUSH2 0x4DB0 JUMP JUMPDEST PUSH1 0x40 DUP1 MLOAD PUSH1 0xC0 DUP2 ADD DUP3 MSTORE PUSH1 0xD SLOAD DUP1 DUP3 MSTORE PUSH1 0x1 PUSH1 0x1 PUSH1 0xA0 SHL SUB DUP9 DUP2 AND PUSH1 0x20 DUP1 DUP6 ADD SWAP2 DUP3 MSTORE DUP5 DUP7 ADD DUP11 DUP2 MSTORE PUSH1 0x60 DUP7 ADD DUP11 SWAP1 MSTORE PUSH1 0x80 DUP7 ADD DUP10 SWAP1 MSTORE PUSH1 0xA0 DUP7 ADD DUP9 SWAP1 MSTORE PUSH1 0x0 SWAP5 DUP6 MSTORE PUSH1 0x13 SWAP1 SWAP2 MSTORE SWAP5 SWAP1 SWAP3 KECCAK256 DUP4 MLOAD DUP2 SSTORE SWAP2 MLOAD PUSH1 0x1 DUP4 ADD DUP1 SLOAD PUSH1 0x1 PUSH1 0x1 PUSH1 0xA0 SHL SUB NOT AND SWAP2 SWAP1 SWAP3 AND OR SWAP1 SSTORE SWAP2 MLOAD SWAP1 SWAP2 SWAP1 PUSH1 0x2 DUP3 ADD SWAP1 PUSH2 0x2585 SWAP1 DUP3 PUSH2 0x4F9D JUMP JUMPDEST POP PUSH1 0x60 DUP3 ADD MLOAD PUSH1 0x3 DUP3 ADD SWAP1 PUSH2 0x259A SWAP1 DUP3 PUSH2 0x4F9D JUMP JUMPDEST POP PUSH1 0x80 DUP3 ADD MLOAD PUSH1 0x4 DUP3 ADD SWAP1 PUSH2 0x25AF SWAP1 DUP3 PUSH2 0x4F9D JUMP JUMPDEST POP PUSH1 0xA0 DUP3 ADD MLOAD PUSH1 0x5 DUP3 ADD SWAP1 PUSH2 0x25C4 SWAP1 DUP3 PUSH2 0x4F9D JUMP JUMPDEST POP SWAP1 POP POP PUSH1 0x1 PUSH1 0xD PUSH1 0x0 DUP3 DUP3 SLOAD PUSH2 0x25DB SWAP2 SWAP1 PUSH2 0x4D9D JUMP JUMPDEST SWAP1 SWAP2 SSTORE POP POP POP POP POP POP POP JUMP JUMPDEST PUSH2 0x25EF PUSH2 0x4317 JUMP JUMPDEST PUSH1 0x0 JUMPDEST PUSH1 0xC SLOAD DUP2 LT ISZERO PUSH2 0x27D JUMPI PUSH1 0x0 DUP2 DUP2 MSTORE PUSH1 0x12 PUSH1 0x20 MSTORE PUSH1 0x40 SWAP1 KECCAK256 PUSH1 0x1 ADD SLOAD PUSH1 0x1 PUSH1 0x1 PUSH1 0xA0 SHL SUB DUP1 DUP6 AND SWAP2 AND SUB PUSH2 0x28AA JUMPI PUSH1 0x0 DUP2 DUP2 MSTORE PUSH1 0x12 PUSH1 0x20 SWAP1 DUP2 MSTORE PUSH1 0x40 SWAP2 DUP3 SWAP1 KECCAK256 DUP3 MLOAD PUSH1 0xC0 DUP2 ADD DUP5 MSTORE DUP2 SLOAD DUP2 MSTORE PUSH1 0x1 DUP3 ADD SLOAD PUSH1 0x1 PUSH1 0x1 PUSH1 0xA0 SHL SUB AND SWAP3 DUP2 ADD SWAP3 SWAP1 SWAP3 MSTORE PUSH1 0x2 DUP2 ADD DUP1 SLOAD SWAP3 SWAP4 SWAP2 SWAP3 SWAP2 DUP5 ADD SWAP2 PUSH2 0x266A SWAP1 PUSH2 0x4DB0 JUMP JUMPDEST DUP1 PUSH1 0x1F ADD PUSH1 0x20 DUP1 SWAP2 DIV MUL PUSH1 0x20 ADD PUSH1 0x40 MLOAD SWAP1 DUP2 ADD PUSH1 0x40 MSTORE DUP1 SWAP3 SWAP2 SWAP1 DUP2 DUP2 MSTORE PUSH1 0x20 ADD DUP3 DUP1 SLOAD PUSH2 0x2696 SWAP1 PUSH2 0x4DB0 JUMP JUMPDEST DUP1 ISZERO PUSH2 0x26E3 JUMPI DUP1 PUSH1 0x1F LT PUSH2 0x26B8 JUMPI PUSH2 0x100 DUP1 DUP4 SLOAD DIV MUL DUP4 MSTORE SWAP2 PUSH1 0x20 ADD SWAP2 PUSH2 0x26E3 JUMP JUMPDEST DUP3 ADD SWAP2 SWAP1 PUSH1 0x0 MSTORE PUSH1 0x20 PUSH1 0x0 KECCAK256 SWAP1 JUMPDEST DUP2 SLOAD DUP2 MSTORE SWAP1 PUSH1 0x1 ADD SWAP1 PUSH1 0x20 ADD DUP1 DUP4 GT PUSH2 0x26C6 JUMPI DUP3 SWAP1 SUB PUSH1 0x1F AND DUP3 ADD SWAP2 JUMPDEST POP POP POP POP POP DUP2 MSTORE PUSH1 0x20 ADD PUSH1 0x3 DUP3 ADD DUP1 SLOAD PUSH2 0x26FC SWAP1 PUSH2 0x4DB0 JUMP JUMPDEST DUP1 PUSH1 0x1F ADD PUSH1 0x20 DUP1 SWAP2 DIV MUL PUSH1 0x20 ADD PUSH1 0x40 MLOAD SWAP1 DUP2 ADD PUSH1 0x40 MSTORE DUP1 SWAP3 SWAP2 SWAP1 DUP2 DUP2 MSTORE PUSH1 0x20 ADD DUP3 DUP1 SLOAD PUSH2 0x2728 SWAP1 PUSH2 0x4DB0 JUMP JUMPDEST DUP1 ISZERO PUSH2 0x2775 JUMPI DUP1 PUSH1 0x1F LT PUSH2 0x274A JUMPI PUSH2 0x100 DUP1 DUP4 SLOAD DIV MUL DUP4 MSTORE SWAP2 PUSH1 0x20 ADD SWAP2 PUSH2 0x2775 JUMP JUMPDEST DUP3 ADD SWAP2 SWAP1 PUSH1 0x0 MSTORE PUSH1 0x20 PUSH1 0x0 KECCAK256 SWAP1 JUMPDEST DUP2 SLOAD DUP2 MSTORE SWAP1 PUSH1 0x1 ADD SWAP1 PUSH1 0x20 ADD DUP1 DUP4 GT PUSH2 0x2758 JUMPI DUP3 SWAP1 SUB PUSH1 0x1F AND DUP3 ADD SWAP2 JUMPDEST POP POP POP POP POP DUP2 MSTORE PUSH1 0x20 ADD PUSH1 0x4 DUP3 ADD DUP1 SLOAD PUSH2 0x278E SWAP1 PUSH2 0x4DB0 JUMP JUMPDEST DUP1 PUSH1 0x1F ADD PUSH1 0x20 DUP1 SWAP2 DIV MUL PUSH1 0x20 ADD PUSH1 0x40 MLOAD SWAP1 DUP2 ADD PUSH1 0x40 MSTORE DUP1 SWAP3 SWAP2 SWAP1 DUP2 DUP2 MSTORE PUSH1 0x20 ADD DUP3 DUP1 SLOAD PUSH2 0x27BA SWAP1 PUSH2 0x4DB0 JUMP JUMPDEST DUP1 ISZERO PUSH2 0x2807 JUMPI DUP1 PUSH1 0x1F LT PUSH2 0x27DC JUMPI PUSH2 0x100 DUP1 DUP4 SLOAD DIV MUL DUP4 MSTORE SWAP2 PUSH1 0x20 ADD SWAP2 PUSH2 0x2807 JUMP JUMPDEST DUP3 ADD SWAP2 SWAP1 PUSH1 0x0 MSTORE PUSH1 0x20 PUSH1 0x0 KECCAK256 SWAP1 JUMPDEST DUP2 SLOAD DUP2 MSTORE SWAP1 PUSH1 0x1 ADD SWAP1 PUSH1 0x20 ADD DUP1 DUP4 GT PUSH2 0x27EA JUMPI DUP3 SWAP1 SUB PUSH1 0x1F AND DUP3 ADD SWAP2 JUMPDEST POP POP POP POP POP DUP2 MSTORE PUSH1 0x20 ADD PUSH1 0x5 DUP3 ADD DUP1 SLOAD PUSH2 0x2820 SWAP1 PUSH2 0x4DB0 JUMP JUMPDEST DUP1 PUSH1 0x1F ADD PUSH1 0x20 DUP1 SWAP2 DIV MUL PUSH1 0x20 ADD PUSH1 0x40 MLOAD SWAP1 DUP2 ADD PUSH1 0x40 MSTORE DUP1 SWAP3 SWAP2 SWAP1 DUP2 DUP2 MSTORE PUSH1 0x20 ADD DUP3 DUP1 SLOAD PUSH2 0x284C SWAP1 PUSH2 0x4DB0 JUMP JUMPDEST DUP1 ISZERO PUSH2 0x2899 JUMPI DUP1 PUSH1 0x1F LT PUSH2 0x286E JUMPI PUSH2 0x100 DUP1 DUP4 SLOAD DIV MUL DUP4 MSTORE SWAP2 PUSH1 0x20 ADD SWAP2 PUSH2 0x2899 JUMP JUMPDEST DUP3 ADD SWAP2 SWAP1 PUSH1 0x0 MSTORE PUSH1 0x20 PUSH1 0x0 KECCAK256 SWAP1 JUMPDEST DUP2 SLOAD DUP2 MSTORE SWAP1 PUSH1 0x1 ADD SWAP1 PUSH1 0x20 ADD DUP1 DUP4 GT PUSH2 0x287C JUMPI DUP3 SWAP1 SUB PUSH1 0x1F AND DUP3 ADD SWAP2 JUMPDEST POP POP POP POP POP DUP2 MSTORE POP POP SWAP2 POP POP SWAP2 SWAP1 POP JUMP JUMPDEST DUP1 PUSH2 0x28B4 DUP2 PUSH2 0x4F21 JUMP JUMPDEST SWAP2 POP POP PUSH2 0x25F2 JUMP JUMPDEST PUSH2 0x28C7 CALLER DUP4 DUP4 PUSH2 0x3E19 JUMP JUMPDEST POP POP JUMP JUMPDEST PUSH1 0x60 PUSH1 0x0 PUSH1 0xD SLOAD PUSH1 0x1 PUSH1 0x1 PUSH1 0x40 SHL SUB DUP2 GT ISZERO PUSH2 0x28E9 JUMPI PUSH2 0x28E9 PUSH2 0x4736 JUMP JUMPDEST PUSH1 0x40 MLOAD SWAP1 DUP1 DUP3 MSTORE DUP1 PUSH1 0x20 MUL PUSH1 0x20 ADD DUP3 ADD PUSH1 0x40 MSTORE DUP1 ISZERO PUSH2 0x2922 JUMPI DUP2 PUSH1 0x20 ADD JUMPDEST PUSH2 0x290F PUSH2 0x4317 JUMP JUMPDEST DUP2 MSTORE PUSH1 0x20 ADD SWAP1 PUSH1 0x1 SWAP1 SUB SWAP1 DUP2 PUSH2 0x2907 JUMPI SWAP1 POP JUMPDEST POP SWAP1 POP PUSH1 0x0 JUMPDEST PUSH1 0xD SLOAD DUP2 LT ISZERO PUSH2 0x1712 JUMPI PUSH1 0x0 DUP2 DUP2 MSTORE PUSH1 0x13 PUSH1 0x20 SWAP1 DUP2 MSTORE PUSH1 0x40 SWAP2 DUP3 SWAP1 KECCAK256 DUP3 MLOAD PUSH1 0xC0 DUP2 ADD DUP5 MSTORE DUP2 SLOAD DUP2 MSTORE PUSH1 0x1 DUP3 ADD SLOAD PUSH1 0x1 PUSH1 0x1 PUSH1 0xA0 SHL SUB AND SWAP3 DUP2 ADD SWAP3 SWAP1 SWAP3 MSTORE PUSH1 0x2 DUP2 ADD DUP1 SLOAD SWAP2 SWAP4 DUP5 SWAP3 SWAP1 DUP5 ADD SWAP2 SWAP1 PUSH2 0x297D SWAP1 PUSH2 0x4DB0 JUMP JUMPDEST DUP1 PUSH1 0x1F ADD PUSH1 0x20 DUP1 SWAP2 DIV MUL PUSH1 0x20 ADD PUSH1 0x40 MLOAD SWAP1 DUP2 ADD PUSH1 0x40 MSTORE DUP1 SWAP3 SWAP2 SWAP1 DUP2 DUP2 MSTORE PUSH1 0x20 ADD DUP3 DUP1 SLOAD PUSH2 0x29A9 SWAP1 PUSH2 0x4DB0 JUMP JUMPDEST DUP1 ISZERO PUSH2 0x29F6 JUMPI DUP1 PUSH1 0x1F LT PUSH2 0x29CB JUMPI PUSH2 0x100 DUP1 DUP4 SLOAD DIV MUL DUP4 MSTORE SWAP2 PUSH1 0x20 ADD SWAP2 PUSH2 0x29F6 JUMP JUMPDEST DUP3 ADD SWAP2 SWAP1 PUSH1 0x0 MSTORE PUSH1 0x20 PUSH1 0x0 KECCAK256 SWAP1 JUMPDEST DUP2 SLOAD DUP2 MSTORE SWAP1 PUSH1 0x1 ADD SWAP1 PUSH1 0x20 ADD DUP1 DUP4 GT PUSH2 0x29D9 JUMPI DUP3 SWAP1 SUB PUSH1 0x1F AND DUP3 ADD SWAP2 JUMPDEST POP POP POP POP POP DUP2 MSTORE PUSH1 0x20 ADD PUSH1 0x3 DUP3 ADD DUP1 SLOAD PUSH2 0x2A0F SWAP1 PUSH2 0x4DB0 JUMP JUMPDEST DUP1 PUSH1 0x1F ADD PUSH1 0x20 DUP1 SWAP2 DIV MUL PUSH1 0x20 ADD PUSH1 0x40 MLOAD SWAP1 DUP2 ADD PUSH1 0x40 MSTORE DUP1 SWAP3 SWAP2 SWAP1 DUP2 DUP2 MSTORE PUSH1 0x20 ADD DUP3 DUP1 SLOAD PUSH2 0x2A3B SWAP1 PUSH2 0x4DB0 JUMP JUMPDEST DUP1 ISZERO PUSH2 0x2A88 JUMPI DUP1 PUSH1 0x1F LT PUSH2 0x2A5D JUMPI PUSH2 0x100 DUP1 DUP4 SLOAD DIV MUL DUP4 MSTORE SWAP2 PUSH1 0x20 ADD SWAP2 PUSH2 0x2A88 JUMP JUMPDEST DUP3 ADD SWAP2 SWAP1 PUSH1 0x0 MSTORE PUSH1 0x20 PUSH1 0x0 KECCAK256 SWAP1 JUMPDEST DUP2 SLOAD DUP2 MSTORE SWAP1 PUSH1 0x1 ADD SWAP1 PUSH1 0x20 ADD DUP1 DUP4 GT PUSH2 0x2A6B JUMPI DUP3 SWAP1 SUB PUSH1 0x1F AND DUP3 ADD SWAP2 JUMPDEST POP POP POP POP POP DUP2 MSTORE PUSH1 0x20 ADD PUSH1 0x4 DUP3 ADD DUP1 SLOAD PUSH2 0x2AA1 SWAP1 PUSH2 0x4DB0 JUMP JUMPDEST DUP1 PUSH1 0x1F ADD PUSH1 0x20 DUP1 SWAP2 DIV MUL PUSH1 0x20 ADD PUSH1 0x40 MLOAD SWAP1 DUP2 ADD PUSH1 0x40 MSTORE DUP1 SWAP3 SWAP2 SWAP1 DUP2 DUP2 MSTORE PUSH1 0x20 ADD DUP3 DUP1 SLOAD PUSH2 0x2ACD SWAP1 PUSH2 0x4DB0 JUMP JUMPDEST DUP1 ISZERO PUSH2 0x2B1A JUMPI DUP1 PUSH1 0x1F LT PUSH2 0x2AEF JUMPI PUSH2 0x100 DUP1 DUP4 SLOAD DIV MUL DUP4 MSTORE SWAP2 PUSH1 0x20 ADD SWAP2 PUSH2 0x2B1A JUMP JUMPDEST DUP3 ADD SWAP2 SWAP1 PUSH1 0x0 MSTORE PUSH1 0x20 PUSH1 0x0 KECCAK256 SWAP1 JUMPDEST DUP2 SLOAD DUP2 MSTORE SWAP1 PUSH1 0x1 ADD SWAP1 PUSH1 0x20 ADD DUP1 DUP4 GT PUSH2 0x2AFD JUMPI DUP3 SWAP1 SUB PUSH1 0x1F AND DUP3 ADD SWAP2 JUMPDEST POP POP POP POP POP DUP2 MSTORE PUSH1 0x20 ADD PUSH1 0x5 DUP3 ADD DUP1 SLOAD PUSH2 0x2B33 SWAP1 PUSH2 0x4DB0 JUMP JUMPDEST DUP1 PUSH1 0x1F ADD PUSH1 0x20 DUP1 SWAP2 DIV MUL PUSH1 0x20 ADD PUSH1 0x40 MLOAD SWAP1 DUP2 ADD PUSH1 0x40 MSTORE DUP1 SWAP3 SWAP2 SWAP1 DUP2 DUP2 MSTORE PUSH1 0x20 ADD DUP3 DUP1 SLOAD PUSH2 0x2B5F SWAP1 PUSH2 0x4DB0 JUMP JUMPDEST DUP1 ISZERO PUSH2 0x2BAC JUMPI DUP1 PUSH1 0x1F LT PUSH2 0x2B81 JUMPI PUSH2 0x100 DUP1 DUP4 SLOAD DIV MUL DUP4 MSTORE SWAP2 PUSH1 0x20 ADD SWAP2 PUSH2 0x2BAC JUMP JUMPDEST DUP3 ADD SWAP2 SWAP1 PUSH1 0x0 MSTORE PUSH1 0x20 PUSH1 0x0 KECCAK256 SWAP1 JUMPDEST DUP2 SLOAD DUP2 MSTORE SWAP1 PUSH1 0x1 ADD SWAP1 PUSH1 0x20 ADD DUP1 DUP4 GT PUSH2 0x2B8F JUMPI DUP3 SWAP1 SUB PUSH1 0x1F AND DUP3 ADD SWAP2 JUMPDEST POP POP POP POP POP DUP2 MSTORE POP POP DUP4 DUP4 DUP2 MLOAD DUP2 LT PUSH2 0x2BC7 JUMPI PUSH2 0x2BC7 PUSH2 0x4F87 JUMP JUMPDEST PUSH1 0x20 MUL PUSH1 0x20 ADD ADD DUP2 SWAP1 MSTORE POP POP DUP1 DUP1 PUSH2 0x2BDE SWAP1 PUSH2 0x4F21 JUMP JUMPDEST SWAP2 POP POP PUSH2 0x2928 JUMP JUMPDEST PUSH2 0x2BF0 CALLER DUP4 PUSH2 0x39FE JUMP JUMPDEST PUSH2 0x2C0C JUMPI PUSH1 0x40 MLOAD PUSH3 0x461BCD PUSH1 0xE5 SHL DUP2 MSTORE PUSH1 0x4 ADD PUSH2 0xAD8 SWAP1 PUSH2 0x4F3A JUMP JUMPDEST PUSH2 0x2C18 DUP5 DUP5 DUP5 DUP5 PUSH2 0x3EE7 JUMP JUMPDEST POP POP POP POP JUMP JUMPDEST PUSH1 0x0 DUP2 PUSH1 0x40 MLOAD PUSH1 0x20 ADD PUSH2 0x2C31 SWAP2 SWAP1 PUSH2 0x506B JUMP JUMPDEST PUSH1 0x40 MLOAD PUSH1 0x20 DUP2 DUP4 SUB SUB DUP2 MSTORE SWAP1 PUSH1 0x40 MSTORE DUP1 MLOAD SWAP1 PUSH1 0x20 ADD KECCAK256 DUP4 PUSH1 0x40 MLOAD PUSH1 0x20 ADD PUSH2 0x2C58 SWAP2 SWAP1 PUSH2 0x506B JUMP JUMPDEST PUSH1 0x40 MLOAD PUSH1 0x20 DUP2 DUP4 SUB SUB DUP2 MSTORE SWAP1 PUSH1 0x40 MSTORE DUP1 MLOAD SWAP1 PUSH1 0x20 ADD KECCAK256 EQ SWAP1 POP SWAP3 SWAP2 POP POP JUMP JUMPDEST PUSH1 0x60 PUSH1 0x0 PUSH1 0xC SLOAD PUSH1 0x1 PUSH1 0x1 PUSH1 0x40 SHL SUB DUP2 GT ISZERO PUSH2 0x2C95 JUMPI PUSH2 0x2C95 PUSH2 0x4736 JUMP JUMPDEST PUSH1 0x40 MLOAD SWAP1 DUP1 DUP3 MSTORE DUP1 PUSH1 0x20 MUL PUSH1 0x20 ADD DUP3 ADD PUSH1 0x40 MSTORE DUP1 ISZERO PUSH2 0x2CCE JUMPI DUP2 PUSH1 0x20 ADD JUMPDEST PUSH2 0x2CBB PUSH2 0x4317 JUMP JUMPDEST DUP2 MSTORE PUSH1 0x20 ADD SWAP1 PUSH1 0x1 SWAP1 SUB SWAP1 DUP2 PUSH2 0x2CB3 JUMPI SWAP1 POP JUMPDEST POP SWAP1 POP PUSH1 0x0 JUMPDEST PUSH1 0xC SLOAD DUP2 LT ISZERO PUSH2 0x1712 JUMPI PUSH1 0x0 DUP2 DUP2 MSTORE PUSH1 0x12 PUSH1 0x20 SWAP1 DUP2 MSTORE PUSH1 0x40 SWAP2 DUP3 SWAP1 KECCAK256 DUP3 MLOAD PUSH1 0xC0 DUP2 ADD DUP5 MSTORE DUP2 SLOAD DUP2 MSTORE PUSH1 0x1 DUP3 ADD SLOAD PUSH1 0x1 PUSH1 0x1 PUSH1 0xA0 SHL SUB AND SWAP3 DUP2 ADD SWAP3 SWAP1 SWAP3 MSTORE PUSH1 0x2 DUP2 ADD DUP1 SLOAD SWAP2 SWAP4 DUP5 SWAP3 SWAP1 DUP5 ADD SWAP2 SWAP1 PUSH2 0x2D29 SWAP1 PUSH2 0x4DB0 JUMP JUMPDEST DUP1 PUSH1 0x1F ADD PUSH1 0x20 DUP1 SWAP2 DIV MUL PUSH1 0x20 ADD PUSH1 0x40 MLOAD SWAP1 DUP2 ADD PUSH1 0x40 MSTORE DUP1 SWAP3 SWAP2 SWAP1 DUP2 DUP2 MSTORE PUSH1 0x20 ADD DUP3 DUP1 SLOAD PUSH2 0x2D55 SWAP1 PUSH2 0x4DB0 JUMP JUMPDEST DUP1 ISZERO PUSH2 0x2DA2 JUMPI DUP1 PUSH1 0x1F LT PUSH2 0x2D77 JUMPI PUSH2 0x100 DUP1 DUP4 SLOAD DIV MUL DUP4 MSTORE SWAP2 PUSH1 0x20 ADD SWAP2 PUSH2 0x2DA2 JUMP JUMPDEST DUP3 ADD SWAP2 SWAP1 PUSH1 0x0 MSTORE PUSH1 0x20 PUSH1 0x0 KECCAK256 SWAP1 JUMPDEST DUP2 SLOAD DUP2 MSTORE SWAP1 PUSH1 0x1 ADD SWAP1 PUSH1 0x20 ADD DUP1 DUP4 GT PUSH2 0x2D85 JUMPI DUP3 SWAP1 SUB PUSH1 0x1F AND DUP3 ADD SWAP2 JUMPDEST POP POP POP POP POP DUP2 MSTORE PUSH1 0x20 ADD PUSH1 0x3 DUP3 ADD DUP1 SLOAD PUSH2 0x2DBB SWAP1 PUSH2 0x4DB0 JUMP JUMPDEST DUP1 PUSH1 0x1F ADD PUSH1 0x20 DUP1 SWAP2 DIV MUL PUSH1 0x20 ADD PUSH1 0x40 MLOAD SWAP1 DUP2 ADD PUSH1 0x40 MSTORE DUP1 SWAP3 SWAP2 SWAP1 DUP2 DUP2 MSTORE PUSH1 0x20 ADD DUP3 DUP1 SLOAD PUSH2 0x2DE7 SWAP1 PUSH2 0x4DB0 JUMP JUMPDEST DUP1 ISZERO PUSH2 0x2E34 JUMPI DUP1 PUSH1 0x1F LT PUSH2 0x2E09 JUMPI PUSH2 0x100 DUP1 DUP4 SLOAD DIV MUL DUP4 MSTORE SWAP2 PUSH1 0x20 ADD SWAP2 PUSH2 0x2E34 JUMP JUMPDEST DUP3 ADD SWAP2 SWAP1 PUSH1 0x0 MSTORE PUSH1 0x20 PUSH1 0x0 KECCAK256 SWAP1 JUMPDEST DUP2 SLOAD DUP2 MSTORE SWAP1 PUSH1 0x1 ADD SWAP1 PUSH1 0x20 ADD DUP1 DUP4 GT PUSH2 0x2E17 JUMPI DUP3 SWAP1 SUB PUSH1 0x1F AND DUP3 ADD SWAP2 JUMPDEST POP POP POP POP POP DUP2 MSTORE PUSH1 0x20 ADD PUSH1 0x4 DUP3 ADD DUP1 SLOAD PUSH2 0x2E4D SWAP1 PUSH2 0x4DB0 JUMP JUMPDEST DUP1 PUSH1 0x1F ADD PUSH1 0x20 DUP1 SWAP2 DIV MUL PUSH1 0x20 ADD PUSH1 0x40 MLOAD SWAP1 DUP2 ADD PUSH1 0x40 MSTORE DUP1 SWAP3 SWAP2 SWAP1 DUP2 DUP2 MSTORE PUSH1 0x20 ADD DUP3 DUP1 SLOAD PUSH2 0x2E79 SWAP1 PUSH2 0x4DB0 JUMP JUMPDEST DUP1 ISZERO PUSH2 0x2EC6 JUMPI DUP1 PUSH1 0x1F LT PUSH2 0x2E9B JUMPI PUSH2 0x100 DUP1 DUP4 SLOAD DIV MUL DUP4 MSTORE SWAP2 PUSH1 0x20 ADD SWAP2 PUSH2 0x2EC6 JUMP JUMPDEST DUP3 ADD SWAP2 SWAP1 PUSH1 0x0 MSTORE PUSH1 0x20 PUSH1 0x0 KECCAK256 SWAP1 JUMPDEST DUP2 SLOAD DUP2 MSTORE SWAP1 PUSH1 0x1 ADD SWAP1 PUSH1 0x20 ADD DUP1 DUP4 GT PUSH2 0x2EA9 JUMPI DUP3 SWAP1 SUB PUSH1 0x1F AND DUP3 ADD SWAP2 JUMPDEST POP POP POP POP POP DUP2 MSTORE PUSH1 0x20 ADD PUSH1 0x5 DUP3 ADD DUP1 SLOAD PUSH2 0x2EDF SWAP1 PUSH2 0x4DB0 JUMP JUMPDEST DUP1 PUSH1 0x1F ADD PUSH1 0x20 DUP1 SWAP2 DIV MUL PUSH1 0x20 ADD PUSH1 0x40 MLOAD SWAP1 DUP2 ADD PUSH1 0x40 MSTORE DUP1 SWAP3 SWAP2 SWAP1 DUP2 DUP2 MSTORE PUSH1 0x20 ADD DUP3 DUP1 SLOAD PUSH2 0x2F0B SWAP1 PUSH2 0x4DB0 JUMP JUMPDEST DUP1 ISZERO PUSH2 0x2F58 JUMPI DUP1 PUSH1 0x1F LT PUSH2 0x2F2D JUMPI PUSH2 0x100 DUP1 DUP4 SLOAD DIV MUL DUP4 MSTORE SWAP2 PUSH1 0x20 ADD SWAP2 PUSH2 0x2F58 JUMP JUMPDEST DUP3 ADD SWAP2 SWAP1 PUSH1 0x0 MSTORE PUSH1 0x20 PUSH1 0x0 KECCAK256 SWAP1 JUMPDEST DUP2 SLOAD DUP2 MSTORE SWAP1 PUSH1 0x1 ADD SWAP1 PUSH1 0x20 ADD DUP1 DUP4 GT PUSH2 0x2F3B JUMPI DUP3 SWAP1 SUB PUSH1 0x1F AND DUP3 ADD SWAP2 JUMPDEST POP POP POP POP POP DUP2 MSTORE POP POP DUP4 DUP4 DUP2 MLOAD DUP2 LT PUSH2 0x2F73 JUMPI PUSH2 0x2F73 PUSH2 0x4F87 JUMP JUMPDEST PUSH1 0x20 MUL PUSH1 0x20 ADD ADD DUP2 SWAP1 MSTORE POP POP DUP1 DUP1 PUSH2 0x2F8A SWAP1 PUSH2 0x4F21 JUMP JUMPDEST SWAP2 POP POP PUSH2 0x2CD4 JUMP JUMPDEST PUSH1 0x60 PUSH1 0x0 PUSH1 0xE SLOAD PUSH1 0x1 PUSH1 0x1 PUSH1 0x40 SHL SUB DUP2 GT ISZERO PUSH2 0x2FB0 JUMPI PUSH2 0x2FB0 PUSH2 0x4736 JUMP JUMPDEST PUSH1 0x40 MLOAD SWAP1 DUP1 DUP3 MSTORE DUP1 PUSH1 0x20 MUL PUSH1 0x20 ADD DUP3 ADD PUSH1 0x40 MSTORE DUP1 ISZERO PUSH2 0x3013 JUMPI DUP2 PUSH1 0x20 ADD JUMPDEST PUSH2 0x3000 PUSH1 0x40 MLOAD DUP1 PUSH1 0xA0 ADD PUSH1 0x40 MSTORE DUP1 PUSH1 0x0 DUP2 MSTORE PUSH1 0x20 ADD PUSH1 0x0 DUP2 MSTORE PUSH1 0x20 ADD PUSH1 0x0 DUP2 MSTORE PUSH1 0x20 ADD PUSH1 0x0 DUP2 MSTORE PUSH1 0x20 ADD PUSH1 0x0 DUP2 MSTORE POP SWAP1 JUMP JUMPDEST DUP2 MSTORE PUSH1 0x20 ADD SWAP1 PUSH1 0x1 SWAP1 SUB SWAP1 DUP2 PUSH2 0x2FCE JUMPI SWAP1 POP JUMPDEST POP SWAP1 POP PUSH1 0x0 JUMPDEST PUSH1 0xE SLOAD DUP2 LT ISZERO PUSH2 0x30B9 JUMPI PUSH1 0x0 DUP2 DUP2 MSTORE PUSH1 0x17 PUSH1 0x20 MSTORE PUSH1 0x40 SWAP1 KECCAK256 PUSH1 0x1 ADD SLOAD DUP5 SWAP1 SUB PUSH2 0x30A7 JUMPI PUSH1 0x0 DUP2 DUP2 MSTORE PUSH1 0x17 PUSH1 0x20 SWAP1 DUP2 MSTORE PUSH1 0x40 SWAP2 DUP3 SWAP1 KECCAK256 DUP3 MLOAD PUSH1 0xA0 DUP2 ADD DUP5 MSTORE DUP2 SLOAD DUP2 MSTORE PUSH1 0x1 DUP3 ADD SLOAD SWAP3 DUP2 ADD SWAP3 SWAP1 SWAP3 MSTORE PUSH1 0x2 DUP2 ADD SLOAD SWAP3 DUP3 ADD SWAP3 SWAP1 SWAP3 MSTORE PUSH1 0x3 DUP3 ADD SLOAD PUSH1 0x60 DUP3 ADD MSTORE PUSH1 0x4 DUP3 ADD SLOAD PUSH1 0x80 DUP3 ADD MSTORE DUP4 MLOAD DUP5 SWAP1 DUP5 SWAP1 DUP2 LT PUSH2 0x309A JUMPI PUSH2 0x309A PUSH2 0x4F87 JUMP JUMPDEST PUSH1 0x20 MUL PUSH1 0x20 ADD ADD DUP2 SWAP1 MSTORE POP POP JUMPDEST DUP1 PUSH2 0x30B1 DUP2 PUSH2 0x4F21 JUMP JUMPDEST SWAP2 POP POP PUSH2 0x3019 JUMP JUMPDEST POP SWAP3 SWAP2 POP POP JUMP JUMPDEST PUSH1 0x60 PUSH2 0x30CB DUP3 PUSH2 0x3931 JUMP JUMPDEST PUSH1 0x0 DUP3 DUP2 MSTORE PUSH1 0x6 PUSH1 0x20 MSTORE PUSH1 0x40 DUP2 KECCAK256 DUP1 SLOAD PUSH2 0x30E4 SWAP1 PUSH2 0x4DB0 JUMP JUMPDEST DUP1 PUSH1 0x1F ADD PUSH1 0x20 DUP1 SWAP2 DIV MUL PUSH1 0x20 ADD PUSH1 0x40 MLOAD SWAP1 DUP2 ADD PUSH1 0x40 MSTORE DUP1 SWAP3 SWAP2 SWAP1 DUP2 DUP2 MSTORE PUSH1 0x20 ADD DUP3 DUP1 SLOAD PUSH2 0x3110 SWAP1 PUSH2 0x4DB0 JUMP JUMPDEST DUP1 ISZERO PUSH2 0x315D JUMPI DUP1 PUSH1 0x1F LT PUSH2 0x3132 JUMPI PUSH2 0x100 DUP1 DUP4 SLOAD DIV MUL DUP4 MSTORE SWAP2 PUSH1 0x20 ADD SWAP2 PUSH2 0x315D JUMP JUMPDEST DUP3 ADD SWAP2 SWAP1 PUSH1 0x0 MSTORE PUSH1 0x20 PUSH1 0x0 KECCAK256 SWAP1 JUMPDEST DUP2 SLOAD DUP2 MSTORE SWAP1 PUSH1 0x1 ADD SWAP1 PUSH1 0x20 ADD DUP1 DUP4 GT PUSH2 0x3140 JUMPI DUP3 SWAP1 SUB PUSH1 0x1F AND DUP3 ADD SWAP2 JUMPDEST POP POP POP POP POP SWAP1 POP PUSH1 0x0 PUSH2 0x317B PUSH1 0x40 DUP1 MLOAD PUSH1 0x20 DUP2 ADD SWAP1 SWAP2 MSTORE PUSH1 0x0 DUP2 MSTORE SWAP1 JUMP JUMPDEST SWAP1 POP DUP1 MLOAD PUSH1 0x0 SUB PUSH2 0x318D JUMPI POP SWAP3 SWAP2 POP POP JUMP JUMPDEST DUP2 MLOAD ISZERO PUSH2 0x31BF JUMPI DUP1 DUP3 PUSH1 0x40 MLOAD PUSH1 0x20 ADD PUSH2 0x31A7 SWAP3 SWAP2 SWAP1 PUSH2 0x5087 JUMP JUMPDEST PUSH1 0x40 MLOAD PUSH1 0x20 DUP2 DUP4 SUB SUB DUP2 MSTORE SWAP1 PUSH1 0x40 MSTORE SWAP3 POP POP POP SWAP2 SWAP1 POP JUMP JUMPDEST PUSH2 0x31C8 DUP5 PUSH2 0x3F1A JUMP JUMPDEST SWAP5 SWAP4 POP POP POP POP JUMP JUMPDEST PUSH1 0x0 DUP2 DUP2 MSTORE PUSH1 0x10 PUSH1 0x20 MSTORE PUSH1 0x40 SWAP1 KECCAK256 PUSH1 0x4 ADD SLOAD CALLVALUE LT ISZERO PUSH2 0x3240 JUMPI PUSH1 0x40 MLOAD PUSH3 0x461BCD PUSH1 0xE5 SHL DUP2 MSTORE PUSH1 0x20 PUSH1 0x4 DUP3 ADD MSTORE PUSH1 0x26 PUSH1 0x24 DUP3 ADD MSTORE PUSH32 0x506C65617365206769766520746865206D696E696D756D20616D6F756E74206E PUSH1 0x44 DUP3 ADD MSTORE PUSH6 0x656564656421 PUSH1 0xD0 SHL PUSH1 0x64 DUP3 ADD MSTORE PUSH1 0x84 ADD PUSH2 0xAD8 JUMP JUMPDEST PUSH1 0x0 PUSH1 0x1 PUSH1 0xF SLOAD PUSH2 0x3251 SWAP2 SWAP1 PUSH2 0x4DE4 JUMP JUMPDEST SWAP1 POP JUMPDEST PUSH1 0x0 DUP2 DUP2 MSTORE PUSH1 0x11 PUSH1 0x20 MSTORE PUSH1 0x40 SWAP1 KECCAK256 SLOAD DUP3 EQ DUP1 ISZERO PUSH2 0x3299 JUMPI POP PUSH1 0x0 DUP2 DUP2 MSTORE PUSH1 0x11 PUSH1 0x20 SWAP1 DUP2 MSTORE PUSH1 0x40 DUP1 DUP4 KECCAK256 SLOAD DUP4 MSTORE PUSH1 0x10 DUP3 MSTORE DUP1 DUP4 KECCAK256 PUSH1 0x1 ADD SLOAD CALLER DUP5 MSTORE PUSH1 0x18 SWAP1 SWAP3 MSTORE SWAP1 SWAP2 KECCAK256 SLOAD EQ JUMPDEST PUSH2 0x32AF JUMPI DUP1 PUSH2 0x32A7 DUP2 PUSH2 0x50B6 JUMP JUMPDEST SWAP2 POP POP PUSH2 0x3254 JUMP JUMPDEST PUSH1 0x0 DUP2 DUP2 MSTORE PUSH1 0x11 PUSH1 0x20 MSTORE PUSH1 0x40 SWAP1 KECCAK256 PUSH1 0x2 ADD SLOAD PUSH1 0x1E SWAP1 PUSH2 0x32CE SWAP1 TIMESTAMP PUSH2 0x4DE4 JUMP JUMPDEST LT ISZERO PUSH2 0x32D9 JUMPI PUSH1 0x0 DUP1 REVERT JUMPDEST POP PUSH1 0x0 JUMPDEST PUSH1 0xE SLOAD DUP2 LT ISZERO PUSH2 0x3421 JUMPI PUSH1 0x0 DUP3 DUP2 MSTORE PUSH1 0x10 PUSH1 0x20 SWAP1 DUP2 MSTORE PUSH1 0x40 DUP1 DUP4 KECCAK256 SLOAD DUP5 DUP5 MSTORE PUSH1 0x17 SWAP1 SWAP3 MSTORE SWAP1 SWAP2 KECCAK256 PUSH1 0x1 ADD SLOAD SUB PUSH2 0x340F JUMPI PUSH1 0x0 DUP2 DUP2 MSTORE PUSH1 0x17 PUSH1 0x20 DUP2 DUP2 MSTORE PUSH1 0x40 DUP1 DUP5 KECCAK256 PUSH1 0x1 DUP2 ADD SLOAD DUP6 MSTORE PUSH1 0x15 DUP4 MSTORE SWAP1 DUP5 KECCAK256 PUSH1 0x6 ADD SLOAD SWAP4 DUP6 SWAP1 MSTORE SWAP2 SWAP1 MSTORE PUSH1 0x2 ADD SLOAD ADDRESS SWAP2 PUSH2 0x8FC SWAP2 CALLVALUE SWAP2 PUSH2 0x334C SWAP2 PUSH2 0x50CD JUMP JUMPDEST PUSH2 0x3356 SWAP2 SWAP1 PUSH2 0x5054 JUMP JUMPDEST PUSH1 0x40 MLOAD DUP2 ISZERO SWAP1 SWAP3 MUL SWAP2 PUSH1 0x0 DUP2 DUP2 DUP2 DUP6 DUP9 DUP9 CALL SWAP4 POP POP POP POP ISZERO DUP1 ISZERO PUSH2 0x337E JUMPI RETURNDATASIZE PUSH1 0x0 DUP1 RETURNDATACOPY RETURNDATASIZE PUSH1 0x0 REVERT JUMPDEST POP PUSH1 0x0 DUP2 DUP2 MSTORE PUSH1 0x17 PUSH1 0x20 DUP2 DUP2 MSTORE PUSH1 0x40 DUP1 DUP5 KECCAK256 DUP1 SLOAD DUP6 MSTORE PUSH1 0x12 DUP4 MSTORE DUP2 DUP6 KECCAK256 PUSH1 0x1 SWAP1 DUP2 ADD SLOAD SWAP1 DUP3 ADD SLOAD DUP7 MSTORE PUSH1 0x15 DUP5 MSTORE SWAP2 DUP6 KECCAK256 PUSH1 0x6 ADD SLOAD SWAP5 DUP7 SWAP1 MSTORE SWAP3 SWAP1 SWAP2 MSTORE PUSH1 0x2 SWAP1 SWAP2 ADD SLOAD PUSH1 0x1 PUSH1 0x1 PUSH1 0xA0 SHL SUB SWAP1 SWAP2 AND SWAP2 PUSH2 0x8FC SWAP2 CALLVALUE SWAP2 PUSH2 0x33DB SWAP2 PUSH2 0x50CD JUMP JUMPDEST PUSH2 0x33E5 SWAP2 SWAP1 PUSH2 0x5054 JUMP JUMPDEST PUSH1 0x40 MLOAD DUP2 ISZERO SWAP1 SWAP3 MUL SWAP2 PUSH1 0x0 DUP2 DUP2 DUP2 DUP6 DUP9 DUP9 CALL SWAP4 POP POP POP POP ISZERO DUP1 ISZERO PUSH2 0x340D JUMPI RETURNDATASIZE PUSH1 0x0 DUP1 RETURNDATACOPY RETURNDATASIZE PUSH1 0x0 REVERT JUMPDEST POP JUMPDEST DUP1 PUSH2 0x3419 DUP2 PUSH2 0x4F21 JUMP JUMPDEST SWAP2 POP POP PUSH2 0x32DD JUMP JUMPDEST PUSH1 0x40 MLOAD DUP1 PUSH1 0x60 ADD PUSH1 0x40 MSTORE DUP1 DUP4 DUP2 MSTORE PUSH1 0x20 ADD CALLVALUE DUP2 MSTORE PUSH1 0x20 ADD TIMESTAMP DUP2 MSTORE POP PUSH1 0x11 PUSH1 0x0 PUSH1 0xF PUSH1 0x0 DUP2 SLOAD DUP1 SWAP3 SWAP2 SWAP1 PUSH2 0x3453 SWAP1 PUSH2 0x4F21 JUMP JUMPDEST SWAP2 SWAP1 POP SSTORE DUP2 MSTORE PUSH1 0x20 ADD SWAP1 DUP2 MSTORE PUSH1 0x20 ADD PUSH1 0x0 KECCAK256 PUSH1 0x0 DUP3 ADD MLOAD DUP2 PUSH1 0x0 ADD SSTORE PUSH1 0x20 DUP3 ADD MLOAD DUP2 PUSH1 0x1 ADD SSTORE PUSH1 0x40 DUP3 ADD MLOAD DUP2 PUSH1 0x2 ADD SSTORE SWAP1 POP POP POP POP JUMP JUMPDEST PUSH1 0x60 PUSH1 0x0 PUSH1 0xA SLOAD PUSH1 0x1 PUSH1 0x1 PUSH1 0x40 SHL SUB DUP2 GT ISZERO PUSH2 0x34A8 JUMPI PUSH2 0x34A8 PUSH2 0x4736 JUMP JUMPDEST PUSH1 0x40 MLOAD SWAP1 DUP1 DUP3 MSTORE DUP1 PUSH1 0x20 MUL PUSH1 0x20 ADD DUP3 ADD PUSH1 0x40 MSTORE DUP1 ISZERO PUSH2 0x34E1 JUMPI DUP2 PUSH1 0x20 ADD JUMPDEST PUSH2 0x34CE PUSH2 0x42BB JUMP JUMPDEST DUP2 MSTORE PUSH1 0x20 ADD SWAP1 PUSH1 0x1 SWAP1 SUB SWAP1 DUP2 PUSH2 0x34C6 JUMPI SWAP1 POP JUMPDEST POP SWAP1 POP PUSH1 0x0 JUMPDEST PUSH1 0xA SLOAD DUP2 LT ISZERO PUSH2 0x1712 JUMPI PUSH1 0x0 PUSH1 0x15 PUSH1 0x0 DUP4 DUP2 MSTORE PUSH1 0x20 ADD SWAP1 DUP2 MSTORE PUSH1 0x20 ADD PUSH1 0x0 KECCAK256 SWAP1 POP DUP1 PUSH1 0x40 MLOAD DUP1 PUSH2 0x160 ADD PUSH1 0x40 MSTORE SWAP1 DUP2 PUSH1 0x0 DUP3 ADD SLOAD DUP2 MSTORE PUSH1 0x20 ADD PUSH1 0x1 DUP3 ADD SLOAD DUP2 MSTORE PUSH1 0x20 ADD PUSH1 0x2 DUP3 ADD DUP1 SLOAD PUSH2 0x3539 SWAP1 PUSH2 0x4DB0 JUMP JUMPDEST DUP1 PUSH1 0x1F ADD PUSH1 0x20 DUP1 SWAP2 DIV MUL PUSH1 0x20 ADD PUSH1 0x40 MLOAD SWAP1 DUP2 ADD PUSH1 0x40 MSTORE DUP1 SWAP3 SWAP2 SWAP1 DUP2 DUP2 MSTORE PUSH1 0x20 ADD DUP3 DUP1 SLOAD PUSH2 0x3565 SWAP1 PUSH2 0x4DB0 JUMP JUMPDEST DUP1 ISZERO PUSH2 0x35B2 JUMPI DUP1 PUSH1 0x1F LT PUSH2 0x3587 JUMPI PUSH2 0x100 DUP1 DUP4 SLOAD DIV MUL DUP4 MSTORE SWAP2 PUSH1 0x20 ADD SWAP2 PUSH2 0x35B2 JUMP JUMPDEST DUP3 ADD SWAP2 SWAP1 PUSH1 0x0 MSTORE PUSH1 0x20 PUSH1 0x0 KECCAK256 SWAP1 JUMPDEST DUP2 SLOAD DUP2 MSTORE SWAP1 PUSH1 0x1 ADD SWAP1 PUSH1 0x20 ADD DUP1 DUP4 GT PUSH2 0x3595 JUMPI DUP3 SWAP1 SUB PUSH1 0x1F AND DUP3 ADD SWAP2 JUMPDEST POP POP POP POP POP DUP2 MSTORE PUSH1 0x20 ADD PUSH1 0x3 DUP3 ADD DUP1 SLOAD PUSH2 0x35CB SWAP1 PUSH2 0x4DB0 JUMP JUMPDEST DUP1 PUSH1 0x1F ADD PUSH1 0x20 DUP1 SWAP2 DIV MUL PUSH1 0x20 ADD PUSH1 0x40 MLOAD SWAP1 DUP2 ADD PUSH1 0x40 MSTORE DUP1 SWAP3 SWAP2 SWAP1 DUP2 DUP2 MSTORE PUSH1 0x20 ADD DUP3 DUP1 SLOAD PUSH2 0x35F7 SWAP1 PUSH2 0x4DB0 JUMP JUMPDEST DUP1 ISZERO PUSH2 0x3644 JUMPI DUP1 PUSH1 0x1F LT PUSH2 0x3619 JUMPI PUSH2 0x100 DUP1 DUP4 SLOAD DIV MUL DUP4 MSTORE SWAP2 PUSH1 0x20 ADD SWAP2 PUSH2 0x3644 JUMP JUMPDEST DUP3 ADD SWAP2 SWAP1 PUSH1 0x0 MSTORE PUSH1 0x20 PUSH1 0x0 KECCAK256 SWAP1 JUMPDEST DUP2 SLOAD DUP2 MSTORE SWAP1 PUSH1 0x1 ADD SWAP1 PUSH1 0x20 ADD DUP1 DUP4 GT PUSH2 0x3627 JUMPI DUP3 SWAP1 SUB PUSH1 0x1F AND DUP3 ADD SWAP2 JUMPDEST POP POP POP POP POP DUP2 MSTORE PUSH1 0x20 ADD PUSH1 0x4 DUP3 ADD DUP1 SLOAD PUSH2 0x365D SWAP1 PUSH2 0x4DB0 JUMP JUMPDEST DUP1 PUSH1 0x1F ADD PUSH1 0x20 DUP1 SWAP2 DIV MUL PUSH1 0x20 ADD PUSH1 0x40 MLOAD SWAP1 DUP2 ADD PUSH1 0x40 MSTORE DUP1 SWAP3 SWAP2 SWAP1 DUP2 DUP2 MSTORE PUSH1 0x20 ADD DUP3 DUP1 SLOAD PUSH2 0x3689 SWAP1 PUSH2 0x4DB0 JUMP JUMPDEST DUP1 ISZERO PUSH2 0x36D6 JUMPI DUP1 PUSH1 0x1F LT PUSH2 0x36AB JUMPI PUSH2 0x100 DUP1 DUP4 SLOAD DIV MUL DUP4 MSTORE SWAP2 PUSH1 0x20 ADD SWAP2 PUSH2 0x36D6 JUMP JUMPDEST DUP3 ADD SWAP2 SWAP1 PUSH1 0x0 MSTORE PUSH1 0x20 PUSH1 0x0 KECCAK256 SWAP1 JUMPDEST DUP2 SLOAD DUP2 MSTORE SWAP1 PUSH1 0x1 ADD SWAP1 PUSH1 0x20 ADD DUP1 DUP4 GT PUSH2 0x36B9 JUMPI DUP3 SWAP1 SUB PUSH1 0x1F AND DUP3 ADD SWAP2 JUMPDEST POP POP POP POP POP DUP2 MSTORE PUSH1 0x20 ADD PUSH1 0x5 DUP3 ADD DUP1 SLOAD PUSH2 0x36EF SWAP1 PUSH2 0x4DB0 JUMP JUMPDEST DUP1 PUSH1 0x1F ADD PUSH1 0x20 DUP1 SWAP2 DIV MUL PUSH1 0x20 ADD PUSH1 0x40 MLOAD SWAP1 DUP2 ADD PUSH1 0x40 MSTORE DUP1 SWAP3 SWAP2 SWAP1 DUP2 DUP2 MSTORE PUSH1 0x20 ADD DUP3 DUP1 SLOAD PUSH2 0x371B SWAP1 PUSH2 0x4DB0 JUMP JUMPDEST DUP1 ISZERO PUSH2 0x3768 JUMPI DUP1 PUSH1 0x1F LT PUSH2 0x373D JUMPI PUSH2 0x100 DUP1 DUP4 SLOAD DIV MUL DUP4 MSTORE SWAP2 PUSH1 0x20 ADD SWAP2 PUSH2 0x3768 JUMP JUMPDEST DUP3 ADD SWAP2 SWAP1 PUSH1 0x0 MSTORE PUSH1 0x20 PUSH1 0x0 KECCAK256 SWAP1 JUMPDEST DUP2 SLOAD DUP2 MSTORE SWAP1 PUSH1 0x1 ADD SWAP1 PUSH1 0x20 ADD DUP1 DUP4 GT PUSH2 0x374B JUMPI DUP3 SWAP1 SUB PUSH1 0x1F AND DUP3 ADD SWAP2 JUMPDEST POP POP POP SWAP2 DUP4 MSTORE POP POP PUSH1 0x6 DUP3 ADD SLOAD PUSH1 0x20 DUP3 ADD MSTORE PUSH1 0x7 DUP3 ADD SLOAD PUSH1 0x40 DUP3 ADD MSTORE PUSH1 0x8 DUP3 ADD SLOAD PUSH1 0x60 DUP3 ADD MSTORE PUSH1 0x9 DUP3 ADD SLOAD PUSH1 0xFF AND ISZERO ISZERO PUSH1 0x80 DUP3 ADD MSTORE PUSH1 0xA SWAP1 SWAP2 ADD SLOAD PUSH1 0xA0 SWAP1 SWAP2 ADD MSTORE DUP4 MLOAD DUP5 SWAP1 DUP5 SWAP1 DUP2 LT PUSH2 0x37BD JUMPI PUSH2 0x37BD PUSH2 0x4F87 JUMP JUMPDEST PUSH1 0x20 MUL PUSH1 0x20 ADD ADD DUP2 SWAP1 MSTORE POP POP DUP1 DUP1 PUSH2 0x37D4 SWAP1 PUSH2 0x4F21 JUMP JUMPDEST SWAP2 POP POP PUSH2 0x34E7 JUMP JUMPDEST PUSH1 0x60 PUSH1 0x0 PUSH1 0x1 JUMPDEST PUSH1 0xF SLOAD DUP2 GT PUSH2 0x3822 JUMPI PUSH1 0x0 DUP2 DUP2 MSTORE PUSH1 0x11 PUSH1 0x20 MSTORE PUSH1 0x40 SWAP1 KECCAK256 SLOAD DUP5 SWAP1 SUB PUSH2 0x3810 JUMPI PUSH2 0x380D PUSH1 0x1 DUP4 PUSH2 0x4D9D JUMP JUMPDEST SWAP2 POP JUMPDEST DUP1 PUSH2 0x381A DUP2 PUSH2 0x4F21 JUMP JUMPDEST SWAP2 POP POP PUSH2 0x37E3 JUMP JUMPDEST POP PUSH1 0x0 DUP2 PUSH1 0x1 PUSH1 0x1 PUSH1 0x40 SHL SUB DUP2 GT ISZERO PUSH2 0x383D JUMPI PUSH2 0x383D PUSH2 0x4736 JUMP JUMPDEST PUSH1 0x40 MLOAD SWAP1 DUP1 DUP3 MSTORE DUP1 PUSH1 0x20 MUL PUSH1 0x20 ADD DUP3 ADD PUSH1 0x40 MSTORE DUP1 ISZERO PUSH2 0x3892 JUMPI DUP2 PUSH1 0x20 ADD JUMPDEST PUSH2 0x387F PUSH1 0x40 MLOAD DUP1 PUSH1 0x60 ADD PUSH1 0x40 MSTORE DUP1 PUSH1 0x0 DUP2 MSTORE PUSH1 0x20 ADD PUSH1 0x0 DUP2 MSTORE PUSH1 0x20 ADD PUSH1 0x0 DUP2 MSTORE POP SWAP1 JUMP JUMPDEST DUP2 MSTORE PUSH1 0x20 ADD SWAP1 PUSH1 0x1 SWAP1 SUB SWAP1 DUP2 PUSH2 0x385B JUMPI SWAP1 POP JUMPDEST POP PUSH1 0x0 SWAP3 POP SWAP1 POP PUSH1 0x1 JUMPDEST PUSH1 0xF SLOAD DUP2 GT PUSH2 0x2115 JUMPI PUSH1 0x0 DUP2 DUP2 MSTORE PUSH1 0x11 PUSH1 0x20 MSTORE PUSH1 0x40 SWAP1 KECCAK256 SLOAD DUP6 SWAP1 SUB PUSH2 0x391F JUMPI PUSH1 0x0 DUP2 DUP2 MSTORE PUSH1 0x11 PUSH1 0x20 SWAP1 DUP2 MSTORE PUSH1 0x40 SWAP2 DUP3 SWAP1 KECCAK256 DUP3 MLOAD PUSH1 0x60 DUP2 ADD DUP5 MSTORE DUP2 SLOAD DUP2 MSTORE PUSH1 0x1 DUP3 ADD SLOAD SWAP3 DUP2 ADD SWAP3 SWAP1 SWAP3 MSTORE PUSH1 0x2 DUP2 ADD SLOAD SWAP3 DUP3 ADD SWAP3 SWAP1 SWAP3 MSTORE DUP4 MLOAD DUP5 SWAP1 DUP7 SWAP1 DUP2 LT PUSH2 0x3905 JUMPI PUSH2 0x3905 PUSH2 0x4F87 JUMP JUMPDEST PUSH1 0x20 SWAP1 DUP2 MUL SWAP2 SWAP1 SWAP2 ADD ADD MSTORE PUSH2 0x391B PUSH1 0x1 DUP6 PUSH2 0x4D9D JUMP JUMPDEST SWAP4 POP POP JUMPDEST DUP1 PUSH2 0x3929 DUP2 PUSH2 0x4F21 JUMP JUMPDEST SWAP2 POP POP PUSH2 0x389C JUMP JUMPDEST PUSH1 0x0 DUP2 DUP2 MSTORE PUSH1 0x2 PUSH1 0x20 MSTORE PUSH1 0x40 SWAP1 KECCAK256 SLOAD PUSH1 0x1 PUSH1 0x1 PUSH1 0xA0 SHL SUB AND PUSH2 0x9A8 JUMPI PUSH1 0x40 MLOAD PUSH3 0x461BCD PUSH1 0xE5 SHL DUP2 MSTORE PUSH1 0x20 PUSH1 0x4 DUP3 ADD MSTORE PUSH1 0x18 PUSH1 0x24 DUP3 ADD MSTORE PUSH24 0x115490CDCC8C4E881A5B9D985B1A59081D1BDAD95B881251 PUSH1 0x42 SHL PUSH1 0x44 DUP3 ADD MSTORE PUSH1 0x64 ADD PUSH2 0xAD8 JUMP JUMPDEST PUSH1 0x0 DUP2 DUP2 MSTORE PUSH1 0x4 PUSH1 0x20 MSTORE PUSH1 0x40 SWAP1 KECCAK256 DUP1 SLOAD PUSH1 0x1 PUSH1 0x1 PUSH1 0xA0 SHL SUB NOT AND PUSH1 0x1 PUSH1 0x1 PUSH1 0xA0 SHL SUB DUP5 AND SWAP1 DUP2 OR SWAP1 SWAP2 SSTORE DUP2 SWAP1 PUSH2 0x39C5 DUP3 PUSH2 0x1D86 JUMP JUMPDEST PUSH1 0x1 PUSH1 0x1 PUSH1 0xA0 SHL SUB AND PUSH32 0x8C5BE1E5EBEC7D5BD14F71427D1E84F3DD0314C0F7B2291E5B200AC8C7C3B925 PUSH1 0x40 MLOAD PUSH1 0x40 MLOAD DUP1 SWAP2 SUB SWAP1 LOG4 POP POP JUMP JUMPDEST PUSH1 0x0 DUP1 PUSH2 0x3A0A DUP4 PUSH2 0x1D86 JUMP JUMPDEST SWAP1 POP DUP1 PUSH1 0x1 PUSH1 0x1 PUSH1 0xA0 SHL SUB AND DUP5 PUSH1 0x1 PUSH1 0x1 PUSH1 0xA0 SHL SUB AND EQ DUP1 PUSH2 0x3A51 JUMPI POP PUSH1 0x1 PUSH1 0x1 PUSH1 0xA0 SHL SUB DUP1 DUP3 AND PUSH1 0x0 SWAP1 DUP2 MSTORE PUSH1 0x5 PUSH1 0x20 SWAP1 DUP2 MSTORE PUSH1 0x40 DUP1 DUP4 KECCAK256 SWAP4 DUP9 AND DUP4 MSTORE SWAP3 SWAP1 MSTORE KECCAK256 SLOAD PUSH1 0xFF AND JUMPDEST DUP1 PUSH2 0x31C8 JUMPI POP DUP4 PUSH1 0x1 PUSH1 0x1 PUSH1 0xA0 SHL SUB AND PUSH2 0x3A6A DUP5 PUSH2 0xA3D JUMP JUMPDEST PUSH1 0x1 PUSH1 0x1 PUSH1 0xA0 SHL SUB AND EQ SWAP5 SWAP4 POP POP POP POP JUMP JUMPDEST DUP3 PUSH1 0x1 PUSH1 0x1 PUSH1 0xA0 SHL SUB AND PUSH2 0x3A8F DUP3 PUSH2 0x1D86 JUMP JUMPDEST PUSH1 0x1 PUSH1 0x1 PUSH1 0xA0 SHL SUB AND EQ PUSH2 0x3AB5 JUMPI PUSH1 0x40 MLOAD PUSH3 0x461BCD PUSH1 0xE5 SHL DUP2 MSTORE PUSH1 0x4 ADD PUSH2 0xAD8 SWAP1 PUSH2 0x50EF JUMP JUMPDEST PUSH1 0x1 PUSH1 0x1 PUSH1 0xA0 SHL SUB DUP3 AND PUSH2 0x3B17 JUMPI PUSH1 0x40 MLOAD PUSH3 0x461BCD PUSH1 0xE5 SHL DUP2 MSTORE PUSH1 0x20 PUSH1 0x4 DUP3 ADD MSTORE PUSH1 0x24 DUP1 DUP3 ADD MSTORE PUSH32 0x4552433732313A207472616E7366657220746F20746865207A65726F20616464 PUSH1 0x44 DUP3 ADD MSTORE PUSH4 0x72657373 PUSH1 0xE0 SHL PUSH1 0x64 DUP3 ADD MSTORE PUSH1 0x84 ADD PUSH2 0xAD8 JUMP JUMPDEST PUSH2 0x3B24 DUP4 DUP4 DUP4 PUSH1 0x1 PUSH2 0x3F8E JUMP JUMPDEST DUP3 PUSH1 0x1 PUSH1 0x1 PUSH1 0xA0 SHL SUB AND PUSH2 0x3B37 DUP3 PUSH2 0x1D86 JUMP JUMPDEST PUSH1 0x1 PUSH1 0x1 PUSH1 0xA0 SHL SUB AND EQ PUSH2 0x3B5D JUMPI PUSH1 0x40 MLOAD PUSH3 0x461BCD PUSH1 0xE5 SHL DUP2 MSTORE PUSH1 0x4 ADD PUSH2 0xAD8 SWAP1 PUSH2 0x50EF JUMP JUMPDEST PUSH1 0x0 DUP2 DUP2 MSTORE PUSH1 0x4 PUSH1 0x20 SWAP1 DUP2 MSTORE PUSH1 0x40 DUP1 DUP4 KECCAK256 DUP1 SLOAD PUSH1 0x1 PUSH1 0x1 PUSH1 0xA0 SHL SUB NOT SWAP1 DUP2 AND SWAP1 SWAP2 SSTORE PUSH1 0x1 PUSH1 0x1 PUSH1 0xA0 SHL SUB DUP8 DUP2 AND DUP1 DUP7 MSTORE PUSH1 0x3 DUP6 MSTORE DUP4 DUP7 KECCAK256 DUP1 SLOAD PUSH1 0x0 NOT ADD SWAP1 SSTORE SWAP1 DUP8 AND DUP1 DUP7 MSTORE DUP4 DUP7 KECCAK256 DUP1 SLOAD PUSH1 0x1 ADD SWAP1 SSTORE DUP7 DUP7 MSTORE PUSH1 0x2 SWAP1 SWAP5 MSTORE DUP3 DUP6 KECCAK256 DUP1 SLOAD SWAP1 SWAP3 AND DUP5 OR SWAP1 SWAP2 SSTORE SWAP1 MLOAD DUP5 SWAP4 PUSH32 0xDDF252AD1BE2C89B69C2B068FC378DAA952BA7F163C4A11628F55A4DF523B3EF SWAP2 LOG4 POP POP POP JUMP JUMPDEST PUSH1 0x1 PUSH1 0x1 PUSH1 0xA0 SHL SUB DUP3 AND PUSH2 0x3C43 JUMPI PUSH1 0x40 MLOAD PUSH3 0x461BCD PUSH1 0xE5 SHL DUP2 MSTORE PUSH1 0x20 PUSH1 0x4 DUP3 ADD DUP2 SWAP1 MSTORE PUSH1 0x24 DUP3 ADD MSTORE PUSH32 0x4552433732313A206D696E7420746F20746865207A65726F2061646472657373 PUSH1 0x44 DUP3 ADD MSTORE PUSH1 0x64 ADD PUSH2 0xAD8 JUMP JUMPDEST PUSH1 0x0 DUP2 DUP2 MSTORE PUSH1 0x2 PUSH1 0x20 MSTORE PUSH1 0x40 SWAP1 KECCAK256 SLOAD PUSH1 0x1 PUSH1 0x1 PUSH1 0xA0 SHL SUB AND ISZERO PUSH2 0x3CA8 JUMPI PUSH1 0x40 MLOAD PUSH3 0x461BCD PUSH1 0xE5 SHL DUP2 MSTORE PUSH1 0x20 PUSH1 0x4 DUP3 ADD MSTORE PUSH1 0x1C PUSH1 0x24 DUP3 ADD MSTORE PUSH32 0x4552433732313A20746F6B656E20616C7265616479206D696E74656400000000 PUSH1 0x44 DUP3 ADD MSTORE PUSH1 0x64 ADD PUSH2 0xAD8 JUMP JUMPDEST PUSH2 0x3CB6 PUSH1 0x0 DUP4 DUP4 PUSH1 0x1 PUSH2 0x3F8E JUMP JUMPDEST PUSH1 0x0 DUP2 DUP2 MSTORE PUSH1 0x2 PUSH1 0x20 MSTORE PUSH1 0x40 SWAP1 KECCAK256 SLOAD PUSH1 0x1 PUSH1 0x1 PUSH1 0xA0 SHL SUB AND ISZERO PUSH2 0x3D1B JUMPI PUSH1 0x40 MLOAD PUSH3 0x461BCD PUSH1 0xE5 SHL DUP2 MSTORE PUSH1 0x20 PUSH1 0x4 DUP3 ADD MSTORE PUSH1 0x1C PUSH1 0x24 DUP3 ADD MSTORE PUSH32 0x4552433732313A20746F6B656E20616C7265616479206D696E74656400000000 PUSH1 0x44 DUP3 ADD MSTORE PUSH1 0x64 ADD PUSH2 0xAD8 JUMP JUMPDEST PUSH1 0x1 PUSH1 0x1 PUSH1 0xA0 SHL SUB DUP3 AND PUSH1 0x0 DUP2 DUP2 MSTORE PUSH1 0x3 PUSH1 0x20 SWAP1 DUP2 MSTORE PUSH1 0x40 DUP1 DUP4 KECCAK256 DUP1 SLOAD PUSH1 0x1 ADD SWAP1 SSTORE DUP5 DUP4 MSTORE PUSH1 0x2 SWAP1 SWAP2 MSTORE DUP1 DUP3 KECCAK256 DUP1 SLOAD PUSH1 0x1 PUSH1 0x1 PUSH1 0xA0 SHL SUB NOT AND DUP5 OR SWAP1 SSTORE MLOAD DUP4 SWAP3 SWAP2 SWAP1 PUSH32 0xDDF252AD1BE2C89B69C2B068FC378DAA952BA7F163C4A11628F55A4DF523B3EF SWAP1 DUP3 SWAP1 LOG4 POP POP JUMP JUMPDEST PUSH1 0x0 DUP3 DUP2 MSTORE PUSH1 0x2 PUSH1 0x20 MSTORE PUSH1 0x40 SWAP1 KECCAK256 SLOAD PUSH1 0x1 PUSH1 0x1 PUSH1 0xA0 SHL SUB AND PUSH2 0x3E01 JUMPI PUSH1 0x40 MLOAD PUSH3 0x461BCD PUSH1 0xE5 SHL DUP2 MSTORE PUSH1 0x20 PUSH1 0x4 DUP3 ADD MSTORE PUSH1 0x2E PUSH1 0x24 DUP3 ADD MSTORE PUSH32 0x45524337323155524953746F726167653A2055524920736574206F66206E6F6E PUSH1 0x44 DUP3 ADD MSTORE PUSH14 0x32BC34B9BA32B73A103A37B5B2B7 PUSH1 0x91 SHL PUSH1 0x64 DUP3 ADD MSTORE PUSH1 0x84 ADD PUSH2 0xAD8 JUMP JUMPDEST PUSH1 0x0 DUP3 DUP2 MSTORE PUSH1 0x6 PUSH1 0x20 MSTORE PUSH1 0x40 SWAP1 KECCAK256 PUSH2 0xB79 DUP3 DUP3 PUSH2 0x4F9D JUMP JUMPDEST DUP2 PUSH1 0x1 PUSH1 0x1 PUSH1 0xA0 SHL SUB AND DUP4 PUSH1 0x1 PUSH1 0x1 PUSH1 0xA0 SHL SUB AND SUB PUSH2 0x3E7A JUMPI PUSH1 0x40 MLOAD PUSH3 0x461BCD PUSH1 0xE5 SHL DUP2 MSTORE PUSH1 0x20 PUSH1 0x4 DUP3 ADD MSTORE PUSH1 0x19 PUSH1 0x24 DUP3 ADD MSTORE PUSH32 0x4552433732313A20617070726F766520746F2063616C6C657200000000000000 PUSH1 0x44 DUP3 ADD MSTORE PUSH1 0x64 ADD PUSH2 0xAD8 JUMP JUMPDEST PUSH1 0x1 PUSH1 0x1 PUSH1 0xA0 SHL SUB DUP4 DUP2 AND PUSH1 0x0 DUP2 DUP2 MSTORE PUSH1 0x5 PUSH1 0x20 SWAP1 DUP2 MSTORE PUSH1 0x40 DUP1 DUP4 KECCAK256 SWAP5 DUP8 AND DUP1 DUP5 MSTORE SWAP5 DUP3 MSTORE SWAP2 DUP3 SWAP1 KECCAK256 DUP1 SLOAD PUSH1 0xFF NOT AND DUP7 ISZERO ISZERO SWAP1 DUP2 OR SWAP1 SWAP2 SSTORE SWAP2 MLOAD SWAP2 DUP3 MSTORE PUSH32 0x17307EAB39AB6107E8899845AD3D59BD9653F200F220920489CA2B5937696C31 SWAP2 ADD PUSH1 0x40 MLOAD DUP1 SWAP2 SUB SWAP1 LOG3 POP POP POP JUMP JUMPDEST PUSH2 0x3EF2 DUP5 DUP5 DUP5 PUSH2 0x3A7C JUMP JUMPDEST PUSH2 0x3EFE DUP5 DUP5 DUP5 DUP5 PUSH2 0x4016 JUMP JUMPDEST PUSH2 0x2C18 JUMPI PUSH1 0x40 MLOAD PUSH3 0x461BCD PUSH1 0xE5 SHL DUP2 MSTORE PUSH1 0x4 ADD PUSH2 0xAD8 SWAP1 PUSH2 0x5134 JUMP JUMPDEST PUSH1 0x60 PUSH2 0x3F25 DUP3 PUSH2 0x3931 JUMP JUMPDEST PUSH1 0x0 PUSH2 0x3F3C PUSH1 0x40 DUP1 MLOAD PUSH1 0x20 DUP2 ADD SWAP1 SWAP2 MSTORE PUSH1 0x0 DUP2 MSTORE SWAP1 JUMP JUMPDEST SWAP1 POP PUSH1 0x0 DUP2 MLOAD GT PUSH2 0x3F5C JUMPI PUSH1 0x40 MLOAD DUP1 PUSH1 0x20 ADD PUSH1 0x40 MSTORE DUP1 PUSH1 0x0 DUP2 MSTORE POP PUSH2 0x3F87 JUMP JUMPDEST DUP1 PUSH2 0x3F66 DUP5 PUSH2 0x4117 JUMP JUMPDEST PUSH1 0x40 MLOAD PUSH1 0x20 ADD PUSH2 0x3F77 SWAP3 SWAP2 SWAP1 PUSH2 0x5087 JUMP JUMPDEST PUSH1 0x40 MLOAD PUSH1 0x20 DUP2 DUP4 SUB SUB DUP2 MSTORE SWAP1 PUSH1 0x40 MSTORE JUMPDEST SWAP4 SWAP3 POP POP POP JUMP JUMPDEST PUSH1 0x1 DUP2 GT ISZERO PUSH2 0x2C18 JUMPI PUSH1 0x1 PUSH1 0x1 PUSH1 0xA0 SHL SUB DUP5 AND ISZERO PUSH2 0x3FD4 JUMPI PUSH1 0x1 PUSH1 0x1 PUSH1 0xA0 SHL SUB DUP5 AND PUSH1 0x0 SWAP1 DUP2 MSTORE PUSH1 0x3 PUSH1 0x20 MSTORE PUSH1 0x40 DUP2 KECCAK256 DUP1 SLOAD DUP4 SWAP3 SWAP1 PUSH2 0x3FCE SWAP1 DUP5 SWAP1 PUSH2 0x4DE4 JUMP JUMPDEST SWAP1 SWAP2 SSTORE POP POP JUMPDEST PUSH1 0x1 PUSH1 0x1 PUSH1 0xA0 SHL SUB DUP4 AND ISZERO PUSH2 0x2C18 JUMPI PUSH1 0x1 PUSH1 0x1 PUSH1 0xA0 SHL SUB DUP4 AND PUSH1 0x0 SWAP1 DUP2 MSTORE PUSH1 0x3 PUSH1 0x20 MSTORE PUSH1 0x40 DUP2 KECCAK256 DUP1 SLOAD DUP4 SWAP3 SWAP1 PUSH2 0x400B SWAP1 DUP5 SWAP1 PUSH2 0x4D9D JUMP JUMPDEST SWAP1 SWAP2 SSTORE POP POP POP POP POP POP JUMP JUMPDEST PUSH1 0x0 PUSH1 0x1 PUSH1 0x1 PUSH1 0xA0 SHL SUB DUP5 AND EXTCODESIZE ISZERO PUSH2 0x410C JUMPI PUSH1 0x40 MLOAD PUSH4 0xA85BD01 PUSH1 0xE1 SHL DUP2 MSTORE PUSH1 0x1 PUSH1 0x1 PUSH1 0xA0 SHL SUB DUP6 AND SWAP1 PUSH4 0x150B7A02 SWAP1 PUSH2 0x405A SWAP1 CALLER SWAP1 DUP10 SWAP1 DUP9 SWAP1 DUP9 SWAP1 PUSH1 0x4 ADD PUSH2 0x5186 JUMP JUMPDEST PUSH1 0x20 PUSH1 0x40 MLOAD DUP1 DUP4 SUB DUP2 PUSH1 0x0 DUP8 GAS CALL SWAP3 POP POP POP DUP1 ISZERO PUSH2 0x4095 JUMPI POP PUSH1 0x40 DUP1 MLOAD PUSH1 0x1F RETURNDATASIZE SWAP1 DUP2 ADD PUSH1 0x1F NOT AND DUP3 ADD SWAP1 SWAP3 MSTORE PUSH2 0x4092 SWAP2 DUP2 ADD SWAP1 PUSH2 0x51C3 JUMP JUMPDEST PUSH1 0x1 JUMPDEST PUSH2 0x40F2 JUMPI RETURNDATASIZE DUP1 DUP1 ISZERO PUSH2 0x40C3 JUMPI PUSH1 0x40 MLOAD SWAP2 POP PUSH1 0x1F NOT PUSH1 0x3F RETURNDATASIZE ADD AND DUP3 ADD PUSH1 0x40 MSTORE RETURNDATASIZE DUP3 MSTORE RETURNDATASIZE PUSH1 0x0 PUSH1 0x20 DUP5 ADD RETURNDATACOPY PUSH2 0x40C8 JUMP JUMPDEST PUSH1 0x60 SWAP2 POP JUMPDEST POP DUP1 MLOAD PUSH1 0x0 SUB PUSH2 0x40EA JUMPI PUSH1 0x40 MLOAD PUSH3 0x461BCD PUSH1 0xE5 SHL DUP2 MSTORE PUSH1 0x4 ADD PUSH2 0xAD8 SWAP1 PUSH2 0x5134 JUMP JUMPDEST DUP1 MLOAD DUP2 PUSH1 0x20 ADD REVERT JUMPDEST PUSH1 0x1 PUSH1 0x1 PUSH1 0xE0 SHL SUB NOT AND PUSH4 0xA85BD01 PUSH1 0xE1 SHL EQ SWAP1 POP PUSH2 0x31C8 JUMP JUMPDEST POP PUSH1 0x1 SWAP5 SWAP4 POP POP POP POP JUMP JUMPDEST PUSH1 0x60 PUSH1 0x0 PUSH2 0x4124 DUP4 PUSH2 0x41A9 JUMP JUMPDEST PUSH1 0x1 ADD SWAP1 POP PUSH1 0x0 DUP2 PUSH1 0x1 PUSH1 0x1 PUSH1 0x40 SHL SUB DUP2 GT ISZERO PUSH2 0x4143 JUMPI PUSH2 0x4143 PUSH2 0x4736 JUMP JUMPDEST PUSH1 0x40 MLOAD SWAP1 DUP1 DUP3 MSTORE DUP1 PUSH1 0x1F ADD PUSH1 0x1F NOT AND PUSH1 0x20 ADD DUP3 ADD PUSH1 0x40 MSTORE DUP1 ISZERO PUSH2 0x416D JUMPI PUSH1 0x20 DUP3 ADD DUP2 DUP1 CALLDATASIZE DUP4 CALLDATACOPY ADD SWAP1 POP JUMPDEST POP SWAP1 POP DUP2 DUP2 ADD PUSH1 0x20 ADD JUMPDEST PUSH1 0x0 NOT ADD PUSH16 0x181899199A1A9B1B9C1CB0B131B232B3 PUSH1 0x81 SHL PUSH1 0xA DUP7 MOD BYTE DUP2 MSTORE8 PUSH1 0xA DUP6 DIV SWAP5 POP DUP5 PUSH2 0x4177 JUMPI POP SWAP4 SWAP3 POP POP POP JUMP JUMPDEST PUSH1 0x0 DUP1 PUSH19 0x184F03E93FF9F4DAA797ED6E38ED64BF6A1F01 PUSH1 0x40 SHL DUP4 LT PUSH2 0x41E8 JUMPI PUSH19 0x184F03E93FF9F4DAA797ED6E38ED64BF6A1F01 PUSH1 0x40 SHL DUP4 DIV SWAP3 POP PUSH1 0x40 ADD JUMPDEST PUSH14 0x4EE2D6D415B85ACEF8100000000 DUP4 LT PUSH2 0x4214 JUMPI PUSH14 0x4EE2D6D415B85ACEF8100000000 DUP4 DIV SWAP3 POP PUSH1 0x20 ADD JUMPDEST PUSH7 0x2386F26FC10000 DUP4 LT PUSH2 0x4232 JUMPI PUSH7 0x2386F26FC10000 DUP4 DIV SWAP3 POP PUSH1 0x10 ADD JUMPDEST PUSH4 0x5F5E100 DUP4 LT PUSH2 0x424A JUMPI PUSH4 0x5F5E100 DUP4 DIV SWAP3 POP PUSH1 0x8 ADD JUMPDEST PUSH2 0x2710 DUP4 LT PUSH2 0x425E JUMPI PUSH2 0x2710 DUP4 DIV SWAP3 POP PUSH1 0x4 ADD JUMPDEST PUSH1 0x64 DUP4 LT PUSH2 0x4270 JUMPI PUSH1 0x64 DUP4 DIV SWAP3 POP PUSH1 0x2 ADD JUMPDEST PUSH1 0xA DUP4 LT PUSH2 0x91B JUMPI PUSH1 0x1 ADD SWAP3 SWAP2 POP POP JUMP JUMPDEST POP DUP1 SLOAD PUSH2 0x428D SWAP1 PUSH2 0x4DB0 JUMP JUMPDEST PUSH1 0x0 DUP3 SSTORE DUP1 PUSH1 0x1F LT PUSH2 0x429D JUMPI POP POP JUMP JUMPDEST PUSH1 0x1F ADD PUSH1 0x20 SWAP1 DIV SWAP1 PUSH1 0x0 MSTORE PUSH1 0x20 PUSH1 0x0 KECCAK256 SWAP1 DUP2 ADD SWAP1 PUSH2 0x9A8 SWAP2 SWAP1 PUSH2 0x4356 JUMP JUMPDEST PUSH1 0x40 MLOAD DUP1 PUSH2 0x160 ADD PUSH1 0x40 MSTORE DUP1 PUSH1 0x0 DUP2 MSTORE PUSH1 0x20 ADD PUSH1 0x0 DUP2 MSTORE PUSH1 0x20 ADD PUSH1 0x60 DUP2 MSTORE PUSH1 0x20 ADD PUSH1 0x60 DUP2 MSTORE PUSH1 0x20 ADD PUSH1 0x60 DUP2 MSTORE PUSH1 0x20 ADD PUSH1 0x60 DUP2 MSTORE PUSH1 0x20 ADD PUSH1 0x0 DUP2 MSTORE PUSH1 0x20 ADD PUSH1 0x0 DUP2 MSTORE PUSH1 0x20 ADD PUSH1 0x0 DUP2 MSTORE PUSH1 0x20 ADD PUSH1 0x0 ISZERO ISZERO DUP2 MSTORE PUSH1 0x20 ADD PUSH1 0x0 DUP2 MSTORE POP SWAP1 JUMP JUMPDEST PUSH1 0x40 MLOAD DUP1 PUSH1 0xC0 ADD PUSH1 0x40 MSTORE DUP1 PUSH1 0x0 DUP2 MSTORE PUSH1 0x20 ADD PUSH1 0x0 PUSH1 0x1 PUSH1 0x1 PUSH1 0xA0 SHL SUB AND DUP2 MSTORE PUSH1 0x20 ADD PUSH1 0x60 DUP2 MSTORE PUSH1 0x20 ADD PUSH1 0x60 DUP2 MSTORE PUSH1 0x20 ADD PUSH1 0x60 DUP2 MSTORE PUSH1 0x20 ADD PUSH1 0x60 DUP2 MSTORE POP SWAP1 JUMP JUMPDEST JUMPDEST DUP1 DUP3 GT ISZERO PUSH2 0x436B JUMPI PUSH1 0x0 DUP2 SSTORE PUSH1 0x1 ADD PUSH2 0x4357 JUMP JUMPDEST POP SWAP1 JUMP JUMPDEST PUSH1 0x0 DUP1 PUSH1 0x40 DUP4 DUP6 SUB SLT ISZERO PUSH2 0x4382 JUMPI PUSH1 0x0 DUP1 REVERT JUMPDEST POP POP DUP1 CALLDATALOAD SWAP3 PUSH1 0x20 SWAP1 SWAP2 ADD CALLDATALOAD SWAP2 POP JUMP JUMPDEST PUSH1 0x1 PUSH1 0x1 PUSH1 0xE0 SHL SUB NOT DUP2 AND DUP2 EQ PUSH2 0x9A8 JUMPI PUSH1 0x0 DUP1 REVERT JUMPDEST PUSH1 0x0 PUSH1 0x20 DUP3 DUP5 SUB SLT ISZERO PUSH2 0x43B9 JUMPI PUSH1 0x0 DUP1 REVERT JUMPDEST DUP2 CALLDATALOAD PUSH2 0x3F87 DUP2 PUSH2 0x4391 JUMP JUMPDEST PUSH1 0x0 PUSH1 0x20 DUP3 DUP5 SUB SLT ISZERO PUSH2 0x43D6 JUMPI PUSH1 0x0 DUP1 REVERT JUMPDEST POP CALLDATALOAD SWAP2 SWAP1 POP JUMP JUMPDEST PUSH1 0x0 JUMPDEST DUP4 DUP2 LT ISZERO PUSH2 0x43F8 JUMPI DUP2 DUP2 ADD MLOAD DUP4 DUP3 ADD MSTORE PUSH1 0x20 ADD PUSH2 0x43E0 JUMP JUMPDEST POP POP PUSH1 0x0 SWAP2 ADD MSTORE JUMP JUMPDEST PUSH1 0x0 DUP2 MLOAD DUP1 DUP5 MSTORE PUSH2 0x4419 DUP2 PUSH1 0x20 DUP7 ADD PUSH1 0x20 DUP7 ADD PUSH2 0x43DD JUMP JUMPDEST PUSH1 0x1F ADD PUSH1 0x1F NOT AND SWAP3 SWAP1 SWAP3 ADD PUSH1 0x20 ADD SWAP3 SWAP2 POP POP JUMP JUMPDEST PUSH1 0x20 DUP2 MSTORE PUSH1 0x0 PUSH2 0x3F87 PUSH1 0x20 DUP4 ADD DUP5 PUSH2 0x4401 JUMP JUMPDEST DUP1 CALLDATALOAD PUSH1 0x1 PUSH1 0x1 PUSH1 0xA0 SHL SUB DUP2 AND DUP2 EQ PUSH2 0x4457 JUMPI PUSH1 0x0 DUP1 REVERT JUMPDEST SWAP2 SWAP1 POP JUMP JUMPDEST PUSH1 0x0 DUP1 PUSH1 0x40 DUP4 DUP6 SUB SLT ISZERO PUSH2 0x446F JUMPI PUSH1 0x0 DUP1 REVERT JUMPDEST PUSH2 0x4478 DUP4 PUSH2 0x4440 JUMP JUMPDEST SWAP5 PUSH1 0x20 SWAP4 SWAP1 SWAP4 ADD CALLDATALOAD SWAP4 POP POP POP JUMP JUMPDEST PUSH1 0x0 DUP1 PUSH1 0x0 DUP1 PUSH1 0x0 DUP1 PUSH1 0xC0 DUP8 DUP10 SUB SLT ISZERO PUSH2 0x449F JUMPI PUSH1 0x0 DUP1 REVERT JUMPDEST POP POP DUP5 CALLDATALOAD SWAP7 PUSH1 0x20 DUP7 ADD CALLDATALOAD SWAP7 POP PUSH1 0x40 DUP7 ADD CALLDATALOAD SWAP6 PUSH1 0x60 DUP2 ADD CALLDATALOAD SWAP6 POP PUSH1 0x80 DUP2 ADD CALLDATALOAD SWAP5 POP PUSH1 0xA0 ADD CALLDATALOAD SWAP3 POP SWAP1 POP JUMP JUMPDEST PUSH1 0x0 DUP1 PUSH1 0x0 DUP1 PUSH1 0x0 DUP1 PUSH1 0xC0 DUP8 DUP10 SUB SLT ISZERO PUSH2 0x44E2 JUMPI PUSH1 0x0 DUP1 REVERT JUMPDEST DUP7 CALLDATALOAD SWAP6 POP PUSH2 0x44F2 PUSH1 0x20 DUP9 ADD PUSH2 0x4440 JUMP JUMPDEST SWAP6 SWAP9 SWAP6 SWAP8 POP POP POP POP PUSH1 0x40 DUP5 ADD CALLDATALOAD SWAP4 PUSH1 0x60 DUP2 ADD CALLDATALOAD SWAP4 PUSH1 0x80 DUP3 ADD CALLDATALOAD SWAP4 POP PUSH1 0xA0 SWAP1 SWAP2 ADD CALLDATALOAD SWAP2 POP JUMP JUMPDEST PUSH1 0x0 DUP1 PUSH1 0x0 DUP1 PUSH1 0x0 PUSH1 0xA0 DUP7 DUP9 SUB SLT ISZERO PUSH2 0x452F JUMPI PUSH1 0x0 DUP1 REVERT JUMPDEST PUSH2 0x4538 DUP7 PUSH2 0x4440 JUMP JUMPDEST SWAP8 PUSH1 0x20 DUP8 ADD CALLDATALOAD SWAP8 POP PUSH1 0x40 DUP8 ADD CALLDATALOAD SWAP7 PUSH1 0x60 DUP2 ADD CALLDATALOAD SWAP7 POP PUSH1 0x80 ADD CALLDATALOAD SWAP5 POP SWAP3 POP POP POP JUMP JUMPDEST PUSH1 0x0 DUP1 PUSH1 0x0 PUSH1 0x60 DUP5 DUP7 SUB SLT ISZERO PUSH2 0x456E JUMPI PUSH1 0x0 DUP1 REVERT JUMPDEST PUSH2 0x4577 DUP5 PUSH2 0x4440 JUMP JUMPDEST SWAP3 POP PUSH2 0x4585 PUSH1 0x20 DUP6 ADD PUSH2 0x4440 JUMP JUMPDEST SWAP2 POP PUSH1 0x40 DUP5 ADD CALLDATALOAD SWAP1 POP SWAP3 POP SWAP3 POP SWAP3 JUMP JUMPDEST DUP1 MLOAD DUP3 MSTORE PUSH1 0x20 DUP2 ADD MLOAD PUSH1 0x20 DUP4 ADD MSTORE PUSH1 0x40 DUP2 ADD MLOAD PUSH1 0x40 DUP4 ADD MSTORE PUSH1 0x60 DUP2 ADD MLOAD PUSH1 0x60 DUP4 ADD MSTORE PUSH1 0x80 DUP2 ADD MLOAD PUSH1 0x80 DUP4 ADD MSTORE PUSH1 0x0 PUSH1 0xA0 DUP3 ADD MLOAD PUSH1 0xE0 PUSH1 0xA0 DUP6 ADD MSTORE PUSH2 0x45DC PUSH1 0xE0 DUP6 ADD DUP3 PUSH2 0x4401 JUMP JUMPDEST SWAP1 POP PUSH1 0xC0 DUP4 ADD MLOAD DUP5 DUP3 SUB PUSH1 0xC0 DUP7 ADD MSTORE PUSH2 0x45F5 DUP3 DUP3 PUSH2 0x4401 JUMP JUMPDEST SWAP6 SWAP5 POP POP POP POP POP JUMP JUMPDEST PUSH1 0x20 DUP2 MSTORE PUSH1 0x0 PUSH2 0x3F87 PUSH1 0x20 DUP4 ADD DUP5 PUSH2 0x4595 JUMP JUMPDEST PUSH1 0x0 PUSH1 0x20 DUP1 DUP4 ADD DUP2 DUP5 MSTORE DUP1 DUP6 MLOAD DUP1 DUP4 MSTORE PUSH1 0x40 SWAP3 POP DUP3 DUP7 ADD SWAP2 POP DUP3 DUP2 PUSH1 0x5 SHL DUP8 ADD ADD DUP5 DUP9 ADD PUSH1 0x0 JUMPDEST DUP4 DUP2 LT ISZERO PUSH2 0x470D JUMPI PUSH1 0x3F NOT DUP10 DUP5 SUB ADD DUP6 MSTORE DUP2 MLOAD PUSH2 0x160 DUP2 MLOAD DUP6 MSTORE DUP9 DUP3 ADD MLOAD DUP10 DUP7 ADD MSTORE DUP8 DUP3 ADD MLOAD DUP2 DUP10 DUP8 ADD MSTORE PUSH2 0x466F DUP3 DUP8 ADD DUP3 PUSH2 0x4401 JUMP JUMPDEST SWAP2 POP POP PUSH1 0x60 DUP1 DUP4 ADD MLOAD DUP7 DUP4 SUB DUP3 DUP9 ADD MSTORE PUSH2 0x4689 DUP4 DUP3 PUSH2 0x4401 JUMP JUMPDEST SWAP3 POP POP POP PUSH1 0x80 DUP1 DUP4 ADD MLOAD DUP7 DUP4 SUB DUP3 DUP9 ADD MSTORE PUSH2 0x46A4 DUP4 DUP3 PUSH2 0x4401 JUMP JUMPDEST SWAP3 POP POP POP PUSH1 0xA0 DUP1 DUP4 ADD MLOAD DUP7 DUP4 SUB DUP3 DUP9 ADD MSTORE PUSH2 0x46BF DUP4 DUP3 PUSH2 0x4401 JUMP JUMPDEST PUSH1 0xC0 DUP6 DUP2 ADD MLOAD SWAP1 DUP10 ADD MSTORE PUSH1 0xE0 DUP1 DUP7 ADD MLOAD SWAP1 DUP10 ADD MSTORE PUSH2 0x100 DUP1 DUP7 ADD MLOAD SWAP1 DUP10 ADD MSTORE PUSH2 0x120 DUP1 DUP7 ADD MLOAD ISZERO ISZERO SWAP1 DUP10 ADD MSTORE PUSH2 0x140 SWAP5 DUP6 ADD MLOAD SWAP5 SWAP1 SWAP8 ADD SWAP4 SWAP1 SWAP4 MSTORE POP POP POP SWAP4 DUP7 ADD SWAP4 SWAP1 DUP7 ADD SWAP1 PUSH1 0x1 ADD PUSH2 0x4638 JUMP JUMPDEST POP SWAP1 SWAP9 SWAP8 POP POP POP POP POP POP POP POP JUMP JUMPDEST PUSH1 0x0 PUSH1 0x20 DUP3 DUP5 SUB SLT ISZERO PUSH2 0x472D JUMPI PUSH1 0x0 DUP1 REVERT JUMPDEST PUSH2 0x3F87 DUP3 PUSH2 0x4440 JUMP JUMPDEST PUSH4 0x4E487B71 PUSH1 0xE0 SHL PUSH1 0x0 MSTORE PUSH1 0x41 PUSH1 0x4 MSTORE PUSH1 0x24 PUSH1 0x0 REVERT JUMPDEST PUSH1 0x0 PUSH1 0x1 PUSH1 0x1 PUSH1 0x40 SHL SUB DUP1 DUP5 GT ISZERO PUSH2 0x4766 JUMPI PUSH2 0x4766 PUSH2 0x4736 JUMP JUMPDEST PUSH1 0x40 MLOAD PUSH1 0x1F DUP6 ADD PUSH1 0x1F NOT SWAP1 DUP2 AND PUSH1 0x3F ADD AND DUP2 ADD SWAP1 DUP3 DUP3 GT DUP2 DUP4 LT OR ISZERO PUSH2 0x478E JUMPI PUSH2 0x478E PUSH2 0x4736 JUMP JUMPDEST DUP2 PUSH1 0x40 MSTORE DUP1 SWAP4 POP DUP6 DUP2 MSTORE DUP7 DUP7 DUP7 ADD GT ISZERO PUSH2 0x47A7 JUMPI PUSH1 0x0 DUP1 REVERT JUMPDEST DUP6 DUP6 PUSH1 0x20 DUP4 ADD CALLDATACOPY PUSH1 0x0 PUSH1 0x20 DUP8 DUP4 ADD ADD MSTORE POP POP POP SWAP4 SWAP3 POP POP POP JUMP JUMPDEST PUSH1 0x0 DUP3 PUSH1 0x1F DUP4 ADD SLT PUSH2 0x47D2 JUMPI PUSH1 0x0 DUP1 REVERT JUMPDEST PUSH2 0x3F87 DUP4 DUP4 CALLDATALOAD PUSH1 0x20 DUP6 ADD PUSH2 0x474C JUMP JUMPDEST PUSH1 0x0 DUP1 PUSH1 0x0 DUP1 PUSH1 0x0 DUP1 PUSH1 0x0 DUP1 PUSH2 0x100 DUP10 DUP12 SUB SLT ISZERO PUSH2 0x47FE JUMPI PUSH1 0x0 DUP1 REVERT JUMPDEST DUP9 CALLDATALOAD PUSH1 0x1 PUSH1 0x1 PUSH1 0x40 SHL SUB DUP1 DUP3 GT ISZERO PUSH2 0x4815 JUMPI PUSH1 0x0 DUP1 REVERT JUMPDEST PUSH2 0x4821 DUP13 DUP4 DUP14 ADD PUSH2 0x47C1 JUMP JUMPDEST SWAP10 POP PUSH1 0x20 DUP12 ADD CALLDATALOAD SWAP2 POP DUP1 DUP3 GT ISZERO PUSH2 0x4837 JUMPI PUSH1 0x0 DUP1 REVERT JUMPDEST PUSH2 0x4843 DUP13 DUP4 DUP14 ADD PUSH2 0x47C1 JUMP JUMPDEST SWAP9 POP PUSH1 0x40 DUP12 ADD CALLDATALOAD SWAP2 POP DUP1 DUP3 GT ISZERO PUSH2 0x4859 JUMPI PUSH1 0x0 DUP1 REVERT JUMPDEST PUSH2 0x4865 DUP13 DUP4 DUP14 ADD PUSH2 0x47C1 JUMP JUMPDEST SWAP8 POP PUSH1 0x60 DUP12 ADD CALLDATALOAD SWAP2 POP DUP1 DUP3 GT ISZERO PUSH2 0x487B JUMPI PUSH1 0x0 DUP1 REVERT JUMPDEST POP PUSH2 0x4888 DUP12 DUP3 DUP13 ADD PUSH2 0x47C1 JUMP JUMPDEST SWAP9 SWAP12 SWAP8 SWAP11 POP SWAP6 SWAP9 PUSH1 0x80 DUP2 ADD CALLDATALOAD SWAP8 PUSH1 0xA0 DUP3 ADD CALLDATALOAD SWAP8 POP PUSH1 0xC0 DUP3 ADD CALLDATALOAD SWAP7 POP PUSH1 0xE0 SWAP1 SWAP2 ADD CALLDATALOAD SWAP5 POP SWAP3 POP POP POP JUMP JUMPDEST PUSH1 0x20 DUP1 DUP3 MSTORE DUP3 MLOAD DUP3 DUP3 ADD DUP2 SWAP1 MSTORE PUSH1 0x0 SWAP2 SWAP1 PUSH1 0x40 SWAP1 DUP2 DUP6 ADD SWAP1 DUP7 DUP5 ADD DUP6 DUP1 JUMPDEST DUP4 DUP2 LT ISZERO PUSH2 0x4929 JUMPI DUP3 MLOAD DUP1 MLOAD DUP7 MSTORE DUP8 DUP2 ADD MLOAD DUP9 DUP8 ADD MSTORE DUP7 DUP2 ADD MLOAD DUP8 DUP8 ADD MSTORE PUSH1 0x60 DUP1 DUP3 ADD MLOAD SWAP1 DUP8 ADD MSTORE PUSH1 0x80 DUP1 DUP3 ADD MLOAD SWAP1 DUP8 ADD MSTORE PUSH1 0xA0 DUP1 DUP3 ADD MLOAD SWAP1 DUP8 ADD MSTORE PUSH1 0xC0 SWAP1 DUP2 ADD MLOAD DUP4 SIGNEXTEND SWAP1 DUP7 ADD MSTORE PUSH1 0xE0 SWAP1 SWAP5 ADD SWAP4 SWAP2 DUP7 ADD SWAP2 PUSH1 0x1 ADD PUSH2 0x48CF JUMP JUMPDEST POP SWAP3 SWAP9 SWAP8 POP POP POP POP POP POP POP POP JUMP JUMPDEST PUSH1 0x20 DUP1 DUP3 MSTORE DUP3 MLOAD DUP3 DUP3 ADD DUP2 SWAP1 MSTORE PUSH1 0x0 SWAP2 SWAP1 PUSH1 0x40 SWAP1 DUP2 DUP6 ADD SWAP1 DUP7 DUP5 ADD DUP6 JUMPDEST DUP3 DUP2 LT ISZERO PUSH2 0x4983 JUMPI DUP2 MLOAD DUP1 MLOAD DUP6 MSTORE DUP7 DUP2 ADD MLOAD DUP8 DUP7 ADD MSTORE DUP6 ADD MLOAD DUP6 DUP6 ADD MSTORE PUSH1 0x60 SWAP1 SWAP4 ADD SWAP3 SWAP1 DUP6 ADD SWAP1 PUSH1 0x1 ADD PUSH2 0x4954 JUMP JUMPDEST POP SWAP2 SWAP8 SWAP7 POP POP POP POP POP POP POP JUMP JUMPDEST PUSH1 0x0 PUSH1 0x20 DUP1 DUP4 ADD DUP2 DUP5 MSTORE DUP1 DUP6 MLOAD DUP1 DUP4 MSTORE PUSH1 0x40 DUP7 ADD SWAP2 POP PUSH1 0x40 DUP2 PUSH1 0x5 SHL DUP8 ADD ADD SWAP3 POP DUP4 DUP8 ADD PUSH1 0x0 JUMPDEST DUP3 DUP2 LT ISZERO PUSH2 0x49E5 JUMPI PUSH1 0x3F NOT DUP9 DUP7 SUB ADD DUP5 MSTORE PUSH2 0x49D3 DUP6 DUP4 MLOAD PUSH2 0x4595 JUMP JUMPDEST SWAP5 POP SWAP3 DUP6 ADD SWAP3 SWAP1 DUP6 ADD SWAP1 PUSH1 0x1 ADD PUSH2 0x49B7 JUMP JUMPDEST POP SWAP3 SWAP8 SWAP7 POP POP POP POP POP POP POP JUMP JUMPDEST PUSH1 0x0 DUP1 PUSH1 0x0 DUP1 PUSH1 0x0 PUSH1 0xA0 DUP7 DUP9 SUB SLT ISZERO PUSH2 0x4A0A JUMPI PUSH1 0x0 DUP1 REVERT JUMPDEST DUP6 CALLDATALOAD SWAP5 POP PUSH1 0x20 DUP7 ADD CALLDATALOAD SWAP4 POP PUSH1 0x40 DUP7 ADD CALLDATALOAD SWAP3 POP PUSH1 0x60 DUP7 ADD CALLDATALOAD PUSH1 0x1 PUSH1 0x1 PUSH1 0x40 SHL SUB DUP1 DUP3 GT ISZERO PUSH2 0x4A36 JUMPI PUSH1 0x0 DUP1 REVERT JUMPDEST PUSH2 0x4A42 DUP10 DUP4 DUP11 ADD PUSH2 0x47C1 JUMP JUMPDEST SWAP4 POP PUSH1 0x80 DUP9 ADD CALLDATALOAD SWAP2 POP DUP1 DUP3 GT ISZERO PUSH2 0x4A58 JUMPI PUSH1 0x0 DUP1 REVERT JUMPDEST POP PUSH2 0x4A65 DUP9 DUP3 DUP10 ADD PUSH2 0x47C1 JUMP JUMPDEST SWAP2 POP POP SWAP3 SWAP6 POP SWAP3 SWAP6 SWAP1 SWAP4 POP JUMP JUMPDEST PUSH1 0x0 DUP1 PUSH1 0x0 DUP1 PUSH1 0x0 PUSH1 0xA0 DUP7 DUP9 SUB SLT ISZERO PUSH2 0x4A8A JUMPI PUSH1 0x0 DUP1 REVERT JUMPDEST PUSH2 0x4A93 DUP7 PUSH2 0x4440 JUMP JUMPDEST SWAP5 POP PUSH1 0x20 DUP7 ADD CALLDATALOAD PUSH1 0x1 PUSH1 0x1 PUSH1 0x40 SHL SUB DUP1 DUP3 GT ISZERO PUSH2 0x4AAF JUMPI PUSH1 0x0 DUP1 REVERT JUMPDEST PUSH2 0x4ABB DUP10 DUP4 DUP11 ADD PUSH2 0x47C1 JUMP JUMPDEST SWAP6 POP PUSH1 0x40 DUP9 ADD CALLDATALOAD SWAP2 POP DUP1 DUP3 GT ISZERO PUSH2 0x4AD1 JUMPI PUSH1 0x0 DUP1 REVERT JUMPDEST PUSH2 0x4ADD DUP10 DUP4 DUP11 ADD PUSH2 0x47C1 JUMP JUMPDEST SWAP5 POP PUSH1 0x60 DUP9 ADD CALLDATALOAD SWAP2 POP DUP1 DUP3 GT ISZERO PUSH2 0x4A36 JUMPI PUSH1 0x0 DUP1 REVERT JUMPDEST DUP1 MLOAD DUP3 MSTORE PUSH1 0x1 DUP1 PUSH1 0xA0 SHL SUB PUSH1 0x20 DUP3 ADD MLOAD AND PUSH1 0x20 DUP4 ADD MSTORE PUSH1 0x0 PUSH1 0x40 DUP3 ADD MLOAD PUSH1 0xC0 PUSH1 0x40 DUP6 ADD MSTORE PUSH2 0x4B24 PUSH1 0xC0 DUP6 ADD DUP3 PUSH2 0x4401 JUMP JUMPDEST SWAP1 POP PUSH1 0x60 DUP4 ADD MLOAD DUP5 DUP3 SUB PUSH1 0x60 DUP7 ADD MSTORE PUSH2 0x4B3D DUP3 DUP3 PUSH2 0x4401 JUMP JUMPDEST SWAP2 POP POP PUSH1 0x80 DUP4 ADD MLOAD DUP5 DUP3 SUB PUSH1 0x80 DUP7 ADD MSTORE PUSH2 0x4B57 DUP3 DUP3 PUSH2 0x4401 JUMP JUMPDEST SWAP2 POP POP PUSH1 0xA0 DUP4 ADD MLOAD DUP5 DUP3 SUB PUSH1 0xA0 DUP7 ADD MSTORE PUSH2 0x45F5 DUP3 DUP3 PUSH2 0x4401 JUMP JUMPDEST PUSH1 0x20 DUP2 MSTORE PUSH1 0x0 PUSH2 0x3F87 PUSH1 0x20 DUP4 ADD DUP5 PUSH2 0x4AF3 JUMP JUMPDEST PUSH1 0x0 DUP1 PUSH1 0x40 DUP4 DUP6 SUB SLT ISZERO PUSH2 0x4B97 JUMPI PUSH1 0x0 DUP1 REVERT JUMPDEST PUSH2 0x4BA0 DUP4 PUSH2 0x4440 JUMP JUMPDEST SWAP2 POP PUSH1 0x20 DUP4 ADD CALLDATALOAD DUP1 ISZERO ISZERO DUP2 EQ PUSH2 0x4BB5 JUMPI PUSH1 0x0 DUP1 REVERT JUMPDEST DUP1 SWAP2 POP POP SWAP3 POP SWAP3 SWAP1 POP JUMP JUMPDEST PUSH1 0x0 PUSH1 0x20 DUP1 DUP4 ADD DUP2 DUP5 MSTORE DUP1 DUP6 MLOAD DUP1 DUP4 MSTORE PUSH1 0x40 DUP7 ADD SWAP2 POP PUSH1 0x40 DUP2 PUSH1 0x5 SHL DUP8 ADD ADD SWAP3 POP DUP4 DUP8 ADD PUSH1 0x0 JUMPDEST DUP3 DUP2 LT ISZERO PUSH2 0x49E5 JUMPI PUSH1 0x3F NOT DUP9 DUP7 SUB ADD DUP5 MSTORE PUSH2 0x4C03 DUP6 DUP4 MLOAD PUSH2 0x4AF3 JUMP JUMPDEST SWAP5 POP SWAP3 DUP6 ADD SWAP3 SWAP1 DUP6 ADD SWAP1 PUSH1 0x1 ADD PUSH2 0x4BE7 JUMP JUMPDEST PUSH1 0x0 DUP1 PUSH1 0x0 DUP1 PUSH1 0x80 DUP6 DUP8 SUB SLT ISZERO PUSH2 0x4C2B JUMPI PUSH1 0x0 DUP1 REVERT JUMPDEST PUSH2 0x4C34 DUP6 PUSH2 0x4440 JUMP JUMPDEST SWAP4 POP PUSH2 0x4C42 PUSH1 0x20 DUP7 ADD PUSH2 0x4440 JUMP JUMPDEST SWAP3 POP PUSH1 0x40 DUP6 ADD CALLDATALOAD SWAP2 POP PUSH1 0x60 DUP6 ADD CALLDATALOAD PUSH1 0x1 PUSH1 0x1 PUSH1 0x40 SHL SUB DUP2 GT ISZERO PUSH2 0x4C64 JUMPI PUSH1 0x0 DUP1 REVERT JUMPDEST DUP6 ADD PUSH1 0x1F DUP2 ADD DUP8 SGT PUSH2 0x4C75 JUMPI PUSH1 0x0 DUP1 REVERT JUMPDEST PUSH2 0x4C84 DUP8 DUP3 CALLDATALOAD PUSH1 0x20 DUP5 ADD PUSH2 0x474C JUMP JUMPDEST SWAP2 POP POP SWAP3 SWAP6 SWAP2 SWAP5 POP SWAP3 POP JUMP JUMPDEST PUSH1 0x0 DUP1 PUSH1 0x40 DUP4 DUP6 SUB SLT ISZERO PUSH2 0x4CA3 JUMPI PUSH1 0x0 DUP1 REVERT JUMPDEST DUP3 CALLDATALOAD PUSH1 0x1 PUSH1 0x1 PUSH1 0x40 SHL SUB DUP1 DUP3 GT ISZERO PUSH2 0x4CBA JUMPI PUSH1 0x0 DUP1 REVERT JUMPDEST PUSH2 0x4CC6 DUP7 DUP4 DUP8 ADD PUSH2 0x47C1 JUMP JUMPDEST SWAP4 POP PUSH1 0x20 DUP6 ADD CALLDATALOAD SWAP2 POP DUP1 DUP3 GT ISZERO PUSH2 0x4CDC JUMPI PUSH1 0x0 DUP1 REVERT JUMPDEST POP PUSH2 0x4CE9 DUP6 DUP3 DUP7 ADD PUSH2 0x47C1 JUMP JUMPDEST SWAP2 POP POP SWAP3 POP SWAP3 SWAP1 POP JUMP JUMPDEST PUSH1 0x20 DUP1 DUP3 MSTORE DUP3 MLOAD DUP3 DUP3 ADD DUP2 SWAP1 MSTORE PUSH1 0x0 SWAP2 SWAP1 PUSH1 0x40 SWAP1 DUP2 DUP6 ADD SWAP1 DUP7 DUP5 ADD DUP6 JUMPDEST DUP3 DUP2 LT ISZERO PUSH2 0x4983 JUMPI DUP2 MLOAD DUP1 MLOAD DUP6 MSTORE DUP7 DUP2 ADD MLOAD DUP8 DUP7 ADD MSTORE DUP6 DUP2 ADD MLOAD DUP7 DUP7 ADD MSTORE PUSH1 0x60 DUP1 DUP3 ADD MLOAD SWAP1 DUP7 ADD MSTORE PUSH1 0x80 SWAP1 DUP2 ADD MLOAD SWAP1 DUP6 ADD MSTORE PUSH1 0xA0 SWAP1 SWAP4 ADD SWAP3 SWAP1 DUP6 ADD SWAP1 PUSH1 0x1 ADD PUSH2 0x4D10 JUMP JUMPDEST PUSH1 0x0 DUP1 PUSH1 0x40 DUP4 DUP6 SUB SLT ISZERO PUSH2 0x4D67 JUMPI PUSH1 0x0 DUP1 REVERT JUMPDEST PUSH2 0x4D70 DUP4 PUSH2 0x4440 JUMP JUMPDEST SWAP2 POP PUSH2 0x4D7E PUSH1 0x20 DUP5 ADD PUSH2 0x4440 JUMP JUMPDEST SWAP1 POP SWAP3 POP SWAP3 SWAP1 POP JUMP JUMPDEST PUSH4 0x4E487B71 PUSH1 0xE0 SHL PUSH1 0x0 MSTORE PUSH1 0x11 PUSH1 0x4 MSTORE PUSH1 0x24 PUSH1 0x0 REVERT JUMPDEST DUP1 DUP3 ADD DUP1 DUP3 GT ISZERO PUSH2 0x91B JUMPI PUSH2 0x91B PUSH2 0x4D87 JUMP JUMPDEST PUSH1 0x1 DUP2 DUP2 SHR SWAP1 DUP3 AND DUP1 PUSH2 0x4DC4 JUMPI PUSH1 0x7F DUP3 AND SWAP2 POP JUMPDEST PUSH1 0x20 DUP3 LT DUP2 SUB PUSH2 0x1712 JUMPI PUSH4 0x4E487B71 PUSH1 0xE0 SHL PUSH1 0x0 MSTORE PUSH1 0x22 PUSH1 0x4 MSTORE PUSH1 0x24 PUSH1 0x0 REVERT JUMPDEST DUP2 DUP2 SUB DUP2 DUP2 GT ISZERO PUSH2 0x91B JUMPI PUSH2 0x91B PUSH2 0x4D87 JUMP JUMPDEST PUSH1 0x1F DUP3 GT ISZERO PUSH2 0xB79 JUMPI PUSH1 0x0 DUP2 DUP2 MSTORE PUSH1 0x20 DUP2 KECCAK256 PUSH1 0x1F DUP6 ADD PUSH1 0x5 SHR DUP2 ADD PUSH1 0x20 DUP7 LT ISZERO PUSH2 0x4E1E JUMPI POP DUP1 JUMPDEST PUSH1 0x1F DUP6 ADD PUSH1 0x5 SHR DUP3 ADD SWAP2 POP JUMPDEST DUP2 DUP2 LT ISZERO PUSH2 0x4E3D JUMPI DUP3 DUP2 SSTORE PUSH1 0x1 ADD PUSH2 0x4E2A JUMP JUMPDEST POP POP POP POP POP POP JUMP JUMPDEST DUP2 DUP2 SUB PUSH2 0x4E50 JUMPI POP POP JUMP JUMPDEST PUSH2 0x4E5A DUP3 SLOAD PUSH2 0x4DB0 JUMP JUMPDEST PUSH1 0x1 PUSH1 0x1 PUSH1 0x40 SHL SUB DUP2 GT ISZERO PUSH2 0x4E71 JUMPI PUSH2 0x4E71 PUSH2 0x4736 JUMP JUMPDEST PUSH2 0x4E85 DUP2 PUSH2 0x4E7F DUP5 SLOAD PUSH2 0x4DB0 JUMP JUMPDEST DUP5 PUSH2 0x4DF7 JUMP JUMPDEST PUSH1 0x0 PUSH1 0x1F DUP3 GT PUSH1 0x1 DUP2 EQ PUSH2 0x4EB9 JUMPI PUSH1 0x0 DUP4 ISZERO PUSH2 0x4EA1 JUMPI POP DUP5 DUP3 ADD SLOAD JUMPDEST PUSH1 0x0 NOT PUSH1 0x3 DUP6 SWAP1 SHL SHR NOT AND PUSH1 0x1 DUP5 SWAP1 SHL OR DUP5 SSTORE PUSH2 0x41C JUMP JUMPDEST PUSH1 0x0 DUP6 DUP2 MSTORE PUSH1 0x20 SWAP1 KECCAK256 PUSH1 0x1F NOT DUP5 AND SWAP1 PUSH1 0x0 DUP7 DUP2 MSTORE PUSH1 0x20 SWAP1 KECCAK256 DUP5 JUMPDEST DUP4 DUP2 LT ISZERO PUSH2 0x4EF3 JUMPI DUP3 DUP7 ADD SLOAD DUP3 SSTORE PUSH1 0x1 SWAP6 DUP7 ADD SWAP6 SWAP1 SWAP2 ADD SWAP1 PUSH1 0x20 ADD PUSH2 0x4ED3 JUMP JUMPDEST POP DUP6 DUP4 LT ISZERO PUSH2 0x4F11 JUMPI DUP2 DUP6 ADD SLOAD PUSH1 0x0 NOT PUSH1 0x3 DUP9 SWAP1 SHL PUSH1 0xF8 AND SHR NOT AND DUP2 SSTORE JUMPDEST POP POP POP POP POP PUSH1 0x1 SWAP1 DUP2 SHL ADD SWAP1 SSTORE POP JUMP JUMPDEST PUSH1 0x0 PUSH1 0x1 DUP3 ADD PUSH2 0x4F33 JUMPI PUSH2 0x4F33 PUSH2 0x4D87 JUMP JUMPDEST POP PUSH1 0x1 ADD SWAP1 JUMP JUMPDEST PUSH1 0x20 DUP1 DUP3 MSTORE PUSH1 0x2D SWAP1 DUP3 ADD MSTORE PUSH32 0x4552433732313A2063616C6C6572206973206E6F7420746F6B656E206F776E65 PUSH1 0x40 DUP3 ADD MSTORE PUSH13 0x1C881BDC88185C1C1C9BDD9959 PUSH1 0x9A SHL PUSH1 0x60 DUP3 ADD MSTORE PUSH1 0x80 ADD SWAP1 JUMP JUMPDEST PUSH4 0x4E487B71 PUSH1 0xE0 SHL PUSH1 0x0 MSTORE PUSH1 0x32 PUSH1 0x4 MSTORE PUSH1 0x24 PUSH1 0x0 REVERT JUMPDEST DUP2 MLOAD PUSH1 0x1 PUSH1 0x1 PUSH1 0x40 SHL SUB DUP2 GT ISZERO PUSH2 0x4FB6 JUMPI PUSH2 0x4FB6 PUSH2 0x4736 JUMP JUMPDEST PUSH2 0x4FC4 DUP2 PUSH2 0x4E7F DUP5 SLOAD PUSH2 0x4DB0 JUMP JUMPDEST PUSH1 0x20 DUP1 PUSH1 0x1F DUP4 GT PUSH1 0x1 DUP2 EQ PUSH2 0x4FF9 JUMPI PUSH1 0x0 DUP5 ISZERO PUSH2 0x4FE1 JUMPI POP DUP6 DUP4 ADD MLOAD JUMPDEST PUSH1 0x0 NOT PUSH1 0x3 DUP7 SWAP1 SHL SHR NOT AND PUSH1 0x1 DUP6 SWAP1 SHL OR DUP6 SSTORE PUSH2 0x4E3D JUMP JUMPDEST PUSH1 0x0 DUP6 DUP2 MSTORE PUSH1 0x20 DUP2 KECCAK256 PUSH1 0x1F NOT DUP7 AND SWAP2 JUMPDEST DUP3 DUP2 LT ISZERO PUSH2 0x5028 JUMPI DUP9 DUP7 ADD MLOAD DUP3 SSTORE SWAP5 DUP5 ADD SWAP5 PUSH1 0x1 SWAP1 SWAP2 ADD SWAP1 DUP5 ADD PUSH2 0x5009 JUMP JUMPDEST POP DUP6 DUP3 LT ISZERO PUSH2 0x4F11 JUMPI SWAP4 SWAP1 SWAP7 ADD MLOAD PUSH1 0x0 NOT PUSH1 0xF8 PUSH1 0x3 DUP8 SWAP1 SHL AND SHR NOT AND SWAP1 SWAP3 SSTORE POP POP PUSH1 0x1 SWAP1 DUP2 SHL ADD SWAP1 SSTORE POP JUMP JUMPDEST DUP1 DUP3 MUL DUP2 ISZERO DUP3 DUP3 DIV DUP5 EQ OR PUSH2 0x91B JUMPI PUSH2 0x91B PUSH2 0x4D87 JUMP JUMPDEST PUSH1 0x0 DUP3 MLOAD PUSH2 0x507D DUP2 DUP5 PUSH1 0x20 DUP8 ADD PUSH2 0x43DD JUMP JUMPDEST SWAP2 SWAP1 SWAP2 ADD SWAP3 SWAP2 POP POP JUMP JUMPDEST PUSH1 0x0 DUP4 MLOAD PUSH2 0x5099 DUP2 DUP5 PUSH1 0x20 DUP9 ADD PUSH2 0x43DD JUMP JUMPDEST DUP4 MLOAD SWAP1 DUP4 ADD SWAP1 PUSH2 0x50AD DUP2 DUP4 PUSH1 0x20 DUP9 ADD PUSH2 0x43DD JUMP JUMPDEST ADD SWAP5 SWAP4 POP POP POP POP JUMP JUMPDEST PUSH1 0x0 DUP2 PUSH2 0x50C5 JUMPI PUSH2 0x50C5 PUSH2 0x4D87 JUMP JUMPDEST POP PUSH1 0x0 NOT ADD SWAP1 JUMP JUMPDEST PUSH1 0x0 DUP3 PUSH2 0x50EA JUMPI PUSH4 0x4E487B71 PUSH1 0xE0 SHL PUSH1 0x0 MSTORE PUSH1 0x12 PUSH1 0x4 MSTORE PUSH1 0x24 PUSH1 0x0 REVERT JUMPDEST POP DIV SWAP1 JUMP JUMPDEST PUSH1 0x20 DUP1 DUP3 MSTORE PUSH1 0x25 SWAP1 DUP3 ADD MSTORE PUSH32 0x4552433732313A207472616E736665722066726F6D20696E636F727265637420 PUSH1 0x40 DUP3 ADD MSTORE PUSH5 0x37BBB732B9 PUSH1 0xD9 SHL PUSH1 0x60 DUP3 ADD MSTORE PUSH1 0x80 ADD SWAP1 JUMP JUMPDEST PUSH1 0x20 DUP1 DUP3 MSTORE PUSH1 0x32 SWAP1 DUP3 ADD MSTORE PUSH32 0x4552433732313A207472616E7366657220746F206E6F6E204552433732315265 PUSH1 0x40 DUP3 ADD MSTORE PUSH18 0x31B2B4BB32B91034B6B83632B6B2B73A32B9 PUSH1 0x71 SHL PUSH1 0x60 DUP3 ADD MSTORE PUSH1 0x80 ADD SWAP1 JUMP JUMPDEST PUSH1 0x1 PUSH1 0x1 PUSH1 0xA0 SHL SUB DUP6 DUP2 AND DUP3 MSTORE DUP5 AND PUSH1 0x20 DUP3 ADD MSTORE PUSH1 0x40 DUP2 ADD DUP4 SWAP1 MSTORE PUSH1 0x80 PUSH1 0x60 DUP3 ADD DUP2 SWAP1 MSTORE PUSH1 0x0 SWAP1 PUSH2 0x51B9 SWAP1 DUP4 ADD DUP5 PUSH2 0x4401 JUMP JUMPDEST SWAP7 SWAP6 POP POP POP POP POP POP JUMP JUMPDEST PUSH1 0x0 PUSH1 0x20 DUP3 DUP5 SUB SLT ISZERO PUSH2 0x51D5 JUMPI PUSH1 0x0 DUP1 REVERT JUMPDEST DUP2 MLOAD PUSH2 0x3F87 DUP2 PUSH2 0x4391 JUMP INVALID LOG2 PUSH5 0x6970667358 0x22 SLT KECCAK256 PUSH11 0x5ABCA6DE96A79486190415 DUP3 POP 0xAF CREATE PUSH5 0x547430EC69 0xF6 SWAP9 SIGNEXTEND PUSH22 0xC71334DBD1EE64736F6C634300081100330000000000 "},"methodIdentifiers":{"acceptPlot(uint256)":"1396f769","addPlot(string,string,string,string,uint256,uint256,uint256,uint256)":"5097bef8","approve(address,uint256)":"095ea7b3","balanceOf(address)":"70a08231","buyStocks(uint256,address,uint256,uint256,uint256,uint256)":"1c468f0b","checkAvailableStocksForBuyer(uint256,uint256)":"3c2cff22","checkAvailableStocksForSeller(uint256,uint256)":"01c2b352","compareStrings(string,string)":"bed34bba","createTransaction(uint256,uint256,uint256,uint256,uint256,uint256)":"11a80f7e","fetchAllPaymentByRentID(uint256)":"e980509c","fetchAllPlotRequests()":"4d770ca0","fetchAllPlots()":"e44176d8","fetchAllRentAggrements(uint256)":"801c6767","fetchAllStocksForPlot(uint256)":"c63af15f","fetchAllTransactions()":"661b4cc2","fetchAllUserPayments(uint256)":"7190314a","fetchAllUserRequests()":"ad509e8d","fetchAllUsers()":"c3374315","fetchRentAggrementById(uint256)":"3ffc0d10","fetchUserByAddress(address)":"9f900a18","getApproved(uint256)":"081812fc","isApprovedForAll(address,address)":"e985e9c5","isOwner()":"8f32d59b","mint(uint256,uint256,uint256,string,string)":"8cffd853","name()":"06fdde03","ownerOf(uint256)":"6352211e","payRent(uint256)":"d9e8843f","registerUser(address,string,string,string,string)":"999eab2b","rejectPlot(uint256)":"3b682632","rejectTransaction(uint256)":"05bf37aa","rejectUser(address)":"4dc92885","requestToBuyStocks(address,uint256,uint256,uint256,uint256)":"1cd8f3c5","safeTransferFrom(address,address,uint256)":"42842e0e","safeTransferFrom(address,address,uint256,bytes)":"b88d4fde","setApprovalForAll(address,bool)":"a22cb465","supportsInterface(bytes4)":"01ffc9a7","symbol()":"95d89b41","tokenURI(uint256)":"c87b56dd","transferFrom(address,address,uint256)":"23b872dd","transferOwnershipOfStocks(uint256,address,uint256,uint256,uint256,uint256)":"502ff310","updateBuyableStocks(uint256,uint256)":"4f92e87d","updateRentPrice(uint256,uint256)":"4feb2982","updateSellableStocks(uint256,uint256)":"31793fee","updateStockPrice(uint256,uint256)":"3fd7f8b8","validateTransaction(uint256)":"18c5c090","verifyUser(address)":"4d813120"}}}}}