{
  "_format": "hh-sol-artifact-1",
  "contractName": "SmartEstate",
  "sourceName": "contracts/SmartEstate.sol",
  "abi": [
    {
      "inputs": [],
      "stateMutability": "nonpayable",
      "type": "constructor"
    },
    {
      "anonymous": false,
      "inputs": [
        {
          "indexed": true,
          "internalType": "address",
          "name": "owner",
          "type": "address"
        },
        {
          "indexed": true,
          "internalType": "address",
          "name": "approved",
          "type": "address"
        },
        {
          "indexed": true,
          "internalType": "uint256",
          "name": "tokenId",
          "type": "uint256"
        }
      ],
      "name": "Approval",
      "type": "event"
    },
    {
      "anonymous": false,
      "inputs": [
        {
          "indexed": true,
          "internalType": "address",
          "name": "owner",
          "type": "address"
        },
        {
          "indexed": true,
          "internalType": "address",
          "name": "operator",
          "type": "address"
        },
        {
          "indexed": false,
          "internalType": "bool",
          "name": "approved",
          "type": "bool"
        }
      ],
      "name": "ApprovalForAll",
      "type": "event"
    },
    {
      "anonymous": false,
      "inputs": [
        {
          "indexed": true,
          "internalType": "address",
          "name": "from",
          "type": "address"
        },
        {
          "indexed": true,
          "internalType": "address",
          "name": "to",
          "type": "address"
        },
        {
          "indexed": true,
          "internalType": "uint256",
          "name": "tokenId",
          "type": "uint256"
        }
      ],
      "name": "Transfer",
      "type": "event"
    },
    {
      "inputs": [
        {
          "internalType": "uint256",
          "name": "plotId",
          "type": "uint256"
        }
      ],
      "name": "acceptPlot",
      "outputs": [],
      "stateMutability": "nonpayable",
      "type": "function"
    },
    {
      "inputs": [
        {
          "internalType": "string",
          "name": "name",
          "type": "string"
        },
        {
          "internalType": "string",
          "name": "realAdd",
          "type": "string"
        },
        {
          "internalType": "string",
          "name": "xCor",
          "type": "string"
        },
        {
          "internalType": "string",
          "name": "yCor",
          "type": "string"
        },
        {
          "internalType": "uint256",
          "name": "totalQuantity",
          "type": "uint256"
        },
        {
          "internalType": "uint256",
          "name": "availableStocks",
          "type": "uint256"
        },
        {
          "internalType": "uint256",
          "name": "price",
          "type": "uint256"
        },
        {
          "internalType": "uint256",
          "name": "rentAmount",
          "type": "uint256"
        }
      ],
      "name": "addPlot",
      "outputs": [],
      "stateMutability": "nonpayable",
      "type": "function"
    },
    {
      "inputs": [
        {
          "internalType": "address",
          "name": "to",
          "type": "address"
        },
        {
          "internalType": "uint256",
          "name": "tokenId",
          "type": "uint256"
        }
      ],
      "name": "approve",
      "outputs": [],
      "stateMutability": "nonpayable",
      "type": "function"
    },
    {
      "inputs": [
        {
          "internalType": "address",
          "name": "owner",
          "type": "address"
        }
      ],
      "name": "balanceOf",
      "outputs": [
        {
          "internalType": "uint256",
          "name": "",
          "type": "uint256"
        }
      ],
      "stateMutability": "view",
      "type": "function"
    },
    {
      "inputs": [
        {
          "internalType": "uint256",
          "name": "stockId",
          "type": "uint256"
        },
        {
          "internalType": "address",
          "name": "target",
          "type": "address"
        },
        {
          "internalType": "uint256",
          "name": "quantityToBuy",
          "type": "uint256"
        },
        {
          "internalType": "uint256",
          "name": "price",
          "type": "uint256"
        },
        {
          "internalType": "uint256",
          "name": "plotId",
          "type": "uint256"
        },
        {
          "internalType": "uint256",
          "name": "sellQuantity",
          "type": "uint256"
        }
      ],
      "name": "buyStocks",
      "outputs": [],
      "stateMutability": "nonpayable",
      "type": "function"
    },
    {
      "inputs": [
        {
          "internalType": "uint256",
          "name": "stockId",
          "type": "uint256"
        },
        {
          "internalType": "uint256",
          "name": "buyable",
          "type": "uint256"
        }
      ],
      "name": "checkAvailableStocksForBuyer",
      "outputs": [
        {
          "internalType": "bool",
          "name": "",
          "type": "bool"
        }
      ],
      "stateMutability": "view",
      "type": "function"
    },
    {
      "inputs": [
        {
          "internalType": "uint256",
          "name": "stockId",
          "type": "uint256"
        },
        {
          "internalType": "uint256",
          "name": "sellable",
          "type": "uint256"
        }
      ],
      "name": "checkAvailableStocksForSeller",
      "outputs": [
        {
          "internalType": "bool",
          "name": "",
          "type": "bool"
        }
      ],
      "stateMutability": "view",
      "type": "function"
    },
    {
      "inputs": [
        {
          "internalType": "string",
          "name": "_string1",
          "type": "string"
        },
        {
          "internalType": "string",
          "name": "_string2",
          "type": "string"
        }
      ],
      "name": "compareStrings",
      "outputs": [
        {
          "internalType": "bool",
          "name": "",
          "type": "bool"
        }
      ],
      "stateMutability": "pure",
      "type": "function"
    },
    {
      "inputs": [
        {
          "internalType": "uint256",
          "name": "source",
          "type": "uint256"
        },
        {
          "internalType": "uint256",
          "name": "target",
          "type": "uint256"
        },
        {
          "internalType": "uint256",
          "name": "quantity",
          "type": "uint256"
        },
        {
          "internalType": "uint256",
          "name": "price",
          "type": "uint256"
        },
        {
          "internalType": "uint256",
          "name": "timestamp",
          "type": "uint256"
        },
        {
          "internalType": "uint256",
          "name": "plotId",
          "type": "uint256"
        }
      ],
      "name": "createTransaction",
      "outputs": [
        {
          "internalType": "uint256",
          "name": "",
          "type": "uint256"
        }
      ],
      "stateMutability": "nonpayable",
      "type": "function"
    },
    {
      "inputs": [
        {
          "internalType": "uint256",
          "name": "rentId",
          "type": "uint256"
        }
      ],
      "name": "fetchAllPaymentByRentID",
      "outputs": [
        {
          "components": [
            {
              "internalType": "uint256",
              "name": "rentId",
              "type": "uint256"
            },
            {
              "internalType": "uint256",
              "name": "amount",
              "type": "uint256"
            },
            {
              "internalType": "uint256",
              "name": "date",
              "type": "uint256"
            }
          ],
          "internalType": "struct SmartEstate.Payment[]",
          "name": "",
          "type": "tuple[]"
        }
      ],
      "stateMutability": "view",
      "type": "function"
    },
    {
      "inputs": [],
      "name": "fetchAllPlotRequests",
      "outputs": [
        {
          "components": [
            {
              "internalType": "uint256",
              "name": "id",
              "type": "uint256"
            },
            {
              "internalType": "uint256",
              "name": "creatorId",
              "type": "uint256"
            },
            {
              "internalType": "string",
              "name": "name",
              "type": "string"
            },
            {
              "internalType": "string",
              "name": "realAdd",
              "type": "string"
            },
            {
              "internalType": "string",
              "name": "xCor",
              "type": "string"
            },
            {
              "internalType": "string",
              "name": "yCor",
              "type": "string"
            },
            {
              "internalType": "uint256",
              "name": "totalQuantity",
              "type": "uint256"
            },
            {
              "internalType": "uint256",
              "name": "availableStocks",
              "type": "uint256"
            },
            {
              "internalType": "uint256",
              "name": "price",
              "type": "uint256"
            },
            {
              "internalType": "bool",
              "name": "rented",
              "type": "bool"
            },
            {
              "internalType": "uint256",
              "name": "rentAmount",
              "type": "uint256"
            }
          ],
          "internalType": "struct SmartEstate.Plot[]",
          "name": "",
          "type": "tuple[]"
        }
      ],
      "stateMutability": "view",
      "type": "function"
    },
    {
      "inputs": [],
      "name": "fetchAllPlots",
      "outputs": [
        {
          "components": [
            {
              "internalType": "uint256",
              "name": "id",
              "type": "uint256"
            },
            {
              "internalType": "uint256",
              "name": "creatorId",
              "type": "uint256"
            },
            {
              "internalType": "string",
              "name": "name",
              "type": "string"
            },
            {
              "internalType": "string",
              "name": "realAdd",
              "type": "string"
            },
            {
              "internalType": "string",
              "name": "xCor",
              "type": "string"
            },
            {
              "internalType": "string",
              "name": "yCor",
              "type": "string"
            },
            {
              "internalType": "uint256",
              "name": "totalQuantity",
              "type": "uint256"
            },
            {
              "internalType": "uint256",
              "name": "availableStocks",
              "type": "uint256"
            },
            {
              "internalType": "uint256",
              "name": "price",
              "type": "uint256"
            },
            {
              "internalType": "bool",
              "name": "rented",
              "type": "bool"
            },
            {
              "internalType": "uint256",
              "name": "rentAmount",
              "type": "uint256"
            }
          ],
          "internalType": "struct SmartEstate.Plot[]",
          "name": "",
          "type": "tuple[]"
        }
      ],
      "stateMutability": "view",
      "type": "function"
    },
    {
      "inputs": [
        {
          "internalType": "uint256",
          "name": "userId",
          "type": "uint256"
        }
      ],
      "name": "fetchAllRentAggrements",
      "outputs": [
        {
          "components": [
            {
              "internalType": "uint256",
              "name": "plotId",
              "type": "uint256"
            },
            {
              "internalType": "uint256",
              "name": "renterId",
              "type": "uint256"
            },
            {
              "internalType": "uint256",
              "name": "startDate",
              "type": "uint256"
            },
            {
              "internalType": "uint256",
              "name": "endDate",
              "type": "uint256"
            },
            {
              "internalType": "uint256",
              "name": "rentAmount",
              "type": "uint256"
            },
            {
              "internalType": "string",
              "name": "description",
              "type": "string"
            },
            {
              "internalType": "string",
              "name": "cid",
              "type": "string"
            }
          ],
          "internalType": "struct SmartEstate.RentAggrement[]",
          "name": "",
          "type": "tuple[]"
        }
      ],
      "stateMutability": "view",
      "type": "function"
    },
    {
      "inputs": [
        {
          "internalType": "uint256",
          "name": "plotId",
          "type": "uint256"
        }
      ],
      "name": "fetchAllStocksForPlot",
      "outputs": [
        {
          "components": [
            {
              "internalType": "address",
              "name": "holderAddress",
              "type": "address"
            },
            {
              "internalType": "uint256",
              "name": "stockId",
              "type": "uint256"
            },
            {
              "internalType": "uint256",
              "name": "userId",
              "type": "uint256"
            },
            {
              "internalType": "uint256",
              "name": "plotId",
              "type": "uint256"
            },
            {
              "internalType": "uint256",
              "name": "quantity",
              "type": "uint256"
            },
            {
              "internalType": "uint256",
              "name": "sellable",
              "type": "uint256"
            },
            {
              "internalType": "uint256",
              "name": "price",
              "type": "uint256"
            }
          ],
          "internalType": "struct SmartEstate.Stocks[]",
          "name": "",
          "type": "tuple[]"
        }
      ],
      "stateMutability": "view",
      "type": "function"
    },
    {
      "inputs": [
        {
          "internalType": "address",
          "name": "userAdd",
          "type": "address"
        }
      ],
      "name": "fetchAllStocksForUser",
      "outputs": [
        {
          "components": [
            {
              "internalType": "address",
              "name": "holderAddress",
              "type": "address"
            },
            {
              "internalType": "uint256",
              "name": "stockId",
              "type": "uint256"
            },
            {
              "internalType": "uint256",
              "name": "userId",
              "type": "uint256"
            },
            {
              "internalType": "uint256",
              "name": "plotId",
              "type": "uint256"
            },
            {
              "internalType": "uint256",
              "name": "quantity",
              "type": "uint256"
            },
            {
              "internalType": "uint256",
              "name": "sellable",
              "type": "uint256"
            },
            {
              "internalType": "uint256",
              "name": "price",
              "type": "uint256"
            }
          ],
          "internalType": "struct SmartEstate.Stocks[]",
          "name": "",
          "type": "tuple[]"
        }
      ],
      "stateMutability": "view",
      "type": "function"
    },
    {
      "inputs": [],
      "name": "fetchAllTransactions",
      "outputs": [
        {
          "components": [
            {
              "internalType": "uint256",
              "name": "source",
              "type": "uint256"
            },
            {
              "internalType": "uint256",
              "name": "target",
              "type": "uint256"
            },
            {
              "internalType": "uint256",
              "name": "quantity",
              "type": "uint256"
            },
            {
              "internalType": "uint256",
              "name": "price",
              "type": "uint256"
            },
            {
              "internalType": "uint256",
              "name": "timestamp",
              "type": "uint256"
            },
            {
              "internalType": "uint256",
              "name": "plotId",
              "type": "uint256"
            },
            {
              "internalType": "int8",
              "name": "state",
              "type": "int8"
            }
          ],
          "internalType": "struct SmartEstate.Transaction[]",
          "name": "",
          "type": "tuple[]"
        }
      ],
      "stateMutability": "view",
      "type": "function"
    },
    {
      "inputs": [
        {
          "internalType": "uint256",
          "name": "userId",
          "type": "uint256"
        }
      ],
      "name": "fetchAllUserPayments",
      "outputs": [
        {
          "components": [
            {
              "internalType": "uint256",
              "name": "rentId",
              "type": "uint256"
            },
            {
              "internalType": "uint256",
              "name": "amount",
              "type": "uint256"
            },
            {
              "internalType": "uint256",
              "name": "date",
              "type": "uint256"
            }
          ],
          "internalType": "struct SmartEstate.Payment[]",
          "name": "",
          "type": "tuple[]"
        }
      ],
      "stateMutability": "view",
      "type": "function"
    },
    {
      "inputs": [],
      "name": "fetchAllUserRequests",
      "outputs": [
        {
          "components": [
            {
              "internalType": "uint256",
              "name": "userId",
              "type": "uint256"
            },
            {
              "internalType": "address",
              "name": "userAdd",
              "type": "address"
            },
            {
              "internalType": "string",
              "name": "name",
              "type": "string"
            },
            {
              "internalType": "string",
              "name": "mobileNo",
              "type": "string"
            },
            {
              "internalType": "string",
              "name": "aadhaar",
              "type": "string"
            },
            {
              "internalType": "string",
              "name": "aadhaarCID",
              "type": "string"
            }
          ],
          "internalType": "struct SmartEstate.User[]",
          "name": "",
          "type": "tuple[]"
        }
      ],
      "stateMutability": "view",
      "type": "function"
    },
    {
      "inputs": [],
      "name": "fetchAllUsers",
      "outputs": [
        {
          "components": [
            {
              "internalType": "uint256",
              "name": "userId",
              "type": "uint256"
            },
            {
              "internalType": "address",
              "name": "userAdd",
              "type": "address"
            },
            {
              "internalType": "string",
              "name": "name",
              "type": "string"
            },
            {
              "internalType": "string",
              "name": "mobileNo",
              "type": "string"
            },
            {
              "internalType": "string",
              "name": "aadhaar",
              "type": "string"
            },
            {
              "internalType": "string",
              "name": "aadhaarCID",
              "type": "string"
            }
          ],
          "internalType": "struct SmartEstate.User[]",
          "name": "",
          "type": "tuple[]"
        }
      ],
      "stateMutability": "view",
      "type": "function"
    },
    {
      "inputs": [
        {
          "internalType": "uint256",
          "name": "plotId",
          "type": "uint256"
        }
      ],
      "name": "fetchPlotById",
      "outputs": [
        {
          "components": [
            {
              "internalType": "uint256",
              "name": "id",
              "type": "uint256"
            },
            {
              "internalType": "uint256",
              "name": "creatorId",
              "type": "uint256"
            },
            {
              "internalType": "string",
              "name": "name",
              "type": "string"
            },
            {
              "internalType": "string",
              "name": "realAdd",
              "type": "string"
            },
            {
              "internalType": "string",
              "name": "xCor",
              "type": "string"
            },
            {
              "internalType": "string",
              "name": "yCor",
              "type": "string"
            },
            {
              "internalType": "uint256",
              "name": "totalQuantity",
              "type": "uint256"
            },
            {
              "internalType": "uint256",
              "name": "availableStocks",
              "type": "uint256"
            },
            {
              "internalType": "uint256",
              "name": "price",
              "type": "uint256"
            },
            {
              "internalType": "bool",
              "name": "rented",
              "type": "bool"
            },
            {
              "internalType": "uint256",
              "name": "rentAmount",
              "type": "uint256"
            }
          ],
          "internalType": "struct SmartEstate.Plot",
          "name": "",
          "type": "tuple"
        }
      ],
      "stateMutability": "view",
      "type": "function"
    },
    {
      "inputs": [
        {
          "internalType": "uint256",
          "name": "rentId",
          "type": "uint256"
        }
      ],
      "name": "fetchRentAggrementById",
      "outputs": [
        {
          "components": [
            {
              "internalType": "uint256",
              "name": "plotId",
              "type": "uint256"
            },
            {
              "internalType": "uint256",
              "name": "renterId",
              "type": "uint256"
            },
            {
              "internalType": "uint256",
              "name": "startDate",
              "type": "uint256"
            },
            {
              "internalType": "uint256",
              "name": "endDate",
              "type": "uint256"
            },
            {
              "internalType": "uint256",
              "name": "rentAmount",
              "type": "uint256"
            },
            {
              "internalType": "string",
              "name": "description",
              "type": "string"
            },
            {
              "internalType": "string",
              "name": "cid",
              "type": "string"
            }
          ],
          "internalType": "struct SmartEstate.RentAggrement",
          "name": "",
          "type": "tuple"
        }
      ],
      "stateMutability": "view",
      "type": "function"
    },
    {
      "inputs": [
        {
          "internalType": "address",
          "name": "addr",
          "type": "address"
        }
      ],
      "name": "fetchUserByAddress",
      "outputs": [
        {
          "components": [
            {
              "internalType": "uint256",
              "name": "userId",
              "type": "uint256"
            },
            {
              "internalType": "address",
              "name": "userAdd",
              "type": "address"
            },
            {
              "internalType": "string",
              "name": "name",
              "type": "string"
            },
            {
              "internalType": "string",
              "name": "mobileNo",
              "type": "string"
            },
            {
              "internalType": "string",
              "name": "aadhaar",
              "type": "string"
            },
            {
              "internalType": "string",
              "name": "aadhaarCID",
              "type": "string"
            }
          ],
          "internalType": "struct SmartEstate.User",
          "name": "",
          "type": "tuple"
        }
      ],
      "stateMutability": "view",
      "type": "function"
    },
    {
      "inputs": [
        {
          "internalType": "uint256",
          "name": "id",
          "type": "uint256"
        }
      ],
      "name": "fetchUserById",
      "outputs": [
        {
          "components": [
            {
              "internalType": "uint256",
              "name": "userId",
              "type": "uint256"
            },
            {
              "internalType": "address",
              "name": "userAdd",
              "type": "address"
            },
            {
              "internalType": "string",
              "name": "name",
              "type": "string"
            },
            {
              "internalType": "string",
              "name": "mobileNo",
              "type": "string"
            },
            {
              "internalType": "string",
              "name": "aadhaar",
              "type": "string"
            },
            {
              "internalType": "string",
              "name": "aadhaarCID",
              "type": "string"
            }
          ],
          "internalType": "struct SmartEstate.User",
          "name": "",
          "type": "tuple"
        }
      ],
      "stateMutability": "view",
      "type": "function"
    },
    {
      "inputs": [
        {
          "internalType": "address",
          "name": "userAdd",
          "type": "address"
        }
      ],
      "name": "fetchUserPlots",
      "outputs": [
        {
          "components": [
            {
              "internalType": "uint256",
              "name": "id",
              "type": "uint256"
            },
            {
              "internalType": "uint256",
              "name": "creatorId",
              "type": "uint256"
            },
            {
              "internalType": "string",
              "name": "name",
              "type": "string"
            },
            {
              "internalType": "string",
              "name": "realAdd",
              "type": "string"
            },
            {
              "internalType": "string",
              "name": "xCor",
              "type": "string"
            },
            {
              "internalType": "string",
              "name": "yCor",
              "type": "string"
            },
            {
              "internalType": "uint256",
              "name": "totalQuantity",
              "type": "uint256"
            },
            {
              "internalType": "uint256",
              "name": "availableStocks",
              "type": "uint256"
            },
            {
              "internalType": "uint256",
              "name": "price",
              "type": "uint256"
            },
            {
              "internalType": "bool",
              "name": "rented",
              "type": "bool"
            },
            {
              "internalType": "uint256",
              "name": "rentAmount",
              "type": "uint256"
            }
          ],
          "internalType": "struct SmartEstate.Plot[]",
          "name": "",
          "type": "tuple[]"
        }
      ],
      "stateMutability": "view",
      "type": "function"
    },
    {
      "inputs": [
        {
          "internalType": "uint256",
          "name": "tokenId",
          "type": "uint256"
        }
      ],
      "name": "getApproved",
      "outputs": [
        {
          "internalType": "address",
          "name": "",
          "type": "address"
        }
      ],
      "stateMutability": "view",
      "type": "function"
    },
    {
      "inputs": [
        {
          "internalType": "address",
          "name": "owner",
          "type": "address"
        },
        {
          "internalType": "address",
          "name": "operator",
          "type": "address"
        }
      ],
      "name": "isApprovedForAll",
      "outputs": [
        {
          "internalType": "bool",
          "name": "",
          "type": "bool"
        }
      ],
      "stateMutability": "view",
      "type": "function"
    },
    {
      "inputs": [],
      "name": "isOwner",
      "outputs": [
        {
          "internalType": "bool",
          "name": "",
          "type": "bool"
        }
      ],
      "stateMutability": "view",
      "type": "function"
    },
    {
      "inputs": [
        {
          "internalType": "uint256",
          "name": "plotId",
          "type": "uint256"
        },
        {
          "internalType": "uint256",
          "name": "months",
          "type": "uint256"
        },
        {
          "internalType": "uint256",
          "name": "rentAmount",
          "type": "uint256"
        },
        {
          "internalType": "string",
          "name": "description",
          "type": "string"
        },
        {
          "internalType": "string",
          "name": "cid",
          "type": "string"
        }
      ],
      "name": "mint",
      "outputs": [],
      "stateMutability": "nonpayable",
      "type": "function"
    },
    {
      "inputs": [],
      "name": "name",
      "outputs": [
        {
          "internalType": "string",
          "name": "",
          "type": "string"
        }
      ],
      "stateMutability": "view",
      "type": "function"
    },
    {
      "inputs": [
        {
          "internalType": "uint256",
          "name": "tokenId",
          "type": "uint256"
        }
      ],
      "name": "ownerOf",
      "outputs": [
        {
          "internalType": "address",
          "name": "",
          "type": "address"
        }
      ],
      "stateMutability": "view",
      "type": "function"
    },
    {
      "inputs": [
        {
          "internalType": "uint256",
          "name": "rentId",
          "type": "uint256"
        }
      ],
      "name": "payRent",
      "outputs": [],
      "stateMutability": "payable",
      "type": "function"
    },
    {
      "inputs": [
        {
          "internalType": "address",
          "name": "userAdd",
          "type": "address"
        },
        {
          "internalType": "string",
          "name": "name",
          "type": "string"
        },
        {
          "internalType": "string",
          "name": "mobileNo",
          "type": "string"
        },
        {
          "internalType": "string",
          "name": "aadhaar",
          "type": "string"
        },
        {
          "internalType": "string",
          "name": "aadhaarCID",
          "type": "string"
        }
      ],
      "name": "registerUser",
      "outputs": [],
      "stateMutability": "nonpayable",
      "type": "function"
    },
    {
      "inputs": [
        {
          "internalType": "uint256",
          "name": "plotId",
          "type": "uint256"
        }
      ],
      "name": "rejectPlot",
      "outputs": [],
      "stateMutability": "nonpayable",
      "type": "function"
    },
    {
      "inputs": [
        {
          "internalType": "uint256",
          "name": "transacId",
          "type": "uint256"
        }
      ],
      "name": "rejectTransaction",
      "outputs": [],
      "stateMutability": "nonpayable",
      "type": "function"
    },
    {
      "inputs": [
        {
          "internalType": "address",
          "name": "userAdd",
          "type": "address"
        }
      ],
      "name": "rejectUser",
      "outputs": [],
      "stateMutability": "nonpayable",
      "type": "function"
    },
    {
      "inputs": [
        {
          "internalType": "address",
          "name": "target",
          "type": "address"
        },
        {
          "internalType": "uint256",
          "name": "quantityToBuy",
          "type": "uint256"
        },
        {
          "internalType": "uint256",
          "name": "price",
          "type": "uint256"
        },
        {
          "internalType": "uint256",
          "name": "plotId",
          "type": "uint256"
        },
        {
          "internalType": "uint256",
          "name": "sellQuantity",
          "type": "uint256"
        }
      ],
      "name": "requestToBuyStocks",
      "outputs": [],
      "stateMutability": "nonpayable",
      "type": "function"
    },
    {
      "inputs": [
        {
          "internalType": "address",
          "name": "from",
          "type": "address"
        },
        {
          "internalType": "address",
          "name": "to",
          "type": "address"
        },
        {
          "internalType": "uint256",
          "name": "tokenId",
          "type": "uint256"
        }
      ],
      "name": "safeTransferFrom",
      "outputs": [],
      "stateMutability": "nonpayable",
      "type": "function"
    },
    {
      "inputs": [
        {
          "internalType": "address",
          "name": "from",
          "type": "address"
        },
        {
          "internalType": "address",
          "name": "to",
          "type": "address"
        },
        {
          "internalType": "uint256",
          "name": "tokenId",
          "type": "uint256"
        },
        {
          "internalType": "bytes",
          "name": "data",
          "type": "bytes"
        }
      ],
      "name": "safeTransferFrom",
      "outputs": [],
      "stateMutability": "nonpayable",
      "type": "function"
    },
    {
      "inputs": [
        {
          "internalType": "address",
          "name": "operator",
          "type": "address"
        },
        {
          "internalType": "bool",
          "name": "approved",
          "type": "bool"
        }
      ],
      "name": "setApprovalForAll",
      "outputs": [],
      "stateMutability": "nonpayable",
      "type": "function"
    },
    {
      "inputs": [
        {
          "internalType": "bytes4",
          "name": "interfaceId",
          "type": "bytes4"
        }
      ],
      "name": "supportsInterface",
      "outputs": [
        {
          "internalType": "bool",
          "name": "",
          "type": "bool"
        }
      ],
      "stateMutability": "view",
      "type": "function"
    },
    {
      "inputs": [],
      "name": "symbol",
      "outputs": [
        {
          "internalType": "string",
          "name": "",
          "type": "string"
        }
      ],
      "stateMutability": "view",
      "type": "function"
    },
    {
      "inputs": [
        {
          "internalType": "uint256",
          "name": "tokenId",
          "type": "uint256"
        }
      ],
      "name": "tokenURI",
      "outputs": [
        {
          "internalType": "string",
          "name": "",
          "type": "string"
        }
      ],
      "stateMutability": "view",
      "type": "function"
    },
    {
      "inputs": [
        {
          "internalType": "address",
          "name": "from",
          "type": "address"
        },
        {
          "internalType": "address",
          "name": "to",
          "type": "address"
        },
        {
          "internalType": "uint256",
          "name": "tokenId",
          "type": "uint256"
        }
      ],
      "name": "transferFrom",
      "outputs": [],
      "stateMutability": "nonpayable",
      "type": "function"
    },
    {
      "inputs": [
        {
          "internalType": "uint256",
          "name": "stockId",
          "type": "uint256"
        },
        {
          "internalType": "uint256",
          "name": "buyable",
          "type": "uint256"
        }
      ],
      "name": "updateBuyableStocks",
      "outputs": [],
      "stateMutability": "nonpayable",
      "type": "function"
    },
    {
      "inputs": [
        {
          "internalType": "uint256",
          "name": "plotId",
          "type": "uint256"
        },
        {
          "internalType": "uint256",
          "name": "rentAmount",
          "type": "uint256"
        }
      ],
      "name": "updateRentPrice",
      "outputs": [],
      "stateMutability": "nonpayable",
      "type": "function"
    },
    {
      "inputs": [
        {
          "internalType": "uint256",
          "name": "stockId",
          "type": "uint256"
        },
        {
          "internalType": "uint256",
          "name": "sellable",
          "type": "uint256"
        }
      ],
      "name": "updateSellableStocks",
      "outputs": [],
      "stateMutability": "nonpayable",
      "type": "function"
    },
    {
      "inputs": [
        {
          "internalType": "uint256",
          "name": "stockId",
          "type": "uint256"
        },
        {
          "internalType": "uint256",
          "name": "price",
          "type": "uint256"
        }
      ],
      "name": "updateStockPrice",
      "outputs": [],
      "stateMutability": "nonpayable",
      "type": "function"
    },
    {
      "inputs": [
        {
          "internalType": "uint256",
          "name": "transacId",
          "type": "uint256"
        }
      ],
      "name": "validateTransaction",
      "outputs": [],
      "stateMutability": "nonpayable",
      "type": "function"
    },
    {
      "inputs": [
        {
          "internalType": "address",
          "name": "userAdd",
          "type": "address"
        }
      ],
      "name": "verifyUser",
      "outputs": [],
      "stateMutability": "nonpayable",
      "type": "function"
    }
  ],
  "bytecode": "0x60806040523480156200001157600080fd5b506040518060400160405280600681526020016566646a6b6c7360d01b815250604051806040016040528060048152602001636a6c6b7360e01b81525081600090816200005f91906200012e565b5060016200006e82826200012e565b5050600780546001600160a01b0319163317905550620001fa565b634e487b7160e01b600052604160045260246000fd5b600181811c90821680620000b457607f821691505b602082108103620000d557634e487b7160e01b600052602260045260246000fd5b50919050565b601f8211156200012957600081815260208120601f850160051c81016020861015620001045750805b601f850160051c820191505b81811015620001255782815560010162000110565b5050505b505050565b81516001600160401b038111156200014a576200014a62000089565b62000162816200015b84546200009f565b84620000db565b602080601f8311600181146200019a5760008415620001815750858301515b600019600386901b1c1916600185901b17855562000125565b600085815260208120601f198616915b82811015620001cb57888601518255948401946001909101908401620001aa565b5085821015620001ea5787850151600019600388901b60f8161c191681555b5050505050600190811b01905550565b615e6a806200020a6000396000f3fe6080604052600436106102ae5760003560e01c80635097bef8116101755780639f900a18116100dc578063c63af15f11610095578063e44176d81161006f578063e44176d8146108e6578063e959bf39146108fb578063e980509c1461091b578063e985e9c51461093b57600080fd5b8063c63af15f14610893578063c87b56dd146108b3578063d9e8843f146108d357600080fd5b80639f900a18146107dc578063a22cb465146107fc578063ad509e8d1461081c578063b88d4fde1461083e578063bed34bba1461085e578063c33743151461087e57600080fd5b8063801c67671161012e578063801c67671461070c5780638cffd853146107395780638f32d59b1461075957806395d89b411461077a578063999eab2b1461078f5780639c432e34146107af57600080fd5b80635097bef8146106305780635dd38e2d146106505780636352211e1461067d578063661b4cc21461069d57806370a08231146106bf5780637190314a146106df57600080fd5b8063310cd34f1161021957806342842e0e116101d257806342842e0e1461055e5780634d770ca01461057e5780634d813120146105a05780634dc92885146105c05780634f92e87d146105e05780634feb29821461060057600080fd5b8063310cd34f1461047457806331793fee146104a15780633b682632146104c15780633c2cff22146104e15780633fd7f8b8146105015780633ffc0d101461053157600080fd5b806311a80f7e1161026b57806311a80f7e146103a45780631396f769146103d257806318c5c090146103f25780631c468f0b146104125780631cd8f3c51461043257806323b872dd1461045457600080fd5b806301c2b352146102b357806301ffc9a7146102e857806305bf37aa1461030857806306fdde031461032a578063081812fc1461034c578063095ea7b314610384575b600080fd5b3480156102bf57600080fd5b506102d36102ce366004614f83565b610984565b60405190151581526020015b60405180910390f35b3480156102f457600080fd5b506102d3610303366004614fbb565b6109bf565b34801561031457600080fd5b50610328610323366004614fd8565b610a0f565b005b34801561033657600080fd5b5061033f610a49565b6040516102df9190615041565b34801561035857600080fd5b5061036c610367366004614fd8565b610adb565b6040516001600160a01b0390911681526020016102df565b34801561039057600080fd5b5061032861039f366004615070565b610b02565b3480156103b057600080fd5b506103c46103bf36600461509a565b610c1c565b6040519081526020016102df565b3480156103de57600080fd5b506103286103ed366004614fd8565b610cd6565b3480156103fe57600080fd5b5061032861040d366004614fd8565b610ffd565b34801561041e57600080fd5b5061032861042d3660046150dd565b611036565b34801561043e57600080fd5b5061032861044d36600461512b565b5050505050565b34801561046057600080fd5b5061032861046f36600461516d565b6112c4565b34801561048057600080fd5b5061049461048f366004614fd8565b6112f5565b6040516102df919061526e565b3480156104ad57600080fd5b506103286104bc366004614f83565b6115f8565b3480156104cd57600080fd5b506103286104dc366004614fd8565b611622565b3480156104ed57600080fd5b506102d36104fc366004614f83565b611635565b34801561050d57600080fd5b5061032861051c366004614f83565b60009182526017602052604090912060060155565b34801561053d57600080fd5b5061055161054c366004614fd8565b611661565b6040516102df91906152ea565b34801561056a57600080fd5b5061032861057936600461516d565b61181c565b34801561058a57600080fd5b50610593611837565b6040516102df91906152fd565b3480156105ac57600080fd5b506103286105bb36600461535f565b611b8f565b3480156105cc57600080fd5b506103286105db36600461535f565b611e17565b3480156105ec57600080fd5b506103286105fb366004614f83565b611f5c565b34801561060c57600080fd5b5061032861061b366004614f83565b600091825260156020526040909120600a0155565b34801561063c57600080fd5b5061032861064b366004615425565b611fa3565b34801561065c57600080fd5b5061067061066b36600461535f565b6120e8565b6040516102df91906154f5565b34801561068957600080fd5b5061036c610698366004614fd8565b61228f565b3480156106a957600080fd5b506106b26122ef565b6040516102df9190615580565b3480156106cb57600080fd5b506103c46106da36600461535f565b612423565b3480156106eb57600080fd5b506106ff6106fa366004614fd8565b6124a9565b6040516102df9190615606565b34801561071857600080fd5b5061072c610727366004614fd8565b61261e565b6040516102df9190615652565b34801561074557600080fd5b506103286107543660046156a7565b6128e7565b34801561076557600080fd5b506102d36007546001600160a01b0316331490565b34801561078657600080fd5b5061033f6129fa565b34801561079b57600080fd5b506103286107aa366004615727565b612a09565b3480156107bb57600080fd5b506107cf6107ca366004614fd8565b612b84565b6040516102df9190615826565b3480156107e857600080fd5b506107cf6107f736600461535f565b612e4b565b34801561080857600080fd5b50610328610817366004615839565b613055565b34801561082857600080fd5b50610831613064565b6040516102df9190615875565b34801561084a57600080fd5b506103286108593660046158ca565b61337f565b34801561086a57600080fd5b506102d3610879366004615945565b6133b7565b34801561088a57600080fd5b50610831613410565b34801561089f57600080fd5b506106706108ae366004614fd8565b61372b565b3480156108bf57600080fd5b5061033f6108ce366004614fd8565b61389c565b6103286108e1366004614fd8565b6139ac565b3480156108f257600080fd5b50610593613c68565b34801561090757600080fd5b5061059361091636600461535f565b613fba565b34801561092757600080fd5b506106ff610936366004614fd8565b6143aa565b34801561094757600080fd5b506102d36109563660046159a8565b6001600160a01b03918216600090815260056020908152604080832093909416825291909152205460ff1690565b600082815260176020526040812060048101546005909101546109a89084906159f1565b116109b5575060016109b9565b5060005b92915050565b60006001600160e01b031982166380ac58cd60e01b14806109f057506001600160e01b03198216635b5e139f60e01b145b806109b957506301ffc9a760e01b6001600160e01b03198316146109b9565b600081815260146020526040812060060154810b9003610a46576000818152601460205260409020600601805460ff191660021790555b50565b606060008054610a5890615a04565b80601f0160208091040260200160405190810160405280929190818152602001828054610a8490615a04565b8015610ad15780601f10610aa657610100808354040283529160200191610ad1565b820191906000526020600020905b815481529060010190602001808311610ab457829003601f168201915b5050505050905090565b6000610ae6826144ff565b506000908152600460205260409020546001600160a01b031690565b6000610b0d8261228f565b9050806001600160a01b0316836001600160a01b031603610b7f5760405162461bcd60e51b815260206004820152602160248201527f4552433732313a20617070726f76616c20746f2063757272656e74206f776e656044820152603960f91b60648201526084015b60405180910390fd5b336001600160a01b0382161480610b9b5750610b9b8133610956565b610c0d5760405162461bcd60e51b815260206004820152603d60248201527f4552433732313a20617070726f76652063616c6c6572206973206e6f7420746f60448201527f6b656e206f776e6572206f7220617070726f76656420666f7220616c6c0000006064820152608401610b76565b610c17838361455e565b505050565b6040805160e0810182528781526020808201888152828401888152606084018881526080850188815260a08601888152600060c088018181526009805483526014909852988120975188559451600180890191909155935160028801559151600387015551600486015551600585015593516006909301805460ff191660ff9094169390931790925580549192918390610cb79084906159f1565b9091555050600954610ccb90600190615a38565b979650505050505050565b6000818152601660209081526040808320600a54845260159092529091208154815560018083015490820155600280820190610d1490840182615a99565b50600381810190610d2790840182615a99565b50600481810190610d3a90840182615a99565b50600581810190610d4d90840182615a99565b50600682810154828201556007808401548184015560088085015481850155600980860154908501805460ff191660ff9092161515919091179055600a948501549385019390935592546000818152601560209081526040808320848155815160e08101835233808252600e8054838701818152928852601987528588205484870190815260608501998a52858b0154608086019081529c86015460a0860190815295909b015460c085019081529088526017909652938620915182546001600160a01b0319166001600160a01b0390911617825551600182810191909155975160028201559451600386015596516004850155955160058401555191909201558254919291610e5e9084906159f1565b925050819055506001600a6000828254610e7891906159f1565b92505081905550601660006001600b54610e929190615a38565b8152602080820192909252604090810160009081208482526016909352208154815560018083015490820155600280820190610ed090840182615a99565b50600381810190610ee390840182615a99565b50600481810190610ef690840182615a99565b50600581810190610f0990840182615a99565b50600682810154908201556007808301549082015560088083015490820155600980830154908201805460ff191660ff9092161515919091179055600a91820154910155600b54601690600090610f6290600190615a38565b8152602081019190915260400160009081208181556001810182905590610f8c6002830182614e4f565b610f9a600383016000614e4f565b610fa8600483016000614e4f565b610fb6600583016000614e4f565b50600060068201819055600782018190556008820181905560098201805460ff19169055600a909101819055600b805460019290610ff5908490615a38565b909155505050565b600081815260146020526040812060060154810b9003610a46576000818152601460205260409020600601805460ff1916600117905550565b33600090815260196020526040808220546001600160a01b038816835290822054611065919087874288610c1c565b90506110718786611635565b6110835761107e81610a0f565b6112bb565b60005b600e548110156111a057336000908152601960209081526040808320548484526017909252909120600201541480156110cf575060008181526017602052604090206003015484145b1561118e5760008181526017602052604090206004015483906110f39088906159f1565b1115611185576000818152601760205260408120600401805488929061111a9084906159f1565b9091555050600081815260176020526040812060050180548892906111409084906159f1565b9091555061115090508887611f5c565b60008481526015602052604081206007018054889290611171908490615a38565b90915550611180905082610ffd565b61118e565b61118e82610a0f565b8061119881615b75565b915050611086565b600e5481036112b957828611156112b0576111bb8887611f5c565b600084815260156020526040812060070180548892906111dc908490615a38565b90915550506040805160e08101825233808252600e8054602080850182815260009485526019825286852054868801908152606087018c8152608088018f815260a089018d81528e8952601586528a89206008015460c08b019081529689526017909552988720975188546001600160a01b0319166001600160a01b03909116178855915160018089019190915590516002880155905160038701559551600486015551600585015551600690930192909255815461129c9084906159f1565b909155506112ab905082610ffd565b6112b9565b6112b982610a0f565b505b50505050505050565b6112ce33826145cc565b6112ea5760405162461bcd60e51b8152600401610b7690615b8e565b610c1783838361464a565b6112fd614e89565b600a54821061133f5760405162461bcd60e51b815260206004820152600e60248201526d4e6f20706c6f742065786973747360901b6044820152606401610b76565b6015600083815260200190815260200160002060405180610160016040529081600082015481526020016001820154815260200160028201805461138290615a04565b80601f01602080910402602001604051908101604052809291908181526020018280546113ae90615a04565b80156113fb5780601f106113d0576101008083540402835291602001916113fb565b820191906000526020600020905b8154815290600101906020018083116113de57829003601f168201915b5050505050815260200160038201805461141490615a04565b80601f016020809104026020016040519081016040528092919081815260200182805461144090615a04565b801561148d5780601f106114625761010080835404028352916020019161148d565b820191906000526020600020905b81548152906001019060200180831161147057829003601f168201915b505050505081526020016004820180546114a690615a04565b80601f01602080910402602001604051908101604052809291908181526020018280546114d290615a04565b801561151f5780601f106114f45761010080835404028352916020019161151f565b820191906000526020600020905b81548152906001019060200180831161150257829003601f168201915b5050505050815260200160058201805461153890615a04565b80601f016020809104026020016040519081016040528092919081815260200182805461156490615a04565b80156115b15780601f10611586576101008083540402835291602001916115b1565b820191906000526020600020905b81548152906001019060200180831161159457829003601f168201915b5050509183525050600682015460208201526007820154604082015260088201546060820152600982015460ff1615156080820152600a9091015460a09091015292915050565b600082815260176020526040812060050180548392906116199084906159f1565b90915550505050565b601660006001600b54610e929190615a38565b6000828152601760205260408120600501548190611654908490615a38565b106109b5575060016109b9565b6116a16040518060e00160405280600081526020016000815260200160008152602001600081526020016000815260200160608152602001606081525090565b601060008381526020019081526020016000206040518060e0016040529081600082015481526020016001820154815260200160028201548152602001600382015481526020016004820154815260200160058201805461170190615a04565b80601f016020809104026020016040519081016040528092919081815260200182805461172d90615a04565b801561177a5780601f1061174f5761010080835404028352916020019161177a565b820191906000526020600020905b81548152906001019060200180831161175d57829003601f168201915b5050505050815260200160068201805461179390615a04565b80601f01602080910402602001604051908101604052809291908181526020018280546117bf90615a04565b801561180c5780601f106117e15761010080835404028352916020019161180c565b820191906000526020600020905b8154815290600101906020018083116117ef57829003601f168201915b5050505050815250509050919050565b610c178383836040518060200160405280600081525061337f565b60606000600b546001600160401b038111156118555761185561537a565b60405190808252806020026020018201604052801561188e57816020015b61187b614e89565b8152602001906001900390816118735790505b50905060005b600b54811015611b89576000601660008381526020019081526020016000209050806040518061016001604052908160008201548152602001600182015481526020016002820180546118e690615a04565b80601f016020809104026020016040519081016040528092919081815260200182805461191290615a04565b801561195f5780601f106119345761010080835404028352916020019161195f565b820191906000526020600020905b81548152906001019060200180831161194257829003601f168201915b5050505050815260200160038201805461197890615a04565b80601f01602080910402602001604051908101604052809291908181526020018280546119a490615a04565b80156119f15780601f106119c6576101008083540402835291602001916119f1565b820191906000526020600020905b8154815290600101906020018083116119d457829003601f168201915b50505050508152602001600482018054611a0a90615a04565b80601f0160208091040260200160405190810160405280929190818152602001828054611a3690615a04565b8015611a835780601f10611a5857610100808354040283529160200191611a83565b820191906000526020600020905b815481529060010190602001808311611a6657829003601f168201915b50505050508152602001600582018054611a9c90615a04565b80601f0160208091040260200160405190810160405280929190818152602001828054611ac890615a04565b8015611b155780601f10611aea57610100808354040283529160200191611b15565b820191906000526020600020905b815481529060010190602001808311611af857829003601f168201915b5050509183525050600682015460208201526007820154604082015260088201546060820152600982015460ff1615156080820152600a9091015460a0909101528351849084908110611b6a57611b6a615bdb565b6020026020010181905250508080611b8190615b75565b915050611894565b50919050565b6001600160a01b03808216600090815260196020908152604080832054835260138252808320600c54845260129092529091208154815560018083015490820180546001600160a01b031916919094161790925590600280820190611bf690840182615a99565b50600381810190611c0990840182615a99565b50600481810190611c1c90840182615a99565b50600581810190611c2f90840182615a99565b5050600c54600081815260126020526040812091909155600d5460139250611c5990600190615a38565b8152602080820192909252604090810160009081206001600160a01b0380861683526019855283832054835260139094529190208154815560018083015490820180546001600160a01b031916919094161790925590600280820190611cc190840182615a99565b50600381810190611cd490840182615a99565b50600481810190611ce790840182615a99565b50600581810190611cfa90840182615a99565b5050506001600160a01b0381166000908152601960208190526040822054600d549092906013908290611d2f90600190615a38565b8152602080820192909252604090810160009081206001908101546001600160a01b03908116865285850196909652938201812095909555600c805494871686526019909252842083905590929091611d899084906159f1565b92505081905550601360006001600d54611da39190615a38565b8152602081019190915260400160009081208181556001810180546001600160a01b031916905590611dd86002830182614e4f565b611de6600383016000614e4f565b611df4600483016000614e4f565b611e02600583016000614e4f565b50506001600d6000828254610ff59190615a38565b601360006001600d54611e2a9190615a38565b8152602080820192909252604090810160009081206001600160a01b0380861683526019855283832054835260139094529190208154815560018083015490820180546001600160a01b031916919094161790925590600280820190611e9290840182615a99565b50600381810190611ea590840182615a99565b50600481810190611eb890840182615a99565b50600581810190611ecb90840182615a99565b5050506001600160a01b0381166000908152601960208190526040822054600d549092906013908290611f0090600190615a38565b815260200190815260200160002060010160009054906101000a90046001600160a01b03166001600160a01b03166001600160a01b0316815260200190815260200160002081905550601360006001600d54611da39190615a38565b60008281526017602052604081206005018054839290611f7d908490615a38565b909155505060008281526017602052604081206004018054839290611619908490615a38565b6040805161016081018252600b5480825233600090815260196020908152848220548185019081528486018e8152606086018e9052608086018d905260a086018c905260c086018b905260e086018a9052610100860189905261012086018490526101408601889052938352601690915293902082518155925160018401555190919060028201906120359082615bf1565b506060820151600382019061204a9082615bf1565b506080820151600482019061205f9082615bf1565b5060a082015160058201906120749082615bf1565b5060c0820151600682015560e08201516007820155610100820151600882015561012082015160098201805460ff191691151591909117905561014090910151600a90910155600b8054600191906000906120d09084906159f1565b9091555050600b546112b9906103ed90600190615a38565b60606000805b600e54811015612148576001600160a01b03841660009081526019602090815260408083205484845260179092529091206002015403612136576121336001836159f1565b91505b8061214081615b75565b9150506120ee565b506000816001600160401b038111156121635761216361537a565b60405190808252806020026020018201604052801561219c57816020015b612189614ee5565b8152602001906001900390816121815790505b5090506000915060005b600e54811015612287576001600160a01b0385166000908152601960209081526040808320548484526017909252909120600201540361227557600081815260176020908152604091829020825160e08101845281546001600160a01b031681526001820154928101929092526002810154928201929092526003820154606082015260048201546080820152600582015460a0820152600682015460c0820152835184908690811061225b5761225b615bdb565b60209081029190910101526122716001856159f1565b9350505b8061227f81615b75565b9150506121a6565b509392505050565b6000818152600260205260408120546001600160a01b0316806109b95760405162461bcd60e51b8152602060048201526018602482015277115490cdcc8c4e881a5b9d985b1a59081d1bdad95b88125160421b6044820152606401610b76565b606060006009546001600160401b0381111561230d5761230d61537a565b60405190808252806020026020018201604052801561238057816020015b61236d6040518060e001604052806000815260200160008152602001600081526020016000815260200160008152602001600081526020016000800b81525090565b81526020019060019003908161232b5790505b50905060005b600a54811015611b89576000818152601460209081526040808320815160e081018352815481526001820154938101939093526002810154918301919091526003810154606083015260048101546080830152600581015460a0830152600681015490920b60c0820152835184908490811061240457612404615bdb565b602002602001018190525050808061241b90615b75565b915050612386565b60006001600160a01b03821661248d5760405162461bcd60e51b815260206004820152602960248201527f4552433732313a2061646472657373207a65726f206973206e6f7420612076616044820152683634b21037bbb732b960b91b6064820152608401610b76565b506001600160a01b031660009081526003602052604090205490565b6060600060015b600f5481116124ff57600081815260116020908152604080832054835260109091529020600101548490036124ed576124ea6001836159f1565b91505b806124f781615b75565b9150506124b0565b506000816001600160401b0381111561251a5761251a61537a565b60405190808252806020026020018201604052801561256f57816020015b61255c60405180606001604052806000815260200160008152602001600081525090565b8152602001906001900390816125385790505b5060009250905060015b600f548111612287576000818152601160209081526040808320548352601090915290206001015485900361260c5760008181526011602090815260409182902082516060810184528154815260018201549281019290925260028101549282019290925283518490869081106125f2576125f2615bdb565b60209081029190910101526126086001856159f1565b9350505b8061261681615b75565b915050612579565b606060008061262c60085490565b905060015b8181116126715760008181526010602052604090206001015485900361265f5761265c6001846159f1565b92505b8061266981615b75565b915050612631565b506000826001600160401b0381111561268c5761268c61537a565b6040519080825280602002602001820160405280156126fd57816020015b6126ea6040518060e00160405280600081526020016000815260200160008152602001600081526020016000815260200160608152602001606081525090565b8152602001906001900390816126aa5790505b5060009350905060015b8281116128de576000818152601060205260409020600101548690036128cc576000601060008381526020019081526020016000209050806040518060e0016040529081600082015481526020016001820154815260200160028201548152602001600382015481526020016004820154815260200160058201805461278c90615a04565b80601f01602080910402602001604051908101604052809291908181526020018280546127b890615a04565b80156128055780601f106127da57610100808354040283529160200191612805565b820191906000526020600020905b8154815290600101906020018083116127e857829003601f168201915b5050505050815260200160068201805461281e90615a04565b80601f016020809104026020016040519081016040528092919081815260200182805461284a90615a04565b80156128975780601f1061286c57610100808354040283529160200191612897565b820191906000526020600020905b81548152906001019060200180831161287a57829003601f168201915b5050505050815250508386815181106128b2576128b2615bdb565b60209081029190910101526128c86001866159f1565b9450505b806128d681615b75565b915050612707565b50949350505050565b6128f5600880546001019055565b600061290060085490565b905061290c33826147bb565b6129168183614954565b6040805160e081018252878152336000908152601960209081529083902054908201524291810191909152606081016129528762278d00615ca8565b61295c90426159f1565b81526020808201879052604080830187905260609283018690526000858152601083528190208451815591840151600183015583015160028201559082015160038201556080820151600482015560a082015160058201906129be9082615bf1565b5060c082015160068201906129d39082615bf1565b50505060009586525050601560205250506040909120600901805460ff1916600117905550565b606060018054610a5890615a04565b6040805160c081018252600d548082526001600160a01b0388811660208085019182528486018a8152606086018a90526080860189905260a0860188905260009485526013909152949092208351815591516001830180546001600160a01b0319169190921617905591519091906002820190612a869082615bf1565b5060608201516003820190612a9b9082615bf1565b5060808201516004820190612ab09082615bf1565b5060a08201516005820190612ac59082615bf1565b5050600d5460009081526013602090815260408083206001600160a01b03808b168552601890935292208254815560018084015490820180546001600160a01b0319169190931617909155909150600280820190612b2590840182615a99565b50600381810190612b3890840182615a99565b50600481810190612b4b90840182615a99565b50600581810190612b5e90840182615a99565b509050506001600d6000828254612b7591906159f1565b9091555061044d905085611b8f565b612b8c614f2b565b60005b600c548110156102ae57600081815260126020526040902054839003612e3957600081815260126020908152604091829020825160c0810184528154815260018201546001600160a01b0316928101929092526002810180549293919291840191612bf990615a04565b80601f0160208091040260200160405190810160405280929190818152602001828054612c2590615a04565b8015612c725780601f10612c4757610100808354040283529160200191612c72565b820191906000526020600020905b815481529060010190602001808311612c5557829003601f168201915b50505050508152602001600382018054612c8b90615a04565b80601f0160208091040260200160405190810160405280929190818152602001828054612cb790615a04565b8015612d045780601f10612cd957610100808354040283529160200191612d04565b820191906000526020600020905b815481529060010190602001808311612ce757829003601f168201915b50505050508152602001600482018054612d1d90615a04565b80601f0160208091040260200160405190810160405280929190818152602001828054612d4990615a04565b8015612d965780601f10612d6b57610100808354040283529160200191612d96565b820191906000526020600020905b815481529060010190602001808311612d7957829003601f168201915b50505050508152602001600582018054612daf90615a04565b80601f0160208091040260200160405190810160405280929190818152602001828054612ddb90615a04565b8015612e285780601f10612dfd57610100808354040283529160200191612e28565b820191906000526020600020905b815481529060010190602001808311612e0b57829003601f168201915b505050505081525050915050919050565b80612e4381615b75565b915050612b8f565b612e53614f2b565b6001600160a01b03808316600090815260186020908152604091829020825160c081018452815481526001820154909416918401919091526002810180549192840191612e9f90615a04565b80601f0160208091040260200160405190810160405280929190818152602001828054612ecb90615a04565b8015612f185780601f10612eed57610100808354040283529160200191612f18565b820191906000526020600020905b815481529060010190602001808311612efb57829003601f168201915b50505050508152602001600382018054612f3190615a04565b80601f0160208091040260200160405190810160405280929190818152602001828054612f5d90615a04565b8015612faa5780601f10612f7f57610100808354040283529160200191612faa565b820191906000526020600020905b815481529060010190602001808311612f8d57829003601f168201915b50505050508152602001600482018054612fc390615a04565b80601f0160208091040260200160405190810160405280929190818152602001828054612fef90615a04565b801561303c5780601f106130115761010080835404028352916020019161303c565b820191906000526020600020905b81548152906001019060200180831161301f57829003601f168201915b5050505050815260200160058201805461179390615a04565b6130603383836149e7565b5050565b60606000600d546001600160401b038111156130825761308261537a565b6040519080825280602002602001820160405280156130bb57816020015b6130a8614f2b565b8152602001906001900390816130a05790505b50905060005b600d54811015611b8957600081815260136020908152604091829020825160c0810184528154815260018201546001600160a01b03169281019290925260028101805491938492908401919061311690615a04565b80601f016020809104026020016040519081016040528092919081815260200182805461314290615a04565b801561318f5780601f106131645761010080835404028352916020019161318f565b820191906000526020600020905b81548152906001019060200180831161317257829003601f168201915b505050505081526020016003820180546131a890615a04565b80601f01602080910402602001604051908101604052809291908181526020018280546131d490615a04565b80156132215780601f106131f657610100808354040283529160200191613221565b820191906000526020600020905b81548152906001019060200180831161320457829003601f168201915b5050505050815260200160048201805461323a90615a04565b80601f016020809104026020016040519081016040528092919081815260200182805461326690615a04565b80156132b35780601f10613288576101008083540402835291602001916132b3565b820191906000526020600020905b81548152906001019060200180831161329657829003601f168201915b505050505081526020016005820180546132cc90615a04565b80601f01602080910402602001604051908101604052809291908181526020018280546132f890615a04565b80156133455780601f1061331a57610100808354040283529160200191613345565b820191906000526020600020905b81548152906001019060200180831161332857829003601f168201915b50505050508152505083838151811061336057613360615bdb565b602002602001018190525050808061337790615b75565b9150506130c1565b61338933836145cc565b6133a55760405162461bcd60e51b8152600401610b7690615b8e565b6133b184848484614ab5565b50505050565b6000816040516020016133ca9190615cbf565b60405160208183030381529060405280519060200120836040516020016133f19190615cbf565b6040516020818303038152906040528051906020012014905092915050565b60606000600c546001600160401b0381111561342e5761342e61537a565b60405190808252806020026020018201604052801561346757816020015b613454614f2b565b81526020019060019003908161344c5790505b50905060005b600c54811015611b8957600081815260126020908152604091829020825160c0810184528154815260018201546001600160a01b0316928101929092526002810180549193849290840191906134c290615a04565b80601f01602080910402602001604051908101604052809291908181526020018280546134ee90615a04565b801561353b5780601f106135105761010080835404028352916020019161353b565b820191906000526020600020905b81548152906001019060200180831161351e57829003601f168201915b5050505050815260200160038201805461355490615a04565b80601f016020809104026020016040519081016040528092919081815260200182805461358090615a04565b80156135cd5780601f106135a2576101008083540402835291602001916135cd565b820191906000526020600020905b8154815290600101906020018083116135b057829003601f168201915b505050505081526020016004820180546135e690615a04565b80601f016020809104026020016040519081016040528092919081815260200182805461361290615a04565b801561365f5780601f106136345761010080835404028352916020019161365f565b820191906000526020600020905b81548152906001019060200180831161364257829003601f168201915b5050505050815260200160058201805461367890615a04565b80601f01602080910402602001604051908101604052809291908181526020018280546136a490615a04565b80156136f15780601f106136c6576101008083540402835291602001916136f1565b820191906000526020600020905b8154815290600101906020018083116136d457829003601f168201915b50505050508152505083838151811061370c5761370c615bdb565b602002602001018190525050808061372390615b75565b91505061346d565b60606000805b600e54811015613774576000818152601760205260409020600301548490036137625761375f6001836159f1565b91505b8061376c81615b75565b915050613731565b506000816001600160401b0381111561378f5761378f61537a565b6040519080825280602002602001820160405280156137c857816020015b6137b5614ee5565b8152602001906001900390816137ad5790505b5090506000915060005b600e548110156122875760008181526017602052604090206003015485900361388a57600081815260176020908152604091829020825160e08101845281546001600160a01b031681526001820154928101929092526002810154928201929092526003820154606082015260048201546080820152600582015460a0820152600682015460c0820152835184908690811061387057613870615bdb565b60209081029190910101526138866001856159f1565b9350505b8061389481615b75565b9150506137d2565b60606138a7826144ff565b600082815260066020526040812080546138c090615a04565b80601f01602080910402602001604051908101604052809291908181526020018280546138ec90615a04565b80156139395780601f1061390e57610100808354040283529160200191613939565b820191906000526020600020905b81548152906001019060200180831161391c57829003601f168201915b50505050509050600061395760408051602081019091526000815290565b90508051600003613969575092915050565b81511561399b578082604051602001613983929190615cdb565b60405160208183030381529060405292505050919050565b6139a484614ae8565b949350505050565b600081815260106020526040902060040154341015613a1c5760405162461bcd60e51b815260206004820152602660248201527f506c65617365206769766520746865206d696e696d756d20616d6f756e74206e60448201526565656465642160d01b6064820152608401610b76565b60006001600f54613a2d9190615a38565b90505b60008181526011602052604090205482148015613a75575060008181526011602090815260408083205483526010825280832060010154338452601990925290912054145b613a8b5780613a8381615d0a565b915050613a30565b600081815260116020526040902060020154601e90613aaa9042615a38565b1015613ab557600080fd5b5060005b600e54811015613bff5760008281526010602090815260408083205484845260179092529091206003015403613bed576000818152601760208181526040808420600381015485526015835290842060060154938590529190526004015430916108fc913491613b2891615d21565b613b329190615ca8565b6040518115909202916000818181858888f19350505050158015613b5a573d6000803e3d6000fd5b50600081815260176020818152604080842060028101548552601283528185206001015460038201548652601584529185206006015494869052929091526004909101546001600160a01b03909116916108fc913491613bb991615d21565b613bc39190615ca8565b6040518115909202916000818181858888f19350505050158015613beb573d6000803e3d6000fd5b505b80613bf781615b75565b915050613ab9565b60405180606001604052808381526020013481526020014281525060116000600f6000815480929190613c3190615b75565b9190505581526020019081526020016000206000820151816000015560208201518160010155604082015181600201559050505050565b60606000600a546001600160401b03811115613c8657613c8661537a565b604051908082528060200260200182016040528015613cbf57816020015b613cac614e89565b815260200190600190039081613ca45790505b50905060005b600a54811015611b8957600060156000838152602001908152602001600020905080604051806101600160405290816000820154815260200160018201548152602001600282018054613d1790615a04565b80601f0160208091040260200160405190810160405280929190818152602001828054613d4390615a04565b8015613d905780601f10613d6557610100808354040283529160200191613d90565b820191906000526020600020905b815481529060010190602001808311613d7357829003601f168201915b50505050508152602001600382018054613da990615a04565b80601f0160208091040260200160405190810160405280929190818152602001828054613dd590615a04565b8015613e225780601f10613df757610100808354040283529160200191613e22565b820191906000526020600020905b815481529060010190602001808311613e0557829003601f168201915b50505050508152602001600482018054613e3b90615a04565b80601f0160208091040260200160405190810160405280929190818152602001828054613e6790615a04565b8015613eb45780601f10613e8957610100808354040283529160200191613eb4565b820191906000526020600020905b815481529060010190602001808311613e9757829003601f168201915b50505050508152602001600582018054613ecd90615a04565b80601f0160208091040260200160405190810160405280929190818152602001828054613ef990615a04565b8015613f465780601f10613f1b57610100808354040283529160200191613f46565b820191906000526020600020905b815481529060010190602001808311613f2957829003601f168201915b5050509183525050600682015460208201526007820154604082015260088201546060820152600982015460ff1615156080820152600a9091015460a0909101528351849084908110613f9b57613f9b615bdb565b6020026020010181905250508080613fb290615b75565b915050613cc5565b60606000805b600a5481101561401a576001600160a01b03841660009081526019602090815260408083205484845260159092529091206001015403614008576140056001836159f1565b91505b8061401281615b75565b915050613fc0565b506000816001600160401b038111156140355761403561537a565b60405190808252806020026020018201604052801561406e57816020015b61405b614e89565b8152602001906001900390816140535790505b5090506000915060005b600a54811015612287576001600160a01b03851660009081526019602090815260408083205484845260159092529091206001015403614398576000601560008381526020019081526020016000209050806040518061016001604052908160008201548152602001600182015481526020016002820180546140fa90615a04565b80601f016020809104026020016040519081016040528092919081815260200182805461412690615a04565b80156141735780601f1061414857610100808354040283529160200191614173565b820191906000526020600020905b81548152906001019060200180831161415657829003601f168201915b5050505050815260200160038201805461418c90615a04565b80601f01602080910402602001604051908101604052809291908181526020018280546141b890615a04565b80156142055780601f106141da57610100808354040283529160200191614205565b820191906000526020600020905b8154815290600101906020018083116141e857829003601f168201915b5050505050815260200160048201805461421e90615a04565b80601f016020809104026020016040519081016040528092919081815260200182805461424a90615a04565b80156142975780601f1061426c57610100808354040283529160200191614297565b820191906000526020600020905b81548152906001019060200180831161427a57829003601f168201915b505050505081526020016005820180546142b090615a04565b80601f01602080910402602001604051908101604052809291908181526020018280546142dc90615a04565b80156143295780601f106142fe57610100808354040283529160200191614329565b820191906000526020600020905b81548152906001019060200180831161430c57829003601f168201915b5050509183525050600682015460208201526007820154604082015260088201546060820152600982015460ff1615156080820152600a9091015460a090910152835184908690811061437e5761437e615bdb565b60209081029190910101526143946001856159f1565b9350505b806143a281615b75565b915050614078565b6060600060015b600f5481116143f0576000818152601160205260409020548490036143de576143db6001836159f1565b91505b806143e881615b75565b9150506143b1565b506000816001600160401b0381111561440b5761440b61537a565b60405190808252806020026020018201604052801561446057816020015b61444d60405180606001604052806000815260200160008152602001600081525090565b8152602001906001900390816144295790505b5060009250905060015b600f548111612287576000818152601160205260409020548590036144ed5760008181526011602090815260409182902082516060810184528154815260018201549281019290925260028101549282019290925283518490869081106144d3576144d3615bdb565b60209081029190910101526144e96001856159f1565b9350505b806144f781615b75565b91505061446a565b6000818152600260205260409020546001600160a01b0316610a465760405162461bcd60e51b8152602060048201526018602482015277115490cdcc8c4e881a5b9d985b1a59081d1bdad95b88125160421b6044820152606401610b76565b600081815260046020526040902080546001600160a01b0319166001600160a01b03841690811790915581906145938261228f565b6001600160a01b03167f8c5be1e5ebec7d5bd14f71427d1e84f3dd0314c0f7b2291e5b200ac8c7c3b92560405160405180910390a45050565b6000806145d88361228f565b9050806001600160a01b0316846001600160a01b0316148061461f57506001600160a01b0380821660009081526005602090815260408083209388168352929052205460ff165b806139a45750836001600160a01b031661463884610adb565b6001600160a01b031614949350505050565b826001600160a01b031661465d8261228f565b6001600160a01b0316146146835760405162461bcd60e51b8152600401610b7690615d43565b6001600160a01b0382166146e55760405162461bcd60e51b8152602060048201526024808201527f4552433732313a207472616e7366657220746f20746865207a65726f206164646044820152637265737360e01b6064820152608401610b76565b6146f28383836001614b5c565b826001600160a01b03166147058261228f565b6001600160a01b03161461472b5760405162461bcd60e51b8152600401610b7690615d43565b600081815260046020908152604080832080546001600160a01b03199081169091556001600160a01b0387811680865260038552838620805460001901905590871680865283862080546001019055868652600290945282852080549092168417909155905184937fddf252ad1be2c89b69c2b068fc378daa952ba7f163c4a11628f55a4df523b3ef91a4505050565b6001600160a01b0382166148115760405162461bcd60e51b815260206004820181905260248201527f4552433732313a206d696e7420746f20746865207a65726f20616464726573736044820152606401610b76565b6000818152600260205260409020546001600160a01b0316156148765760405162461bcd60e51b815260206004820152601c60248201527f4552433732313a20746f6b656e20616c7265616479206d696e746564000000006044820152606401610b76565b614884600083836001614b5c565b6000818152600260205260409020546001600160a01b0316156148e95760405162461bcd60e51b815260206004820152601c60248201527f4552433732313a20746f6b656e20616c7265616479206d696e746564000000006044820152606401610b76565b6001600160a01b038216600081815260036020908152604080832080546001019055848352600290915280822080546001600160a01b0319168417905551839291907fddf252ad1be2c89b69c2b068fc378daa952ba7f163c4a11628f55a4df523b3ef908290a45050565b6000828152600260205260409020546001600160a01b03166149cf5760405162461bcd60e51b815260206004820152602e60248201527f45524337323155524953746f726167653a2055524920736574206f66206e6f6e60448201526d32bc34b9ba32b73a103a37b5b2b760911b6064820152608401610b76565b6000828152600660205260409020610c178282615bf1565b816001600160a01b0316836001600160a01b031603614a485760405162461bcd60e51b815260206004820152601960248201527f4552433732313a20617070726f766520746f2063616c6c6572000000000000006044820152606401610b76565b6001600160a01b03838116600081815260056020908152604080832094871680845294825291829020805460ff191686151590811790915591519182527f17307eab39ab6107e8899845ad3d59bd9653f200f220920489ca2b5937696c31910160405180910390a3505050565b614ac084848461464a565b614acc84848484614be4565b6133b15760405162461bcd60e51b8152600401610b7690615d88565b6060614af3826144ff565b6000614b0a60408051602081019091526000815290565b90506000815111614b2a5760405180602001604052806000815250614b55565b80614b3484614ce5565b604051602001614b45929190615cdb565b6040516020818303038152906040525b9392505050565b60018111156133b1576001600160a01b03841615614ba2576001600160a01b03841660009081526003602052604081208054839290614b9c908490615a38565b90915550505b6001600160a01b038316156133b1576001600160a01b03831660009081526003602052604081208054839290614bd99084906159f1565b909155505050505050565b60006001600160a01b0384163b15614cda57604051630a85bd0160e11b81526001600160a01b0385169063150b7a0290614c28903390899088908890600401615dda565b6020604051808303816000875af1925050508015614c63575060408051601f3d908101601f19168201909252614c6091810190615e17565b60015b614cc0573d808015614c91576040519150601f19603f3d011682016040523d82523d6000602084013e614c96565b606091505b508051600003614cb85760405162461bcd60e51b8152600401610b7690615d88565b805181602001fd5b6001600160e01b031916630a85bd0160e11b1490506139a4565b506001949350505050565b60606000614cf283614d77565b60010190506000816001600160401b03811115614d1157614d1161537a565b6040519080825280601f01601f191660200182016040528015614d3b576020820181803683370190505b5090508181016020015b600019016f181899199a1a9b1b9c1cb0b131b232b360811b600a86061a8153600a8504945084614d4557509392505050565b60008072184f03e93ff9f4daa797ed6e38ed64bf6a1f0160401b8310614db65772184f03e93ff9f4daa797ed6e38ed64bf6a1f0160401b830492506040015b6d04ee2d6d415b85acef81000000008310614de2576d04ee2d6d415b85acef8100000000830492506020015b662386f26fc100008310614e0057662386f26fc10000830492506010015b6305f5e1008310614e18576305f5e100830492506008015b6127108310614e2c57612710830492506004015b60648310614e3e576064830492506002015b600a83106109b95760010192915050565b508054614e5b90615a04565b6000825580601f10614e6b575050565b601f016020900490600052602060002090810190610a469190614f6a565b604051806101600160405280600081526020016000815260200160608152602001606081526020016060815260200160608152602001600081526020016000815260200160008152602001600015158152602001600081525090565b6040518060e0016040528060006001600160a01b031681526020016000815260200160008152602001600081526020016000815260200160008152602001600081525090565b6040518060c001604052806000815260200160006001600160a01b03168152602001606081526020016060815260200160608152602001606081525090565b5b80821115614f7f5760008155600101614f6b565b5090565b60008060408385031215614f9657600080fd5b50508035926020909101359150565b6001600160e01b031981168114610a4657600080fd5b600060208284031215614fcd57600080fd5b8135614b5581614fa5565b600060208284031215614fea57600080fd5b5035919050565b60005b8381101561500c578181015183820152602001614ff4565b50506000910152565b6000815180845261502d816020860160208601614ff1565b601f01601f19169290920160200192915050565b602081526000614b556020830184615015565b80356001600160a01b038116811461506b57600080fd5b919050565b6000806040838503121561508357600080fd5b61508c83615054565b946020939093013593505050565b60008060008060008060c087890312156150b357600080fd5b505084359660208601359650604086013595606081013595506080810135945060a0013592509050565b60008060008060008060c087890312156150f657600080fd5b8635955061510660208801615054565b95989597505050506040840135936060810135936080820135935060a0909101359150565b600080600080600060a0868803121561514357600080fd5b61514c86615054565b97602087013597506040870135966060810135965060800135945092505050565b60008060006060848603121561518257600080fd5b61518b84615054565b925061519960208501615054565b9150604084013590509250925092565b6000610160825184526020830151602085015260408301518160408601526151d382860182615015565b915050606083015184820360608601526151ed8282615015565b915050608083015184820360808601526152078282615015565b91505060a083015184820360a08601526152218282615015565b91505060c083015160c085015260e083015160e0850152610100808401518186015250610120808401516152588287018215159052565b5050610140928301519390920192909252919050565b602081526000614b5560208301846151a9565b8051825260208101516020830152604081015160408301526060810151606083015260808101516080830152600060a082015160e060a08501526152c860e0850182615015565b905060c083015184820360c08601526152e18282615015565b95945050505050565b602081526000614b556020830184615281565b6000602080830181845280855180835260408601915060408160051b870101925083870160005b8281101561535257603f198886030184526153408583516151a9565b94509285019290850190600101615324565b5092979650505050505050565b60006020828403121561537157600080fd5b614b5582615054565b634e487b7160e01b600052604160045260246000fd5b60006001600160401b03808411156153aa576153aa61537a565b604051601f8501601f19908116603f011681019082821181831017156153d2576153d261537a565b816040528093508581528686860111156153eb57600080fd5b858560208301376000602087830101525050509392505050565b600082601f83011261541657600080fd5b614b5583833560208501615390565b600080600080600080600080610100898b03121561544257600080fd5b88356001600160401b038082111561545957600080fd5b6154658c838d01615405565b995060208b013591508082111561547b57600080fd5b6154878c838d01615405565b985060408b013591508082111561549d57600080fd5b6154a98c838d01615405565b975060608b01359150808211156154bf57600080fd5b506154cc8b828c01615405565b989b979a50959860808101359760a0820135975060c0820135965060e090910135945092505050565b602080825282518282018190526000919060409081850190868401855b8281101561557357815180516001600160a01b0316855286810151878601528581015186860152606080820151908601526080808201519086015260a0808201519086015260c0908101519085015260e09093019290850190600101615512565b5091979650505050505050565b60208082528251828201819052600091906040908185019086840185805b838110156155f85782518051865287810151888701528681015187870152606080820151908701526080808201519087015260a0808201519087015260c090810151830b9086015260e0909401939186019160010161559e565b509298975050505050505050565b602080825282518282018190526000919060409081850190868401855b828110156155735781518051855286810151878601528501518585015260609093019290850190600101615623565b6000602080830181845280855180835260408601915060408160051b870101925083870160005b8281101561535257603f19888603018452615695858351615281565b94509285019290850190600101615679565b600080600080600060a086880312156156bf57600080fd5b85359450602086013593506040860135925060608601356001600160401b03808211156156eb57600080fd5b6156f789838a01615405565b9350608088013591508082111561570d57600080fd5b5061571a88828901615405565b9150509295509295909350565b600080600080600060a0868803121561573f57600080fd5b61574886615054565b945060208601356001600160401b038082111561576457600080fd5b61577089838a01615405565b9550604088013591508082111561578657600080fd5b61579289838a01615405565b945060608801359150808211156156eb57600080fd5b8051825260018060a01b0360208201511660208301526000604082015160c060408501526157d960c0850182615015565b9050606083015184820360608601526157f28282615015565b9150506080830151848203608086015261580c8282615015565b91505060a083015184820360a08601526152e18282615015565b602081526000614b5560208301846157a8565b6000806040838503121561584c57600080fd5b61585583615054565b91506020830135801515811461586a57600080fd5b809150509250929050565b6000602080830181845280855180835260408601915060408160051b870101925083870160005b8281101561535257603f198886030184526158b88583516157a8565b9450928501929085019060010161589c565b600080600080608085870312156158e057600080fd5b6158e985615054565b93506158f760208601615054565b92506040850135915060608501356001600160401b0381111561591957600080fd5b8501601f8101871361592a57600080fd5b61593987823560208401615390565b91505092959194509250565b6000806040838503121561595857600080fd5b82356001600160401b038082111561596f57600080fd5b61597b86838701615405565b9350602085013591508082111561599157600080fd5b5061599e85828601615405565b9150509250929050565b600080604083850312156159bb57600080fd5b6159c483615054565b91506159d260208401615054565b90509250929050565b634e487b7160e01b600052601160045260246000fd5b808201808211156109b9576109b96159db565b600181811c90821680615a1857607f821691505b602082108103611b8957634e487b7160e01b600052602260045260246000fd5b818103818111156109b9576109b96159db565b601f821115610c1757600081815260208120601f850160051c81016020861015615a725750805b601f850160051c820191505b81811015615a9157828155600101615a7e565b505050505050565b818103615aa4575050565b615aae8254615a04565b6001600160401b03811115615ac557615ac561537a565b615ad981615ad38454615a04565b84615a4b565b6000601f821160018114615b0d5760008315615af55750848201545b600019600385901b1c1916600184901b17845561044d565b600085815260209020601f19841690600086815260209020845b83811015615b475782860154825560019586019590910190602001615b27565b5085831015615b655781850154600019600388901b60f8161c191681555b5050505050600190811b01905550565b600060018201615b8757615b876159db565b5060010190565b6020808252602d908201527f4552433732313a2063616c6c6572206973206e6f7420746f6b656e206f776e6560408201526c1c881bdc88185c1c1c9bdd9959609a1b606082015260800190565b634e487b7160e01b600052603260045260246000fd5b81516001600160401b03811115615c0a57615c0a61537a565b615c1881615ad38454615a04565b602080601f831160018114615c4d5760008415615c355750858301515b600019600386901b1c1916600185901b178555615a91565b600085815260208120601f198616915b82811015615c7c57888601518255948401946001909101908401615c5d565b5085821015615b6557939096015160001960f8600387901b161c19169092555050600190811b01905550565b80820281158282048414176109b9576109b96159db565b60008251615cd1818460208701614ff1565b9190910192915050565b60008351615ced818460208801614ff1565b835190830190615d01818360208801614ff1565b01949350505050565b600081615d1957615d196159db565b506000190190565b600082615d3e57634e487b7160e01b600052601260045260246000fd5b500490565b60208082526025908201527f4552433732313a207472616e736665722066726f6d20696e636f72726563742060408201526437bbb732b960d91b606082015260800190565b60208082526032908201527f4552433732313a207472616e7366657220746f206e6f6e20455243373231526560408201527131b2b4bb32b91034b6b83632b6b2b73a32b960711b606082015260800190565b6001600160a01b0385811682528416602082015260408101839052608060608201819052600090615e0d90830184615015565b9695505050505050565b600060208284031215615e2957600080fd5b8151614b5581614fa556fea264697066735822122089d6a61f19cacbf9dcdd411721fd6db5405a969e2369143dfe1de86a6d53c87b64736f6c63430008110033",
  "linkReferences": {},
  "deployedLinkReferences": {}
}